{"contracts/ZKAccessController.sol":{"ZKAccessController":{"abi":[{"inputs":[{"internalType":"address","name":"_kycRegistry","type":"address"},{"internalType":"address","name":"_verifier","type":"address"}],"stateMutability":"nonpayable","type":"constructor"},{"inputs":[],"name":"InvalidMerkleRoot","type":"error"},{"inputs":[],"name":"InvalidProof","type":"error"},{"inputs":[],"name":"InvalidRecipient","type":"error"},{"inputs":[],"name":"NullifierAlreadyUsed","type":"error"},{"inputs":[],"name":"UntrustedIssuer","type":"error"},{"anonymous":false,"inputs":[{"indexed":true,"internalType":"address","name":"user","type":"address"},{"indexed":false,"internalType":"string","name":"reason","type":"string"},{"indexed":false,"internalType":"uint256","name":"timestamp","type":"uint256"}],"name":"AccessDenied","type":"event"},{"anonymous":false,"inputs":[{"indexed":true,"internalType":"address","name":"user","type":"address"},{"indexed":true,"internalType":"bytes32","name":"nullifierHash","type":"bytes32"},{"indexed":false,"internalType":"uint256","name":"timestamp","type":"uint256"}],"name":"AccessGranted","type":"event"},{"inputs":[{"internalType":"bytes32","name":"_nullifierHash","type":"bytes32"}],"name":"isNullifierSpent","outputs":[{"internalType":"bool","name":"","type":"bool"}],"stateMutability":"view","type":"function"},{"inputs":[{"internalType":"address","name":"_issuer","type":"address"}],"name":"isTrustedIssuer","outputs":[{"internalType":"bool","name":"","type":"bool"}],"stateMutability":"view","type":"function"},{"inputs":[{"internalType":"bytes32","name":"_merkleRoot","type":"bytes32"}],"name":"isValidMerkleRoot","outputs":[{"internalType":"bool","name":"","type":"bool"}],"stateMutability":"view","type":"function"},{"inputs":[],"name":"kycRegistry","outputs":[{"internalType":"contract KYCRegistry","name":"","type":"address"}],"stateMutability":"view","type":"function"},{"inputs":[],"name":"verifier","outputs":[{"internalType":"contract Groth16Verifier","name":"","type":"address"}],"stateMutability":"view","type":"function"},{"inputs":[{"internalType":"uint256[2]","name":"_pA","type":"uint256[2]"},{"internalType":"uint256[2][2]","name":"_pB","type":"uint256[2][2]"},{"internalType":"uint256[2]","name":"_pC","type":"uint256[2]"},{"internalType":"bytes32","name":"_merkleRoot","type":"bytes32"},{"internalType":"bytes32","name":"_nullifierHash","type":"bytes32"},{"internalType":"address","name":"_issuerAddress","type":"address"},{"internalType":"address","name":"_recipient","type":"address"}],"name":"verifyAndGrantAccess","outputs":[],"stateMutability":"nonpayable","type":"function"}],"evm":{"bytecode":{"linkReferences":{},"object":"60c060405234801561001057600080fd5b50604051610a38380380610a3883398101604081905261002f91610062565b6001600160a01b039182166080521660a052610095565b80516001600160a01b038116811461005d57600080fd5b919050565b6000806040838503121561007557600080fd5b61007e83610046565b915061008c60208401610046565b90509250929050565b60805160a0516109486100f060003960008181606c015261053501526000818160b0015281816101490152818161024c015281816103420152818161043d0152818161062c015281816106ea015261074301526109486000f3fe608060405234801561001057600080fd5b50600436106100625760003560e01c80632b7ac3f3146100675780634b155b97146100ab578063d5a4e325146100d2578063e40d4726146100f5578063e9cd3b371461010a578063ef2ed1a41461011d575b600080fd5b61008e7f000000000000000000000000000000000000000000000000000000000000000081565b6040516001600160a01b0390911681526020015b60405180910390f35b61008e7f000000000000000000000000000000000000000000000000000000000000000081565b6100e56100e0366004610774565b610130565b60405190151581526020016100a2565b6101086101033660046107ba565b6101c3565b005b6100e5610118366004610774565b6106d1565b6100e561012b366004610840565b610721565b60405163394a177360e21b8152600481018290526000907f00000000000000000000000000000000000000000000000000000000000000006001600160a01b03169063e5285dcc906024015b602060405180830381865afa158015610199573d6000803e3d6000fd5b505050506040513d601f19601f820116820180604052508101906101bd9190610862565b92915050565b6001600160a01b0381163314610236576040805181815260118183015270125b9d985b1a59081c9958da5c1a595b9d607a1b6060820152426020820152905133916000805160206108f3833981519152919081900360800190a2604051634e46966960e11b815260040160405180910390fd5b60405163394a177360e21b8152600481018490527f00000000000000000000000000000000000000000000000000000000000000006001600160a01b03169063e5285dcc90602401602060405180830381865afa15801561029b573d6000803e3d6000fd5b505050506040513d601f19601f820116820180604052508101906102bf9190610862565b1561032c576040805181815260168183015275139d5b1b1a599a595c88185b1c9958591e481d5cd95960521b6060820152426020820152905133916000805160206108f3833981519152919081900360800190a2604051636569570160e11b815260040160405180910390fd5b604051636d9833e360e01b8152600481018590527f00000000000000000000000000000000000000000000000000000000000000006001600160a01b031690636d9833e390602401602060405180830381865afa158015610391573d6000803e3d6000fd5b505050506040513d601f19601f820116820180604052508101906103b59190610862565b61041e576040805181815260138183015272125b9d985b1a59081b595c9adb19481c9bdbdd606a1b6060820152426020820152905133916000805160206108f3833981519152919081900360800190a2604051639dd854d360e01b815260040160405180910390fd5b6040516392c54daf60e01b81526001600160a01b0383811660048301527f000000000000000000000000000000000000000000000000000000000000000016906392c54daf90602401602060405180830381865afa158015610484573d6000803e3d6000fd5b505050506040513d601f19601f820116820180604052508101906104a89190610862565b61050e57604080518181526010818301526f2ab73a393ab9ba32b21034b9b9bab2b960811b6060820152426020820152905133916000805160206108f3833981519152919081900360800190a2604051633eb89d5f60e11b815260040160405180910390fd5b604080516020810182526001815290516343753b4d60e01b81526000916001600160a01b037f000000000000000000000000000000000000000000000000000000000000000016916343753b4d9161056f918c918c918c9190600401610884565b602060405180830381865afa15801561058c573d6000803e3d6000fd5b505050506040513d601f19601f820116820180604052508101906105b09190610862565b9050806106165760408051818152600d818301526c24b73b30b634b210383937b7b360991b6060820152426020820152905133916000805160206108f3833981519152919081900360800190a26040516309bde33960e01b815260040160405180910390fd5b604051632c00028760e01b8152600481018590527f00000000000000000000000000000000000000000000000000000000000000006001600160a01b031690632c00028790602401600060405180830381600087803b15801561067857600080fd5b505af115801561068c573d6000803e3d6000fd5b50506040514281528692503391507f740f94aa8a0b62b43ecf22a25c109ef49e58304a81569654657a00b96c2c513e9060200160405180910390a35050505050505050565b604051636d9833e360e01b8152600481018290526000907f00000000000000000000000000000000000000000000000000000000000000006001600160a01b031690636d9833e39060240161017c565b6040516392c54daf60e01b81526001600160a01b0382811660048301526000917f0000000000000000000000000000000000000000000000000000000000000000909116906392c54daf9060240161017c565b60006020828403121561078657600080fd5b5035919050565b80604081018310156101bd57600080fd5b80356001600160a01b03811681146107b557600080fd5b919050565b6000806000806000806000610180888a0312156107d657600080fd5b6107e0898961078d565b965060c08801898111156107f357600080fd5b6040890196506108038a8261078d565b95505061010088013593506101208801359250610823610140890161079e565b9150610832610160890161079e565b905092959891949750929550565b60006020828403121561085257600080fd5b61085b8261079e565b9392505050565b60006020828403121561087457600080fd5b8151801515811461085b57600080fd5b61012081016040808784378083018660005b60028110156108b357838284379183019190830190600101610896565b505050808560c08501375061010082018360005b60018110156108e65781518352602092830192909101906001016108c7565b5050509594505050505056fe62b5c69e0e07df28ae25d1bf8d8b0080cec2828f75211617112aee1f1138cf7ea2646970667358221220f9d3b78bb8617ad96c3e8a63930a0ae1906de1cc1041c7b42701a51d28a3973864736f6c63430008140033","opcodes":"PUSH1 0xC0 PUSH1 0x40 MSTORE CALLVALUE DUP1 ISZERO PUSH2 0x10 JUMPI PUSH1 0x0 DUP1 REVERT JUMPDEST POP PUSH1 0x40 MLOAD PUSH2 0xA38 CODESIZE SUB DUP1 PUSH2 0xA38 DUP4 CODECOPY DUP2 ADD PUSH1 0x40 DUP2 SWAP1 MSTORE PUSH2 0x2F SWAP2 PUSH2 0x62 JUMP JUMPDEST PUSH1 0x1 PUSH1 0x1 PUSH1 0xA0 SHL SUB SWAP2 DUP3 AND PUSH1 0x80 MSTORE AND PUSH1 0xA0 MSTORE PUSH2 0x95 JUMP JUMPDEST DUP1 MLOAD PUSH1 0x1 PUSH1 0x1 PUSH1 0xA0 SHL SUB DUP2 AND DUP2 EQ PUSH2 0x5D JUMPI PUSH1 0x0 DUP1 REVERT JUMPDEST SWAP2 SWAP1 POP JUMP JUMPDEST PUSH1 0x0 DUP1 PUSH1 0x40 DUP4 DUP6 SUB SLT ISZERO PUSH2 0x75 JUMPI PUSH1 0x0 DUP1 REVERT JUMPDEST PUSH2 0x7E DUP4 PUSH2 0x46 JUMP JUMPDEST SWAP2 POP PUSH2 0x8C PUSH1 0x20 DUP5 ADD PUSH2 0x46 JUMP JUMPDEST SWAP1 POP SWAP3 POP SWAP3 SWAP1 POP JUMP JUMPDEST PUSH1 0x80 MLOAD PUSH1 0xA0 MLOAD PUSH2 0x948 PUSH2 0xF0 PUSH1 0x0 CODECOPY PUSH1 0x0 DUP2 DUP2 PUSH1 0x6C ADD MSTORE PUSH2 0x535 ADD MSTORE PUSH1 0x0 DUP2 DUP2 PUSH1 0xB0 ADD MSTORE DUP2 DUP2 PUSH2 0x149 ADD MSTORE DUP2 DUP2 PUSH2 0x24C ADD MSTORE DUP2 DUP2 PUSH2 0x342 ADD MSTORE DUP2 DUP2 PUSH2 0x43D ADD MSTORE DUP2 DUP2 PUSH2 0x62C ADD MSTORE DUP2 DUP2 PUSH2 0x6EA ADD MSTORE PUSH2 0x743 ADD MSTORE PUSH2 0x948 PUSH1 0x0 RETURN INVALID PUSH1 0x80 PUSH1 0x40 MSTORE CALLVALUE DUP1 ISZERO PUSH2 0x10 JUMPI PUSH1 0x0 DUP1 REVERT JUMPDEST POP PUSH1 0x4 CALLDATASIZE LT PUSH2 0x62 JUMPI PUSH1 0x0 CALLDATALOAD PUSH1 0xE0 SHR DUP1 PUSH4 0x2B7AC3F3 EQ PUSH2 0x67 JUMPI DUP1 PUSH4 0x4B155B97 EQ PUSH2 0xAB JUMPI DUP1 PUSH4 0xD5A4E325 EQ PUSH2 0xD2 JUMPI DUP1 PUSH4 0xE40D4726 EQ PUSH2 0xF5 JUMPI DUP1 PUSH4 0xE9CD3B37 EQ PUSH2 0x10A JUMPI DUP1 PUSH4 0xEF2ED1A4 EQ PUSH2 0x11D JUMPI JUMPDEST PUSH1 0x0 DUP1 REVERT JUMPDEST PUSH2 0x8E PUSH32 0x0 DUP2 JUMP JUMPDEST PUSH1 0x40 MLOAD PUSH1 0x1 PUSH1 0x1 PUSH1 0xA0 SHL SUB SWAP1 SWAP2 AND DUP2 MSTORE PUSH1 0x20 ADD JUMPDEST PUSH1 0x40 MLOAD DUP1 SWAP2 SUB SWAP1 RETURN JUMPDEST PUSH2 0x8E PUSH32 0x0 DUP2 JUMP JUMPDEST PUSH2 0xE5 PUSH2 0xE0 CALLDATASIZE PUSH1 0x4 PUSH2 0x774 JUMP JUMPDEST PUSH2 0x130 JUMP JUMPDEST PUSH1 0x40 MLOAD SWAP1 ISZERO ISZERO DUP2 MSTORE PUSH1 0x20 ADD PUSH2 0xA2 JUMP JUMPDEST PUSH2 0x108 PUSH2 0x103 CALLDATASIZE PUSH1 0x4 PUSH2 0x7BA JUMP JUMPDEST PUSH2 0x1C3 JUMP JUMPDEST STOP JUMPDEST PUSH2 0xE5 PUSH2 0x118 CALLDATASIZE PUSH1 0x4 PUSH2 0x774 JUMP JUMPDEST PUSH2 0x6D1 JUMP JUMPDEST PUSH2 0xE5 PUSH2 0x12B CALLDATASIZE PUSH1 0x4 PUSH2 0x840 JUMP JUMPDEST PUSH2 0x721 JUMP JUMPDEST PUSH1 0x40 MLOAD PUSH4 0x394A1773 PUSH1 0xE2 SHL DUP2 MSTORE PUSH1 0x4 DUP2 ADD DUP3 SWAP1 MSTORE PUSH1 0x0 SWAP1 PUSH32 0x0 PUSH1 0x1 PUSH1 0x1 PUSH1 0xA0 SHL SUB AND SWAP1 PUSH4 0xE5285DCC SWAP1 PUSH1 0x24 ADD JUMPDEST PUSH1 0x20 PUSH1 0x40 MLOAD DUP1 DUP4 SUB DUP2 DUP7 GAS STATICCALL ISZERO DUP1 ISZERO PUSH2 0x199 JUMPI RETURNDATASIZE PUSH1 0x0 DUP1 RETURNDATACOPY RETURNDATASIZE PUSH1 0x0 REVERT JUMPDEST POP POP POP POP PUSH1 0x40 MLOAD RETURNDATASIZE PUSH1 0x1F NOT PUSH1 0x1F DUP3 ADD AND DUP3 ADD DUP1 PUSH1 0x40 MSTORE POP DUP2 ADD SWAP1 PUSH2 0x1BD SWAP2 SWAP1 PUSH2 0x862 JUMP JUMPDEST SWAP3 SWAP2 POP POP JUMP JUMPDEST PUSH1 0x1 PUSH1 0x1 PUSH1 0xA0 SHL SUB DUP2 AND CALLER EQ PUSH2 0x236 JUMPI PUSH1 0x40 DUP1 MLOAD DUP2 DUP2 MSTORE PUSH1 0x11 DUP2 DUP4 ADD MSTORE PUSH17 0x125B9D985B1A59081C9958DA5C1A595B9D PUSH1 0x7A SHL PUSH1 0x60 DUP3 ADD MSTORE TIMESTAMP PUSH1 0x20 DUP3 ADD MSTORE SWAP1 MLOAD CALLER SWAP2 PUSH1 0x0 DUP1 MLOAD PUSH1 0x20 PUSH2 0x8F3 DUP4 CODECOPY DUP2 MLOAD SWAP2 MSTORE SWAP2 SWAP1 DUP2 SWAP1 SUB PUSH1 0x80 ADD SWAP1 LOG2 PUSH1 0x40 MLOAD PUSH4 0x4E469669 PUSH1 0xE1 SHL DUP2 MSTORE PUSH1 0x4 ADD PUSH1 0x40 MLOAD DUP1 SWAP2 SUB SWAP1 REVERT JUMPDEST PUSH1 0x40 MLOAD PUSH4 0x394A1773 PUSH1 0xE2 SHL DUP2 MSTORE PUSH1 0x4 DUP2 ADD DUP5 SWAP1 MSTORE PUSH32 0x0 PUSH1 0x1 PUSH1 0x1 PUSH1 0xA0 SHL SUB AND SWAP1 PUSH4 0xE5285DCC SWAP1 PUSH1 0x24 ADD PUSH1 0x20 PUSH1 0x40 MLOAD DUP1 DUP4 SUB DUP2 DUP7 GAS STATICCALL ISZERO DUP1 ISZERO PUSH2 0x29B JUMPI RETURNDATASIZE PUSH1 0x0 DUP1 RETURNDATACOPY RETURNDATASIZE PUSH1 0x0 REVERT JUMPDEST POP POP POP POP PUSH1 0x40 MLOAD RETURNDATASIZE PUSH1 0x1F NOT PUSH1 0x1F DUP3 ADD AND DUP3 ADD DUP1 PUSH1 0x40 MSTORE POP DUP2 ADD SWAP1 PUSH2 0x2BF SWAP2 SWAP1 PUSH2 0x862 JUMP JUMPDEST ISZERO PUSH2 0x32C JUMPI PUSH1 0x40 DUP1 MLOAD DUP2 DUP2 MSTORE PUSH1 0x16 DUP2 DUP4 ADD MSTORE PUSH22 0x139D5B1B1A599A595C88185B1C9958591E481D5CD959 PUSH1 0x52 SHL PUSH1 0x60 DUP3 ADD MSTORE TIMESTAMP PUSH1 0x20 DUP3 ADD MSTORE SWAP1 MLOAD CALLER SWAP2 PUSH1 0x0 DUP1 MLOAD PUSH1 0x20 PUSH2 0x8F3 DUP4 CODECOPY DUP2 MLOAD SWAP2 MSTORE SWAP2 SWAP1 DUP2 SWAP1 SUB PUSH1 0x80 ADD SWAP1 LOG2 PUSH1 0x40 MLOAD PUSH4 0x65695701 PUSH1 0xE1 SHL DUP2 MSTORE PUSH1 0x4 ADD PUSH1 0x40 MLOAD DUP1 SWAP2 SUB SWAP1 REVERT JUMPDEST PUSH1 0x40 MLOAD PUSH4 0x6D9833E3 PUSH1 0xE0 SHL DUP2 MSTORE PUSH1 0x4 DUP2 ADD DUP6 SWAP1 MSTORE PUSH32 0x0 PUSH1 0x1 PUSH1 0x1 PUSH1 0xA0 SHL SUB AND SWAP1 PUSH4 0x6D9833E3 SWAP1 PUSH1 0x24 ADD PUSH1 0x20 PUSH1 0x40 MLOAD DUP1 DUP4 SUB DUP2 DUP7 GAS STATICCALL ISZERO DUP1 ISZERO PUSH2 0x391 JUMPI RETURNDATASIZE PUSH1 0x0 DUP1 RETURNDATACOPY RETURNDATASIZE PUSH1 0x0 REVERT JUMPDEST POP POP POP POP PUSH1 0x40 MLOAD RETURNDATASIZE PUSH1 0x1F NOT PUSH1 0x1F DUP3 ADD AND DUP3 ADD DUP1 PUSH1 0x40 MSTORE POP DUP2 ADD SWAP1 PUSH2 0x3B5 SWAP2 SWAP1 PUSH2 0x862 JUMP JUMPDEST PUSH2 0x41E JUMPI PUSH1 0x40 DUP1 MLOAD DUP2 DUP2 MSTORE PUSH1 0x13 DUP2 DUP4 ADD MSTORE PUSH19 0x125B9D985B1A59081B595C9ADB19481C9BDBDD PUSH1 0x6A SHL PUSH1 0x60 DUP3 ADD MSTORE TIMESTAMP PUSH1 0x20 DUP3 ADD MSTORE SWAP1 MLOAD CALLER SWAP2 PUSH1 0x0 DUP1 MLOAD PUSH1 0x20 PUSH2 0x8F3 DUP4 CODECOPY DUP2 MLOAD SWAP2 MSTORE SWAP2 SWAP1 DUP2 SWAP1 SUB PUSH1 0x80 ADD SWAP1 LOG2 PUSH1 0x40 MLOAD PUSH4 0x9DD854D3 PUSH1 0xE0 SHL DUP2 MSTORE PUSH1 0x4 ADD PUSH1 0x40 MLOAD DUP1 SWAP2 SUB SWAP1 REVERT JUMPDEST PUSH1 0x40 MLOAD PUSH4 0x92C54DAF PUSH1 0xE0 SHL DUP2 MSTORE PUSH1 0x1 PUSH1 0x1 PUSH1 0xA0 SHL SUB DUP4 DUP2 AND PUSH1 0x4 DUP4 ADD MSTORE PUSH32 0x0 AND SWAP1 PUSH4 0x92C54DAF SWAP1 PUSH1 0x24 ADD PUSH1 0x20 PUSH1 0x40 MLOAD DUP1 DUP4 SUB DUP2 DUP7 GAS STATICCALL ISZERO DUP1 ISZERO PUSH2 0x484 JUMPI RETURNDATASIZE PUSH1 0x0 DUP1 RETURNDATACOPY RETURNDATASIZE PUSH1 0x0 REVERT JUMPDEST POP POP POP POP PUSH1 0x40 MLOAD RETURNDATASIZE PUSH1 0x1F NOT PUSH1 0x1F DUP3 ADD AND DUP3 ADD DUP1 PUSH1 0x40 MSTORE POP DUP2 ADD SWAP1 PUSH2 0x4A8 SWAP2 SWAP1 PUSH2 0x862 JUMP JUMPDEST PUSH2 0x50E JUMPI PUSH1 0x40 DUP1 MLOAD DUP2 DUP2 MSTORE PUSH1 0x10 DUP2 DUP4 ADD MSTORE PUSH16 0x2AB73A393AB9BA32B21034B9B9BAB2B9 PUSH1 0x81 SHL PUSH1 0x60 DUP3 ADD MSTORE TIMESTAMP PUSH1 0x20 DUP3 ADD MSTORE SWAP1 MLOAD CALLER SWAP2 PUSH1 0x0 DUP1 MLOAD PUSH1 0x20 PUSH2 0x8F3 DUP4 CODECOPY DUP2 MLOAD SWAP2 MSTORE SWAP2 SWAP1 DUP2 SWAP1 SUB PUSH1 0x80 ADD SWAP1 LOG2 PUSH1 0x40 MLOAD PUSH4 0x3EB89D5F PUSH1 0xE1 SHL DUP2 MSTORE PUSH1 0x4 ADD PUSH1 0x40 MLOAD DUP1 SWAP2 SUB SWAP1 REVERT JUMPDEST PUSH1 0x40 DUP1 MLOAD PUSH1 0x20 DUP2 ADD DUP3 MSTORE PUSH1 0x1 DUP2 MSTORE SWAP1 MLOAD PUSH4 0x43753B4D PUSH1 0xE0 SHL DUP2 MSTORE PUSH1 0x0 SWAP2 PUSH1 0x1 PUSH1 0x1 PUSH1 0xA0 SHL SUB PUSH32 0x0 AND SWAP2 PUSH4 0x43753B4D SWAP2 PUSH2 0x56F SWAP2 DUP13 SWAP2 DUP13 SWAP2 DUP13 SWAP2 SWAP1 PUSH1 0x4 ADD PUSH2 0x884 JUMP JUMPDEST PUSH1 0x20 PUSH1 0x40 MLOAD DUP1 DUP4 SUB DUP2 DUP7 GAS STATICCALL ISZERO DUP1 ISZERO PUSH2 0x58C JUMPI RETURNDATASIZE PUSH1 0x0 DUP1 RETURNDATACOPY RETURNDATASIZE PUSH1 0x0 REVERT JUMPDEST POP POP POP POP PUSH1 0x40 MLOAD RETURNDATASIZE PUSH1 0x1F NOT PUSH1 0x1F DUP3 ADD AND DUP3 ADD DUP1 PUSH1 0x40 MSTORE POP DUP2 ADD SWAP1 PUSH2 0x5B0 SWAP2 SWAP1 PUSH2 0x862 JUMP JUMPDEST SWAP1 POP DUP1 PUSH2 0x616 JUMPI PUSH1 0x40 DUP1 MLOAD DUP2 DUP2 MSTORE PUSH1 0xD DUP2 DUP4 ADD MSTORE PUSH13 0x24B73B30B634B210383937B7B3 PUSH1 0x99 SHL PUSH1 0x60 DUP3 ADD MSTORE TIMESTAMP PUSH1 0x20 DUP3 ADD MSTORE SWAP1 MLOAD CALLER SWAP2 PUSH1 0x0 DUP1 MLOAD PUSH1 0x20 PUSH2 0x8F3 DUP4 CODECOPY DUP2 MLOAD SWAP2 MSTORE SWAP2 SWAP1 DUP2 SWAP1 SUB PUSH1 0x80 ADD SWAP1 LOG2 PUSH1 0x40 MLOAD PUSH4 0x9BDE339 PUSH1 0xE0 SHL DUP2 MSTORE PUSH1 0x4 ADD PUSH1 0x40 MLOAD DUP1 SWAP2 SUB SWAP1 REVERT JUMPDEST PUSH1 0x40 MLOAD PUSH4 0x2C000287 PUSH1 0xE0 SHL DUP2 MSTORE PUSH1 0x4 DUP2 ADD DUP6 SWAP1 MSTORE PUSH32 0x0 PUSH1 0x1 PUSH1 0x1 PUSH1 0xA0 SHL SUB AND SWAP1 PUSH4 0x2C000287 SWAP1 PUSH1 0x24 ADD PUSH1 0x0 PUSH1 0x40 MLOAD DUP1 DUP4 SUB DUP2 PUSH1 0x0 DUP8 DUP1 EXTCODESIZE ISZERO DUP1 ISZERO PUSH2 0x678 JUMPI PUSH1 0x0 DUP1 REVERT JUMPDEST POP GAS CALL ISZERO DUP1 ISZERO PUSH2 0x68C JUMPI RETURNDATASIZE PUSH1 0x0 DUP1 RETURNDATACOPY RETURNDATASIZE PUSH1 0x0 REVERT JUMPDEST POP POP PUSH1 0x40 MLOAD TIMESTAMP DUP2 MSTORE DUP7 SWAP3 POP CALLER SWAP2 POP PUSH32 0x740F94AA8A0B62B43ECF22A25C109EF49E58304A81569654657A00B96C2C513E SWAP1 PUSH1 0x20 ADD PUSH1 0x40 MLOAD DUP1 SWAP2 SUB SWAP1 LOG3 POP POP POP POP POP POP POP POP JUMP JUMPDEST PUSH1 0x40 MLOAD PUSH4 0x6D9833E3 PUSH1 0xE0 SHL DUP2 MSTORE PUSH1 0x4 DUP2 ADD DUP3 SWAP1 MSTORE PUSH1 0x0 SWAP1 PUSH32 0x0 PUSH1 0x1 PUSH1 0x1 PUSH1 0xA0 SHL SUB AND SWAP1 PUSH4 0x6D9833E3 SWAP1 PUSH1 0x24 ADD PUSH2 0x17C JUMP JUMPDEST PUSH1 0x40 MLOAD PUSH4 0x92C54DAF PUSH1 0xE0 SHL DUP2 MSTORE PUSH1 0x1 PUSH1 0x1 PUSH1 0xA0 SHL SUB DUP3 DUP2 AND PUSH1 0x4 DUP4 ADD MSTORE PUSH1 0x0 SWAP2 PUSH32 0x0 SWAP1 SWAP2 AND SWAP1 PUSH4 0x92C54DAF SWAP1 PUSH1 0x24 ADD PUSH2 0x17C JUMP JUMPDEST PUSH1 0x0 PUSH1 0x20 DUP3 DUP5 SUB SLT ISZERO PUSH2 0x786 JUMPI PUSH1 0x0 DUP1 REVERT JUMPDEST POP CALLDATALOAD SWAP2 SWAP1 POP JUMP JUMPDEST DUP1 PUSH1 0x40 DUP2 ADD DUP4 LT ISZERO PUSH2 0x1BD JUMPI PUSH1 0x0 DUP1 REVERT JUMPDEST DUP1 CALLDATALOAD PUSH1 0x1 PUSH1 0x1 PUSH1 0xA0 SHL SUB DUP2 AND DUP2 EQ PUSH2 0x7B5 JUMPI PUSH1 0x0 DUP1 REVERT JUMPDEST SWAP2 SWAP1 POP JUMP JUMPDEST PUSH1 0x0 DUP1 PUSH1 0x0 DUP1 PUSH1 0x0 DUP1 PUSH1 0x0 PUSH2 0x180 DUP9 DUP11 SUB SLT ISZERO PUSH2 0x7D6 JUMPI PUSH1 0x0 DUP1 REVERT JUMPDEST PUSH2 0x7E0 DUP10 DUP10 PUSH2 0x78D JUMP JUMPDEST SWAP7 POP PUSH1 0xC0 DUP9 ADD DUP10 DUP2 GT ISZERO PUSH2 0x7F3 JUMPI PUSH1 0x0 DUP1 REVERT JUMPDEST PUSH1 0x40 DUP10 ADD SWAP7 POP PUSH2 0x803 DUP11 DUP3 PUSH2 0x78D JUMP JUMPDEST SWAP6 POP POP PUSH2 0x100 DUP9 ADD CALLDATALOAD SWAP4 POP PUSH2 0x120 DUP9 ADD CALLDATALOAD SWAP3 POP PUSH2 0x823 PUSH2 0x140 DUP10 ADD PUSH2 0x79E JUMP JUMPDEST SWAP2 POP PUSH2 0x832 PUSH2 0x160 DUP10 ADD PUSH2 0x79E JUMP JUMPDEST SWAP1 POP SWAP3 SWAP6 SWAP9 SWAP2 SWAP5 SWAP8 POP SWAP3 SWAP6 POP JUMP JUMPDEST PUSH1 0x0 PUSH1 0x20 DUP3 DUP5 SUB SLT ISZERO PUSH2 0x852 JUMPI PUSH1 0x0 DUP1 REVERT JUMPDEST PUSH2 0x85B DUP3 PUSH2 0x79E JUMP JUMPDEST SWAP4 SWAP3 POP POP POP JUMP JUMPDEST PUSH1 0x0 PUSH1 0x20 DUP3 DUP5 SUB SLT ISZERO PUSH2 0x874 JUMPI PUSH1 0x0 DUP1 REVERT JUMPDEST DUP2 MLOAD DUP1 ISZERO ISZERO DUP2 EQ PUSH2 0x85B JUMPI PUSH1 0x0 DUP1 REVERT JUMPDEST PUSH2 0x120 DUP2 ADD PUSH1 0x40 DUP1 DUP8 DUP5 CALLDATACOPY DUP1 DUP4 ADD DUP7 PUSH1 0x0 JUMPDEST PUSH1 0x2 DUP2 LT ISZERO PUSH2 0x8B3 JUMPI DUP4 DUP3 DUP5 CALLDATACOPY SWAP2 DUP4 ADD SWAP2 SWAP1 DUP4 ADD SWAP1 PUSH1 0x1 ADD PUSH2 0x896 JUMP JUMPDEST POP POP POP DUP1 DUP6 PUSH1 0xC0 DUP6 ADD CALLDATACOPY POP PUSH2 0x100 DUP3 ADD DUP4 PUSH1 0x0 JUMPDEST PUSH1 0x1 DUP2 LT ISZERO PUSH2 0x8E6 JUMPI DUP2 MLOAD DUP4 MSTORE PUSH1 0x20 SWAP3 DUP4 ADD SWAP3 SWAP1 SWAP2 ADD SWAP1 PUSH1 0x1 ADD PUSH2 0x8C7 JUMP JUMPDEST POP POP POP SWAP6 SWAP5 POP POP POP POP POP JUMP INVALID PUSH3 0xB5C69E 0xE SMOD 0xDF 0x28 0xAE 0x25 0xD1 0xBF DUP14 DUP12 STOP DUP1 0xCE 0xC2 DUP3 DUP16 PUSH22 0x211617112AEE1F1138CF7EA2646970667358221220F9 0xD3 0xB7 DUP12 0xB8 PUSH2 0x7AD9 PUSH13 0x3E8A63930A0AE1906DE1CC1041 0xC7 0xB4 0x27 ADD 0xA5 SAR 0x28 LOG3 SWAP8 CODESIZE PUSH5 0x736F6C6343 STOP ADDMOD EQ STOP CALLER "},"methodIdentifiers":{"isNullifierSpent(bytes32)":"d5a4e325","isTrustedIssuer(address)":"ef2ed1a4","isValidMerkleRoot(bytes32)":"e9cd3b37","kycRegistry()":"4b155b97","verifier()":"2b7ac3f3","verifyAndGrantAccess(uint256[2],uint256[2][2],uint256[2],bytes32,bytes32,address,address)":"e40d4726"}}}}}