{"contracts/KYCRegistry.sol":{"KYCRegistry":{"abi":[{"inputs":[{"internalType":"contract IHasher","name":"_hasher","type":"address"},{"internalType":"uint32","name":"_merkleTreeHeight","type":"uint32"},{"internalType":"address[]","name":"_trustedIssuers","type":"address[]"}],"stateMutability":"nonpayable","type":"constructor"},{"inputs":[{"internalType":"address","name":"owner","type":"address"}],"name":"OwnableInvalidOwner","type":"error"},{"inputs":[{"internalType":"address","name":"account","type":"address"}],"name":"OwnableUnauthorizedAccount","type":"error"},{"anonymous":false,"inputs":[{"indexed":true,"internalType":"bytes32","name":"commitment","type":"bytes32"},{"indexed":false,"internalType":"uint32","name":"leafIndex","type":"uint32"},{"indexed":false,"internalType":"bytes32","name":"root","type":"bytes32"}],"name":"CommitmentAdded","type":"event"},{"anonymous":false,"inputs":[{"indexed":true,"internalType":"address","name":"previousOwner","type":"address"},{"indexed":true,"internalType":"address","name":"newOwner","type":"address"}],"name":"OwnershipTransferred","type":"event"},{"anonymous":false,"inputs":[{"indexed":true,"internalType":"address","name":"issuer","type":"address"}],"name":"TrustedIssuerAdded","type":"event"},{"anonymous":false,"inputs":[{"indexed":true,"internalType":"address","name":"issuer","type":"address"}],"name":"TrustedIssuerRemoved","type":"event"},{"inputs":[],"name":"FIELD_SIZE","outputs":[{"internalType":"uint256","name":"","type":"uint256"}],"stateMutability":"view","type":"function"},{"inputs":[],"name":"ROOT_HISTORY_SIZE","outputs":[{"internalType":"uint32","name":"","type":"uint32"}],"stateMutability":"view","type":"function"},{"inputs":[],"name":"ZERO_VALUE","outputs":[{"internalType":"uint256","name":"","type":"uint256"}],"stateMutability":"view","type":"function"},{"inputs":[{"internalType":"address","name":"_issuer","type":"address"}],"name":"addTrustedIssuer","outputs":[],"stateMutability":"nonpayable","type":"function"},{"inputs":[{"internalType":"bytes32","name":"","type":"bytes32"}],"name":"commitments","outputs":[{"internalType":"bool","name":"","type":"bool"}],"stateMutability":"view","type":"function"},{"inputs":[],"name":"currentRootIndex","outputs":[{"internalType":"uint32","name":"","type":"uint32"}],"stateMutability":"view","type":"function"},{"inputs":[{"internalType":"bytes32","name":"_commitment","type":"bytes32"}],"name":"depositCommitment","outputs":[],"stateMutability":"nonpayable","type":"function"},{"inputs":[{"internalType":"uint256","name":"","type":"uint256"}],"name":"filledSubtrees","outputs":[{"internalType":"bytes32","name":"","type":"bytes32"}],"stateMutability":"view","type":"function"},{"inputs":[],"name":"getLastRoot","outputs":[{"internalType":"bytes32","name":"","type":"bytes32"}],"stateMutability":"view","type":"function"},{"inputs":[{"internalType":"bytes32","name":"_left","type":"bytes32"},{"internalType":"bytes32","name":"_right","type":"bytes32"}],"name":"hashLeftRight","outputs":[{"internalType":"bytes32","name":"","type":"bytes32"}],"stateMutability":"view","type":"function"},{"inputs":[],"name":"hasher","outputs":[{"internalType":"contract IHasher","name":"","type":"address"}],"stateMutability":"view","type":"function"},{"inputs":[{"internalType":"bytes32","name":"_root","type":"bytes32"}],"name":"isKnownRoot","outputs":[{"internalType":"bool","name":"","type":"bool"}],"stateMutability":"view","type":"function"},{"inputs":[{"internalType":"bytes32","name":"_nullifierHash","type":"bytes32"}],"name":"isSpent","outputs":[{"internalType":"bool","name":"","type":"bool"}],"stateMutability":"view","type":"function"},{"inputs":[],"name":"levels","outputs":[{"internalType":"uint32","name":"","type":"uint32"}],"stateMutability":"view","type":"function"},{"inputs":[{"internalType":"bytes32","name":"_nullifierHash","type":"bytes32"}],"name":"markNullifierSpent","outputs":[],"stateMutability":"nonpayable","type":"function"},{"inputs":[],"name":"nextIndex","outputs":[{"internalType":"uint32","name":"","type":"uint32"}],"stateMutability":"view","type":"function"},{"inputs":[{"internalType":"bytes32","name":"","type":"bytes32"}],"name":"nullifierHashes","outputs":[{"internalType":"bool","name":"","type":"bool"}],"stateMutability":"view","type":"function"},{"inputs":[],"name":"owner","outputs":[{"internalType":"address","name":"","type":"address"}],"stateMutability":"view","type":"function"},{"inputs":[{"internalType":"address","name":"_issuer","type":"address"}],"name":"removeTrustedIssuer","outputs":[],"stateMutability":"nonpayable","type":"function"},{"inputs":[],"name":"renounceOwnership","outputs":[],"stateMutability":"nonpayable","type":"function"},{"inputs":[{"internalType":"uint256","name":"","type":"uint256"}],"name":"roots","outputs":[{"internalType":"bytes32","name":"","type":"bytes32"}],"stateMutability":"view","type":"function"},{"inputs":[{"internalType":"address","name":"newOwner","type":"address"}],"name":"transferOwnership","outputs":[],"stateMutability":"nonpayable","type":"function"},{"inputs":[{"internalType":"address","name":"","type":"address"}],"name":"trustedIssuers","outputs":[{"internalType":"bool","name":"","type":"bool"}],"stateMutability":"view","type":"function"},{"inputs":[{"internalType":"uint256","name":"","type":"uint256"}],"name":"zeros","outputs":[{"internalType":"bytes32","name":"","type":"bytes32"}],"stateMutability":"view","type":"function"}],"evm":{"bytecode":{"linkReferences":{},"object":"60c0604052600280546001600160401b03191690553480156200002157600080fd5b50604051620015e4380380620015e4833981016040819052620000449162000528565b33828460008263ffffffff1611620000af5760405162461bcd60e51b815260206004820152602360248201527f5f6c6576656c732073686f756c642062652067726561746572207468616e207a60448201526265726f60e81b60648201526084015b60405180910390fd5b60208263ffffffff1610620001075760405162461bcd60e51b815260206004820152601e60248201527f5f6c6576656c732073686f756c64206265206c657373207468616e20333200006044820152606401620000a6565b63ffffffff821660a0526001600160a01b0381166080526001805480820182557f2fe54c60d3acabf3343a35b6eba15db4821b340f76e741e2249685ed4899af6c600080516020620015c4833981519152909101819055600080548084018255908052600080516020620015a483398151915201819055905b8363ffffffff168163ffffffff161015620001f457620001a1828062000317565b600180548082018255600080516020620015c4833981519152018290556000805491820181558052600080516020620015a483398151915201819055915080620001eb8162000646565b91505062000180565b5062000201818062000317565b6003555050506001600160a01b0381166200023357604051631e4fbdf760e01b815260006004820152602401620000a6565b6200023e8162000495565b5060005b81518110156200030d576001602460008484815181106200026757620002676200066c565b60200260200101516001600160a01b03166001600160a01b0316815260200190815260200160002060006101000a81548160ff021916908315150217905550818181518110620002bb57620002bb6200066c565b60200260200101516001600160a01b03167f311d2b687f3241372ca29b49f84ab625de8e695cb75dc6f3126a2aad34bce0c560405160405180910390a280620003048162000682565b91505062000242565b50505050620006eb565b60007f30644e72e131a029b85045b68181585d2833e84879b9709143e1f593f000000183106200038a5760405162461bcd60e51b815260206004820181905260248201527f5f6c6566742073686f756c6420626520696e7369646520746865206669656c646044820152606401620000a6565b7f30644e72e131a029b85045b68181585d2833e84879b9709143e1f593f00000018210620004055760405162461bcd60e51b815260206004820152602160248201527f5f72696768742073686f756c6420626520696e7369646520746865206669656c6044820152601960fa1b6064820152608401620000a6565b60408051808201825284815260208101849052608051915163014cf2b360e51b815290916001600160a01b03169063299e566090620004499084906004016200069e565b602060405180830381865afa15801562000467573d6000803e3d6000fd5b505050506040513d601f19601f820116820180604052508101906200048d9190620006d1565b949350505050565b602180546001600160a01b038381166001600160a01b0319831681179093556040519116919082907f8be0079c531659141344cd1fd0a4f28419497f9722a3daafe3b4186f6b6457e090600090a35050565b6001600160a01b0381168114620004fd57600080fd5b50565b634e487b7160e01b600052604160045260246000fd5b80516200052381620004e7565b919050565b6000806000606084860312156200053e57600080fd5b83516200054b81620004e7565b8093505060208085015163ffffffff811681146200056857600080fd5b60408601519093506001600160401b03808211156200058657600080fd5b818701915087601f8301126200059b57600080fd5b815181811115620005b057620005b062000500565b8060051b604051601f19603f83011681018181108582111715620005d857620005d862000500565b60405291825284820192508381018501918a831115620005f757600080fd5b938501935b828510156200062057620006108562000516565b84529385019392850192620005fc565b8096505050505050509250925092565b634e487b7160e01b600052601160045260246000fd5b600063ffffffff80831681810362000662576200066262000630565b6001019392505050565b634e487b7160e01b600052603260045260246000fd5b60006001820162000697576200069762000630565b5060010190565b60408101818360005b6002811015620006c8578151835260209283019290910190600101620006a7565b50505092915050565b600060208284031215620006e457600080fd5b5051919050565b60805160a051610e7e62000726600039600081816101f70152818161095501526109f601526000818161038201526105810152610e7e6000f3fe608060405234801561001057600080fd5b50600436106101585760003560e01c8063b93d28eb116100c3578063e82955881161007c578063e829558814610343578063ec73295914610356578063ed33639f1461037d578063f178e47c146103a4578063f2fde38b146103b7578063fc7e9c6f146103ca57600080fd5b8063b93d28eb146102d7578063ba70f757146102ea578063c2b40ae4146102f2578063c4566bdd14610305578063cd87a3b414610318578063e5285dcc1461032057600080fd5b8063715018a611610115578063715018a6146102415780637305651d14610249578063839df9451461025c5780638da5cb5b1461027f57806390eeb02b146102a457806392c54daf146102b457600080fd5b806317cc915c1461015d5780632c0002871461019557806338bf282e146101aa578063414a37ba146101cb5780634ecf518b146101f25780636d9833e31461022e575b600080fd5b61018061016b366004610b7e565b60236020526000908152604090205460ff1681565b60405190151581526020015b60405180910390f35b6101a86101a3366004610b7e565b6103e2565b005b6101bd6101b8366004610b97565b61046e565b60405190815260200161018c565b6101bd7f30644e72e131a029b85045b68181585d2833e84879b9709143e1f593f000000181565b6102197f000000000000000000000000000000000000000000000000000000000000000081565b60405163ffffffff909116815260200161018c565b61018061023c366004610b7e565b610601565b6101a8610684565b6101a8610257366004610b7e565b610698565b61018061026a366004610b7e565b60226020526000908152604090205460ff1681565b6021546001600160a01b03165b6040516001600160a01b03909116815260200161018c565b6002546102199063ffffffff1681565b6101806102c2366004610bb9565b60246020526000908152604090205460ff1681565b6101a86102e5366004610bb9565b61076b565b6101bd6107bc565b6101bd610300366004610b7e565b6107e2565b6101a8610313366004610bb9565b6107f9565b610219601e81565b61018061032e366004610b7e565b60009081526023602052604090205460ff1690565b6101bd610351366004610b7e565b61084d565b6101bd7f2fe54c60d3acabf3343a35b6eba15db4821b340f76e741e2249685ed4899af6c81565b61028c7f000000000000000000000000000000000000000000000000000000000000000081565b6101bd6103b2366004610b7e565b61086e565b6101a86103c5366004610bb9565b61087e565b60025461021990640100000000900463ffffffff1681565b6021546001600160a01b031633148061040a57503360009081526024602052604090205460ff165b61044c5760405162461bcd60e51b815260206004820152600e60248201526d139bdd08185d5d1a1bdc9a5e995960921b60448201526064015b60405180910390fd5b61046b816000908152602360205260409020805460ff19166001179055565b50565b60007f30644e72e131a029b85045b68181585d2833e84879b9709143e1f593f000000183106104df5760405162461bcd60e51b815260206004820181905260248201527f5f6c6566742073686f756c6420626520696e7369646520746865206669656c646044820152606401610443565b7f30644e72e131a029b85045b68181585d2833e84879b9709143e1f593f000000182106105585760405162461bcd60e51b815260206004820152602160248201527f5f72696768742073686f756c6420626520696e7369646520746865206669656c6044820152601960fa1b6064820152608401610443565b60408051808201825284815260208101849052905163014cf2b360e51b81526001600160a01b037f0000000000000000000000000000000000000000000000000000000000000000169063299e5660906105b6908490600401610be9565b602060405180830381865afa1580156105d3573d6000803e3d6000fd5b505050506040513d601f19601f820116820180604052508101906105f79190610c1a565b9150505b92915050565b600081810361061257506000919050565b60025463ffffffff16805b60038163ffffffff16601e811061063657610636610c33565b01548403610648575060019392505050565b8063ffffffff1660000361065a5750601e5b8061066481610c5f565b9150508163ffffffff168163ffffffff160361061d575060009392505050565b61068c6108b9565b61069660006108e6565b565b60008181526022602052604090205460ff16156106f75760405162461bcd60e51b815260206004820152601960248201527f436f6d6d69746d656e7420616c726561647920657869737473000000000000006044820152606401610443565b600061070282610938565b6000838152602260205260409020805460ff191660011790559050817fa09501fad2192a164a95320e318ba13b8bd45a0e5007b8c933d6cf5d33dde6a8826107486107bc565b6040805163ffffffff909316835260208301919091520160405180910390a25050565b6107736108b9565b6001600160a01b038116600081815260246020526040808220805460ff19169055517f2214ded40113cc3fb63fc206cafee88270b0a903dac7245d54efdde30ebb03219190a250565b60025460009060039063ffffffff16601e81106107db576107db610c33565b0154905090565b600381601e81106107f257600080fd5b0154905081565b6108016108b9565b6001600160a01b038116600081815260246020526040808220805460ff19166001179055517f311d2b687f3241372ca29b49f84ab625de8e695cb75dc6f3126a2aad34bce0c59190a250565b6001818154811061085d57600080fd5b600091825260209091200154905081565b6000818154811061085d57600080fd5b6108866108b9565b6001600160a01b0381166108b057604051631e4fbdf760e01b815260006004820152602401610443565b61046b816108e6565b6021546001600160a01b031633146106965760405163118cdaa760e01b8152336004820152602401610443565b602180546001600160a01b038381166001600160a01b0319831681179093556040519116919082907f8be0079c531659141344cd1fd0a4f28419497f9722a3daafe3b4186f6b6457e090600090a35050565b6002805460009164010000000090910463ffffffff169061097a907f000000000000000000000000000000000000000000000000000000000000000090610d90565b63ffffffff168163ffffffff16036109ed5760405162461bcd60e51b815260206004820152603060248201527f4d65726b6c6520747265652069732066756c6c2e204e6f206d6f7265206c656160448201526f1d995cc818d85b88189948185919195960821b6064820152608401610443565b8083600080805b7f000000000000000000000000000000000000000000000000000000000000000063ffffffff168163ffffffff161015610ae957610a33600286610dbb565b63ffffffff16600003610a945783925060018163ffffffff1681548110610a5c57610a5c610c33565b906000526020600020015491508360008263ffffffff1681548110610a8357610a83610c33565b600091825260209091200155610abe565b60008163ffffffff1681548110610aad57610aad610c33565b906000526020600020015492508391505b610ac8838361046e565b9350610ad5600286610dde565b945080610ae181610e01565b9150506109f4565b50600254600090601e90610b049063ffffffff166001610e24565b610b0e9190610dbb565b6002805463ffffffff191663ffffffff83169081179091559091508490600390601e8110610b3e57610b3e610c33565b0155610b4b866001610e24565b6002805463ffffffff929092166401000000000267ffffffff000000001990921691909117905550939695505050505050565b600060208284031215610b9057600080fd5b5035919050565b60008060408385031215610baa57600080fd5b50508035926020909101359150565b600060208284031215610bcb57600080fd5b81356001600160a01b0381168114610be257600080fd5b9392505050565b60408101818360005b6002811015610c11578151835260209283019290910190600101610bf2565b50505092915050565b600060208284031215610c2c57600080fd5b5051919050565b634e487b7160e01b600052603260045260246000fd5b634e487b7160e01b600052601160045260246000fd5b600063ffffffff821680610c7557610c75610c49565b6000190192915050565b600181815b80851115610cbc578163ffffffff04821115610ca257610ca2610c49565b80851615610caf57918102915b93841c9390800290610c84565b509250929050565b600082610cd3575060016105fb565b81610ce0575060006105fb565b8160018114610cf65760028114610d0057610d31565b60019150506105fb565b60ff841115610d1157610d11610c49565b6001841b915063ffffffff821115610d2b57610d2b610c49565b506105fb565b5060208310610133831016604e8410600b8410161715610d68575081810a63ffffffff811115610d6357610d63610c49565b6105fb565b610d728383610c7f565b8063ffffffff04821115610d8857610d88610c49565b029392505050565b600063ffffffff6105f7818516828516610cc4565b634e487b7160e01b600052601260045260246000fd5b600063ffffffff80841680610dd257610dd2610da5565b92169190910692915050565b600063ffffffff80841680610df557610df5610da5565b92169190910492915050565b600063ffffffff808316818103610e1a57610e1a610c49565b6001019392505050565b63ffffffff818116838216019080821115610e4157610e41610c49565b509291505056fea2646970667358221220a5326311815e3fee62b7bad141119346cdc3efa3a77653a0061241118077672964736f6c63430008140033290decd9548b62a8d60345a988386fc84ba6bc95484008f6362f93160ef3e563b10e2d527612073b26eecdfd717e6a320cf44b4afac2b0732d9fcbe2b7fa0cf6","opcodes":"PUSH1 0xC0 PUSH1 0x40 MSTORE PUSH1 0x2 DUP1 SLOAD PUSH1 0x1 PUSH1 0x1 PUSH1 0x40 SHL SUB NOT AND SWAP1 SSTORE CALLVALUE DUP1 ISZERO PUSH3 0x21 JUMPI PUSH1 0x0 DUP1 REVERT JUMPDEST POP PUSH1 0x40 MLOAD PUSH3 0x15E4 CODESIZE SUB DUP1 PUSH3 0x15E4 DUP4 CODECOPY DUP2 ADD PUSH1 0x40 DUP2 SWAP1 MSTORE PUSH3 0x44 SWAP2 PUSH3 0x528 JUMP JUMPDEST CALLER DUP3 DUP5 PUSH1 0x0 DUP3 PUSH4 0xFFFFFFFF AND GT PUSH3 0xAF JUMPI PUSH1 0x40 MLOAD PUSH3 0x461BCD PUSH1 0xE5 SHL DUP2 MSTORE PUSH1 0x20 PUSH1 0x4 DUP3 ADD MSTORE PUSH1 0x23 PUSH1 0x24 DUP3 ADD MSTORE PUSH32 0x5F6C6576656C732073686F756C642062652067726561746572207468616E207A PUSH1 0x44 DUP3 ADD MSTORE PUSH3 0x65726F PUSH1 0xE8 SHL PUSH1 0x64 DUP3 ADD MSTORE PUSH1 0x84 ADD JUMPDEST PUSH1 0x40 MLOAD DUP1 SWAP2 SUB SWAP1 REVERT JUMPDEST PUSH1 0x20 DUP3 PUSH4 0xFFFFFFFF AND LT PUSH3 0x107 JUMPI PUSH1 0x40 MLOAD PUSH3 0x461BCD PUSH1 0xE5 SHL DUP2 MSTORE PUSH1 0x20 PUSH1 0x4 DUP3 ADD MSTORE PUSH1 0x1E PUSH1 0x24 DUP3 ADD MSTORE PUSH32 0x5F6C6576656C732073686F756C64206265206C657373207468616E2033320000 PUSH1 0x44 DUP3 ADD MSTORE PUSH1 0x64 ADD PUSH3 0xA6 JUMP JUMPDEST PUSH4 0xFFFFFFFF DUP3 AND PUSH1 0xA0 MSTORE PUSH1 0x1 PUSH1 0x1 PUSH1 0xA0 SHL SUB DUP2 AND PUSH1 0x80 MSTORE PUSH1 0x1 DUP1 SLOAD DUP1 DUP3 ADD DUP3 SSTORE PUSH32 0x2FE54C60D3ACABF3343A35B6EBA15DB4821B340F76E741E2249685ED4899AF6C PUSH1 0x0 DUP1 MLOAD PUSH1 0x20 PUSH3 0x15C4 DUP4 CODECOPY DUP2 MLOAD SWAP2 MSTORE SWAP1 SWAP2 ADD DUP2 SWAP1 SSTORE PUSH1 0x0 DUP1 SLOAD DUP1 DUP5 ADD DUP3 SSTORE SWAP1 DUP1 MSTORE PUSH1 0x0 DUP1 MLOAD PUSH1 0x20 PUSH3 0x15A4 DUP4 CODECOPY DUP2 MLOAD SWAP2 MSTORE ADD DUP2 SWAP1 SSTORE SWAP1 JUMPDEST DUP4 PUSH4 0xFFFFFFFF AND DUP2 PUSH4 0xFFFFFFFF AND LT ISZERO PUSH3 0x1F4 JUMPI PUSH3 0x1A1 DUP3 DUP1 PUSH3 0x317 JUMP JUMPDEST PUSH1 0x1 DUP1 SLOAD DUP1 DUP3 ADD DUP3 SSTORE PUSH1 0x0 DUP1 MLOAD PUSH1 0x20 PUSH3 0x15C4 DUP4 CODECOPY DUP2 MLOAD SWAP2 MSTORE ADD DUP3 SWAP1 SSTORE PUSH1 0x0 DUP1 SLOAD SWAP2 DUP3 ADD DUP2 SSTORE DUP1 MSTORE PUSH1 0x0 DUP1 MLOAD PUSH1 0x20 PUSH3 0x15A4 DUP4 CODECOPY DUP2 MLOAD SWAP2 MSTORE ADD DUP2 SWAP1 SSTORE SWAP2 POP DUP1 PUSH3 0x1EB DUP2 PUSH3 0x646 JUMP JUMPDEST SWAP2 POP POP PUSH3 0x180 JUMP JUMPDEST POP PUSH3 0x201 DUP2 DUP1 PUSH3 0x317 JUMP JUMPDEST PUSH1 0x3 SSTORE POP POP POP PUSH1 0x1 PUSH1 0x1 PUSH1 0xA0 SHL SUB DUP2 AND PUSH3 0x233 JUMPI PUSH1 0x40 MLOAD PUSH4 0x1E4FBDF7 PUSH1 0xE0 SHL DUP2 MSTORE PUSH1 0x0 PUSH1 0x4 DUP3 ADD MSTORE PUSH1 0x24 ADD PUSH3 0xA6 JUMP JUMPDEST PUSH3 0x23E DUP2 PUSH3 0x495 JUMP JUMPDEST POP PUSH1 0x0 JUMPDEST DUP2 MLOAD DUP2 LT ISZERO PUSH3 0x30D JUMPI PUSH1 0x1 PUSH1 0x24 PUSH1 0x0 DUP5 DUP5 DUP2 MLOAD DUP2 LT PUSH3 0x267 JUMPI PUSH3 0x267 PUSH3 0x66C JUMP JUMPDEST PUSH1 0x20 MUL PUSH1 0x20 ADD ADD MLOAD PUSH1 0x1 PUSH1 0x1 PUSH1 0xA0 SHL SUB AND PUSH1 0x1 PUSH1 0x1 PUSH1 0xA0 SHL SUB AND DUP2 MSTORE PUSH1 0x20 ADD SWAP1 DUP2 MSTORE PUSH1 0x20 ADD PUSH1 0x0 KECCAK256 PUSH1 0x0 PUSH2 0x100 EXP DUP2 SLOAD DUP2 PUSH1 0xFF MUL NOT AND SWAP1 DUP4 ISZERO ISZERO MUL OR SWAP1 SSTORE POP DUP2 DUP2 DUP2 MLOAD DUP2 LT PUSH3 0x2BB JUMPI PUSH3 0x2BB PUSH3 0x66C JUMP JUMPDEST PUSH1 0x20 MUL PUSH1 0x20 ADD ADD MLOAD PUSH1 0x1 PUSH1 0x1 PUSH1 0xA0 SHL SUB AND PUSH32 0x311D2B687F3241372CA29B49F84AB625DE8E695CB75DC6F3126A2AAD34BCE0C5 PUSH1 0x40 MLOAD PUSH1 0x40 MLOAD DUP1 SWAP2 SUB SWAP1 LOG2 DUP1 PUSH3 0x304 DUP2 PUSH3 0x682 JUMP JUMPDEST SWAP2 POP POP PUSH3 0x242 JUMP JUMPDEST POP POP POP POP PUSH3 0x6EB JUMP JUMPDEST PUSH1 0x0 PUSH32 0x30644E72E131A029B85045B68181585D2833E84879B9709143E1F593F0000001 DUP4 LT PUSH3 0x38A JUMPI PUSH1 0x40 MLOAD PUSH3 0x461BCD PUSH1 0xE5 SHL DUP2 MSTORE PUSH1 0x20 PUSH1 0x4 DUP3 ADD DUP2 SWAP1 MSTORE PUSH1 0x24 DUP3 ADD MSTORE PUSH32 0x5F6C6566742073686F756C6420626520696E7369646520746865206669656C64 PUSH1 0x44 DUP3 ADD MSTORE PUSH1 0x64 ADD PUSH3 0xA6 JUMP JUMPDEST PUSH32 0x30644E72E131A029B85045B68181585D2833E84879B9709143E1F593F0000001 DUP3 LT PUSH3 0x405 JUMPI PUSH1 0x40 MLOAD PUSH3 0x461BCD PUSH1 0xE5 SHL DUP2 MSTORE PUSH1 0x20 PUSH1 0x4 DUP3 ADD MSTORE PUSH1 0x21 PUSH1 0x24 DUP3 ADD MSTORE PUSH32 0x5F72696768742073686F756C6420626520696E7369646520746865206669656C PUSH1 0x44 DUP3 ADD MSTORE PUSH1 0x19 PUSH1 0xFA SHL PUSH1 0x64 DUP3 ADD MSTORE PUSH1 0x84 ADD PUSH3 0xA6 JUMP JUMPDEST PUSH1 0x40 DUP1 MLOAD DUP1 DUP3 ADD DUP3 MSTORE DUP5 DUP2 MSTORE PUSH1 0x20 DUP2 ADD DUP5 SWAP1 MSTORE PUSH1 0x80 MLOAD SWAP2 MLOAD PUSH4 0x14CF2B3 PUSH1 0xE5 SHL DUP2 MSTORE SWAP1 SWAP2 PUSH1 0x1 PUSH1 0x1 PUSH1 0xA0 SHL SUB AND SWAP1 PUSH4 0x299E5660 SWAP1 PUSH3 0x449 SWAP1 DUP5 SWAP1 PUSH1 0x4 ADD PUSH3 0x69E JUMP JUMPDEST PUSH1 0x20 PUSH1 0x40 MLOAD DUP1 DUP4 SUB DUP2 DUP7 GAS STATICCALL ISZERO DUP1 ISZERO PUSH3 0x467 JUMPI RETURNDATASIZE PUSH1 0x0 DUP1 RETURNDATACOPY RETURNDATASIZE PUSH1 0x0 REVERT JUMPDEST POP POP POP POP PUSH1 0x40 MLOAD RETURNDATASIZE PUSH1 0x1F NOT PUSH1 0x1F DUP3 ADD AND DUP3 ADD DUP1 PUSH1 0x40 MSTORE POP DUP2 ADD SWAP1 PUSH3 0x48D SWAP2 SWAP1 PUSH3 0x6D1 JUMP JUMPDEST SWAP5 SWAP4 POP POP POP POP JUMP JUMPDEST PUSH1 0x21 DUP1 SLOAD PUSH1 0x1 PUSH1 0x1 PUSH1 0xA0 SHL SUB DUP4 DUP2 AND PUSH1 0x1 PUSH1 0x1 PUSH1 0xA0 SHL SUB NOT DUP4 AND DUP2 OR SWAP1 SWAP4 SSTORE PUSH1 0x40 MLOAD SWAP2 AND SWAP2 SWAP1 DUP3 SWAP1 PUSH32 0x8BE0079C531659141344CD1FD0A4F28419497F9722A3DAAFE3B4186F6B6457E0 SWAP1 PUSH1 0x0 SWAP1 LOG3 POP POP JUMP JUMPDEST PUSH1 0x1 PUSH1 0x1 PUSH1 0xA0 SHL SUB DUP2 AND DUP2 EQ PUSH3 0x4FD JUMPI PUSH1 0x0 DUP1 REVERT JUMPDEST POP JUMP JUMPDEST PUSH4 0x4E487B71 PUSH1 0xE0 SHL PUSH1 0x0 MSTORE PUSH1 0x41 PUSH1 0x4 MSTORE PUSH1 0x24 PUSH1 0x0 REVERT JUMPDEST DUP1 MLOAD PUSH3 0x523 DUP2 PUSH3 0x4E7 JUMP JUMPDEST SWAP2 SWAP1 POP JUMP JUMPDEST PUSH1 0x0 DUP1 PUSH1 0x0 PUSH1 0x60 DUP5 DUP7 SUB SLT ISZERO PUSH3 0x53E JUMPI PUSH1 0x0 DUP1 REVERT JUMPDEST DUP4 MLOAD PUSH3 0x54B DUP2 PUSH3 0x4E7 JUMP JUMPDEST DUP1 SWAP4 POP POP PUSH1 0x20 DUP1 DUP6 ADD MLOAD PUSH4 0xFFFFFFFF DUP2 AND DUP2 EQ PUSH3 0x568 JUMPI PUSH1 0x0 DUP1 REVERT JUMPDEST PUSH1 0x40 DUP7 ADD MLOAD SWAP1 SWAP4 POP PUSH1 0x1 PUSH1 0x1 PUSH1 0x40 SHL SUB DUP1 DUP3 GT ISZERO PUSH3 0x586 JUMPI PUSH1 0x0 DUP1 REVERT JUMPDEST DUP2 DUP8 ADD SWAP2 POP DUP8 PUSH1 0x1F DUP4 ADD SLT PUSH3 0x59B JUMPI PUSH1 0x0 DUP1 REVERT JUMPDEST DUP2 MLOAD DUP2 DUP2 GT ISZERO PUSH3 0x5B0 JUMPI PUSH3 0x5B0 PUSH3 0x500 JUMP JUMPDEST DUP1 PUSH1 0x5 SHL PUSH1 0x40 MLOAD PUSH1 0x1F NOT PUSH1 0x3F DUP4 ADD AND DUP2 ADD DUP2 DUP2 LT DUP6 DUP3 GT OR ISZERO PUSH3 0x5D8 JUMPI PUSH3 0x5D8 PUSH3 0x500 JUMP JUMPDEST PUSH1 0x40 MSTORE SWAP2 DUP3 MSTORE DUP5 DUP3 ADD SWAP3 POP DUP4 DUP2 ADD DUP6 ADD SWAP2 DUP11 DUP4 GT ISZERO PUSH3 0x5F7 JUMPI PUSH1 0x0 DUP1 REVERT JUMPDEST SWAP4 DUP6 ADD SWAP4 JUMPDEST DUP3 DUP6 LT ISZERO PUSH3 0x620 JUMPI PUSH3 0x610 DUP6 PUSH3 0x516 JUMP JUMPDEST DUP5 MSTORE SWAP4 DUP6 ADD SWAP4 SWAP3 DUP6 ADD SWAP3 PUSH3 0x5FC JUMP JUMPDEST DUP1 SWAP7 POP POP POP POP POP POP POP SWAP3 POP SWAP3 POP SWAP3 JUMP JUMPDEST PUSH4 0x4E487B71 PUSH1 0xE0 SHL PUSH1 0x0 MSTORE PUSH1 0x11 PUSH1 0x4 MSTORE PUSH1 0x24 PUSH1 0x0 REVERT JUMPDEST PUSH1 0x0 PUSH4 0xFFFFFFFF DUP1 DUP4 AND DUP2 DUP2 SUB PUSH3 0x662 JUMPI PUSH3 0x662 PUSH3 0x630 JUMP JUMPDEST PUSH1 0x1 ADD SWAP4 SWAP3 POP POP POP JUMP JUMPDEST PUSH4 0x4E487B71 PUSH1 0xE0 SHL PUSH1 0x0 MSTORE PUSH1 0x32 PUSH1 0x4 MSTORE PUSH1 0x24 PUSH1 0x0 REVERT JUMPDEST PUSH1 0x0 PUSH1 0x1 DUP3 ADD PUSH3 0x697 JUMPI PUSH3 0x697 PUSH3 0x630 JUMP JUMPDEST POP PUSH1 0x1 ADD SWAP1 JUMP JUMPDEST PUSH1 0x40 DUP2 ADD DUP2 DUP4 PUSH1 0x0 JUMPDEST PUSH1 0x2 DUP2 LT ISZERO PUSH3 0x6C8 JUMPI DUP2 MLOAD DUP4 MSTORE PUSH1 0x20 SWAP3 DUP4 ADD SWAP3 SWAP1 SWAP2 ADD SWAP1 PUSH1 0x1 ADD PUSH3 0x6A7 JUMP JUMPDEST POP POP POP SWAP3 SWAP2 POP POP JUMP JUMPDEST PUSH1 0x0 PUSH1 0x20 DUP3 DUP5 SUB SLT ISZERO PUSH3 0x6E4 JUMPI PUSH1 0x0 DUP1 REVERT JUMPDEST POP MLOAD SWAP2 SWAP1 POP JUMP JUMPDEST PUSH1 0x80 MLOAD PUSH1 0xA0 MLOAD PUSH2 0xE7E PUSH3 0x726 PUSH1 0x0 CODECOPY PUSH1 0x0 DUP2 DUP2 PUSH2 0x1F7 ADD MSTORE DUP2 DUP2 PUSH2 0x955 ADD MSTORE PUSH2 0x9F6 ADD MSTORE PUSH1 0x0 DUP2 DUP2 PUSH2 0x382 ADD MSTORE PUSH2 0x581 ADD MSTORE PUSH2 0xE7E PUSH1 0x0 RETURN INVALID PUSH1 0x80 PUSH1 0x40 MSTORE CALLVALUE DUP1 ISZERO PUSH2 0x10 JUMPI PUSH1 0x0 DUP1 REVERT JUMPDEST POP PUSH1 0x4 CALLDATASIZE LT PUSH2 0x158 JUMPI PUSH1 0x0 CALLDATALOAD PUSH1 0xE0 SHR DUP1 PUSH4 0xB93D28EB GT PUSH2 0xC3 JUMPI DUP1 PUSH4 0xE8295588 GT PUSH2 0x7C JUMPI DUP1 PUSH4 0xE8295588 EQ PUSH2 0x343 JUMPI DUP1 PUSH4 0xEC732959 EQ PUSH2 0x356 JUMPI DUP1 PUSH4 0xED33639F EQ PUSH2 0x37D JUMPI DUP1 PUSH4 0xF178E47C EQ PUSH2 0x3A4 JUMPI DUP1 PUSH4 0xF2FDE38B EQ PUSH2 0x3B7 JUMPI DUP1 PUSH4 0xFC7E9C6F EQ PUSH2 0x3CA JUMPI PUSH1 0x0 DUP1 REVERT JUMPDEST DUP1 PUSH4 0xB93D28EB EQ PUSH2 0x2D7 JUMPI DUP1 PUSH4 0xBA70F757 EQ PUSH2 0x2EA JUMPI DUP1 PUSH4 0xC2B40AE4 EQ PUSH2 0x2F2 JUMPI DUP1 PUSH4 0xC4566BDD EQ PUSH2 0x305 JUMPI DUP1 PUSH4 0xCD87A3B4 EQ PUSH2 0x318 JUMPI DUP1 PUSH4 0xE5285DCC EQ PUSH2 0x320 JUMPI PUSH1 0x0 DUP1 REVERT JUMPDEST DUP1 PUSH4 0x715018A6 GT PUSH2 0x115 JUMPI DUP1 PUSH4 0x715018A6 EQ PUSH2 0x241 JUMPI DUP1 PUSH4 0x7305651D EQ PUSH2 0x249 JUMPI DUP1 PUSH4 0x839DF945 EQ PUSH2 0x25C JUMPI DUP1 PUSH4 0x8DA5CB5B EQ PUSH2 0x27F JUMPI DUP1 PUSH4 0x90EEB02B EQ PUSH2 0x2A4 JUMPI DUP1 PUSH4 0x92C54DAF EQ PUSH2 0x2B4 JUMPI PUSH1 0x0 DUP1 REVERT JUMPDEST DUP1 PUSH4 0x17CC915C EQ PUSH2 0x15D JUMPI DUP1 PUSH4 0x2C000287 EQ PUSH2 0x195 JUMPI DUP1 PUSH4 0x38BF282E EQ PUSH2 0x1AA JUMPI DUP1 PUSH4 0x414A37BA EQ PUSH2 0x1CB JUMPI DUP1 PUSH4 0x4ECF518B EQ PUSH2 0x1F2 JUMPI DUP1 PUSH4 0x6D9833E3 EQ PUSH2 0x22E JUMPI JUMPDEST PUSH1 0x0 DUP1 REVERT JUMPDEST PUSH2 0x180 PUSH2 0x16B CALLDATASIZE PUSH1 0x4 PUSH2 0xB7E JUMP JUMPDEST PUSH1 0x23 PUSH1 0x20 MSTORE PUSH1 0x0 SWAP1 DUP2 MSTORE PUSH1 0x40 SWAP1 KECCAK256 SLOAD PUSH1 0xFF AND DUP2 JUMP JUMPDEST PUSH1 0x40 MLOAD SWAP1 ISZERO ISZERO DUP2 MSTORE PUSH1 0x20 ADD JUMPDEST PUSH1 0x40 MLOAD DUP1 SWAP2 SUB SWAP1 RETURN JUMPDEST PUSH2 0x1A8 PUSH2 0x1A3 CALLDATASIZE PUSH1 0x4 PUSH2 0xB7E JUMP JUMPDEST PUSH2 0x3E2 JUMP JUMPDEST STOP JUMPDEST PUSH2 0x1BD PUSH2 0x1B8 CALLDATASIZE PUSH1 0x4 PUSH2 0xB97 JUMP JUMPDEST PUSH2 0x46E JUMP JUMPDEST PUSH1 0x40 MLOAD SWAP1 DUP2 MSTORE PUSH1 0x20 ADD PUSH2 0x18C JUMP JUMPDEST PUSH2 0x1BD PUSH32 0x30644E72E131A029B85045B68181585D2833E84879B9709143E1F593F0000001 DUP2 JUMP JUMPDEST PUSH2 0x219 PUSH32 0x0 DUP2 JUMP JUMPDEST PUSH1 0x40 MLOAD PUSH4 0xFFFFFFFF SWAP1 SWAP2 AND DUP2 MSTORE PUSH1 0x20 ADD PUSH2 0x18C JUMP JUMPDEST PUSH2 0x180 PUSH2 0x23C CALLDATASIZE PUSH1 0x4 PUSH2 0xB7E JUMP JUMPDEST PUSH2 0x601 JUMP JUMPDEST PUSH2 0x1A8 PUSH2 0x684 JUMP JUMPDEST PUSH2 0x1A8 PUSH2 0x257 CALLDATASIZE PUSH1 0x4 PUSH2 0xB7E JUMP JUMPDEST PUSH2 0x698 JUMP JUMPDEST PUSH2 0x180 PUSH2 0x26A CALLDATASIZE PUSH1 0x4 PUSH2 0xB7E JUMP JUMPDEST PUSH1 0x22 PUSH1 0x20 MSTORE PUSH1 0x0 SWAP1 DUP2 MSTORE PUSH1 0x40 SWAP1 KECCAK256 SLOAD PUSH1 0xFF AND DUP2 JUMP JUMPDEST PUSH1 0x21 SLOAD PUSH1 0x1 PUSH1 0x1 PUSH1 0xA0 SHL SUB AND JUMPDEST PUSH1 0x40 MLOAD PUSH1 0x1 PUSH1 0x1 PUSH1 0xA0 SHL SUB SWAP1 SWAP2 AND DUP2 MSTORE PUSH1 0x20 ADD PUSH2 0x18C JUMP JUMPDEST PUSH1 0x2 SLOAD PUSH2 0x219 SWAP1 PUSH4 0xFFFFFFFF AND DUP2 JUMP JUMPDEST PUSH2 0x180 PUSH2 0x2C2 CALLDATASIZE PUSH1 0x4 PUSH2 0xBB9 JUMP JUMPDEST PUSH1 0x24 PUSH1 0x20 MSTORE PUSH1 0x0 SWAP1 DUP2 MSTORE PUSH1 0x40 SWAP1 KECCAK256 SLOAD PUSH1 0xFF AND DUP2 JUMP JUMPDEST PUSH2 0x1A8 PUSH2 0x2E5 CALLDATASIZE PUSH1 0x4 PUSH2 0xBB9 JUMP JUMPDEST PUSH2 0x76B JUMP JUMPDEST PUSH2 0x1BD PUSH2 0x7BC JUMP JUMPDEST PUSH2 0x1BD PUSH2 0x300 CALLDATASIZE PUSH1 0x4 PUSH2 0xB7E JUMP JUMPDEST PUSH2 0x7E2 JUMP JUMPDEST PUSH2 0x1A8 PUSH2 0x313 CALLDATASIZE PUSH1 0x4 PUSH2 0xBB9 JUMP JUMPDEST PUSH2 0x7F9 JUMP JUMPDEST PUSH2 0x219 PUSH1 0x1E DUP2 JUMP JUMPDEST PUSH2 0x180 PUSH2 0x32E CALLDATASIZE PUSH1 0x4 PUSH2 0xB7E JUMP JUMPDEST PUSH1 0x0 SWAP1 DUP2 MSTORE PUSH1 0x23 PUSH1 0x20 MSTORE PUSH1 0x40 SWAP1 KECCAK256 SLOAD PUSH1 0xFF AND SWAP1 JUMP JUMPDEST PUSH2 0x1BD PUSH2 0x351 CALLDATASIZE PUSH1 0x4 PUSH2 0xB7E JUMP JUMPDEST PUSH2 0x84D JUMP JUMPDEST PUSH2 0x1BD PUSH32 0x2FE54C60D3ACABF3343A35B6EBA15DB4821B340F76E741E2249685ED4899AF6C DUP2 JUMP JUMPDEST PUSH2 0x28C PUSH32 0x0 DUP2 JUMP JUMPDEST PUSH2 0x1BD PUSH2 0x3B2 CALLDATASIZE PUSH1 0x4 PUSH2 0xB7E JUMP JUMPDEST PUSH2 0x86E JUMP JUMPDEST PUSH2 0x1A8 PUSH2 0x3C5 CALLDATASIZE PUSH1 0x4 PUSH2 0xBB9 JUMP JUMPDEST PUSH2 0x87E JUMP JUMPDEST PUSH1 0x2 SLOAD PUSH2 0x219 SWAP1 PUSH5 0x100000000 SWAP1 DIV PUSH4 0xFFFFFFFF AND DUP2 JUMP JUMPDEST PUSH1 0x21 SLOAD PUSH1 0x1 PUSH1 0x1 PUSH1 0xA0 SHL SUB AND CALLER EQ DUP1 PUSH2 0x40A JUMPI POP CALLER PUSH1 0x0 SWAP1 DUP2 MSTORE PUSH1 0x24 PUSH1 0x20 MSTORE PUSH1 0x40 SWAP1 KECCAK256 SLOAD PUSH1 0xFF AND JUMPDEST PUSH2 0x44C JUMPI PUSH1 0x40 MLOAD PUSH3 0x461BCD PUSH1 0xE5 SHL DUP2 MSTORE PUSH1 0x20 PUSH1 0x4 DUP3 ADD MSTORE PUSH1 0xE PUSH1 0x24 DUP3 ADD MSTORE PUSH14 0x139BDD08185D5D1A1BDC9A5E9959 PUSH1 0x92 SHL PUSH1 0x44 DUP3 ADD MSTORE PUSH1 0x64 ADD JUMPDEST PUSH1 0x40 MLOAD DUP1 SWAP2 SUB SWAP1 REVERT JUMPDEST PUSH2 0x46B DUP2 PUSH1 0x0 SWAP1 DUP2 MSTORE PUSH1 0x23 PUSH1 0x20 MSTORE PUSH1 0x40 SWAP1 KECCAK256 DUP1 SLOAD PUSH1 0xFF NOT AND PUSH1 0x1 OR SWAP1 SSTORE JUMP JUMPDEST POP JUMP JUMPDEST PUSH1 0x0 PUSH32 0x30644E72E131A029B85045B68181585D2833E84879B9709143E1F593F0000001 DUP4 LT PUSH2 0x4DF JUMPI PUSH1 0x40 MLOAD PUSH3 0x461BCD PUSH1 0xE5 SHL DUP2 MSTORE PUSH1 0x20 PUSH1 0x4 DUP3 ADD DUP2 SWAP1 MSTORE PUSH1 0x24 DUP3 ADD MSTORE PUSH32 0x5F6C6566742073686F756C6420626520696E7369646520746865206669656C64 PUSH1 0x44 DUP3 ADD MSTORE PUSH1 0x64 ADD PUSH2 0x443 JUMP JUMPDEST PUSH32 0x30644E72E131A029B85045B68181585D2833E84879B9709143E1F593F0000001 DUP3 LT PUSH2 0x558 JUMPI PUSH1 0x40 MLOAD PUSH3 0x461BCD PUSH1 0xE5 SHL DUP2 MSTORE PUSH1 0x20 PUSH1 0x4 DUP3 ADD MSTORE PUSH1 0x21 PUSH1 0x24 DUP3 ADD MSTORE PUSH32 0x5F72696768742073686F756C6420626520696E7369646520746865206669656C PUSH1 0x44 DUP3 ADD MSTORE PUSH1 0x19 PUSH1 0xFA SHL PUSH1 0x64 DUP3 ADD MSTORE PUSH1 0x84 ADD PUSH2 0x443 JUMP JUMPDEST PUSH1 0x40 DUP1 MLOAD DUP1 DUP3 ADD DUP3 MSTORE DUP5 DUP2 MSTORE PUSH1 0x20 DUP2 ADD DUP5 SWAP1 MSTORE SWAP1 MLOAD PUSH4 0x14CF2B3 PUSH1 0xE5 SHL DUP2 MSTORE PUSH1 0x1 PUSH1 0x1 PUSH1 0xA0 SHL SUB PUSH32 0x0 AND SWAP1 PUSH4 0x299E5660 SWAP1 PUSH2 0x5B6 SWAP1 DUP5 SWAP1 PUSH1 0x4 ADD PUSH2 0xBE9 JUMP JUMPDEST PUSH1 0x20 PUSH1 0x40 MLOAD DUP1 DUP4 SUB DUP2 DUP7 GAS STATICCALL ISZERO DUP1 ISZERO PUSH2 0x5D3 JUMPI RETURNDATASIZE PUSH1 0x0 DUP1 RETURNDATACOPY RETURNDATASIZE PUSH1 0x0 REVERT JUMPDEST POP POP POP POP PUSH1 0x40 MLOAD RETURNDATASIZE PUSH1 0x1F NOT PUSH1 0x1F DUP3 ADD AND DUP3 ADD DUP1 PUSH1 0x40 MSTORE POP DUP2 ADD SWAP1 PUSH2 0x5F7 SWAP2 SWAP1 PUSH2 0xC1A JUMP JUMPDEST SWAP2 POP POP JUMPDEST SWAP3 SWAP2 POP POP JUMP JUMPDEST PUSH1 0x0 DUP2 DUP2 SUB PUSH2 0x612 JUMPI POP PUSH1 0x0 SWAP2 SWAP1 POP JUMP JUMPDEST PUSH1 0x2 SLOAD PUSH4 0xFFFFFFFF AND DUP1 JUMPDEST PUSH1 0x3 DUP2 PUSH4 0xFFFFFFFF AND PUSH1 0x1E DUP2 LT PUSH2 0x636 JUMPI PUSH2 0x636 PUSH2 0xC33 JUMP JUMPDEST ADD SLOAD DUP5 SUB PUSH2 0x648 JUMPI POP PUSH1 0x1 SWAP4 SWAP3 POP POP POP JUMP JUMPDEST DUP1 PUSH4 0xFFFFFFFF AND PUSH1 0x0 SUB PUSH2 0x65A JUMPI POP PUSH1 0x1E JUMPDEST DUP1 PUSH2 0x664 DUP2 PUSH2 0xC5F JUMP JUMPDEST SWAP2 POP POP DUP2 PUSH4 0xFFFFFFFF AND DUP2 PUSH4 0xFFFFFFFF AND SUB PUSH2 0x61D JUMPI POP PUSH1 0x0 SWAP4 SWAP3 POP POP POP JUMP JUMPDEST PUSH2 0x68C PUSH2 0x8B9 JUMP JUMPDEST PUSH2 0x696 PUSH1 0x0 PUSH2 0x8E6 JUMP JUMPDEST JUMP JUMPDEST PUSH1 0x0 DUP2 DUP2 MSTORE PUSH1 0x22 PUSH1 0x20 MSTORE PUSH1 0x40 SWAP1 KECCAK256 SLOAD PUSH1 0xFF AND ISZERO PUSH2 0x6F7 JUMPI PUSH1 0x40 MLOAD PUSH3 0x461BCD PUSH1 0xE5 SHL DUP2 MSTORE PUSH1 0x20 PUSH1 0x4 DUP3 ADD MSTORE PUSH1 0x19 PUSH1 0x24 DUP3 ADD MSTORE PUSH32 0x436F6D6D69746D656E7420616C72656164792065786973747300000000000000 PUSH1 0x44 DUP3 ADD MSTORE PUSH1 0x64 ADD PUSH2 0x443 JUMP JUMPDEST PUSH1 0x0 PUSH2 0x702 DUP3 PUSH2 0x938 JUMP JUMPDEST PUSH1 0x0 DUP4 DUP2 MSTORE PUSH1 0x22 PUSH1 0x20 MSTORE PUSH1 0x40 SWAP1 KECCAK256 DUP1 SLOAD PUSH1 0xFF NOT AND PUSH1 0x1 OR SWAP1 SSTORE SWAP1 POP DUP2 PUSH32 0xA09501FAD2192A164A95320E318BA13B8BD45A0E5007B8C933D6CF5D33DDE6A8 DUP3 PUSH2 0x748 PUSH2 0x7BC JUMP JUMPDEST PUSH1 0x40 DUP1 MLOAD PUSH4 0xFFFFFFFF SWAP1 SWAP4 AND DUP4 MSTORE PUSH1 0x20 DUP4 ADD SWAP2 SWAP1 SWAP2 MSTORE ADD PUSH1 0x40 MLOAD DUP1 SWAP2 SUB SWAP1 LOG2 POP POP JUMP JUMPDEST PUSH2 0x773 PUSH2 0x8B9 JUMP JUMPDEST PUSH1 0x1 PUSH1 0x1 PUSH1 0xA0 SHL SUB DUP2 AND PUSH1 0x0 DUP2 DUP2 MSTORE PUSH1 0x24 PUSH1 0x20 MSTORE PUSH1 0x40 DUP1 DUP3 KECCAK256 DUP1 SLOAD PUSH1 0xFF NOT AND SWAP1 SSTORE MLOAD PUSH32 0x2214DED40113CC3FB63FC206CAFEE88270B0A903DAC7245D54EFDDE30EBB0321 SWAP2 SWAP1 LOG2 POP JUMP JUMPDEST PUSH1 0x2 SLOAD PUSH1 0x0 SWAP1 PUSH1 0x3 SWAP1 PUSH4 0xFFFFFFFF AND PUSH1 0x1E DUP2 LT PUSH2 0x7DB JUMPI PUSH2 0x7DB PUSH2 0xC33 JUMP JUMPDEST ADD SLOAD SWAP1 POP SWAP1 JUMP JUMPDEST PUSH1 0x3 DUP2 PUSH1 0x1E DUP2 LT PUSH2 0x7F2 JUMPI PUSH1 0x0 DUP1 REVERT JUMPDEST ADD SLOAD SWAP1 POP DUP2 JUMP JUMPDEST PUSH2 0x801 PUSH2 0x8B9 JUMP JUMPDEST PUSH1 0x1 PUSH1 0x1 PUSH1 0xA0 SHL SUB DUP2 AND PUSH1 0x0 DUP2 DUP2 MSTORE PUSH1 0x24 PUSH1 0x20 MSTORE PUSH1 0x40 DUP1 DUP3 KECCAK256 DUP1 SLOAD PUSH1 0xFF NOT AND PUSH1 0x1 OR SWAP1 SSTORE MLOAD PUSH32 0x311D2B687F3241372CA29B49F84AB625DE8E695CB75DC6F3126A2AAD34BCE0C5 SWAP2 SWAP1 LOG2 POP JUMP JUMPDEST PUSH1 0x1 DUP2 DUP2 SLOAD DUP2 LT PUSH2 0x85D JUMPI PUSH1 0x0 DUP1 REVERT JUMPDEST PUSH1 0x0 SWAP2 DUP3 MSTORE PUSH1 0x20 SWAP1 SWAP2 KECCAK256 ADD SLOAD SWAP1 POP DUP2 JUMP JUMPDEST PUSH1 0x0 DUP2 DUP2 SLOAD DUP2 LT PUSH2 0x85D JUMPI PUSH1 0x0 DUP1 REVERT JUMPDEST PUSH2 0x886 PUSH2 0x8B9 JUMP JUMPDEST PUSH1 0x1 PUSH1 0x1 PUSH1 0xA0 SHL SUB DUP2 AND PUSH2 0x8B0 JUMPI PUSH1 0x40 MLOAD PUSH4 0x1E4FBDF7 PUSH1 0xE0 SHL DUP2 MSTORE PUSH1 0x0 PUSH1 0x4 DUP3 ADD MSTORE PUSH1 0x24 ADD PUSH2 0x443 JUMP JUMPDEST PUSH2 0x46B DUP2 PUSH2 0x8E6 JUMP JUMPDEST PUSH1 0x21 SLOAD PUSH1 0x1 PUSH1 0x1 PUSH1 0xA0 SHL SUB AND CALLER EQ PUSH2 0x696 JUMPI PUSH1 0x40 MLOAD PUSH4 0x118CDAA7 PUSH1 0xE0 SHL DUP2 MSTORE CALLER PUSH1 0x4 DUP3 ADD MSTORE PUSH1 0x24 ADD PUSH2 0x443 JUMP JUMPDEST PUSH1 0x21 DUP1 SLOAD PUSH1 0x1 PUSH1 0x1 PUSH1 0xA0 SHL SUB DUP4 DUP2 AND PUSH1 0x1 PUSH1 0x1 PUSH1 0xA0 SHL SUB NOT DUP4 AND DUP2 OR SWAP1 SWAP4 SSTORE PUSH1 0x40 MLOAD SWAP2 AND SWAP2 SWAP1 DUP3 SWAP1 PUSH32 0x8BE0079C531659141344CD1FD0A4F28419497F9722A3DAAFE3B4186F6B6457E0 SWAP1 PUSH1 0x0 SWAP1 LOG3 POP POP JUMP JUMPDEST PUSH1 0x2 DUP1 SLOAD PUSH1 0x0 SWAP2 PUSH5 0x100000000 SWAP1 SWAP2 DIV PUSH4 0xFFFFFFFF AND SWAP1 PUSH2 0x97A SWAP1 PUSH32 0x0 SWAP1 PUSH2 0xD90 JUMP JUMPDEST PUSH4 0xFFFFFFFF AND DUP2 PUSH4 0xFFFFFFFF AND SUB PUSH2 0x9ED JUMPI PUSH1 0x40 MLOAD PUSH3 0x461BCD PUSH1 0xE5 SHL DUP2 MSTORE PUSH1 0x20 PUSH1 0x4 DUP3 ADD MSTORE PUSH1 0x30 PUSH1 0x24 DUP3 ADD MSTORE PUSH32 0x4D65726B6C6520747265652069732066756C6C2E204E6F206D6F7265206C6561 PUSH1 0x44 DUP3 ADD MSTORE PUSH16 0x1D995CC818D85B881899481859191959 PUSH1 0x82 SHL PUSH1 0x64 DUP3 ADD MSTORE PUSH1 0x84 ADD PUSH2 0x443 JUMP JUMPDEST DUP1 DUP4 PUSH1 0x0 DUP1 DUP1 JUMPDEST PUSH32 0x0 PUSH4 0xFFFFFFFF AND DUP2 PUSH4 0xFFFFFFFF AND LT ISZERO PUSH2 0xAE9 JUMPI PUSH2 0xA33 PUSH1 0x2 DUP7 PUSH2 0xDBB JUMP JUMPDEST PUSH4 0xFFFFFFFF AND PUSH1 0x0 SUB PUSH2 0xA94 JUMPI DUP4 SWAP3 POP PUSH1 0x1 DUP2 PUSH4 0xFFFFFFFF AND DUP2 SLOAD DUP2 LT PUSH2 0xA5C JUMPI PUSH2 0xA5C PUSH2 0xC33 JUMP JUMPDEST SWAP1 PUSH1 0x0 MSTORE PUSH1 0x20 PUSH1 0x0 KECCAK256 ADD SLOAD SWAP2 POP DUP4 PUSH1 0x0 DUP3 PUSH4 0xFFFFFFFF AND DUP2 SLOAD DUP2 LT PUSH2 0xA83 JUMPI PUSH2 0xA83 PUSH2 0xC33 JUMP JUMPDEST PUSH1 0x0 SWAP2 DUP3 MSTORE PUSH1 0x20 SWAP1 SWAP2 KECCAK256 ADD SSTORE PUSH2 0xABE JUMP JUMPDEST PUSH1 0x0 DUP2 PUSH4 0xFFFFFFFF AND DUP2 SLOAD DUP2 LT PUSH2 0xAAD JUMPI PUSH2 0xAAD PUSH2 0xC33 JUMP JUMPDEST SWAP1 PUSH1 0x0 MSTORE PUSH1 0x20 PUSH1 0x0 KECCAK256 ADD SLOAD SWAP3 POP DUP4 SWAP2 POP JUMPDEST PUSH2 0xAC8 DUP4 DUP4 PUSH2 0x46E JUMP JUMPDEST SWAP4 POP PUSH2 0xAD5 PUSH1 0x2 DUP7 PUSH2 0xDDE JUMP JUMPDEST SWAP5 POP DUP1 PUSH2 0xAE1 DUP2 PUSH2 0xE01 JUMP JUMPDEST SWAP2 POP POP PUSH2 0x9F4 JUMP JUMPDEST POP PUSH1 0x2 SLOAD PUSH1 0x0 SWAP1 PUSH1 0x1E SWAP1 PUSH2 0xB04 SWAP1 PUSH4 0xFFFFFFFF AND PUSH1 0x1 PUSH2 0xE24 JUMP JUMPDEST PUSH2 0xB0E SWAP2 SWAP1 PUSH2 0xDBB JUMP JUMPDEST PUSH1 0x2 DUP1 SLOAD PUSH4 0xFFFFFFFF NOT AND PUSH4 0xFFFFFFFF DUP4 AND SWAP1 DUP2 OR SWAP1 SWAP2 SSTORE SWAP1 SWAP2 POP DUP5 SWAP1 PUSH1 0x3 SWAP1 PUSH1 0x1E DUP2 LT PUSH2 0xB3E JUMPI PUSH2 0xB3E PUSH2 0xC33 JUMP JUMPDEST ADD SSTORE PUSH2 0xB4B DUP7 PUSH1 0x1 PUSH2 0xE24 JUMP JUMPDEST PUSH1 0x2 DUP1 SLOAD PUSH4 0xFFFFFFFF SWAP3 SWAP1 SWAP3 AND PUSH5 0x100000000 MUL PUSH8 0xFFFFFFFF00000000 NOT SWAP1 SWAP3 AND SWAP2 SWAP1 SWAP2 OR SWAP1 SSTORE POP SWAP4 SWAP7 SWAP6 POP POP POP POP POP POP JUMP JUMPDEST PUSH1 0x0 PUSH1 0x20 DUP3 DUP5 SUB SLT ISZERO PUSH2 0xB90 JUMPI PUSH1 0x0 DUP1 REVERT JUMPDEST POP CALLDATALOAD SWAP2 SWAP1 POP JUMP JUMPDEST PUSH1 0x0 DUP1 PUSH1 0x40 DUP4 DUP6 SUB SLT ISZERO PUSH2 0xBAA JUMPI PUSH1 0x0 DUP1 REVERT JUMPDEST POP POP DUP1 CALLDATALOAD SWAP3 PUSH1 0x20 SWAP1 SWAP2 ADD CALLDATALOAD SWAP2 POP JUMP JUMPDEST PUSH1 0x0 PUSH1 0x20 DUP3 DUP5 SUB SLT ISZERO PUSH2 0xBCB JUMPI PUSH1 0x0 DUP1 REVERT JUMPDEST DUP2 CALLDATALOAD PUSH1 0x1 PUSH1 0x1 PUSH1 0xA0 SHL SUB DUP2 AND DUP2 EQ PUSH2 0xBE2 JUMPI PUSH1 0x0 DUP1 REVERT JUMPDEST SWAP4 SWAP3 POP POP POP JUMP JUMPDEST PUSH1 0x40 DUP2 ADD DUP2 DUP4 PUSH1 0x0 JUMPDEST PUSH1 0x2 DUP2 LT ISZERO PUSH2 0xC11 JUMPI DUP2 MLOAD DUP4 MSTORE PUSH1 0x20 SWAP3 DUP4 ADD SWAP3 SWAP1 SWAP2 ADD SWAP1 PUSH1 0x1 ADD PUSH2 0xBF2 JUMP JUMPDEST POP POP POP SWAP3 SWAP2 POP POP JUMP JUMPDEST PUSH1 0x0 PUSH1 0x20 DUP3 DUP5 SUB SLT ISZERO PUSH2 0xC2C JUMPI PUSH1 0x0 DUP1 REVERT JUMPDEST POP MLOAD SWAP2 SWAP1 POP JUMP JUMPDEST PUSH4 0x4E487B71 PUSH1 0xE0 SHL PUSH1 0x0 MSTORE PUSH1 0x32 PUSH1 0x4 MSTORE PUSH1 0x24 PUSH1 0x0 REVERT JUMPDEST PUSH4 0x4E487B71 PUSH1 0xE0 SHL PUSH1 0x0 MSTORE PUSH1 0x11 PUSH1 0x4 MSTORE PUSH1 0x24 PUSH1 0x0 REVERT JUMPDEST PUSH1 0x0 PUSH4 0xFFFFFFFF DUP3 AND DUP1 PUSH2 0xC75 JUMPI PUSH2 0xC75 PUSH2 0xC49 JUMP JUMPDEST PUSH1 0x0 NOT ADD SWAP3 SWAP2 POP POP JUMP JUMPDEST PUSH1 0x1 DUP2 DUP2 JUMPDEST DUP1 DUP6 GT ISZERO PUSH2 0xCBC JUMPI DUP2 PUSH4 0xFFFFFFFF DIV DUP3 GT ISZERO PUSH2 0xCA2 JUMPI PUSH2 0xCA2 PUSH2 0xC49 JUMP JUMPDEST DUP1 DUP6 AND ISZERO PUSH2 0xCAF JUMPI SWAP2 DUP2 MUL SWAP2 JUMPDEST SWAP4 DUP5 SHR SWAP4 SWAP1 DUP1 MUL SWAP1 PUSH2 0xC84 JUMP JUMPDEST POP SWAP3 POP SWAP3 SWAP1 POP JUMP JUMPDEST PUSH1 0x0 DUP3 PUSH2 0xCD3 JUMPI POP PUSH1 0x1 PUSH2 0x5FB JUMP JUMPDEST DUP2 PUSH2 0xCE0 JUMPI POP PUSH1 0x0 PUSH2 0x5FB JUMP JUMPDEST DUP2 PUSH1 0x1 DUP2 EQ PUSH2 0xCF6 JUMPI PUSH1 0x2 DUP2 EQ PUSH2 0xD00 JUMPI PUSH2 0xD31 JUMP JUMPDEST PUSH1 0x1 SWAP2 POP POP PUSH2 0x5FB JUMP JUMPDEST PUSH1 0xFF DUP5 GT ISZERO PUSH2 0xD11 JUMPI PUSH2 0xD11 PUSH2 0xC49 JUMP JUMPDEST PUSH1 0x1 DUP5 SHL SWAP2 POP PUSH4 0xFFFFFFFF DUP3 GT ISZERO PUSH2 0xD2B JUMPI PUSH2 0xD2B PUSH2 0xC49 JUMP JUMPDEST POP PUSH2 0x5FB JUMP JUMPDEST POP PUSH1 0x20 DUP4 LT PUSH2 0x133 DUP4 LT AND PUSH1 0x4E DUP5 LT PUSH1 0xB DUP5 LT AND OR ISZERO PUSH2 0xD68 JUMPI POP DUP2 DUP2 EXP PUSH4 0xFFFFFFFF DUP2 GT ISZERO PUSH2 0xD63 JUMPI PUSH2 0xD63 PUSH2 0xC49 JUMP JUMPDEST PUSH2 0x5FB JUMP JUMPDEST PUSH2 0xD72 DUP4 DUP4 PUSH2 0xC7F JUMP JUMPDEST DUP1 PUSH4 0xFFFFFFFF DIV DUP3 GT ISZERO PUSH2 0xD88 JUMPI PUSH2 0xD88 PUSH2 0xC49 JUMP JUMPDEST MUL SWAP4 SWAP3 POP POP POP JUMP JUMPDEST PUSH1 0x0 PUSH4 0xFFFFFFFF PUSH2 0x5F7 DUP2 DUP6 AND DUP3 DUP6 AND PUSH2 0xCC4 JUMP JUMPDEST PUSH4 0x4E487B71 PUSH1 0xE0 SHL PUSH1 0x0 MSTORE PUSH1 0x12 PUSH1 0x4 MSTORE PUSH1 0x24 PUSH1 0x0 REVERT JUMPDEST PUSH1 0x0 PUSH4 0xFFFFFFFF DUP1 DUP5 AND DUP1 PUSH2 0xDD2 JUMPI PUSH2 0xDD2 PUSH2 0xDA5 JUMP JUMPDEST SWAP3 AND SWAP2 SWAP1 SWAP2 MOD SWAP3 SWAP2 POP POP JUMP JUMPDEST PUSH1 0x0 PUSH4 0xFFFFFFFF DUP1 DUP5 AND DUP1 PUSH2 0xDF5 JUMPI PUSH2 0xDF5 PUSH2 0xDA5 JUMP JUMPDEST SWAP3 AND SWAP2 SWAP1 SWAP2 DIV SWAP3 SWAP2 POP POP JUMP JUMPDEST PUSH1 0x0 PUSH4 0xFFFFFFFF DUP1 DUP4 AND DUP2 DUP2 SUB PUSH2 0xE1A JUMPI PUSH2 0xE1A PUSH2 0xC49 JUMP JUMPDEST PUSH1 0x1 ADD SWAP4 SWAP3 POP POP POP JUMP JUMPDEST PUSH4 0xFFFFFFFF DUP2 DUP2 AND DUP4 DUP3 AND ADD SWAP1 DUP1 DUP3 GT ISZERO PUSH2 0xE41 JUMPI PUSH2 0xE41 PUSH2 0xC49 JUMP JUMPDEST POP SWAP3 SWAP2 POP POP JUMP INVALID LOG2 PUSH5 0x6970667358 0x22 SLT KECCAK256 0xA5 ORIGIN PUSH4 0x11815E3F 0xEE PUSH3 0xB7BAD1 COINBASE GT SWAP4 CHAINID 0xCD 0xC3 0xEF LOG3 0xA7 PUSH23 0x53A0061241118077672964736F6C63430008140033290D 0xEC 0xD9 SLOAD DUP12 PUSH3 0xA8D603 GASLIMIT 0xA9 DUP9 CODESIZE PUSH16 0xC84BA6BC95484008F6362F93160EF3E5 PUSH4 0xB10E2D52 PUSH23 0x12073B26EECDFD717E6A320CF44B4AFAC2B0732D9FCBE2 0xB7 STATICCALL 0xC 0xF6 "},"methodIdentifiers":{"FIELD_SIZE()":"414a37ba","ROOT_HISTORY_SIZE()":"cd87a3b4","ZERO_VALUE()":"ec732959","addTrustedIssuer(address)":"c4566bdd","commitments(bytes32)":"839df945","currentRootIndex()":"90eeb02b","depositCommitment(bytes32)":"7305651d","filledSubtrees(uint256)":"f178e47c","getLastRoot()":"ba70f757","hashLeftRight(bytes32,bytes32)":"38bf282e","hasher()":"ed33639f","isKnownRoot(bytes32)":"6d9833e3","isSpent(bytes32)":"e5285dcc","levels()":"4ecf518b","markNullifierSpent(bytes32)":"2c000287","nextIndex()":"fc7e9c6f","nullifierHashes(bytes32)":"17cc915c","owner()":"8da5cb5b","removeTrustedIssuer(address)":"b93d28eb","renounceOwnership()":"715018a6","roots(uint256)":"c2b40ae4","transferOwnership(address)":"f2fde38b","trustedIssuers(address)":"92c54daf","zeros(uint256)":"e8295588"}}}}}