{"contracts/ZKAccessController.sol":{"ZKAccessController":{"abi":[{"inputs":[{"internalType":"address","name":"_kycRegistry","type":"address"},{"internalType":"address","name":"_verifier","type":"address"}],"stateMutability":"nonpayable","type":"constructor"},{"inputs":[{"internalType":"address","name":"owner","type":"address"}],"name":"OwnableInvalidOwner","type":"error"},{"inputs":[{"internalType":"address","name":"account","type":"address"}],"name":"OwnableUnauthorizedAccount","type":"error"},{"inputs":[],"name":"ReentrancyGuardReentrantCall","type":"error"},{"anonymous":false,"inputs":[{"indexed":true,"internalType":"address","name":"user","type":"address"},{"indexed":true,"internalType":"string","name":"service","type":"string"},{"indexed":false,"internalType":"bytes32","name":"nullifierHash","type":"bytes32"}],"name":"AccessGranted","type":"event"},{"anonymous":false,"inputs":[{"indexed":true,"internalType":"address","name":"user","type":"address"},{"indexed":true,"internalType":"string","name":"service","type":"string"}],"name":"AccessRevoked","type":"event"},{"anonymous":false,"inputs":[{"indexed":true,"internalType":"address","name":"user","type":"address"},{"indexed":false,"internalType":"bytes32","name":"nullifierHash","type":"bytes32"},{"indexed":false,"internalType":"uint256","name":"age","type":"uint256"}],"name":"KYCVerified","type":"event"},{"anonymous":false,"inputs":[{"indexed":true,"internalType":"address","name":"previousOwner","type":"address"},{"indexed":true,"internalType":"address","name":"newOwner","type":"address"}],"name":"OwnershipTransferred","type":"event"},{"anonymous":false,"inputs":[{"indexed":true,"internalType":"string","name":"service","type":"string"},{"indexed":false,"internalType":"bool","name":"enabled","type":"bool"},{"indexed":false,"internalType":"uint256","name":"minimumAge","type":"uint256"},{"indexed":false,"internalType":"uint256","name":"validityPeriod","type":"uint256"}],"name":"ServiceConfigured","type":"event"},{"inputs":[{"internalType":"string","name":"serviceName","type":"string"}],"name":"accessRestrictedService","outputs":[],"stateMutability":"nonpayable","type":"function"},{"inputs":[{"components":[{"internalType":"uint256[2]","name":"pA","type":"uint256[2]"},{"internalType":"uint256[2][2]","name":"pB","type":"uint256[2][2]"},{"internalType":"uint256[2]","name":"pC","type":"uint256[2]"},{"internalType":"uint256[4]","name":"publicSignals","type":"uint256[4]"}],"internalType":"struct ZKAccessController.ProofData[]","name":"proofs","type":"tuple[]"},{"internalType":"string[]","name":"serviceNames","type":"string[]"}],"name":"batchVerifyAndGrantAccess","outputs":[],"stateMutability":"nonpayable","type":"function"},{"inputs":[{"internalType":"string","name":"serviceName","type":"string"},{"internalType":"bool","name":"enabled","type":"bool"},{"internalType":"uint256","name":"minimumAge","type":"uint256"},{"internalType":"uint256","name":"validityPeriod","type":"uint256"}],"name":"configureService","outputs":[],"stateMutability":"nonpayable","type":"function"},{"inputs":[{"internalType":"string","name":"serviceName","type":"string"}],"name":"getServiceConfig","outputs":[{"internalType":"bool","name":"enabled","type":"bool"},{"internalType":"uint256","name":"minimumAge","type":"uint256"},{"internalType":"uint256","name":"validityPeriod","type":"uint256"}],"stateMutability":"view","type":"function"},{"inputs":[{"internalType":"address","name":"user","type":"address"},{"internalType":"string","name":"serviceName","type":"string"}],"name":"hasAccess","outputs":[{"internalType":"bool","name":"","type":"bool"}],"stateMutability":"view","type":"function"},{"inputs":[],"name":"kycRegistry","outputs":[{"internalType":"contract KYCRegistry","name":"","type":"address"}],"stateMutability":"view","type":"function"},{"inputs":[],"name":"owner","outputs":[{"internalType":"address","name":"","type":"address"}],"stateMutability":"view","type":"function"},{"inputs":[],"name":"renounceOwnership","outputs":[],"stateMutability":"nonpayable","type":"function"},{"inputs":[{"internalType":"address","name":"user","type":"address"},{"internalType":"string","name":"serviceName","type":"string"}],"name":"revokeAccess","outputs":[],"stateMutability":"nonpayable","type":"function"},{"inputs":[{"internalType":"string","name":"","type":"string"}],"name":"services","outputs":[{"internalType":"bool","name":"enabled","type":"bool"},{"internalType":"uint256","name":"minimumAge","type":"uint256"},{"internalType":"uint256","name":"validityPeriod","type":"uint256"}],"stateMutability":"view","type":"function"},{"inputs":[{"internalType":"address","name":"newOwner","type":"address"}],"name":"transferOwnership","outputs":[],"stateMutability":"nonpayable","type":"function"},{"inputs":[{"internalType":"bytes32","name":"","type":"bytes32"}],"name":"usedNullifiers","outputs":[{"internalType":"bool","name":"","type":"bool"}],"stateMutability":"view","type":"function"},{"inputs":[{"internalType":"address","name":"","type":"address"},{"internalType":"string","name":"","type":"string"}],"name":"userAccess","outputs":[{"internalType":"bool","name":"","type":"bool"}],"stateMutability":"view","type":"function"},{"inputs":[],"name":"verifier","outputs":[{"internalType":"contract Verifier","name":"","type":"address"}],"stateMutability":"view","type":"function"},{"inputs":[{"components":[{"internalType":"uint256[2]","name":"pA","type":"uint256[2]"},{"internalType":"uint256[2][2]","name":"pB","type":"uint256[2][2]"},{"internalType":"uint256[2]","name":"pC","type":"uint256[2]"},{"internalType":"uint256[4]","name":"publicSignals","type":"uint256[4]"}],"internalType":"struct ZKAccessController.ProofData","name":"proofData","type":"tuple"},{"internalType":"string","name":"serviceName","type":"string"}],"name":"verifyKYCAndGrantAccess","outputs":[],"stateMutability":"nonpayable","type":"function"}],"evm":{"bytecode":{"linkReferences":{},"object":"60c06040523480156200001157600080fd5b506040516200165d3803806200165d8339810160408190526200003491620000f0565b33806200005b57604051631e4fbdf760e01b81526000600482015260240160405180910390fd5b620000668162000083565b50600180556001600160a01b039182166080521660a05262000128565b600080546001600160a01b038381166001600160a01b0319831681178455604051919092169283917f8be0079c531659141344cd1fd0a4f28419497f9722a3daafe3b4186f6b6457e09190a35050565b80516001600160a01b0381168114620000eb57600080fd5b919050565b600080604083850312156200010457600080fd5b6200010f83620000d3565b91506200011f60208401620000d3565b90509250929050565b60805160a0516114fa62000163600039600081816101370152818161046a0152610acc0152600081816101ea0152610bfe01526114fa6000f3fe608060405234801561001057600080fd5b50600436106100f55760003560e01c80638da5cb5b11610097578063cf046db011610066578063cf046db01461029d578063dc670c25146102b0578063f2fde38b146102c3578063f5573f52146102d657600080fd5b80638da5cb5b14610227578063a8ccb29114610238578063af0f427c1461024b578063c6240ff91461025e57600080fd5b80634b11354c116100d35780634b11354c146101d05780634b155b97146101e55780636a44cac91461020c578063715018a61461021f57600080fd5b8063206137aa146100fa5780632b7ac3f3146101325780633017ba0914610171575b600080fd5b61011d610108366004610f9f565b60046020526000908152604090205460ff1681565b60405190151581526020015b60405180910390f35b6101597f000000000000000000000000000000000000000000000000000000000000000081565b6040516001600160a01b039091168152602001610129565b6101b361017f36600461105b565b80516020818301810180516002808352938301929094019190912092905281546001830154929091015460ff909116919083565b604080519315158452602084019290925290820152606001610129565b6101e36101de366004611098565b6102e9565b005b6101597f000000000000000000000000000000000000000000000000000000000000000081565b6101e361021a3660046111c6565b6106d6565b6101e3610774565b6000546001600160a01b0316610159565b61011d6102463660046111c6565b610788565b6101b3610259366004611219565b6107cc565b61011d61026c36600461125b565b6003602090815260009283526040909220815180830184018051928152908401929093019190912091525460ff1681565b6101e36102ab3660046112b7565b610814565b6101e36102be366004611219565b6108fe565b6101e36102d136600461131e565b6109e7565b6101e36102e4366004611340565b610a25565b6102f1610ef8565b82811461033d5760405162461bcd60e51b8152602060048201526015602482015274082e4e4c2f240d8cadccee8d040dad2e6dac2e8c6d605b1b60448201526064015b60405180910390fd5b60005b838110156106c657600283838381811061035c5761035c611384565b905060200281019061036e919061139a565b60405161037c9291906113e1565b9081526040519081900360200190205460ff166103d15760405162461bcd60e51b815260206004820152601360248201527214d95c9d9a58d9481b9bdd08195b98589b1959606a1b6044820152606401610334565b60008585838181106103e5576103e5611384565b905061018002016101000160016004811061040257610402611384565b602090810291909101356000818152600490925260409091205490915060ff16156104685760405162461bcd60e51b8152602060048201526016602482015275139d5b1b1a599a595c88185b1c9958591e481d5cd95960521b6044820152606401610334565b7f00000000000000000000000000000000000000000000000000000000000000006001600160a01b03166343753b4d8787858181106104a9576104a9611384565b905061018002016000018888868181106104c5576104c5611384565b905061018002016040018989878181106104e1576104e1611384565b9050610180020160c00160405180602001604052808c8c8a81811061050857610508611384565b905061018002016101000160006004811061052557610525611384565b60200201358152506040518563ffffffff1660e01b815260040161054c94939291906113f1565b602060405180830381865afa158015610569573d6000803e3d6000fd5b505050506040513d601f19601f8201168201806040525081019061058d919061145f565b6105c95760405162461bcd60e51b815260206004820152600d60248201526c24b73b30b634b210383937b7b360991b6044820152606401610334565b6000818152600460209081526040808320805460ff19166001908117909155338452600390925290912085858581811061060557610605611384565b9050602002810190610617919061139a565b6040516106259291906113e1565b908152604051908190036020019020805491151560ff1990921691909117905583838381811061065757610657611384565b9050602002810190610669919061139a565b6040516106779291906113e1565b6040519081900381208282529033907f2f1eb371e9d8e535e5cd99f2b3f25871e4b824c23bcc16c35d801dfd5941cba59060200160405180910390a350806106be81611492565b915050610340565b506106d060018055565b50505050565b6106de610f22565b6001600160a01b038316600090815260036020526040808220905161070690859085906113e1565b908152604051908190036020018120805492151560ff199093169290921790915561073490839083906113e1565b604051908190038120906001600160a01b038516907f51cbcaaca6ae26944c6280c966a07b04ca5c6766d82ca497ded152579431468d90600090a3505050565b61077c610f22565b6107866000610f4f565b565b6001600160a01b03831660009081526003602052604080822090516107b090859085906113e1565b9081526040519081900360200190205460ff1690509392505050565b600080600080600286866040516107e49291906113e1565b9081526040519081900360200190208054600182015460029092015460ff90911695509093509150509250925092565b61081c610f22565b826002868660405161082f9291906113e1565b908152604051908190036020018120805492151560ff1990931692909217909155829060029061086290889088906113e1565b908152602001604051809103902060010181905550806002868660405161088a9291906113e1565b908152604051908190036020018120600201919091556108ad90869086906113e1565b60408051918290038220851515835260208301859052908201839052907f05a36ceeedd8f1ac24e5dd483515bbb8ef718db3e5e86358c7371ef14f30f7659060600160405180910390a25050505050565b336000908152600360205260409081902090518391839161092290849084906113e1565b9081526040519081900360200190205460ff166109945760405162461bcd60e51b815260206004820152602a60248201527f4b594320766572696669636174696f6e20726571756972656420666f722074686044820152696973207365727669636560b01b6064820152608401610334565b83836040516109a49291906113e1565b604051908190038120600082529033907f2f1eb371e9d8e535e5cd99f2b3f25871e4b824c23bcc16c35d801dfd5941cba59060200160405180910390a350505050565b6109ef610f22565b6001600160a01b038116610a1957604051631e4fbdf760e01b815260006004820152602401610334565b610a2281610f4f565b50565b610a2d610ef8565b60028282604051610a3f9291906113e1565b9081526040519081900360200190205460ff16610a945760405162461bcd60e51b815260206004820152601360248201527214d95c9d9a58d9481b9bdd08195b98589b1959606a1b6044820152606401610334565b6040805160208101825261010085013580825282516343753b4d60e01b815290926101208701359261014088013592610160890135927f00000000000000000000000000000000000000000000000000000000000000006001600160a01b0316926343753b4d92610b13928c929083019160c0840191906004016113f1565b602060405180830381865afa158015610b30573d6000803e3d6000fd5b505050506040513d601f19601f82011682018060405250810190610b54919061145f565b610b905760405162461bcd60e51b815260206004820152600d60248201526c24b73b30b634b210383937b7b360991b6044820152606401610334565b60008381526004602052604090205460ff1615610be85760405162461bcd60e51b8152602060048201526016602482015275139d5b1b1a599a595c88185b1c9958591e481d5cd95960521b6044820152606401610334565b604051636d9833e360e01b8152600481018590527f00000000000000000000000000000000000000000000000000000000000000006001600160a01b031690636d9833e390602401602060405180830381865afa158015610c4d573d6000803e3d6000fd5b505050506040513d601f19601f82011682018060405250810190610c71919061145f565b610cb35760405162461bcd60e51b8152602060048201526013602482015272125b9d985b1a590813595c9adb19481c9bdbdd606a1b6044820152606401610334565b60028686604051610cc59291906113e1565b908152602001604051809103902060010154811015610d265760405162461bcd60e51b815260206004820152601760248201527f41676520726571756972656d656e74206e6f74206d65740000000000000000006044820152606401610334565b60028686604051610d389291906113e1565b90815260200160405180910390206002015460028787604051610d5c9291906113e1565b9081526020016040518091039020600301600085815260200190815260200160002054610d8991906114ab565b421015610dd85760405162461bcd60e51b815260206004820152601960248201527f53657276696365207573656420746f6f20726563656e746c79000000000000006044820152606401610334565b60008381526004602052604090819020805460ff19166001179055514290600290610e0690899089906113e1565b908152604080519182900360209081018320600088815260039182018352838120959095553385529052909120600191610e4390899089906113e1565b9081526040805160209281900383018120805460ff19169415159490941790935585835290820183905233917ff79bdf1b7d434a5250254c74d2900f9edaf4d76396642ddaddcb2d0e65255868910160405180910390a28585604051610eaa9291906113e1565b6040519081900381208482529033907f2f1eb371e9d8e535e5cd99f2b3f25871e4b824c23bcc16c35d801dfd5941cba59060200160405180910390a350505050610ef360018055565b505050565b600260015403610f1b57604051633ee5aeb560e01b815260040160405180910390fd5b6002600155565b6000546001600160a01b031633146107865760405163118cdaa760e01b8152336004820152602401610334565b600080546001600160a01b038381166001600160a01b0319831681178455604051919092169283917f8be0079c531659141344cd1fd0a4f28419497f9722a3daafe3b4186f6b6457e09190a35050565b600060208284031215610fb157600080fd5b5035919050565b634e487b7160e01b600052604160045260246000fd5b600082601f830112610fdf57600080fd5b813567ffffffffffffffff80821115610ffa57610ffa610fb8565b604051601f8301601f19908116603f0116810190828211818310171561102257611022610fb8565b8160405283815286602085880101111561103b57600080fd5b836020870160208301376000602085830101528094505050505092915050565b60006020828403121561106d57600080fd5b813567ffffffffffffffff81111561108457600080fd5b61109084828501610fce565b949350505050565b600080600080604085870312156110ae57600080fd5b843567ffffffffffffffff808211156110c657600080fd5b818701915087601f8301126110da57600080fd5b8135818111156110e957600080fd5b886020610180830285010111156110ff57600080fd5b60209283019650945090860135908082111561111a57600080fd5b818701915087601f83011261112e57600080fd5b81358181111561113d57600080fd5b8860208260051b850101111561115257600080fd5b95989497505060200194505050565b80356001600160a01b038116811461117857600080fd5b919050565b60008083601f84011261118f57600080fd5b50813567ffffffffffffffff8111156111a757600080fd5b6020830191508360208285010111156111bf57600080fd5b9250929050565b6000806000604084860312156111db57600080fd5b6111e484611161565b9250602084013567ffffffffffffffff81111561120057600080fd5b61120c8682870161117d565b9497909650939450505050565b6000806020838503121561122c57600080fd5b823567ffffffffffffffff81111561124357600080fd5b61124f8582860161117d565b90969095509350505050565b6000806040838503121561126e57600080fd5b61127783611161565b9150602083013567ffffffffffffffff81111561129357600080fd5b61129f85828601610fce565b9150509250929050565b8015158114610a2257600080fd5b6000806000806000608086880312156112cf57600080fd5b853567ffffffffffffffff8111156112e657600080fd5b6112f28882890161117d565b9096509450506020860135611306816112a9565b94979396509394604081013594506060013592915050565b60006020828403121561133057600080fd5b61133982611161565b9392505050565b60008060008385036101a081121561135757600080fd5b6101808082121561136757600080fd5b859450840135905067ffffffffffffffff81111561120057600080fd5b634e487b7160e01b600052603260045260246000fd5b6000808335601e198436030181126113b157600080fd5b83018035915067ffffffffffffffff8211156113cc57600080fd5b6020019150368190038213156111bf57600080fd5b8183823760009101908152919050565b61012081016040808784378083018660005b600281101561142057838284379183019190830190600101611403565b505050808560c08501375061010082018360005b6001811015611453578151835260209283019290910190600101611434565b50505095945050505050565b60006020828403121561147157600080fd5b8151611339816112a9565b634e487b7160e01b600052601160045260246000fd5b6000600182016114a4576114a461147c565b5060010190565b808201808211156114be576114be61147c565b9291505056fea26469706673582212207a86ca8cecf9db6f5f71877e91121d58a55c101dacf8701e6e706d880ea345b964736f6c63430008140033","opcodes":"PUSH1 0xC0 PUSH1 0x40 MSTORE CALLVALUE DUP1 ISZERO PUSH3 0x11 JUMPI PUSH1 0x0 DUP1 REVERT JUMPDEST POP PUSH1 0x40 MLOAD PUSH3 0x165D CODESIZE SUB DUP1 PUSH3 0x165D DUP4 CODECOPY DUP2 ADD PUSH1 0x40 DUP2 SWAP1 MSTORE PUSH3 0x34 SWAP2 PUSH3 0xF0 JUMP JUMPDEST CALLER DUP1 PUSH3 0x5B JUMPI PUSH1 0x40 MLOAD PUSH4 0x1E4FBDF7 PUSH1 0xE0 SHL DUP2 MSTORE PUSH1 0x0 PUSH1 0x4 DUP3 ADD MSTORE PUSH1 0x24 ADD PUSH1 0x40 MLOAD DUP1 SWAP2 SUB SWAP1 REVERT JUMPDEST PUSH3 0x66 DUP2 PUSH3 0x83 JUMP JUMPDEST POP PUSH1 0x1 DUP1 SSTORE PUSH1 0x1 PUSH1 0x1 PUSH1 0xA0 SHL SUB SWAP2 DUP3 AND PUSH1 0x80 MSTORE AND PUSH1 0xA0 MSTORE PUSH3 0x128 JUMP JUMPDEST PUSH1 0x0 DUP1 SLOAD PUSH1 0x1 PUSH1 0x1 PUSH1 0xA0 SHL SUB DUP4 DUP2 AND PUSH1 0x1 PUSH1 0x1 PUSH1 0xA0 SHL SUB NOT DUP4 AND DUP2 OR DUP5 SSTORE PUSH1 0x40 MLOAD SWAP2 SWAP1 SWAP3 AND SWAP3 DUP4 SWAP2 PUSH32 0x8BE0079C531659141344CD1FD0A4F28419497F9722A3DAAFE3B4186F6B6457E0 SWAP2 SWAP1 LOG3 POP POP JUMP JUMPDEST DUP1 MLOAD PUSH1 0x1 PUSH1 0x1 PUSH1 0xA0 SHL SUB DUP2 AND DUP2 EQ PUSH3 0xEB JUMPI PUSH1 0x0 DUP1 REVERT JUMPDEST SWAP2 SWAP1 POP JUMP JUMPDEST PUSH1 0x0 DUP1 PUSH1 0x40 DUP4 DUP6 SUB SLT ISZERO PUSH3 0x104 JUMPI PUSH1 0x0 DUP1 REVERT JUMPDEST PUSH3 0x10F DUP4 PUSH3 0xD3 JUMP JUMPDEST SWAP2 POP PUSH3 0x11F PUSH1 0x20 DUP5 ADD PUSH3 0xD3 JUMP JUMPDEST SWAP1 POP SWAP3 POP SWAP3 SWAP1 POP JUMP JUMPDEST PUSH1 0x80 MLOAD PUSH1 0xA0 MLOAD PUSH2 0x14FA PUSH3 0x163 PUSH1 0x0 CODECOPY PUSH1 0x0 DUP2 DUP2 PUSH2 0x137 ADD MSTORE DUP2 DUP2 PUSH2 0x46A ADD MSTORE PUSH2 0xACC ADD MSTORE PUSH1 0x0 DUP2 DUP2 PUSH2 0x1EA ADD MSTORE PUSH2 0xBFE ADD MSTORE PUSH2 0x14FA PUSH1 0x0 RETURN INVALID PUSH1 0x80 PUSH1 0x40 MSTORE CALLVALUE DUP1 ISZERO PUSH2 0x10 JUMPI PUSH1 0x0 DUP1 REVERT JUMPDEST POP PUSH1 0x4 CALLDATASIZE LT PUSH2 0xF5 JUMPI PUSH1 0x0 CALLDATALOAD PUSH1 0xE0 SHR DUP1 PUSH4 0x8DA5CB5B GT PUSH2 0x97 JUMPI DUP1 PUSH4 0xCF046DB0 GT PUSH2 0x66 JUMPI DUP1 PUSH4 0xCF046DB0 EQ PUSH2 0x29D JUMPI DUP1 PUSH4 0xDC670C25 EQ PUSH2 0x2B0 JUMPI DUP1 PUSH4 0xF2FDE38B EQ PUSH2 0x2C3 JUMPI DUP1 PUSH4 0xF5573F52 EQ PUSH2 0x2D6 JUMPI PUSH1 0x0 DUP1 REVERT JUMPDEST DUP1 PUSH4 0x8DA5CB5B EQ PUSH2 0x227 JUMPI DUP1 PUSH4 0xA8CCB291 EQ PUSH2 0x238 JUMPI DUP1 PUSH4 0xAF0F427C EQ PUSH2 0x24B JUMPI DUP1 PUSH4 0xC6240FF9 EQ PUSH2 0x25E JUMPI PUSH1 0x0 DUP1 REVERT JUMPDEST DUP1 PUSH4 0x4B11354C GT PUSH2 0xD3 JUMPI DUP1 PUSH4 0x4B11354C EQ PUSH2 0x1D0 JUMPI DUP1 PUSH4 0x4B155B97 EQ PUSH2 0x1E5 JUMPI DUP1 PUSH4 0x6A44CAC9 EQ PUSH2 0x20C JUMPI DUP1 PUSH4 0x715018A6 EQ PUSH2 0x21F JUMPI PUSH1 0x0 DUP1 REVERT JUMPDEST DUP1 PUSH4 0x206137AA EQ PUSH2 0xFA JUMPI DUP1 PUSH4 0x2B7AC3F3 EQ PUSH2 0x132 JUMPI DUP1 PUSH4 0x3017BA09 EQ PUSH2 0x171 JUMPI JUMPDEST PUSH1 0x0 DUP1 REVERT JUMPDEST PUSH2 0x11D PUSH2 0x108 CALLDATASIZE PUSH1 0x4 PUSH2 0xF9F JUMP JUMPDEST PUSH1 0x4 PUSH1 0x20 MSTORE PUSH1 0x0 SWAP1 DUP2 MSTORE PUSH1 0x40 SWAP1 KECCAK256 SLOAD PUSH1 0xFF AND DUP2 JUMP JUMPDEST PUSH1 0x40 MLOAD SWAP1 ISZERO ISZERO DUP2 MSTORE PUSH1 0x20 ADD JUMPDEST PUSH1 0x40 MLOAD DUP1 SWAP2 SUB SWAP1 RETURN JUMPDEST PUSH2 0x159 PUSH32 0x0 DUP2 JUMP JUMPDEST PUSH1 0x40 MLOAD PUSH1 0x1 PUSH1 0x1 PUSH1 0xA0 SHL SUB SWAP1 SWAP2 AND DUP2 MSTORE PUSH1 0x20 ADD PUSH2 0x129 JUMP JUMPDEST PUSH2 0x1B3 PUSH2 0x17F CALLDATASIZE PUSH1 0x4 PUSH2 0x105B JUMP JUMPDEST DUP1 MLOAD PUSH1 0x20 DUP2 DUP4 ADD DUP2 ADD DUP1 MLOAD PUSH1 0x2 DUP1 DUP4 MSTORE SWAP4 DUP4 ADD SWAP3 SWAP1 SWAP5 ADD SWAP2 SWAP1 SWAP2 KECCAK256 SWAP3 SWAP1 MSTORE DUP2 SLOAD PUSH1 0x1 DUP4 ADD SLOAD SWAP3 SWAP1 SWAP2 ADD SLOAD PUSH1 0xFF SWAP1 SWAP2 AND SWAP2 SWAP1 DUP4 JUMP JUMPDEST PUSH1 0x40 DUP1 MLOAD SWAP4 ISZERO ISZERO DUP5 MSTORE PUSH1 0x20 DUP5 ADD SWAP3 SWAP1 SWAP3 MSTORE SWAP1 DUP3 ADD MSTORE PUSH1 0x60 ADD PUSH2 0x129 JUMP JUMPDEST PUSH2 0x1E3 PUSH2 0x1DE CALLDATASIZE PUSH1 0x4 PUSH2 0x1098 JUMP JUMPDEST PUSH2 0x2E9 JUMP JUMPDEST STOP JUMPDEST PUSH2 0x159 PUSH32 0x0 DUP2 JUMP JUMPDEST PUSH2 0x1E3 PUSH2 0x21A CALLDATASIZE PUSH1 0x4 PUSH2 0x11C6 JUMP JUMPDEST PUSH2 0x6D6 JUMP JUMPDEST PUSH2 0x1E3 PUSH2 0x774 JUMP JUMPDEST PUSH1 0x0 SLOAD PUSH1 0x1 PUSH1 0x1 PUSH1 0xA0 SHL SUB AND PUSH2 0x159 JUMP JUMPDEST PUSH2 0x11D PUSH2 0x246 CALLDATASIZE PUSH1 0x4 PUSH2 0x11C6 JUMP JUMPDEST PUSH2 0x788 JUMP JUMPDEST PUSH2 0x1B3 PUSH2 0x259 CALLDATASIZE PUSH1 0x4 PUSH2 0x1219 JUMP JUMPDEST PUSH2 0x7CC JUMP JUMPDEST PUSH2 0x11D PUSH2 0x26C CALLDATASIZE PUSH1 0x4 PUSH2 0x125B JUMP JUMPDEST PUSH1 0x3 PUSH1 0x20 SWAP1 DUP2 MSTORE PUSH1 0x0 SWAP3 DUP4 MSTORE PUSH1 0x40 SWAP1 SWAP3 KECCAK256 DUP2 MLOAD DUP1 DUP4 ADD DUP5 ADD DUP1 MLOAD SWAP3 DUP2 MSTORE SWAP1 DUP5 ADD SWAP3 SWAP1 SWAP4 ADD SWAP2 SWAP1 SWAP2 KECCAK256 SWAP2 MSTORE SLOAD PUSH1 0xFF AND DUP2 JUMP JUMPDEST PUSH2 0x1E3 PUSH2 0x2AB CALLDATASIZE PUSH1 0x4 PUSH2 0x12B7 JUMP JUMPDEST PUSH2 0x814 JUMP JUMPDEST PUSH2 0x1E3 PUSH2 0x2BE CALLDATASIZE PUSH1 0x4 PUSH2 0x1219 JUMP JUMPDEST PUSH2 0x8FE JUMP JUMPDEST PUSH2 0x1E3 PUSH2 0x2D1 CALLDATASIZE PUSH1 0x4 PUSH2 0x131E JUMP JUMPDEST PUSH2 0x9E7 JUMP JUMPDEST PUSH2 0x1E3 PUSH2 0x2E4 CALLDATASIZE PUSH1 0x4 PUSH2 0x1340 JUMP JUMPDEST PUSH2 0xA25 JUMP JUMPDEST PUSH2 0x2F1 PUSH2 0xEF8 JUMP JUMPDEST DUP3 DUP2 EQ PUSH2 0x33D JUMPI PUSH1 0x40 MLOAD PUSH3 0x461BCD PUSH1 0xE5 SHL DUP2 MSTORE PUSH1 0x20 PUSH1 0x4 DUP3 ADD MSTORE PUSH1 0x15 PUSH1 0x24 DUP3 ADD MSTORE PUSH21 0x82E4E4C2F240D8CADCCEE8D040DAD2E6DAC2E8C6D PUSH1 0x5B SHL PUSH1 0x44 DUP3 ADD MSTORE PUSH1 0x64 ADD JUMPDEST PUSH1 0x40 MLOAD DUP1 SWAP2 SUB SWAP1 REVERT JUMPDEST PUSH1 0x0 JUMPDEST DUP4 DUP2 LT ISZERO PUSH2 0x6C6 JUMPI PUSH1 0x2 DUP4 DUP4 DUP4 DUP2 DUP2 LT PUSH2 0x35C JUMPI PUSH2 0x35C PUSH2 0x1384 JUMP JUMPDEST SWAP1 POP PUSH1 0x20 MUL DUP2 ADD SWAP1 PUSH2 0x36E SWAP2 SWAP1 PUSH2 0x139A JUMP JUMPDEST PUSH1 0x40 MLOAD PUSH2 0x37C SWAP3 SWAP2 SWAP1 PUSH2 0x13E1 JUMP JUMPDEST SWAP1 DUP2 MSTORE PUSH1 0x40 MLOAD SWAP1 DUP2 SWAP1 SUB PUSH1 0x20 ADD SWAP1 KECCAK256 SLOAD PUSH1 0xFF AND PUSH2 0x3D1 JUMPI PUSH1 0x40 MLOAD PUSH3 0x461BCD PUSH1 0xE5 SHL DUP2 MSTORE PUSH1 0x20 PUSH1 0x4 DUP3 ADD MSTORE PUSH1 0x13 PUSH1 0x24 DUP3 ADD MSTORE PUSH19 0x14D95C9D9A58D9481B9BDD08195B98589B1959 PUSH1 0x6A SHL PUSH1 0x44 DUP3 ADD MSTORE PUSH1 0x64 ADD PUSH2 0x334 JUMP JUMPDEST PUSH1 0x0 DUP6 DUP6 DUP4 DUP2 DUP2 LT PUSH2 0x3E5 JUMPI PUSH2 0x3E5 PUSH2 0x1384 JUMP JUMPDEST SWAP1 POP PUSH2 0x180 MUL ADD PUSH2 0x100 ADD PUSH1 0x1 PUSH1 0x4 DUP2 LT PUSH2 0x402 JUMPI PUSH2 0x402 PUSH2 0x1384 JUMP JUMPDEST PUSH1 0x20 SWAP1 DUP2 MUL SWAP2 SWAP1 SWAP2 ADD CALLDATALOAD PUSH1 0x0 DUP2 DUP2 MSTORE PUSH1 0x4 SWAP1 SWAP3 MSTORE PUSH1 0x40 SWAP1 SWAP2 KECCAK256 SLOAD SWAP1 SWAP2 POP PUSH1 0xFF AND ISZERO PUSH2 0x468 JUMPI PUSH1 0x40 MLOAD PUSH3 0x461BCD PUSH1 0xE5 SHL DUP2 MSTORE PUSH1 0x20 PUSH1 0x4 DUP3 ADD MSTORE PUSH1 0x16 PUSH1 0x24 DUP3 ADD MSTORE PUSH22 0x139D5B1B1A599A595C88185B1C9958591E481D5CD959 PUSH1 0x52 SHL PUSH1 0x44 DUP3 ADD MSTORE PUSH1 0x64 ADD PUSH2 0x334 JUMP JUMPDEST PUSH32 0x0 PUSH1 0x1 PUSH1 0x1 PUSH1 0xA0 SHL SUB AND PUSH4 0x43753B4D DUP8 DUP8 DUP6 DUP2 DUP2 LT PUSH2 0x4A9 JUMPI PUSH2 0x4A9 PUSH2 0x1384 JUMP JUMPDEST SWAP1 POP PUSH2 0x180 MUL ADD PUSH1 0x0 ADD DUP9 DUP9 DUP7 DUP2 DUP2 LT PUSH2 0x4C5 JUMPI PUSH2 0x4C5 PUSH2 0x1384 JUMP JUMPDEST SWAP1 POP PUSH2 0x180 MUL ADD PUSH1 0x40 ADD DUP10 DUP10 DUP8 DUP2 DUP2 LT PUSH2 0x4E1 JUMPI PUSH2 0x4E1 PUSH2 0x1384 JUMP JUMPDEST SWAP1 POP PUSH2 0x180 MUL ADD PUSH1 0xC0 ADD PUSH1 0x40 MLOAD DUP1 PUSH1 0x20 ADD PUSH1 0x40 MSTORE DUP1 DUP13 DUP13 DUP11 DUP2 DUP2 LT PUSH2 0x508 JUMPI PUSH2 0x508 PUSH2 0x1384 JUMP JUMPDEST SWAP1 POP PUSH2 0x180 MUL ADD PUSH2 0x100 ADD PUSH1 0x0 PUSH1 0x4 DUP2 LT PUSH2 0x525 JUMPI PUSH2 0x525 PUSH2 0x1384 JUMP JUMPDEST PUSH1 0x20 MUL ADD CALLDATALOAD DUP2 MSTORE POP PUSH1 0x40 MLOAD DUP6 PUSH4 0xFFFFFFFF AND PUSH1 0xE0 SHL DUP2 MSTORE PUSH1 0x4 ADD PUSH2 0x54C SWAP5 SWAP4 SWAP3 SWAP2 SWAP1 PUSH2 0x13F1 JUMP JUMPDEST PUSH1 0x20 PUSH1 0x40 MLOAD DUP1 DUP4 SUB DUP2 DUP7 GAS STATICCALL ISZERO DUP1 ISZERO PUSH2 0x569 JUMPI RETURNDATASIZE PUSH1 0x0 DUP1 RETURNDATACOPY RETURNDATASIZE PUSH1 0x0 REVERT JUMPDEST POP POP POP POP PUSH1 0x40 MLOAD RETURNDATASIZE PUSH1 0x1F NOT PUSH1 0x1F DUP3 ADD AND DUP3 ADD DUP1 PUSH1 0x40 MSTORE POP DUP2 ADD SWAP1 PUSH2 0x58D SWAP2 SWAP1 PUSH2 0x145F JUMP JUMPDEST PUSH2 0x5C9 JUMPI PUSH1 0x40 MLOAD PUSH3 0x461BCD PUSH1 0xE5 SHL DUP2 MSTORE PUSH1 0x20 PUSH1 0x4 DUP3 ADD MSTORE PUSH1 0xD PUSH1 0x24 DUP3 ADD MSTORE PUSH13 0x24B73B30B634B210383937B7B3 PUSH1 0x99 SHL PUSH1 0x44 DUP3 ADD MSTORE PUSH1 0x64 ADD PUSH2 0x334 JUMP JUMPDEST PUSH1 0x0 DUP2 DUP2 MSTORE PUSH1 0x4 PUSH1 0x20 SWAP1 DUP2 MSTORE PUSH1 0x40 DUP1 DUP4 KECCAK256 DUP1 SLOAD PUSH1 0xFF NOT AND PUSH1 0x1 SWAP1 DUP2 OR SWAP1 SWAP2 SSTORE CALLER DUP5 MSTORE PUSH1 0x3 SWAP1 SWAP3 MSTORE SWAP1 SWAP2 KECCAK256 DUP6 DUP6 DUP6 DUP2 DUP2 LT PUSH2 0x605 JUMPI PUSH2 0x605 PUSH2 0x1384 JUMP JUMPDEST SWAP1 POP PUSH1 0x20 MUL DUP2 ADD SWAP1 PUSH2 0x617 SWAP2 SWAP1 PUSH2 0x139A JUMP JUMPDEST PUSH1 0x40 MLOAD PUSH2 0x625 SWAP3 SWAP2 SWAP1 PUSH2 0x13E1 JUMP JUMPDEST SWAP1 DUP2 MSTORE PUSH1 0x40 MLOAD SWAP1 DUP2 SWAP1 SUB PUSH1 0x20 ADD SWAP1 KECCAK256 DUP1 SLOAD SWAP2 ISZERO ISZERO PUSH1 0xFF NOT SWAP1 SWAP3 AND SWAP2 SWAP1 SWAP2 OR SWAP1 SSTORE DUP4 DUP4 DUP4 DUP2 DUP2 LT PUSH2 0x657 JUMPI PUSH2 0x657 PUSH2 0x1384 JUMP JUMPDEST SWAP1 POP PUSH1 0x20 MUL DUP2 ADD SWAP1 PUSH2 0x669 SWAP2 SWAP1 PUSH2 0x139A JUMP JUMPDEST PUSH1 0x40 MLOAD PUSH2 0x677 SWAP3 SWAP2 SWAP1 PUSH2 0x13E1 JUMP JUMPDEST PUSH1 0x40 MLOAD SWAP1 DUP2 SWAP1 SUB DUP2 KECCAK256 DUP3 DUP3 MSTORE SWAP1 CALLER SWAP1 PUSH32 0x2F1EB371E9D8E535E5CD99F2B3F25871E4B824C23BCC16C35D801DFD5941CBA5 SWAP1 PUSH1 0x20 ADD PUSH1 0x40 MLOAD DUP1 SWAP2 SUB SWAP1 LOG3 POP DUP1 PUSH2 0x6BE DUP2 PUSH2 0x1492 JUMP JUMPDEST SWAP2 POP POP PUSH2 0x340 JUMP JUMPDEST POP PUSH2 0x6D0 PUSH1 0x1 DUP1 SSTORE JUMP JUMPDEST POP POP POP POP JUMP JUMPDEST PUSH2 0x6DE PUSH2 0xF22 JUMP JUMPDEST PUSH1 0x1 PUSH1 0x1 PUSH1 0xA0 SHL SUB DUP4 AND PUSH1 0x0 SWAP1 DUP2 MSTORE PUSH1 0x3 PUSH1 0x20 MSTORE PUSH1 0x40 DUP1 DUP3 KECCAK256 SWAP1 MLOAD PUSH2 0x706 SWAP1 DUP6 SWAP1 DUP6 SWAP1 PUSH2 0x13E1 JUMP JUMPDEST SWAP1 DUP2 MSTORE PUSH1 0x40 MLOAD SWAP1 DUP2 SWAP1 SUB PUSH1 0x20 ADD DUP2 KECCAK256 DUP1 SLOAD SWAP3 ISZERO ISZERO PUSH1 0xFF NOT SWAP1 SWAP4 AND SWAP3 SWAP1 SWAP3 OR SWAP1 SWAP2 SSTORE PUSH2 0x734 SWAP1 DUP4 SWAP1 DUP4 SWAP1 PUSH2 0x13E1 JUMP JUMPDEST PUSH1 0x40 MLOAD SWAP1 DUP2 SWAP1 SUB DUP2 KECCAK256 SWAP1 PUSH1 0x1 PUSH1 0x1 PUSH1 0xA0 SHL SUB DUP6 AND SWAP1 PUSH32 0x51CBCAACA6AE26944C6280C966A07B04CA5C6766D82CA497DED152579431468D SWAP1 PUSH1 0x0 SWAP1 LOG3 POP POP POP JUMP JUMPDEST PUSH2 0x77C PUSH2 0xF22 JUMP JUMPDEST PUSH2 0x786 PUSH1 0x0 PUSH2 0xF4F JUMP JUMPDEST JUMP JUMPDEST PUSH1 0x1 PUSH1 0x1 PUSH1 0xA0 SHL SUB DUP4 AND PUSH1 0x0 SWAP1 DUP2 MSTORE PUSH1 0x3 PUSH1 0x20 MSTORE PUSH1 0x40 DUP1 DUP3 KECCAK256 SWAP1 MLOAD PUSH2 0x7B0 SWAP1 DUP6 SWAP1 DUP6 SWAP1 PUSH2 0x13E1 JUMP JUMPDEST SWAP1 DUP2 MSTORE PUSH1 0x40 MLOAD SWAP1 DUP2 SWAP1 SUB PUSH1 0x20 ADD SWAP1 KECCAK256 SLOAD PUSH1 0xFF AND SWAP1 POP SWAP4 SWAP3 POP POP POP JUMP JUMPDEST PUSH1 0x0 DUP1 PUSH1 0x0 DUP1 PUSH1 0x2 DUP7 DUP7 PUSH1 0x40 MLOAD PUSH2 0x7E4 SWAP3 SWAP2 SWAP1 PUSH2 0x13E1 JUMP JUMPDEST SWAP1 DUP2 MSTORE PUSH1 0x40 MLOAD SWAP1 DUP2 SWAP1 SUB PUSH1 0x20 ADD SWAP1 KECCAK256 DUP1 SLOAD PUSH1 0x1 DUP3 ADD SLOAD PUSH1 0x2 SWAP1 SWAP3 ADD SLOAD PUSH1 0xFF SWAP1 SWAP2 AND SWAP6 POP SWAP1 SWAP4 POP SWAP2 POP POP SWAP3 POP SWAP3 POP SWAP3 JUMP JUMPDEST PUSH2 0x81C PUSH2 0xF22 JUMP JUMPDEST DUP3 PUSH1 0x2 DUP7 DUP7 PUSH1 0x40 MLOAD PUSH2 0x82F SWAP3 SWAP2 SWAP1 PUSH2 0x13E1 JUMP JUMPDEST SWAP1 DUP2 MSTORE PUSH1 0x40 MLOAD SWAP1 DUP2 SWAP1 SUB PUSH1 0x20 ADD DUP2 KECCAK256 DUP1 SLOAD SWAP3 ISZERO ISZERO PUSH1 0xFF NOT SWAP1 SWAP4 AND SWAP3 SWAP1 SWAP3 OR SWAP1 SWAP2 SSTORE DUP3 SWAP1 PUSH1 0x2 SWAP1 PUSH2 0x862 SWAP1 DUP9 SWAP1 DUP9 SWAP1 PUSH2 0x13E1 JUMP JUMPDEST SWAP1 DUP2 MSTORE PUSH1 0x20 ADD PUSH1 0x40 MLOAD DUP1 SWAP2 SUB SWAP1 KECCAK256 PUSH1 0x1 ADD DUP2 SWAP1 SSTORE POP DUP1 PUSH1 0x2 DUP7 DUP7 PUSH1 0x40 MLOAD PUSH2 0x88A SWAP3 SWAP2 SWAP1 PUSH2 0x13E1 JUMP JUMPDEST SWAP1 DUP2 MSTORE PUSH1 0x40 MLOAD SWAP1 DUP2 SWAP1 SUB PUSH1 0x20 ADD DUP2 KECCAK256 PUSH1 0x2 ADD SWAP2 SWAP1 SWAP2 SSTORE PUSH2 0x8AD SWAP1 DUP7 SWAP1 DUP7 SWAP1 PUSH2 0x13E1 JUMP JUMPDEST PUSH1 0x40 DUP1 MLOAD SWAP2 DUP3 SWAP1 SUB DUP3 KECCAK256 DUP6 ISZERO ISZERO DUP4 MSTORE PUSH1 0x20 DUP4 ADD DUP6 SWAP1 MSTORE SWAP1 DUP3 ADD DUP4 SWAP1 MSTORE SWAP1 PUSH32 0x5A36CEEEDD8F1AC24E5DD483515BBB8EF718DB3E5E86358C7371EF14F30F765 SWAP1 PUSH1 0x60 ADD PUSH1 0x40 MLOAD DUP1 SWAP2 SUB SWAP1 LOG2 POP POP POP POP POP JUMP JUMPDEST CALLER PUSH1 0x0 SWAP1 DUP2 MSTORE PUSH1 0x3 PUSH1 0x20 MSTORE PUSH1 0x40 SWAP1 DUP2 SWAP1 KECCAK256 SWAP1 MLOAD DUP4 SWAP2 DUP4 SWAP2 PUSH2 0x922 SWAP1 DUP5 SWAP1 DUP5 SWAP1 PUSH2 0x13E1 JUMP JUMPDEST SWAP1 DUP2 MSTORE PUSH1 0x40 MLOAD SWAP1 DUP2 SWAP1 SUB PUSH1 0x20 ADD SWAP1 KECCAK256 SLOAD PUSH1 0xFF AND PUSH2 0x994 JUMPI PUSH1 0x40 MLOAD PUSH3 0x461BCD PUSH1 0xE5 SHL DUP2 MSTORE PUSH1 0x20 PUSH1 0x4 DUP3 ADD MSTORE PUSH1 0x2A PUSH1 0x24 DUP3 ADD MSTORE PUSH32 0x4B594320766572696669636174696F6E20726571756972656420666F72207468 PUSH1 0x44 DUP3 ADD MSTORE PUSH10 0x69732073657276696365 PUSH1 0xB0 SHL PUSH1 0x64 DUP3 ADD MSTORE PUSH1 0x84 ADD PUSH2 0x334 JUMP JUMPDEST DUP4 DUP4 PUSH1 0x40 MLOAD PUSH2 0x9A4 SWAP3 SWAP2 SWAP1 PUSH2 0x13E1 JUMP JUMPDEST PUSH1 0x40 MLOAD SWAP1 DUP2 SWAP1 SUB DUP2 KECCAK256 PUSH1 0x0 DUP3 MSTORE SWAP1 CALLER SWAP1 PUSH32 0x2F1EB371E9D8E535E5CD99F2B3F25871E4B824C23BCC16C35D801DFD5941CBA5 SWAP1 PUSH1 0x20 ADD PUSH1 0x40 MLOAD DUP1 SWAP2 SUB SWAP1 LOG3 POP POP POP POP JUMP JUMPDEST PUSH2 0x9EF PUSH2 0xF22 JUMP JUMPDEST PUSH1 0x1 PUSH1 0x1 PUSH1 0xA0 SHL SUB DUP2 AND PUSH2 0xA19 JUMPI PUSH1 0x40 MLOAD PUSH4 0x1E4FBDF7 PUSH1 0xE0 SHL DUP2 MSTORE PUSH1 0x0 PUSH1 0x4 DUP3 ADD MSTORE PUSH1 0x24 ADD PUSH2 0x334 JUMP JUMPDEST PUSH2 0xA22 DUP2 PUSH2 0xF4F JUMP JUMPDEST POP JUMP JUMPDEST PUSH2 0xA2D PUSH2 0xEF8 JUMP JUMPDEST PUSH1 0x2 DUP3 DUP3 PUSH1 0x40 MLOAD PUSH2 0xA3F SWAP3 SWAP2 SWAP1 PUSH2 0x13E1 JUMP JUMPDEST SWAP1 DUP2 MSTORE PUSH1 0x40 MLOAD SWAP1 DUP2 SWAP1 SUB PUSH1 0x20 ADD SWAP1 KECCAK256 SLOAD PUSH1 0xFF AND PUSH2 0xA94 JUMPI PUSH1 0x40 MLOAD PUSH3 0x461BCD PUSH1 0xE5 SHL DUP2 MSTORE PUSH1 0x20 PUSH1 0x4 DUP3 ADD MSTORE PUSH1 0x13 PUSH1 0x24 DUP3 ADD MSTORE PUSH19 0x14D95C9D9A58D9481B9BDD08195B98589B1959 PUSH1 0x6A SHL PUSH1 0x44 DUP3 ADD MSTORE PUSH1 0x64 ADD PUSH2 0x334 JUMP JUMPDEST PUSH1 0x40 DUP1 MLOAD PUSH1 0x20 DUP2 ADD DUP3 MSTORE PUSH2 0x100 DUP6 ADD CALLDATALOAD DUP1 DUP3 MSTORE DUP3 MLOAD PUSH4 0x43753B4D PUSH1 0xE0 SHL DUP2 MSTORE SWAP1 SWAP3 PUSH2 0x120 DUP8 ADD CALLDATALOAD SWAP3 PUSH2 0x140 DUP9 ADD CALLDATALOAD SWAP3 PUSH2 0x160 DUP10 ADD CALLDATALOAD SWAP3 PUSH32 0x0 PUSH1 0x1 PUSH1 0x1 PUSH1 0xA0 SHL SUB AND SWAP3 PUSH4 0x43753B4D SWAP3 PUSH2 0xB13 SWAP3 DUP13 SWAP3 SWAP1 DUP4 ADD SWAP2 PUSH1 0xC0 DUP5 ADD SWAP2 SWAP1 PUSH1 0x4 ADD PUSH2 0x13F1 JUMP JUMPDEST PUSH1 0x20 PUSH1 0x40 MLOAD DUP1 DUP4 SUB DUP2 DUP7 GAS STATICCALL ISZERO DUP1 ISZERO PUSH2 0xB30 JUMPI RETURNDATASIZE PUSH1 0x0 DUP1 RETURNDATACOPY RETURNDATASIZE PUSH1 0x0 REVERT JUMPDEST POP POP POP POP PUSH1 0x40 MLOAD RETURNDATASIZE PUSH1 0x1F NOT PUSH1 0x1F DUP3 ADD AND DUP3 ADD DUP1 PUSH1 0x40 MSTORE POP DUP2 ADD SWAP1 PUSH2 0xB54 SWAP2 SWAP1 PUSH2 0x145F JUMP JUMPDEST PUSH2 0xB90 JUMPI PUSH1 0x40 MLOAD PUSH3 0x461BCD PUSH1 0xE5 SHL DUP2 MSTORE PUSH1 0x20 PUSH1 0x4 DUP3 ADD MSTORE PUSH1 0xD PUSH1 0x24 DUP3 ADD MSTORE PUSH13 0x24B73B30B634B210383937B7B3 PUSH1 0x99 SHL PUSH1 0x44 DUP3 ADD MSTORE PUSH1 0x64 ADD PUSH2 0x334 JUMP JUMPDEST PUSH1 0x0 DUP4 DUP2 MSTORE PUSH1 0x4 PUSH1 0x20 MSTORE PUSH1 0x40 SWAP1 KECCAK256 SLOAD PUSH1 0xFF AND ISZERO PUSH2 0xBE8 JUMPI PUSH1 0x40 MLOAD PUSH3 0x461BCD PUSH1 0xE5 SHL DUP2 MSTORE PUSH1 0x20 PUSH1 0x4 DUP3 ADD MSTORE PUSH1 0x16 PUSH1 0x24 DUP3 ADD MSTORE PUSH22 0x139D5B1B1A599A595C88185B1C9958591E481D5CD959 PUSH1 0x52 SHL PUSH1 0x44 DUP3 ADD MSTORE PUSH1 0x64 ADD PUSH2 0x334 JUMP JUMPDEST PUSH1 0x40 MLOAD PUSH4 0x6D9833E3 PUSH1 0xE0 SHL DUP2 MSTORE PUSH1 0x4 DUP2 ADD DUP6 SWAP1 MSTORE PUSH32 0x0 PUSH1 0x1 PUSH1 0x1 PUSH1 0xA0 SHL SUB AND SWAP1 PUSH4 0x6D9833E3 SWAP1 PUSH1 0x24 ADD PUSH1 0x20 PUSH1 0x40 MLOAD DUP1 DUP4 SUB DUP2 DUP7 GAS STATICCALL ISZERO DUP1 ISZERO PUSH2 0xC4D JUMPI RETURNDATASIZE PUSH1 0x0 DUP1 RETURNDATACOPY RETURNDATASIZE PUSH1 0x0 REVERT JUMPDEST POP POP POP POP PUSH1 0x40 MLOAD RETURNDATASIZE PUSH1 0x1F NOT PUSH1 0x1F DUP3 ADD AND DUP3 ADD DUP1 PUSH1 0x40 MSTORE POP DUP2 ADD SWAP1 PUSH2 0xC71 SWAP2 SWAP1 PUSH2 0x145F JUMP JUMPDEST PUSH2 0xCB3 JUMPI PUSH1 0x40 MLOAD PUSH3 0x461BCD PUSH1 0xE5 SHL DUP2 MSTORE PUSH1 0x20 PUSH1 0x4 DUP3 ADD MSTORE PUSH1 0x13 PUSH1 0x24 DUP3 ADD MSTORE PUSH19 0x125B9D985B1A590813595C9ADB19481C9BDBDD PUSH1 0x6A SHL PUSH1 0x44 DUP3 ADD MSTORE PUSH1 0x64 ADD PUSH2 0x334 JUMP JUMPDEST PUSH1 0x2 DUP7 DUP7 PUSH1 0x40 MLOAD PUSH2 0xCC5 SWAP3 SWAP2 SWAP1 PUSH2 0x13E1 JUMP JUMPDEST SWAP1 DUP2 MSTORE PUSH1 0x20 ADD PUSH1 0x40 MLOAD DUP1 SWAP2 SUB SWAP1 KECCAK256 PUSH1 0x1 ADD SLOAD DUP2 LT ISZERO PUSH2 0xD26 JUMPI PUSH1 0x40 MLOAD PUSH3 0x461BCD PUSH1 0xE5 SHL DUP2 MSTORE PUSH1 0x20 PUSH1 0x4 DUP3 ADD MSTORE PUSH1 0x17 PUSH1 0x24 DUP3 ADD MSTORE PUSH32 0x41676520726571756972656D656E74206E6F74206D6574000000000000000000 PUSH1 0x44 DUP3 ADD MSTORE PUSH1 0x64 ADD PUSH2 0x334 JUMP JUMPDEST PUSH1 0x2 DUP7 DUP7 PUSH1 0x40 MLOAD PUSH2 0xD38 SWAP3 SWAP2 SWAP1 PUSH2 0x13E1 JUMP JUMPDEST SWAP1 DUP2 MSTORE PUSH1 0x20 ADD PUSH1 0x40 MLOAD DUP1 SWAP2 SUB SWAP1 KECCAK256 PUSH1 0x2 ADD SLOAD PUSH1 0x2 DUP8 DUP8 PUSH1 0x40 MLOAD PUSH2 0xD5C SWAP3 SWAP2 SWAP1 PUSH2 0x13E1 JUMP JUMPDEST SWAP1 DUP2 MSTORE PUSH1 0x20 ADD PUSH1 0x40 MLOAD DUP1 SWAP2 SUB SWAP1 KECCAK256 PUSH1 0x3 ADD PUSH1 0x0 DUP6 DUP2 MSTORE PUSH1 0x20 ADD SWAP1 DUP2 MSTORE PUSH1 0x20 ADD PUSH1 0x0 KECCAK256 SLOAD PUSH2 0xD89 SWAP2 SWAP1 PUSH2 0x14AB JUMP JUMPDEST TIMESTAMP LT ISZERO PUSH2 0xDD8 JUMPI PUSH1 0x40 MLOAD PUSH3 0x461BCD PUSH1 0xE5 SHL DUP2 MSTORE PUSH1 0x20 PUSH1 0x4 DUP3 ADD MSTORE PUSH1 0x19 PUSH1 0x24 DUP3 ADD MSTORE PUSH32 0x53657276696365207573656420746F6F20726563656E746C7900000000000000 PUSH1 0x44 DUP3 ADD MSTORE PUSH1 0x64 ADD PUSH2 0x334 JUMP JUMPDEST PUSH1 0x0 DUP4 DUP2 MSTORE PUSH1 0x4 PUSH1 0x20 MSTORE PUSH1 0x40 SWAP1 DUP2 SWAP1 KECCAK256 DUP1 SLOAD PUSH1 0xFF NOT AND PUSH1 0x1 OR SWAP1 SSTORE MLOAD TIMESTAMP SWAP1 PUSH1 0x2 SWAP1 PUSH2 0xE06 SWAP1 DUP10 SWAP1 DUP10 SWAP1 PUSH2 0x13E1 JUMP JUMPDEST SWAP1 DUP2 MSTORE PUSH1 0x40 DUP1 MLOAD SWAP2 DUP3 SWAP1 SUB PUSH1 0x20 SWAP1 DUP2 ADD DUP4 KECCAK256 PUSH1 0x0 DUP9 DUP2 MSTORE PUSH1 0x3 SWAP2 DUP3 ADD DUP4 MSTORE DUP4 DUP2 KECCAK256 SWAP6 SWAP1 SWAP6 SSTORE CALLER DUP6 MSTORE SWAP1 MSTORE SWAP1 SWAP2 KECCAK256 PUSH1 0x1 SWAP2 PUSH2 0xE43 SWAP1 DUP10 SWAP1 DUP10 SWAP1 PUSH2 0x13E1 JUMP JUMPDEST SWAP1 DUP2 MSTORE PUSH1 0x40 DUP1 MLOAD PUSH1 0x20 SWAP3 DUP2 SWAP1 SUB DUP4 ADD DUP2 KECCAK256 DUP1 SLOAD PUSH1 0xFF NOT AND SWAP5 ISZERO ISZERO SWAP5 SWAP1 SWAP5 OR SWAP1 SWAP4 SSTORE DUP6 DUP4 MSTORE SWAP1 DUP3 ADD DUP4 SWAP1 MSTORE CALLER SWAP2 PUSH32 0xF79BDF1B7D434A5250254C74D2900F9EDAF4D76396642DDADDCB2D0E65255868 SWAP2 ADD PUSH1 0x40 MLOAD DUP1 SWAP2 SUB SWAP1 LOG2 DUP6 DUP6 PUSH1 0x40 MLOAD PUSH2 0xEAA SWAP3 SWAP2 SWAP1 PUSH2 0x13E1 JUMP JUMPDEST PUSH1 0x40 MLOAD SWAP1 DUP2 SWAP1 SUB DUP2 KECCAK256 DUP5 DUP3 MSTORE SWAP1 CALLER SWAP1 PUSH32 0x2F1EB371E9D8E535E5CD99F2B3F25871E4B824C23BCC16C35D801DFD5941CBA5 SWAP1 PUSH1 0x20 ADD PUSH1 0x40 MLOAD DUP1 SWAP2 SUB SWAP1 LOG3 POP POP POP POP PUSH2 0xEF3 PUSH1 0x1 DUP1 SSTORE JUMP JUMPDEST POP POP POP JUMP JUMPDEST PUSH1 0x2 PUSH1 0x1 SLOAD SUB PUSH2 0xF1B JUMPI PUSH1 0x40 MLOAD PUSH4 0x3EE5AEB5 PUSH1 0xE0 SHL DUP2 MSTORE PUSH1 0x4 ADD PUSH1 0x40 MLOAD DUP1 SWAP2 SUB SWAP1 REVERT JUMPDEST PUSH1 0x2 PUSH1 0x1 SSTORE JUMP JUMPDEST PUSH1 0x0 SLOAD PUSH1 0x1 PUSH1 0x1 PUSH1 0xA0 SHL SUB AND CALLER EQ PUSH2 0x786 JUMPI PUSH1 0x40 MLOAD PUSH4 0x118CDAA7 PUSH1 0xE0 SHL DUP2 MSTORE CALLER PUSH1 0x4 DUP3 ADD MSTORE PUSH1 0x24 ADD PUSH2 0x334 JUMP JUMPDEST PUSH1 0x0 DUP1 SLOAD PUSH1 0x1 PUSH1 0x1 PUSH1 0xA0 SHL SUB DUP4 DUP2 AND PUSH1 0x1 PUSH1 0x1 PUSH1 0xA0 SHL SUB NOT DUP4 AND DUP2 OR DUP5 SSTORE PUSH1 0x40 MLOAD SWAP2 SWAP1 SWAP3 AND SWAP3 DUP4 SWAP2 PUSH32 0x8BE0079C531659141344CD1FD0A4F28419497F9722A3DAAFE3B4186F6B6457E0 SWAP2 SWAP1 LOG3 POP POP JUMP JUMPDEST PUSH1 0x0 PUSH1 0x20 DUP3 DUP5 SUB SLT ISZERO PUSH2 0xFB1 JUMPI PUSH1 0x0 DUP1 REVERT JUMPDEST POP CALLDATALOAD SWAP2 SWAP1 POP JUMP JUMPDEST PUSH4 0x4E487B71 PUSH1 0xE0 SHL PUSH1 0x0 MSTORE PUSH1 0x41 PUSH1 0x4 MSTORE PUSH1 0x24 PUSH1 0x0 REVERT JUMPDEST PUSH1 0x0 DUP3 PUSH1 0x1F DUP4 ADD SLT PUSH2 0xFDF JUMPI PUSH1 0x0 DUP1 REVERT JUMPDEST DUP2 CALLDATALOAD PUSH8 0xFFFFFFFFFFFFFFFF DUP1 DUP3 GT ISZERO PUSH2 0xFFA JUMPI PUSH2 0xFFA PUSH2 0xFB8 JUMP JUMPDEST PUSH1 0x40 MLOAD PUSH1 0x1F DUP4 ADD PUSH1 0x1F NOT SWAP1 DUP2 AND PUSH1 0x3F ADD AND DUP2 ADD SWAP1 DUP3 DUP3 GT DUP2 DUP4 LT OR ISZERO PUSH2 0x1022 JUMPI PUSH2 0x1022 PUSH2 0xFB8 JUMP JUMPDEST DUP2 PUSH1 0x40 MSTORE DUP4 DUP2 MSTORE DUP7 PUSH1 0x20 DUP6 DUP9 ADD ADD GT ISZERO PUSH2 0x103B JUMPI PUSH1 0x0 DUP1 REVERT JUMPDEST DUP4 PUSH1 0x20 DUP8 ADD PUSH1 0x20 DUP4 ADD CALLDATACOPY PUSH1 0x0 PUSH1 0x20 DUP6 DUP4 ADD ADD MSTORE DUP1 SWAP5 POP POP POP POP POP SWAP3 SWAP2 POP POP JUMP JUMPDEST PUSH1 0x0 PUSH1 0x20 DUP3 DUP5 SUB SLT ISZERO PUSH2 0x106D JUMPI PUSH1 0x0 DUP1 REVERT JUMPDEST DUP2 CALLDATALOAD PUSH8 0xFFFFFFFFFFFFFFFF DUP2 GT ISZERO PUSH2 0x1084 JUMPI PUSH1 0x0 DUP1 REVERT JUMPDEST PUSH2 0x1090 DUP5 DUP3 DUP6 ADD PUSH2 0xFCE JUMP JUMPDEST SWAP5 SWAP4 POP POP POP POP JUMP JUMPDEST PUSH1 0x0 DUP1 PUSH1 0x0 DUP1 PUSH1 0x40 DUP6 DUP8 SUB SLT ISZERO PUSH2 0x10AE JUMPI PUSH1 0x0 DUP1 REVERT JUMPDEST DUP5 CALLDATALOAD PUSH8 0xFFFFFFFFFFFFFFFF DUP1 DUP3 GT ISZERO PUSH2 0x10C6 JUMPI PUSH1 0x0 DUP1 REVERT JUMPDEST DUP2 DUP8 ADD SWAP2 POP DUP8 PUSH1 0x1F DUP4 ADD SLT PUSH2 0x10DA JUMPI PUSH1 0x0 DUP1 REVERT JUMPDEST DUP2 CALLDATALOAD DUP2 DUP2 GT ISZERO PUSH2 0x10E9 JUMPI PUSH1 0x0 DUP1 REVERT JUMPDEST DUP9 PUSH1 0x20 PUSH2 0x180 DUP4 MUL DUP6 ADD ADD GT ISZERO PUSH2 0x10FF JUMPI PUSH1 0x0 DUP1 REVERT JUMPDEST PUSH1 0x20 SWAP3 DUP4 ADD SWAP7 POP SWAP5 POP SWAP1 DUP7 ADD CALLDATALOAD SWAP1 DUP1 DUP3 GT ISZERO PUSH2 0x111A JUMPI PUSH1 0x0 DUP1 REVERT JUMPDEST DUP2 DUP8 ADD SWAP2 POP DUP8 PUSH1 0x1F DUP4 ADD SLT PUSH2 0x112E JUMPI PUSH1 0x0 DUP1 REVERT JUMPDEST DUP2 CALLDATALOAD DUP2 DUP2 GT ISZERO PUSH2 0x113D JUMPI PUSH1 0x0 DUP1 REVERT JUMPDEST DUP9 PUSH1 0x20 DUP3 PUSH1 0x5 SHL DUP6 ADD ADD GT ISZERO PUSH2 0x1152 JUMPI PUSH1 0x0 DUP1 REVERT JUMPDEST SWAP6 SWAP9 SWAP5 SWAP8 POP POP PUSH1 0x20 ADD SWAP5 POP POP POP JUMP JUMPDEST DUP1 CALLDATALOAD PUSH1 0x1 PUSH1 0x1 PUSH1 0xA0 SHL SUB DUP2 AND DUP2 EQ PUSH2 0x1178 JUMPI PUSH1 0x0 DUP1 REVERT JUMPDEST SWAP2 SWAP1 POP JUMP JUMPDEST PUSH1 0x0 DUP1 DUP4 PUSH1 0x1F DUP5 ADD SLT PUSH2 0x118F JUMPI PUSH1 0x0 DUP1 REVERT JUMPDEST POP DUP2 CALLDATALOAD PUSH8 0xFFFFFFFFFFFFFFFF DUP2 GT ISZERO PUSH2 0x11A7 JUMPI PUSH1 0x0 DUP1 REVERT JUMPDEST PUSH1 0x20 DUP4 ADD SWAP2 POP DUP4 PUSH1 0x20 DUP3 DUP6 ADD ADD GT ISZERO PUSH2 0x11BF JUMPI PUSH1 0x0 DUP1 REVERT JUMPDEST SWAP3 POP SWAP3 SWAP1 POP JUMP JUMPDEST PUSH1 0x0 DUP1 PUSH1 0x0 PUSH1 0x40 DUP5 DUP7 SUB SLT ISZERO PUSH2 0x11DB JUMPI PUSH1 0x0 DUP1 REVERT JUMPDEST PUSH2 0x11E4 DUP5 PUSH2 0x1161 JUMP JUMPDEST SWAP3 POP PUSH1 0x20 DUP5 ADD CALLDATALOAD PUSH8 0xFFFFFFFFFFFFFFFF DUP2 GT ISZERO PUSH2 0x1200 JUMPI PUSH1 0x0 DUP1 REVERT JUMPDEST PUSH2 0x120C DUP7 DUP3 DUP8 ADD PUSH2 0x117D JUMP JUMPDEST SWAP5 SWAP8 SWAP1 SWAP7 POP SWAP4 SWAP5 POP POP POP POP JUMP JUMPDEST PUSH1 0x0 DUP1 PUSH1 0x20 DUP4 DUP6 SUB SLT ISZERO PUSH2 0x122C JUMPI PUSH1 0x0 DUP1 REVERT JUMPDEST DUP3 CALLDATALOAD PUSH8 0xFFFFFFFFFFFFFFFF DUP2 GT ISZERO PUSH2 0x1243 JUMPI PUSH1 0x0 DUP1 REVERT JUMPDEST PUSH2 0x124F DUP6 DUP3 DUP7 ADD PUSH2 0x117D JUMP JUMPDEST SWAP1 SWAP7 SWAP1 SWAP6 POP SWAP4 POP POP POP POP JUMP JUMPDEST PUSH1 0x0 DUP1 PUSH1 0x40 DUP4 DUP6 SUB SLT ISZERO PUSH2 0x126E JUMPI PUSH1 0x0 DUP1 REVERT JUMPDEST PUSH2 0x1277 DUP4 PUSH2 0x1161 JUMP JUMPDEST SWAP2 POP PUSH1 0x20 DUP4 ADD CALLDATALOAD PUSH8 0xFFFFFFFFFFFFFFFF DUP2 GT ISZERO PUSH2 0x1293 JUMPI PUSH1 0x0 DUP1 REVERT JUMPDEST PUSH2 0x129F DUP6 DUP3 DUP7 ADD PUSH2 0xFCE JUMP JUMPDEST SWAP2 POP POP SWAP3 POP SWAP3 SWAP1 POP JUMP JUMPDEST DUP1 ISZERO ISZERO DUP2 EQ PUSH2 0xA22 JUMPI PUSH1 0x0 DUP1 REVERT JUMPDEST PUSH1 0x0 DUP1 PUSH1 0x0 DUP1 PUSH1 0x0 PUSH1 0x80 DUP7 DUP9 SUB SLT ISZERO PUSH2 0x12CF JUMPI PUSH1 0x0 DUP1 REVERT JUMPDEST DUP6 CALLDATALOAD PUSH8 0xFFFFFFFFFFFFFFFF DUP2 GT ISZERO PUSH2 0x12E6 JUMPI PUSH1 0x0 DUP1 REVERT JUMPDEST PUSH2 0x12F2 DUP9 DUP3 DUP10 ADD PUSH2 0x117D JUMP JUMPDEST SWAP1 SWAP7 POP SWAP5 POP POP PUSH1 0x20 DUP7 ADD CALLDATALOAD PUSH2 0x1306 DUP2 PUSH2 0x12A9 JUMP JUMPDEST SWAP5 SWAP8 SWAP4 SWAP7 POP SWAP4 SWAP5 PUSH1 0x40 DUP2 ADD CALLDATALOAD SWAP5 POP PUSH1 0x60 ADD CALLDATALOAD SWAP3 SWAP2 POP POP JUMP JUMPDEST PUSH1 0x0 PUSH1 0x20 DUP3 DUP5 SUB SLT ISZERO PUSH2 0x1330 JUMPI PUSH1 0x0 DUP1 REVERT JUMPDEST PUSH2 0x1339 DUP3 PUSH2 0x1161 JUMP JUMPDEST SWAP4 SWAP3 POP POP POP JUMP JUMPDEST PUSH1 0x0 DUP1 PUSH1 0x0 DUP4 DUP6 SUB PUSH2 0x1A0 DUP2 SLT ISZERO PUSH2 0x1357 JUMPI PUSH1 0x0 DUP1 REVERT JUMPDEST PUSH2 0x180 DUP1 DUP3 SLT ISZERO PUSH2 0x1367 JUMPI PUSH1 0x0 DUP1 REVERT JUMPDEST DUP6 SWAP5 POP DUP5 ADD CALLDATALOAD SWAP1 POP PUSH8 0xFFFFFFFFFFFFFFFF DUP2 GT ISZERO PUSH2 0x1200 JUMPI PUSH1 0x0 DUP1 REVERT JUMPDEST PUSH4 0x4E487B71 PUSH1 0xE0 SHL PUSH1 0x0 MSTORE PUSH1 0x32 PUSH1 0x4 MSTORE PUSH1 0x24 PUSH1 0x0 REVERT JUMPDEST PUSH1 0x0 DUP1 DUP4 CALLDATALOAD PUSH1 0x1E NOT DUP5 CALLDATASIZE SUB ADD DUP2 SLT PUSH2 0x13B1 JUMPI PUSH1 0x0 DUP1 REVERT JUMPDEST DUP4 ADD DUP1 CALLDATALOAD SWAP2 POP PUSH8 0xFFFFFFFFFFFFFFFF DUP3 GT ISZERO PUSH2 0x13CC JUMPI PUSH1 0x0 DUP1 REVERT JUMPDEST PUSH1 0x20 ADD SWAP2 POP CALLDATASIZE DUP2 SWAP1 SUB DUP3 SGT ISZERO PUSH2 0x11BF JUMPI PUSH1 0x0 DUP1 REVERT JUMPDEST DUP2 DUP4 DUP3 CALLDATACOPY PUSH1 0x0 SWAP2 ADD SWAP1 DUP2 MSTORE SWAP2 SWAP1 POP JUMP JUMPDEST PUSH2 0x120 DUP2 ADD PUSH1 0x40 DUP1 DUP8 DUP5 CALLDATACOPY DUP1 DUP4 ADD DUP7 PUSH1 0x0 JUMPDEST PUSH1 0x2 DUP2 LT ISZERO PUSH2 0x1420 JUMPI DUP4 DUP3 DUP5 CALLDATACOPY SWAP2 DUP4 ADD SWAP2 SWAP1 DUP4 ADD SWAP1 PUSH1 0x1 ADD PUSH2 0x1403 JUMP JUMPDEST POP POP POP DUP1 DUP6 PUSH1 0xC0 DUP6 ADD CALLDATACOPY POP PUSH2 0x100 DUP3 ADD DUP4 PUSH1 0x0 JUMPDEST PUSH1 0x1 DUP2 LT ISZERO PUSH2 0x1453 JUMPI DUP2 MLOAD DUP4 MSTORE PUSH1 0x20 SWAP3 DUP4 ADD SWAP3 SWAP1 SWAP2 ADD SWAP1 PUSH1 0x1 ADD PUSH2 0x1434 JUMP JUMPDEST POP POP POP SWAP6 SWAP5 POP POP POP POP POP JUMP JUMPDEST PUSH1 0x0 PUSH1 0x20 DUP3 DUP5 SUB SLT ISZERO PUSH2 0x1471 JUMPI PUSH1 0x0 DUP1 REVERT JUMPDEST DUP2 MLOAD PUSH2 0x1339 DUP2 PUSH2 0x12A9 JUMP JUMPDEST PUSH4 0x4E487B71 PUSH1 0xE0 SHL PUSH1 0x0 MSTORE PUSH1 0x11 PUSH1 0x4 MSTORE PUSH1 0x24 PUSH1 0x0 REVERT JUMPDEST PUSH1 0x0 PUSH1 0x1 DUP3 ADD PUSH2 0x14A4 JUMPI PUSH2 0x14A4 PUSH2 0x147C JUMP JUMPDEST POP PUSH1 0x1 ADD SWAP1 JUMP JUMPDEST DUP1 DUP3 ADD DUP1 DUP3 GT ISZERO PUSH2 0x14BE JUMPI PUSH2 0x14BE PUSH2 0x147C JUMP JUMPDEST SWAP3 SWAP2 POP POP JUMP INVALID LOG2 PUSH5 0x6970667358 0x22 SLT KECCAK256 PUSH27 0x86CA8CECF9DB6F5F71877E91121D58A55C101DACF8701E6E706D88 0xE LOG3 GASLIMIT 0xB9 PUSH5 0x736F6C6343 STOP ADDMOD EQ STOP CALLER "},"methodIdentifiers":{"accessRestrictedService(string)":"dc670c25","batchVerifyAndGrantAccess((uint256[2],uint256[2][2],uint256[2],uint256[4])[],string[])":"4b11354c","configureService(string,bool,uint256,uint256)":"cf046db0","getServiceConfig(string)":"af0f427c","hasAccess(address,string)":"a8ccb291","kycRegistry()":"4b155b97","owner()":"8da5cb5b","renounceOwnership()":"715018a6","revokeAccess(address,string)":"6a44cac9","services(string)":"3017ba09","transferOwnership(address)":"f2fde38b","usedNullifiers(bytes32)":"206137aa","userAccess(address,string)":"c6240ff9","verifier()":"2b7ac3f3","verifyKYCAndGrantAccess((uint256[2],uint256[2][2],uint256[2],uint256[4]),string)":"f5573f52"}}}}}