{"contracts/MockVerifier.sol":{"MockVerifier":{"abi":[{"inputs":[{"internalType":"bool","name":"result","type":"bool"}],"name":"setVerificationResult","outputs":[],"stateMutability":"nonpayable","type":"function"},{"inputs":[],"name":"verificationResult","outputs":[{"internalType":"bool","name":"","type":"bool"}],"stateMutability":"view","type":"function"},{"inputs":[{"internalType":"uint256[2]","name":"","type":"uint256[2]"},{"internalType":"uint256[2][2]","name":"","type":"uint256[2][2]"},{"internalType":"uint256[2]","name":"","type":"uint256[2]"},{"internalType":"uint256[4]","name":"","type":"uint256[4]"}],"name":"verifyProof","outputs":[{"internalType":"bool","name":"","type":"bool"}],"stateMutability":"view","type":"function"}],"evm":{"bytecode":{"linkReferences":{},"object":"60806040526000805460ff1916600117905534801561001d57600080fd5b506101878061002d6000396000f3fe608060405234801561001057600080fd5b50600436106100415760003560e01c80635fe8c13b14610046578063bb17350314610076578063e064c12f14610083575b600080fd5b6100626100543660046100ce565b60005460ff16949350505050565b604051901515815260200160405180910390f35b6000546100629060ff1681565b6100a4610091366004610128565b6000805460ff1916911515919091179055565b005b80604081018310156100b757600080fd5b92915050565b80608081018310156100b757600080fd5b60008060008061018085870312156100e557600080fd5b6100ef86866100a6565b93506100fe86604087016100bd565b925061010d8660c087016100a6565b915061011d8661010087016100bd565b905092959194509250565b60006020828403121561013a57600080fd5b8135801515811461014a57600080fd5b939250505056fea264697066735822122010acbfab30f6a01cf5de0dcfbbc3746deb535545b33e16f07a9368e1fbd0dfa364736f6c63430008140033","opcodes":"PUSH1 0x80 PUSH1 0x40 MSTORE PUSH1 0x0 DUP1 SLOAD PUSH1 0xFF NOT AND PUSH1 0x1 OR SWAP1 SSTORE CALLVALUE DUP1 ISZERO PUSH2 0x1D JUMPI PUSH1 0x0 DUP1 REVERT JUMPDEST POP PUSH2 0x187 DUP1 PUSH2 0x2D PUSH1 0x0 CODECOPY PUSH1 0x0 RETURN INVALID PUSH1 0x80 PUSH1 0x40 MSTORE CALLVALUE DUP1 ISZERO PUSH2 0x10 JUMPI PUSH1 0x0 DUP1 REVERT JUMPDEST POP PUSH1 0x4 CALLDATASIZE LT PUSH2 0x41 JUMPI PUSH1 0x0 CALLDATALOAD PUSH1 0xE0 SHR DUP1 PUSH4 0x5FE8C13B EQ PUSH2 0x46 JUMPI DUP1 PUSH4 0xBB173503 EQ PUSH2 0x76 JUMPI DUP1 PUSH4 0xE064C12F EQ PUSH2 0x83 JUMPI JUMPDEST PUSH1 0x0 DUP1 REVERT JUMPDEST PUSH2 0x62 PUSH2 0x54 CALLDATASIZE PUSH1 0x4 PUSH2 0xCE JUMP JUMPDEST PUSH1 0x0 SLOAD PUSH1 0xFF AND SWAP5 SWAP4 POP POP POP POP JUMP JUMPDEST PUSH1 0x40 MLOAD SWAP1 ISZERO ISZERO DUP2 MSTORE PUSH1 0x20 ADD PUSH1 0x40 MLOAD DUP1 SWAP2 SUB SWAP1 RETURN JUMPDEST PUSH1 0x0 SLOAD PUSH2 0x62 SWAP1 PUSH1 0xFF AND DUP2 JUMP JUMPDEST PUSH2 0xA4 PUSH2 0x91 CALLDATASIZE PUSH1 0x4 PUSH2 0x128 JUMP JUMPDEST PUSH1 0x0 DUP1 SLOAD PUSH1 0xFF NOT AND SWAP2 ISZERO ISZERO SWAP2 SWAP1 SWAP2 OR SWAP1 SSTORE JUMP JUMPDEST STOP JUMPDEST DUP1 PUSH1 0x40 DUP2 ADD DUP4 LT ISZERO PUSH2 0xB7 JUMPI PUSH1 0x0 DUP1 REVERT JUMPDEST SWAP3 SWAP2 POP POP JUMP JUMPDEST DUP1 PUSH1 0x80 DUP2 ADD DUP4 LT ISZERO PUSH2 0xB7 JUMPI PUSH1 0x0 DUP1 REVERT JUMPDEST PUSH1 0x0 DUP1 PUSH1 0x0 DUP1 PUSH2 0x180 DUP6 DUP8 SUB SLT ISZERO PUSH2 0xE5 JUMPI PUSH1 0x0 DUP1 REVERT JUMPDEST PUSH2 0xEF DUP7 DUP7 PUSH2 0xA6 JUMP JUMPDEST SWAP4 POP PUSH2 0xFE DUP7 PUSH1 0x40 DUP8 ADD PUSH2 0xBD JUMP JUMPDEST SWAP3 POP PUSH2 0x10D DUP7 PUSH1 0xC0 DUP8 ADD PUSH2 0xA6 JUMP JUMPDEST SWAP2 POP PUSH2 0x11D DUP7 PUSH2 0x100 DUP8 ADD PUSH2 0xBD JUMP JUMPDEST SWAP1 POP SWAP3 SWAP6 SWAP2 SWAP5 POP SWAP3 POP JUMP JUMPDEST PUSH1 0x0 PUSH1 0x20 DUP3 DUP5 SUB SLT ISZERO PUSH2 0x13A JUMPI PUSH1 0x0 DUP1 REVERT JUMPDEST DUP2 CALLDATALOAD DUP1 ISZERO ISZERO DUP2 EQ PUSH2 0x14A JUMPI PUSH1 0x0 DUP1 REVERT JUMPDEST SWAP4 SWAP3 POP POP POP JUMP INVALID LOG2 PUSH5 0x6970667358 0x22 SLT KECCAK256 LT 0xAC 0xBF 0xAB ADDRESS 0xF6 LOG0 SHR CREATE2 0xDE 0xD 0xCF 0xBB 0xC3 PUSH21 0x6DEB535545B33E16F07A9368E1FBD0DFA364736F6C PUSH4 0x43000814 STOP CALLER "},"methodIdentifiers":{"setVerificationResult(bool)":"e064c12f","verificationResult()":"bb173503","verifyProof(uint256[2],uint256[2][2],uint256[2],uint256[4])":"5fe8c13b"}}}}}