{"contracts/Verifier.sol":{"Verifier":{"abi":[{"inputs":[{"internalType":"uint256[2]","name":"_pA","type":"uint256[2]"},{"internalType":"uint256[2][2]","name":"_pB","type":"uint256[2][2]"},{"internalType":"uint256[2]","name":"_pC","type":"uint256[2]"},{"internalType":"uint256[1]","name":"_pubSignals","type":"uint256[1]"}],"name":"verifyProof","outputs":[{"internalType":"bool","name":"","type":"bool"}],"stateMutability":"view","type":"function"}],"evm":{"bytecode":{"linkReferences":{},"object":"608060405234801561001057600080fd5b5061055e806100206000396000f3fe608060405234801561001057600080fd5b506004361061002b5760003560e01c806343753b4d14610030575b600080fd5b61004361003e3660046104c2565b610057565b604051901515815260200160405180910390f35b600061047a565b7f30644e72e131a029b85045b68181585d2833e84879b9709143e1f593f0000001811061008f576000805260206000f35b50565b600060405183815284602082015285604082015260408160608360076107d05a03fa9150816100c5576000805260206000f35b825160408201526020830151606082015260408360808360066107d05a03fa915050806100f6576000805260206000f35b5050505050565b7f2349fb789e2b1e5def7cd5e4af681078a32b9e937a96402bff38c8bb78e8a7a085527f0c8f57553110251bc9ce6c3ca5e5e75cd43bb9f7a2d38108d7eb41170a65f9ea60208601526000608086018661019a87357f15b02f7c0f678a71d44d0863ebdef563e2a8417571121d2e3046a80285e52a337f0b0b551bc79613e45335397509a99855d2a5c8c00e76d974cb4f2f2ad17c5d8f84610092565b50823581527f30644e72e131a029b85045b68181585d97816a916871ca8d3c208c16d87cfd4760208401357f30644e72e131a029b85045b68181585d97816a916871ca8d3c208c16d87cfd4703066020820152833560408201526020840135606082015260408401356080820152606084013560a08201527f0418c7d7bd15b640310e3ac2aa15f26af8de2726ad48527213d41d38e60e390d60c08201527f0fea06f81f0db6975e73b97346aa6e10a0be511b378c493ff2a4c88f6ea6fcd460e08201527f1dea6e8ebf8d484f0cb8f5f5229e78e541b031f7130d34a6c7663d2e2e32655d6101008201527f0173131437bb56806787606b2a8ff753bee70fd01c77fa69d1c87393eca810446101208201527f01a5e4295b06084623f413a4eefe909314ba7106faec3fedec9dd13d8f4e47066101408201527f2855d0a1f90d3f22844fc26f927497ee612c5b16f9b9026ed4d0835cae5926ec610160820152600087015161018082015260206000018701516101a08201527f198e9393920d483a7260bfb731fb5d25f1aa493335a9e71297e485b7aef312c26101c08201527f1800deef121f1e76426a00665e5c4479674322d4f75edadd46debd5cd992f6ed6101e08201527f090689d0585ff075ec9e99ad690c3395bc4b313370b38ef355acdadcd122975b6102008201527f12c85ea5db8c6deb4aab71808dcb408fe3d1e7690c43d37b4ce6cc0166fa7daa610220820152843561024082015260208501356102608201527f27e3cd559dd5a5101fba68351b6ef39413e68a1222b93dac25d5b9f2b76b4ba16102808201527f08aa0f778de15ce1ef4908eb4e1d44a584227fb7a098d5b16ae0570cbbe2f72c6102a08201527f219f2f5db638a89a7a99b2dcf925c4fdcc0ac39932c25adf3f83159531a07bf86102c08201527f05620f97d361c3fe8070d49d396cc2832fd097521ef08be583cbc7c1a607b2976102e08201526020816103008360086107d05a03fa9051169695505050505050565b6040516103808101604052610492600084013561005e565b61049f818486888a6100fd565b90508060005260206000f35b80604081018310156104bc57600080fd5b92915050565b6000806000806101208086880312156104da57600080fd5b6104e487876104ab565b945060c08601878111156104f757600080fd5b60408701945061050788826104ab565b93505086818701111561051957600080fd5b5092959194509261010001915056fea26469706673582212200f0831867ba3def9a505939caa09b1041831783c02b278b6f7d18cb89111bfd764736f6c63430008140033","opcodes":"PUSH1 0x80 PUSH1 0x40 MSTORE CALLVALUE DUP1 ISZERO PUSH2 0x10 JUMPI PUSH1 0x0 DUP1 REVERT JUMPDEST POP PUSH2 0x55E DUP1 PUSH2 0x20 PUSH1 0x0 CODECOPY PUSH1 0x0 RETURN INVALID PUSH1 0x80 PUSH1 0x40 MSTORE CALLVALUE DUP1 ISZERO PUSH2 0x10 JUMPI PUSH1 0x0 DUP1 REVERT JUMPDEST POP PUSH1 0x4 CALLDATASIZE LT PUSH2 0x2B JUMPI PUSH1 0x0 CALLDATALOAD PUSH1 0xE0 SHR DUP1 PUSH4 0x43753B4D EQ PUSH2 0x30 JUMPI JUMPDEST PUSH1 0x0 DUP1 REVERT JUMPDEST PUSH2 0x43 PUSH2 0x3E CALLDATASIZE PUSH1 0x4 PUSH2 0x4C2 JUMP JUMPDEST PUSH2 0x57 JUMP JUMPDEST PUSH1 0x40 MLOAD SWAP1 ISZERO ISZERO DUP2 MSTORE PUSH1 0x20 ADD PUSH1 0x40 MLOAD DUP1 SWAP2 SUB SWAP1 RETURN JUMPDEST PUSH1 0x0 PUSH2 0x47A JUMP JUMPDEST PUSH32 0x30644E72E131A029B85045B68181585D2833E84879B9709143E1F593F0000001 DUP2 LT PUSH2 0x8F JUMPI PUSH1 0x0 DUP1 MSTORE PUSH1 0x20 PUSH1 0x0 RETURN JUMPDEST POP JUMP JUMPDEST PUSH1 0x0 PUSH1 0x40 MLOAD DUP4 DUP2 MSTORE DUP5 PUSH1 0x20 DUP3 ADD MSTORE DUP6 PUSH1 0x40 DUP3 ADD MSTORE PUSH1 0x40 DUP2 PUSH1 0x60 DUP4 PUSH1 0x7 PUSH2 0x7D0 GAS SUB STATICCALL SWAP2 POP DUP2 PUSH2 0xC5 JUMPI PUSH1 0x0 DUP1 MSTORE PUSH1 0x20 PUSH1 0x0 RETURN JUMPDEST DUP3 MLOAD PUSH1 0x40 DUP3 ADD MSTORE PUSH1 0x20 DUP4 ADD MLOAD PUSH1 0x60 DUP3 ADD MSTORE PUSH1 0x40 DUP4 PUSH1 0x80 DUP4 PUSH1 0x6 PUSH2 0x7D0 GAS SUB STATICCALL SWAP2 POP POP DUP1 PUSH2 0xF6 JUMPI PUSH1 0x0 DUP1 MSTORE PUSH1 0x20 PUSH1 0x0 RETURN JUMPDEST POP POP POP POP POP JUMP JUMPDEST PUSH32 0x2349FB789E2B1E5DEF7CD5E4AF681078A32B9E937A96402BFF38C8BB78E8A7A0 DUP6 MSTORE PUSH32 0xC8F57553110251BC9CE6C3CA5E5E75CD43BB9F7A2D38108D7EB41170A65F9EA PUSH1 0x20 DUP7 ADD MSTORE PUSH1 0x0 PUSH1 0x80 DUP7 ADD DUP7 PUSH2 0x19A DUP8 CALLDATALOAD PUSH32 0x15B02F7C0F678A71D44D0863EBDEF563E2A8417571121D2E3046A80285E52A33 PUSH32 0xB0B551BC79613E45335397509A99855D2A5C8C00E76D974CB4F2F2AD17C5D8F DUP5 PUSH2 0x92 JUMP JUMPDEST POP DUP3 CALLDATALOAD DUP2 MSTORE PUSH32 0x30644E72E131A029B85045B68181585D97816A916871CA8D3C208C16D87CFD47 PUSH1 0x20 DUP5 ADD CALLDATALOAD PUSH32 0x30644E72E131A029B85045B68181585D97816A916871CA8D3C208C16D87CFD47 SUB MOD PUSH1 0x20 DUP3 ADD MSTORE DUP4 CALLDATALOAD PUSH1 0x40 DUP3 ADD MSTORE PUSH1 0x20 DUP5 ADD CALLDATALOAD PUSH1 0x60 DUP3 ADD MSTORE PUSH1 0x40 DUP5 ADD CALLDATALOAD PUSH1 0x80 DUP3 ADD MSTORE PUSH1 0x60 DUP5 ADD CALLDATALOAD PUSH1 0xA0 DUP3 ADD MSTORE PUSH32 0x418C7D7BD15B640310E3AC2AA15F26AF8DE2726AD48527213D41D38E60E390D PUSH1 0xC0 DUP3 ADD MSTORE PUSH32 0xFEA06F81F0DB6975E73B97346AA6E10A0BE511B378C493FF2A4C88F6EA6FCD4 PUSH1 0xE0 DUP3 ADD MSTORE PUSH32 0x1DEA6E8EBF8D484F0CB8F5F5229E78E541B031F7130D34A6C7663D2E2E32655D PUSH2 0x100 DUP3 ADD MSTORE PUSH32 0x173131437BB56806787606B2A8FF753BEE70FD01C77FA69D1C87393ECA81044 PUSH2 0x120 DUP3 ADD MSTORE PUSH32 0x1A5E4295B06084623F413A4EEFE909314BA7106FAEC3FEDEC9DD13D8F4E4706 PUSH2 0x140 DUP3 ADD MSTORE PUSH32 0x2855D0A1F90D3F22844FC26F927497EE612C5B16F9B9026ED4D0835CAE5926EC PUSH2 0x160 DUP3 ADD MSTORE PUSH1 0x0 DUP8 ADD MLOAD PUSH2 0x180 DUP3 ADD MSTORE PUSH1 0x20 PUSH1 0x0 ADD DUP8 ADD MLOAD PUSH2 0x1A0 DUP3 ADD MSTORE PUSH32 0x198E9393920D483A7260BFB731FB5D25F1AA493335A9E71297E485B7AEF312C2 PUSH2 0x1C0 DUP3 ADD MSTORE PUSH32 0x1800DEEF121F1E76426A00665E5C4479674322D4F75EDADD46DEBD5CD992F6ED PUSH2 0x1E0 DUP3 ADD MSTORE PUSH32 0x90689D0585FF075EC9E99AD690C3395BC4B313370B38EF355ACDADCD122975B PUSH2 0x200 DUP3 ADD MSTORE PUSH32 0x12C85EA5DB8C6DEB4AAB71808DCB408FE3D1E7690C43D37B4CE6CC0166FA7DAA PUSH2 0x220 DUP3 ADD MSTORE DUP5 CALLDATALOAD PUSH2 0x240 DUP3 ADD MSTORE PUSH1 0x20 DUP6 ADD CALLDATALOAD PUSH2 0x260 DUP3 ADD MSTORE PUSH32 0x27E3CD559DD5A5101FBA68351B6EF39413E68A1222B93DAC25D5B9F2B76B4BA1 PUSH2 0x280 DUP3 ADD MSTORE PUSH32 0x8AA0F778DE15CE1EF4908EB4E1D44A584227FB7A098D5B16AE0570CBBE2F72C PUSH2 0x2A0 DUP3 ADD MSTORE PUSH32 0x219F2F5DB638A89A7A99B2DCF925C4FDCC0AC39932C25ADF3F83159531A07BF8 PUSH2 0x2C0 DUP3 ADD MSTORE PUSH32 0x5620F97D361C3FE8070D49D396CC2832FD097521EF08BE583CBC7C1A607B297 PUSH2 0x2E0 DUP3 ADD MSTORE PUSH1 0x20 DUP2 PUSH2 0x300 DUP4 PUSH1 0x8 PUSH2 0x7D0 GAS SUB STATICCALL SWAP1 MLOAD AND SWAP7 SWAP6 POP POP POP POP POP POP JUMP JUMPDEST PUSH1 0x40 MLOAD PUSH2 0x380 DUP2 ADD PUSH1 0x40 MSTORE PUSH2 0x492 PUSH1 0x0 DUP5 ADD CALLDATALOAD PUSH2 0x5E JUMP JUMPDEST PUSH2 0x49F DUP2 DUP5 DUP7 DUP9 DUP11 PUSH2 0xFD JUMP JUMPDEST SWAP1 POP DUP1 PUSH1 0x0 MSTORE PUSH1 0x20 PUSH1 0x0 RETURN JUMPDEST DUP1 PUSH1 0x40 DUP2 ADD DUP4 LT ISZERO PUSH2 0x4BC JUMPI PUSH1 0x0 DUP1 REVERT JUMPDEST SWAP3 SWAP2 POP POP JUMP JUMPDEST PUSH1 0x0 DUP1 PUSH1 0x0 DUP1 PUSH2 0x120 DUP1 DUP7 DUP9 SUB SLT ISZERO PUSH2 0x4DA JUMPI PUSH1 0x0 DUP1 REVERT JUMPDEST PUSH2 0x4E4 DUP8 DUP8 PUSH2 0x4AB JUMP JUMPDEST SWAP5 POP PUSH1 0xC0 DUP7 ADD DUP8 DUP2 GT ISZERO PUSH2 0x4F7 JUMPI PUSH1 0x0 DUP1 REVERT JUMPDEST PUSH1 0x40 DUP8 ADD SWAP5 POP PUSH2 0x507 DUP9 DUP3 PUSH2 0x4AB JUMP JUMPDEST SWAP4 POP POP DUP7 DUP2 DUP8 ADD GT ISZERO PUSH2 0x519 JUMPI PUSH1 0x0 DUP1 REVERT JUMPDEST POP SWAP3 SWAP6 SWAP2 SWAP5 POP SWAP3 PUSH2 0x100 ADD SWAP2 POP JUMP INVALID LOG2 PUSH5 0x6970667358 0x22 SLT KECCAK256 0xF ADDMOD BALANCE DUP7 PUSH28 0xA3DEF9A505939CAA09B1041831783C02B278B6F7D18CB89111BFD764 PUSH20 0x6F6C634300081400330000000000000000000000 "},"methodIdentifiers":{"verifyProof(uint256[2],uint256[2][2],uint256[2],uint256[1])":"43753b4d"}}}}}