{"contracts/MockHasher.sol":{"MockHasher":{"abi":[{"inputs":[{"internalType":"bytes32[2]","name":"leftRight","type":"bytes32[2]"}],"name":"poseidon","outputs":[{"internalType":"bytes32","name":"","type":"bytes32"}],"stateMutability":"pure","type":"function"}],"evm":{"bytecode":{"linkReferences":{},"object":"608060405234801561001057600080fd5b5060d68061001f6000396000f3fe6080604052348015600f57600080fd5b506004361060285760003560e01c8063299e566014602d575b600080fd5b60686038366004607a565b60408051823560208083019190915292830135818301528151808203830181526060909101909152805191012090565b60405190815260200160405180910390f35b600060408284031215608b57600080fd5b82604083011115609a57600080fd5b5091905056fea26469706673582212202be38cba871125d7ad5e6befdb66923f37251c9ff41e6f2b4b519050ddd0633664736f6c63430008140033","opcodes":"PUSH1 0x80 PUSH1 0x40 MSTORE CALLVALUE DUP1 ISZERO PUSH2 0x10 JUMPI PUSH1 0x0 DUP1 REVERT JUMPDEST POP PUSH1 0xD6 DUP1 PUSH2 0x1F PUSH1 0x0 CODECOPY PUSH1 0x0 RETURN INVALID PUSH1 0x80 PUSH1 0x40 MSTORE CALLVALUE DUP1 ISZERO PUSH1 0xF JUMPI PUSH1 0x0 DUP1 REVERT JUMPDEST POP PUSH1 0x4 CALLDATASIZE LT PUSH1 0x28 JUMPI PUSH1 0x0 CALLDATALOAD PUSH1 0xE0 SHR DUP1 PUSH4 0x299E5660 EQ PUSH1 0x2D JUMPI JUMPDEST PUSH1 0x0 DUP1 REVERT JUMPDEST PUSH1 0x68 PUSH1 0x38 CALLDATASIZE PUSH1 0x4 PUSH1 0x7A JUMP JUMPDEST PUSH1 0x40 DUP1 MLOAD DUP3 CALLDATALOAD PUSH1 0x20 DUP1 DUP4 ADD SWAP2 SWAP1 SWAP2 MSTORE SWAP3 DUP4 ADD CALLDATALOAD DUP2 DUP4 ADD MSTORE DUP2 MLOAD DUP1 DUP3 SUB DUP4 ADD DUP2 MSTORE PUSH1 0x60 SWAP1 SWAP2 ADD SWAP1 SWAP2 MSTORE DUP1 MLOAD SWAP2 ADD KECCAK256 SWAP1 JUMP JUMPDEST PUSH1 0x40 MLOAD SWAP1 DUP2 MSTORE PUSH1 0x20 ADD PUSH1 0x40 MLOAD DUP1 SWAP2 SUB SWAP1 RETURN JUMPDEST PUSH1 0x0 PUSH1 0x40 DUP3 DUP5 SUB SLT ISZERO PUSH1 0x8B JUMPI PUSH1 0x0 DUP1 REVERT JUMPDEST DUP3 PUSH1 0x40 DUP4 ADD GT ISZERO PUSH1 0x9A JUMPI PUSH1 0x0 DUP1 REVERT JUMPDEST POP SWAP2 SWAP1 POP JUMP INVALID LOG2 PUSH5 0x6970667358 0x22 SLT KECCAK256 0x2B 0xE3 DUP13 0xBA DUP8 GT 0x25 0xD7 0xAD 0x5E PUSH12 0xEFDB66923F37251C9FF41E6F 0x2B 0x4B MLOAD SWAP1 POP 0xDD 0xD0 PUSH4 0x3664736F PUSH13 0x63430008140033000000000000 "},"methodIdentifiers":{"poseidon(bytes32[2])":"299e5660"}}}}}