{"contracts/SecureKYCRegistry.sol":{"SecureKYCRegistry":{"abi":[{"inputs":[{"internalType":"contract IHasher","name":"_hasher","type":"address"},{"internalType":"uint32","name":"_merkleTreeHeight","type":"uint32"},{"internalType":"address[]","name":"_trustedIssuers","type":"address[]"},{"internalType":"bytes32[]","name":"_publicKeyHashes","type":"bytes32[]"},{"internalType":"uint256[]","name":"_maxDailyIssuances","type":"uint256[]"}],"stateMutability":"nonpayable","type":"constructor"},{"inputs":[],"name":"CommitmentAlreadyExists","type":"error"},{"inputs":[],"name":"CommitmentSpamPrevention","type":"error"},{"inputs":[],"name":"ECDSAInvalidSignature","type":"error"},{"inputs":[{"internalType":"uint256","name":"length","type":"uint256"}],"name":"ECDSAInvalidSignatureLength","type":"error"},{"inputs":[{"internalType":"bytes32","name":"s","type":"bytes32"}],"name":"ECDSAInvalidSignatureS","type":"error"},{"inputs":[],"name":"InsufficientEntropy","type":"error"},{"inputs":[],"name":"InvalidCommitment","type":"error"},{"inputs":[],"name":"InvalidPublicKey","type":"error"},{"inputs":[],"name":"InvalidSignature","type":"error"},{"inputs":[{"internalType":"address","name":"owner","type":"address"}],"name":"OwnableInvalidOwner","type":"error"},{"inputs":[{"internalType":"address","name":"account","type":"address"}],"name":"OwnableUnauthorizedAccount","type":"error"},{"inputs":[],"name":"RateLimitExceeded","type":"error"},{"inputs":[],"name":"ReentrancyGuardReentrantCall","type":"error"},{"inputs":[],"name":"SignatureExpired","type":"error"},{"inputs":[],"name":"UntrustedIssuer","type":"error"},{"anonymous":false,"inputs":[{"indexed":true,"internalType":"bytes32","name":"commitmentHash","type":"bytes32"},{"indexed":false,"internalType":"uint32","name":"leafIndex","type":"uint32"},{"indexed":false,"internalType":"uint256","name":"timestamp","type":"uint256"}],"name":"CommitmentDeposited","type":"event"},{"anonymous":false,"inputs":[{"indexed":true,"internalType":"address","name":"previousOwner","type":"address"},{"indexed":true,"internalType":"address","name":"newOwner","type":"address"}],"name":"OwnershipTransferred","type":"event"},{"anonymous":false,"inputs":[{"indexed":true,"internalType":"address","name":"violator","type":"address"},{"indexed":false,"internalType":"string","name":"violationType","type":"string"},{"indexed":false,"internalType":"uint256","name":"timestamp","type":"uint256"}],"name":"SecurityViolation","type":"event"},{"anonymous":false,"inputs":[{"indexed":true,"internalType":"address","name":"issuer","type":"address"},{"indexed":false,"internalType":"bytes32","name":"publicKeyHash","type":"bytes32"},{"indexed":false,"internalType":"uint256","name":"maxDailyIssuances","type":"uint256"}],"name":"TrustedIssuerAdded","type":"event"},{"anonymous":false,"inputs":[{"indexed":true,"internalType":"address","name":"issuer","type":"address"}],"name":"TrustedIssuerRemoved","type":"event"},{"inputs":[],"name":"FIELD_SIZE","outputs":[{"internalType":"uint256","name":"","type":"uint256"}],"stateMutability":"view","type":"function"},{"inputs":[],"name":"ISSUER_SIGNATURE_TIMEOUT","outputs":[{"internalType":"uint256","name":"","type":"uint256"}],"stateMutability":"view","type":"function"},{"inputs":[],"name":"MAX_COMMITMENTS_PER_BLOCK","outputs":[{"internalType":"uint256","name":"","type":"uint256"}],"stateMutability":"view","type":"function"},{"inputs":[],"name":"MIN_COMMITMENT_ENTROPY","outputs":[{"internalType":"uint256","name":"","type":"uint256"}],"stateMutability":"view","type":"function"},{"inputs":[],"name":"ROOT_HISTORY_SIZE","outputs":[{"internalType":"uint32","name":"","type":"uint32"}],"stateMutability":"view","type":"function"},{"inputs":[],"name":"ZERO_VALUE","outputs":[{"internalType":"uint256","name":"","type":"uint256"}],"stateMutability":"view","type":"function"},{"inputs":[{"internalType":"address","name":"_issuer","type":"address"},{"internalType":"bytes32","name":"_publicKeyHash","type":"bytes32"},{"internalType":"uint256","name":"_maxDailyIssuances","type":"uint256"}],"name":"addTrustedIssuer","outputs":[],"stateMutability":"nonpayable","type":"function"},{"inputs":[{"internalType":"uint256","name":"","type":"uint256"}],"name":"blockCommitmentCount","outputs":[{"internalType":"uint256","name":"","type":"uint256"}],"stateMutability":"view","type":"function"},{"inputs":[{"internalType":"bytes32","name":"","type":"bytes32"}],"name":"commitments","outputs":[{"internalType":"bool","name":"","type":"bool"}],"stateMutability":"view","type":"function"},{"inputs":[],"name":"currentRootIndex","outputs":[{"internalType":"uint32","name":"","type":"uint32"}],"stateMutability":"view","type":"function"},{"inputs":[],"name":"emergencyPause","outputs":[],"stateMutability":"nonpayable","type":"function"},{"inputs":[{"internalType":"uint256","name":"","type":"uint256"}],"name":"filledSubtrees","outputs":[{"internalType":"bytes32","name":"","type":"bytes32"}],"stateMutability":"view","type":"function"},{"inputs":[{"internalType":"address","name":"_issuer","type":"address"}],"name":"getIssuerInfo","outputs":[{"components":[{"internalType":"bool","name":"isActive","type":"bool"},{"internalType":"bytes32","name":"publicKeyHash","type":"bytes32"},{"internalType":"uint256","name":"maxDailyIssuances","type":"uint256"},{"internalType":"uint256","name":"issuancesToday","type":"uint256"},{"internalType":"uint256","name":"lastResetDay","type":"uint256"}],"internalType":"struct SecureKYCRegistry.IssuerInfo","name":"","type":"tuple"}],"stateMutability":"view","type":"function"},{"inputs":[],"name":"getLastRoot","outputs":[{"internalType":"bytes32","name":"","type":"bytes32"}],"stateMutability":"view","type":"function"},{"inputs":[{"internalType":"bytes32","name":"_left","type":"bytes32"},{"internalType":"bytes32","name":"_right","type":"bytes32"}],"name":"hashLeftRight","outputs":[{"internalType":"bytes32","name":"","type":"bytes32"}],"stateMutability":"view","type":"function"},{"inputs":[],"name":"hasher","outputs":[{"internalType":"contract IHasher","name":"","type":"address"}],"stateMutability":"view","type":"function"},{"inputs":[{"internalType":"bytes32","name":"_root","type":"bytes32"}],"name":"isKnownRoot","outputs":[{"internalType":"bool","name":"","type":"bool"}],"stateMutability":"view","type":"function"},{"inputs":[{"internalType":"bytes32","name":"_nullifierHash","type":"bytes32"}],"name":"isSpent","outputs":[{"internalType":"bool","name":"","type":"bool"}],"stateMutability":"view","type":"function"},{"inputs":[],"name":"levels","outputs":[{"internalType":"uint32","name":"","type":"uint32"}],"stateMutability":"view","type":"function"},{"inputs":[{"internalType":"bytes32","name":"_nullifierHash","type":"bytes32"}],"name":"markNullifierSpent","outputs":[],"stateMutability":"nonpayable","type":"function"},{"inputs":[],"name":"nextIndex","outputs":[{"internalType":"uint32","name":"","type":"uint32"}],"stateMutability":"view","type":"function"},{"inputs":[{"internalType":"bytes32","name":"","type":"bytes32"}],"name":"nullifierHashes","outputs":[{"internalType":"bool","name":"","type":"bool"}],"stateMutability":"view","type":"function"},{"inputs":[],"name":"owner","outputs":[{"internalType":"address","name":"","type":"address"}],"stateMutability":"view","type":"function"},{"inputs":[{"internalType":"address","name":"_issuer","type":"address"}],"name":"removeTrustedIssuer","outputs":[],"stateMutability":"nonpayable","type":"function"},{"inputs":[],"name":"renounceOwnership","outputs":[],"stateMutability":"nonpayable","type":"function"},{"inputs":[],"name":"resetRateLimiting","outputs":[],"stateMutability":"nonpayable","type":"function"},{"inputs":[{"internalType":"uint256","name":"","type":"uint256"}],"name":"roots","outputs":[{"internalType":"bytes32","name":"","type":"bytes32"}],"stateMutability":"view","type":"function"},{"inputs":[{"internalType":"bytes32","name":"_commitment","type":"bytes32"},{"internalType":"bytes","name":"_issuerSignature","type":"bytes"},{"internalType":"uint256","name":"_timestamp","type":"uint256"},{"internalType":"bytes32","name":"_did","type":"bytes32"}],"name":"secureDepositCommitment","outputs":[],"stateMutability":"nonpayable","type":"function"},{"inputs":[{"internalType":"address","name":"newOwner","type":"address"}],"name":"transferOwnership","outputs":[],"stateMutability":"nonpayable","type":"function"},{"inputs":[{"internalType":"address","name":"","type":"address"}],"name":"trustedIssuers","outputs":[{"internalType":"bool","name":"isActive","type":"bool"},{"internalType":"bytes32","name":"publicKeyHash","type":"bytes32"},{"internalType":"uint256","name":"maxDailyIssuances","type":"uint256"},{"internalType":"uint256","name":"issuancesToday","type":"uint256"},{"internalType":"uint256","name":"lastResetDay","type":"uint256"}],"stateMutability":"view","type":"function"},{"inputs":[{"internalType":"address","name":"","type":"address"}],"name":"userCommitmentCount","outputs":[{"internalType":"uint256","name":"","type":"uint256"}],"stateMutability":"view","type":"function"},{"inputs":[{"internalType":"bytes32","name":"_commitment","type":"bytes32"},{"internalType":"bytes32","name":"_nullifier","type":"bytes32"},{"internalType":"bytes32","name":"_secret","type":"bytes32"},{"internalType":"bytes32","name":"_did","type":"bytes32"},{"internalType":"bytes32","name":"_issuerPubKeyX","type":"bytes32"}],"name":"verifyCommitmentStructure","outputs":[{"internalType":"bool","name":"","type":"bool"}],"stateMutability":"pure","type":"function"},{"inputs":[{"internalType":"uint256","name":"","type":"uint256"}],"name":"zeros","outputs":[{"internalType":"bytes32","name":"","type":"bytes32"}],"stateMutability":"view","type":"function"}],"evm":{"bytecode":{"linkReferences":{},"object":"60c08060405234620006c65762001da78038038091620000208285620006fe565b833981019060a081830312620006c6578051916001600160a01b0383168303620006c65760208201519263ffffffff80851691828603620006c65760408501516001600160401b038111620006c65785019584601f88011215620006c65786516200008b8162000722565b976200009b604051998a620006fe565b8189526020808a019260051b82010190878211620006c657602001915b818310620006dc5750505060608601516001600160401b038111620006c65786019585601f88011215620006c657865196620000f48862000722565b9762000104604051998a620006fe565b8089526020808a019160051b83010191888311620006c657602001905b828210620006cb575050506080810151906001600160401b038211620006c657019480601f87011215620006c65785516200015c8162000722565b966200016c6040519889620006fe565b81885260208089019260051b820101928311620006c657602001905b828210620006b5575050600280546001600160401b0319169055508315620006645760208410156200061f5760a0526080526001546000926801000000000000000091828110156200060b576001810180600155811015620005f757600185527fb10e2d527612073b26eecdfd717e6a320cf44b4afac2b0732d9fcbe2b7fa0cf6018490558354828110156200060b5760018101808655811015620005f75784805260208520018490556001939291905b80838616106200056657505050620002539150806200074f565b60035533156200054d5760218054336001600160a01b03198216811790925560405191906001600160a01b03167f8be0079c531659141344cd1fd0a4f28419497f9722a3daafe3b4186f6b6457e0600080a36001602255835183518114908162000541575b5015620004ff575060005b8351811015620004cf576001600160a01b03620002e182866200073a565b5116620002ef82856200073a565b51620002fc83856200073a565b519082156200048a578015620004455781156200040057604051906001600160401b0360a0830190811190831117620003ea577f0a914f7326cfe0ff4e0d6ef83ce6d7fb21ed9aceccb93bd69a0e0cf7db305f6f928260a060409401845260018152600460208201848152858301848152606084019060008252608085019262015180420484528a6000526025602052886000209551151560ff801988541691161786555160018601555160028501555160038401555191015582519182526020820152a26000198114620003d457600101620002c3565b634e487b7160e01b600052601160045260246000fd5b634e487b7160e01b600052604160045260246000fd5b60405162461bcd60e51b815260206004820152601360248201527f496e76616c6964206461696c79206c696d6974000000000000000000000000006044820152606490fd5b60405162461bcd60e51b815260206004820152601760248201527f496e76616c6964207075626c6963206b657920686173680000000000000000006044820152606490fd5b60405162461bcd60e51b815260206004820152601660248201527f496e76616c6964206973737565722061646472657373000000000000000000006044820152606490fd5b60405161158690816200082182396080518181816104320152611255015260a0518181816109500152610d160152f35b62461bcd60e51b815260206004820152601560248201527f4172726179206c656e677468206d69736d6174636800000000000000000000006044820152606490fd5b905082511438620002b8565b604051631e4fbdf760e01b815260006004820152602490fd5b9091928062000575916200074f565b9360015483811015620003ea576001810180600155811015620005e15785906001600052602060002001556000549083821015620003ea576001820180600055821015620005e157858592600080526020600020015516838114620003d4576001019392919062000239565b634e487b7160e01b600052603260045260246000fd5b634e487b7160e01b85526032600452602485fd5b634e487b7160e01b85526041600452602485fd5b60405162461bcd60e51b815260206004820152601e60248201527f5f6c6576656c732073686f756c64206265206c657373207468616e20333200006044820152606490fd5b60405162461bcd60e51b815260206004820152602360248201527f5f6c6576656c732073686f756c642062652067726561746572207468616e207a60448201526265726f60e81b6064820152608490fd5b815181526020918201910162000188565b600080fd5b815181526020918201910162000121565b82516001600160a01b0381168103620006c657815260209283019201620000b8565b601f909101601f19168101906001600160401b03821190821017620003ea57604052565b6001600160401b038111620003ea5760051b60200190565b8051821015620005e15760209160051b010190565b6040805192919083016001600160401b03811184821017620003ea576040528252602090818301528060018060a01b03608051169260405193849163014cf2b360e51b8352600483016000905b600282106200080657505050816044915afa908115620007fa57600091620007c5575b50905090565b82813d8311620007f2575b620007dc8183620006fe565b81010312620007ef5750518038620007bf565b80fd5b503d620007d0565b6040513d6000823e3d90fd5b82518152869588955092830192600190920191016200079c56fe608060408181526004918236101561001657600080fd5b600092833560e01c91826317cc915c146110a65750816326fa428514610b6c5781632c00028714610a2d57816338bf282e14610a0357816339919f35146109af578163414a37ba146109745781634ecf518b1461093357816351858e27146108cb5781635e9aab7014610815578163633ba3e6146107dd5781636d9833e3146107b4578163715018a614610757578163733ea8701461073a578163839df9451461070d57816387d659e4146106e55781638da5cb5b146106bc57816390eeb02b1461069757816392c54daf1461062f57838263b35057e41461060457508163b93d28eb1461059e578163ba70f75714610557578163c2b40ae41461052b578163c54d574e1461050f578163cd87a3b4146104f3578163e5285dcc146104c6578163e82955881461049b578163e9b9b5201461047c578163ec73295914610461578163ed33639f1461041d578163f178e47c146103e2578163f2fde38b1461034e578163fa5d3b3b146101ba575063fc7e9c6f1461019257600080fd5b346101b657816003193601126101b6576002549051602091821c63ffffffff168152f35b5080fd5b8383346101b65760603660031901126101b6576101d56110d0565b90602435604435926101e5611182565b6001600160a01b03169283156103125781156102cf578015610296577f0a914f7326cfe0ff4e0d6ef83ce6d7fb21ed9aceccb93bd69a0e0cf7db305f6f939495835190610231826111ae565b600182526020820184815285830184815260608401908a8252608085019262015180420484528a8c526025602052888c209551151560ff801988541691161786555160018601555160028501555160038401555191015582519182526020820152a280f35b825162461bcd60e51b81526020818801526013602482015272125b9d985b1a590819185a5b1e481b1a5b5a5d606a1b6044820152606490fd5b825162461bcd60e51b8152602081880152601760248201527f496e76616c6964207075626c6963206b657920686173680000000000000000006044820152606490fd5b825162461bcd60e51b81526020818801526016602482015275496e76616c696420697373756572206164647265737360501b6044820152606490fd5b9050346103de5760203660031901126103de576103696110d0565b90610372611182565b6001600160a01b039182169283156103c8575050602154826bffffffffffffffffffffffff60a01b821617602155167f8be0079c531659141344cd1fd0a4f28419497f9722a3daafe3b4186f6b6457e08380a380f35b51631e4fbdf760e01b8152908101849052602490fd5b8280fd5b9050346103de5760203660031901126103de573591805483101561041a575061040c6020926110eb565b91905490519160031b1c8152f35b80fd5b5050346101b657816003193601126101b657517f00000000000000000000000000000000000000000000000000000000000000006001600160a01b03168152602090f35b5050346101b657816003193601126101b65751908152602090f35b5050346101b657816003193601126101b65751600160801b8152602090f35b9050346103de5760203660031901126103de57359160015483101561041a575061040c602092611135565b9050346103de5760203660031901126103de578160209360ff923581526024855220541690519015158152f35b5050346101b657816003193601126101b65760209051601e8152f35b5050346101b657816003193601126101b65760209051600a8152f35b9050346103de5760203660031901126103de5735601e8110156103de5760209250600301549051908152f35b82843461041a578060031936011261041a5763ffffffff6002541690601e82101561058b5760208383600301549051908152f35b634e487b7160e01b815260328452602490fd5b5050346101b65760203660031901126101b6576105b96110d0565b6105c1611182565b6001600160a01b03168083526025602052908220805460ff191690557f2214ded40113cc3fb63fc206cafee88270b0a903dac7245d54efdde30ebb03218280a280f35b80843461062c578160031936011261062c5761061e611182565b438252602760205281205580f35b50fd5b919050346103de5760203660031901126103de5760a09281906001600160a01b036106586110d0565b16815260256020522060ff8154169260018201549260028301549160038401549301549381519515158652602086015284015260608301526080820152f35b5050346101b657816003193601126101b65760209063ffffffff600254169051908152f35b5050346101b657816003193601126101b65760215490516001600160a01b039091168152602090f35b9050346103de5760203660031901126103de5760209282913581526027845220549051908152f35b9050346103de5760203660031901126103de578160209360ff923581526023855220541690519015158152f35b5050346101b657816003193601126101b65760209051610e108152f35b833461041a578060031936011261041a57610770611182565b602180546001600160a01b0319811690915581906001600160a01b03167f8be0079c531659141344cd1fd0a4f28419497f9722a3daafe3b4186f6b6457e08280a380f35b82843461041a57602036600319011261041a57506107d4602092356112e0565b90519015158152f35b5050346101b65760203660031901126101b65760209181906001600160a01b036108056110d0565b1681526026845220549051908152f35b919050346103de5760203660031901126103de578060a0936108356110d0565b8160808451610843816111ae565b82815282602082015282868201528260608201520152600180871b03168152602560205220815191610874836111ae565b60ff8254161515938484526001830154602085019081526080600285015492848701938452600386015495606088019687520154950194855282519586525160208601525190840152516060830152516080820152f35b5050346101b657816003193601126101b6576108e5611182565b60198151918083528201527f456d657267656e63792070617573652061637469766174656400000000000000606082015242602082015260008051602061153183398151915260803392a280f35b5050346101b657816003193601126101b6576020905163ffffffff7f0000000000000000000000000000000000000000000000000000000000000000168152f35b5050346101b657816003193601126101b657602090517f30644e72e131a029b85045b68181585d2833e84879b9709143e1f593f00000018152f35b9050346103de5760a03660031901126103de57602092508151908382019060243582526044358484015260643560608401526084356080840152608083526109f6836111ae565b3591519020149051908152f35b82843461041a578160031936011261041a5750610a266020926024359035611202565b9051908152f35b9050346103de5760209081600319360112610b685780359060018060a01b036021541633148015610b54575b15610b13578185526024835260ff8486205416610a8757508352602490528120805460ff1916600117905580f35b606490838580518181526019828201527f417474656d70746564206e756c6c6966696572207265757365000000000000006060820152428382015260008051602061153183398151915260803392a25162461bcd60e51b815291820152601760248201527f4e756c6c696669657220616c7265616479207370656e740000000000000000006044820152fd5b606490838086519262461bcd60e51b845283015260248201527f4e6f7420617574686f72697a656420746f206d61726b206e756c6c69666965726044820152fd5b503385526025835260ff8486205416610a59565b8380fd5b839150346101b65760803660031901126101b65760249267ffffffffffffffff843583358282116110a257366023830112156110a257818501359483861161109e573688878501011161109e5760443592600296876022541461108e5787602255338952602094602686526005888b2054101561107e57438a5260278652600a888b2054101561106e57848a526023865260ff888b20541661105e57600160801b851061104e57610e10810180821161103c57421161102c57918a8a87610cb4948b610cbd97815190848201928c84526064359083015260608201523360601b608082015260748152610c5e816111ae565b5190207f19457468657265756d205369676e6564204d6573736167653a0a3332000000008452601c5280603c8420948d5196610ca385601f19601f86011601896111e0565b8288520183870137840101526113a4565b90929192611470565b6001600160a01b03168088526025845285882080549197909160ff1615610fc75762015180420483830181815410610fb9575b5050600397888301928284549101541115610f5f575063ffffffff97888254871c1698807f0000000000000000000000000000000000000000000000000000000000000000169181610d41846114f5565b168b14610f045786928c838d5b8382841610610e7c57505050508354601e83610d6b81841661151b565b16069283169063ffffffff1916178455601e821015610e6a570155610d8f8861151b565b815467ffffffff00000000191690861b67ffffffff000000001617905582885260238452858820805460ff19166001179055338852602684528588208054610dd69061137f565b905543885260278452858820610dec815461137f565b9055610df8815461137f565b9055845192830191825242838601528483526060830193841183851017610e5857507f219f25dc7736fd37046345758f22c997457b480a471ff2a4d87a4c40d5be5f539495965082845281519020948252608042910152a2600160225580f35b634e487b7160e01b8752604190528686fd5b634e487b7160e01b8c52603286528c8cfd5b637fffffff90610ec760019889831615600014610ef05780610e9d87611135565b9054908a1b1c91610ead886110eb565b81929154908c1b91821b91600019901b1916179055611202565b971c169116848114610ede57600101908490610d4e565b634e487b7160e01b8f52601189528f8ffd5b610ef9866110eb565b905490891b1c611202565b895162461bcd60e51b81528087018990526030818f01527f4d65726b6c6520747265652069732066756c6c2e204e6f206d6f7265206c656160448201526f1d995cc818d85b88189948185919195960821b6064820152608490fd5b878491600080516020611531833981519152608089845190858252601d868301527f4461696c792069737375616e6365206c696d697420657863656564656400000060608301524290820152a25163a74c1c5f60e01b8152fd5b8a6003850155558a80610cf0565b82878960008051602061153183398151915260a0898451908582526022868301527f556e747275737465642069737375657220617474656d70746564206465706f736060830152611a5d60f21b60808301524290820152a251633eb89d5f60e11b8152fd5b8751630819bdcd60e01b81528490fd5b634e487b7160e01b8b52601185528b8bfd5b87516316062e2760e31b81528490fd5b875163145718a760e01b81528490fd5b875163ea4abced60e01b81528490fd5b875163a74c1c5f60e01b81528490fd5b8651633ee5aeb560e01b81528390fd5b8680fd5b8580fd5b92915034610b68576020366003190112610b68573583526024602090815292205460ff1615158152f35b600435906001600160a01b03821682036110e657565b600080fd5b906000918254811015611121578280527f290decd9548b62a8d60345a988386fc84ba6bc95484008f6362f93160ef3e563019190565b634e487b7160e01b83526032600452602483fd5b60015481101561116c5760016000527fb10e2d527612073b26eecdfd717e6a320cf44b4afac2b0732d9fcbe2b7fa0cf60190600090565b634e487b7160e01b600052603260045260246000fd5b6021546001600160a01b0316330361119657565b60405163118cdaa760e01b8152336004820152602490fd5b60a0810190811067ffffffffffffffff8211176111ca57604052565b634e487b7160e01b600052604160045260246000fd5b90601f8019910116810190811067ffffffffffffffff8211176111ca57604052565b90604051916040830183811067ffffffffffffffff8211176111ca576040528252602090818301526040519163014cf2b360e51b8352600483016000905b83600283106112cc57925084915060449050817f00000000000000000000000000000000000000000000000000000000000000006001600160a01b03165afa9081156112c057600091611294575b50905090565b82813d83116112b9575b6112a881836111e0565b8101031261041a575051803861128e565b503d61129e565b6040513d6000823e3d90fd5b806001928551815201930191019091611240565b80156113795763ffffffff8060025416918260019384805b611308575b505050505050600090565b1561136a575b600090601e9081811015611121578060030154851461136157859182821615611359575b50168015611345576000190190856112f8565b634e487b7160e01b82526011600452602482fd5b905038611332565b50505050505090565b818482160361130e57806112fd565b50600090565b600019811461138e5760010190565b634e487b7160e01b600052601160045260246000fd5b81519190604183036113d5576113ce92506020820151906060604084015193015160001a906113e0565b9192909190565b505060009160029190565b91907f7fffffffffffffffffffffffffffffff5d576e7357a4501ddfe92f46681b20a0841161146457926020929160ff608095604051948552168484015260408301526060820152600092839182805260015afa156114585780516001600160a01b0381161561144f57918190565b50809160019190565b604051903d90823e3d90fd5b50505060009160039190565b60048110156114df5780611482575050565b6001810361149c5760405163f645eedf60e01b8152600490fd5b600281036114bd5760405163fce698f760e01b815260048101839052602490fd5b6003146114c75750565b602490604051906335e2f38360e21b82526004820152fd5b634e487b7160e01b600052602160045260246000fd5b80156115155760ff811161138e576001901b9063ffffffff821161138e57565b50600190565b90600163ffffffff8093160191821161138e5756fe6f351e36c7babe44a5305e86f0248d29b31c4ecd9861b0ae6621b74c3c6615d2a26469706673582212202eaefe511c61efbdb4dde6f44bd1862b6d1eaaaf01d37b3918f64171b0daddbf64736f6c63430008140033","opcodes":"PUSH1 0xC0 DUP1 PUSH1 0x40 MSTORE CALLVALUE PUSH3 0x6C6 JUMPI PUSH3 0x1DA7 DUP1 CODESIZE SUB DUP1 SWAP2 PUSH3 0x20 DUP3 DUP6 PUSH3 0x6FE JUMP JUMPDEST DUP4 CODECOPY DUP2 ADD SWAP1 PUSH1 0xA0 DUP2 DUP4 SUB SLT PUSH3 0x6C6 JUMPI DUP1 MLOAD SWAP2 PUSH1 0x1 PUSH1 0x1 PUSH1 0xA0 SHL SUB DUP4 AND DUP4 SUB PUSH3 0x6C6 JUMPI PUSH1 0x20 DUP3 ADD MLOAD SWAP3 PUSH4 0xFFFFFFFF DUP1 DUP6 AND SWAP2 DUP3 DUP7 SUB PUSH3 0x6C6 JUMPI PUSH1 0x40 DUP6 ADD MLOAD PUSH1 0x1 PUSH1 0x1 PUSH1 0x40 SHL SUB DUP2 GT PUSH3 0x6C6 JUMPI DUP6 ADD SWAP6 DUP5 PUSH1 0x1F DUP9 ADD SLT ISZERO PUSH3 0x6C6 JUMPI DUP7 MLOAD PUSH3 0x8B DUP2 PUSH3 0x722 JUMP JUMPDEST SWAP8 PUSH3 0x9B PUSH1 0x40 MLOAD SWAP10 DUP11 PUSH3 0x6FE JUMP JUMPDEST DUP2 DUP10 MSTORE PUSH1 0x20 DUP1 DUP11 ADD SWAP3 PUSH1 0x5 SHL DUP3 ADD ADD SWAP1 DUP8 DUP3 GT PUSH3 0x6C6 JUMPI PUSH1 0x20 ADD SWAP2 JUMPDEST DUP2 DUP4 LT PUSH3 0x6DC JUMPI POP POP POP PUSH1 0x60 DUP7 ADD MLOAD PUSH1 0x1 PUSH1 0x1 PUSH1 0x40 SHL SUB DUP2 GT PUSH3 0x6C6 JUMPI DUP7 ADD SWAP6 DUP6 PUSH1 0x1F DUP9 ADD SLT ISZERO PUSH3 0x6C6 JUMPI DUP7 MLOAD SWAP7 PUSH3 0xF4 DUP9 PUSH3 0x722 JUMP JUMPDEST SWAP8 PUSH3 0x104 PUSH1 0x40 MLOAD SWAP10 DUP11 PUSH3 0x6FE JUMP JUMPDEST DUP1 DUP10 MSTORE PUSH1 0x20 DUP1 DUP11 ADD SWAP2 PUSH1 0x5 SHL DUP4 ADD ADD SWAP2 DUP9 DUP4 GT PUSH3 0x6C6 JUMPI PUSH1 0x20 ADD SWAP1 JUMPDEST DUP3 DUP3 LT PUSH3 0x6CB JUMPI POP POP POP PUSH1 0x80 DUP2 ADD MLOAD SWAP1 PUSH1 0x1 PUSH1 0x1 PUSH1 0x40 SHL SUB DUP3 GT PUSH3 0x6C6 JUMPI ADD SWAP5 DUP1 PUSH1 0x1F DUP8 ADD SLT ISZERO PUSH3 0x6C6 JUMPI DUP6 MLOAD PUSH3 0x15C DUP2 PUSH3 0x722 JUMP JUMPDEST SWAP7 PUSH3 0x16C PUSH1 0x40 MLOAD SWAP9 DUP10 PUSH3 0x6FE JUMP JUMPDEST DUP2 DUP9 MSTORE PUSH1 0x20 DUP1 DUP10 ADD SWAP3 PUSH1 0x5 SHL DUP3 ADD ADD SWAP3 DUP4 GT PUSH3 0x6C6 JUMPI PUSH1 0x20 ADD SWAP1 JUMPDEST DUP3 DUP3 LT PUSH3 0x6B5 JUMPI POP POP PUSH1 0x2 DUP1 SLOAD PUSH1 0x1 PUSH1 0x1 PUSH1 0x40 SHL SUB NOT AND SWAP1 SSTORE POP DUP4 ISZERO PUSH3 0x664 JUMPI PUSH1 0x20 DUP5 LT ISZERO PUSH3 0x61F JUMPI PUSH1 0xA0 MSTORE PUSH1 0x80 MSTORE PUSH1 0x1 SLOAD PUSH1 0x0 SWAP3 PUSH9 0x10000000000000000 SWAP2 DUP3 DUP2 LT ISZERO PUSH3 0x60B JUMPI PUSH1 0x1 DUP2 ADD DUP1 PUSH1 0x1 SSTORE DUP2 LT ISZERO PUSH3 0x5F7 JUMPI PUSH1 0x1 DUP6 MSTORE PUSH32 0xB10E2D527612073B26EECDFD717E6A320CF44B4AFAC2B0732D9FCBE2B7FA0CF6 ADD DUP5 SWAP1 SSTORE DUP4 SLOAD DUP3 DUP2 LT ISZERO PUSH3 0x60B JUMPI PUSH1 0x1 DUP2 ADD DUP1 DUP7 SSTORE DUP2 LT ISZERO PUSH3 0x5F7 JUMPI DUP5 DUP1 MSTORE PUSH1 0x20 DUP6 KECCAK256 ADD DUP5 SWAP1 SSTORE PUSH1 0x1 SWAP4 SWAP3 SWAP2 SWAP1 JUMPDEST DUP1 DUP4 DUP7 AND LT PUSH3 0x566 JUMPI POP POP POP PUSH3 0x253 SWAP2 POP DUP1 PUSH3 0x74F JUMP JUMPDEST PUSH1 0x3 SSTORE CALLER ISZERO PUSH3 0x54D JUMPI PUSH1 0x21 DUP1 SLOAD CALLER PUSH1 0x1 PUSH1 0x1 PUSH1 0xA0 SHL SUB NOT DUP3 AND DUP2 OR SWAP1 SWAP3 SSTORE PUSH1 0x40 MLOAD SWAP2 SWAP1 PUSH1 0x1 PUSH1 0x1 PUSH1 0xA0 SHL SUB AND PUSH32 0x8BE0079C531659141344CD1FD0A4F28419497F9722A3DAAFE3B4186F6B6457E0 PUSH1 0x0 DUP1 LOG3 PUSH1 0x1 PUSH1 0x22 SSTORE DUP4 MLOAD DUP4 MLOAD DUP2 EQ SWAP1 DUP2 PUSH3 0x541 JUMPI JUMPDEST POP ISZERO PUSH3 0x4FF JUMPI POP PUSH1 0x0 JUMPDEST DUP4 MLOAD DUP2 LT ISZERO PUSH3 0x4CF JUMPI PUSH1 0x1 PUSH1 0x1 PUSH1 0xA0 SHL SUB PUSH3 0x2E1 DUP3 DUP7 PUSH3 0x73A JUMP JUMPDEST MLOAD AND PUSH3 0x2EF DUP3 DUP6 PUSH3 0x73A JUMP JUMPDEST MLOAD PUSH3 0x2FC DUP4 DUP6 PUSH3 0x73A JUMP JUMPDEST MLOAD SWAP1 DUP3 ISZERO PUSH3 0x48A JUMPI DUP1 ISZERO PUSH3 0x445 JUMPI DUP2 ISZERO PUSH3 0x400 JUMPI PUSH1 0x40 MLOAD SWAP1 PUSH1 0x1 PUSH1 0x1 PUSH1 0x40 SHL SUB PUSH1 0xA0 DUP4 ADD SWAP1 DUP2 GT SWAP1 DUP4 GT OR PUSH3 0x3EA JUMPI PUSH32 0xA914F7326CFE0FF4E0D6EF83CE6D7FB21ED9ACECCB93BD69A0E0CF7DB305F6F SWAP3 DUP3 PUSH1 0xA0 PUSH1 0x40 SWAP5 ADD DUP5 MSTORE PUSH1 0x1 DUP2 MSTORE PUSH1 0x4 PUSH1 0x20 DUP3 ADD DUP5 DUP2 MSTORE DUP6 DUP4 ADD DUP5 DUP2 MSTORE PUSH1 0x60 DUP5 ADD SWAP1 PUSH1 0x0 DUP3 MSTORE PUSH1 0x80 DUP6 ADD SWAP3 PUSH3 0x15180 TIMESTAMP DIV DUP5 MSTORE DUP11 PUSH1 0x0 MSTORE PUSH1 0x25 PUSH1 0x20 MSTORE DUP9 PUSH1 0x0 KECCAK256 SWAP6 MLOAD ISZERO ISZERO PUSH1 0xFF DUP1 NOT DUP9 SLOAD AND SWAP2 AND OR DUP7 SSTORE MLOAD PUSH1 0x1 DUP7 ADD SSTORE MLOAD PUSH1 0x2 DUP6 ADD SSTORE MLOAD PUSH1 0x3 DUP5 ADD SSTORE MLOAD SWAP2 ADD SSTORE DUP3 MLOAD SWAP2 DUP3 MSTORE PUSH1 0x20 DUP3 ADD MSTORE LOG2 PUSH1 0x0 NOT DUP2 EQ PUSH3 0x3D4 JUMPI PUSH1 0x1 ADD PUSH3 0x2C3 JUMP JUMPDEST PUSH4 0x4E487B71 PUSH1 0xE0 SHL PUSH1 0x0 MSTORE PUSH1 0x11 PUSH1 0x4 MSTORE PUSH1 0x24 PUSH1 0x0 REVERT JUMPDEST PUSH4 0x4E487B71 PUSH1 0xE0 SHL PUSH1 0x0 MSTORE PUSH1 0x41 PUSH1 0x4 MSTORE PUSH1 0x24 PUSH1 0x0 REVERT JUMPDEST PUSH1 0x40 MLOAD PUSH3 0x461BCD PUSH1 0xE5 SHL DUP2 MSTORE PUSH1 0x20 PUSH1 0x4 DUP3 ADD MSTORE PUSH1 0x13 PUSH1 0x24 DUP3 ADD MSTORE PUSH32 0x496E76616C6964206461696C79206C696D697400000000000000000000000000 PUSH1 0x44 DUP3 ADD MSTORE PUSH1 0x64 SWAP1 REVERT JUMPDEST PUSH1 0x40 MLOAD PUSH3 0x461BCD PUSH1 0xE5 SHL DUP2 MSTORE PUSH1 0x20 PUSH1 0x4 DUP3 ADD MSTORE PUSH1 0x17 PUSH1 0x24 DUP3 ADD MSTORE PUSH32 0x496E76616C6964207075626C6963206B65792068617368000000000000000000 PUSH1 0x44 DUP3 ADD MSTORE PUSH1 0x64 SWAP1 REVERT JUMPDEST PUSH1 0x40 MLOAD PUSH3 0x461BCD PUSH1 0xE5 SHL DUP2 MSTORE PUSH1 0x20 PUSH1 0x4 DUP3 ADD MSTORE PUSH1 0x16 PUSH1 0x24 DUP3 ADD MSTORE PUSH32 0x496E76616C696420697373756572206164647265737300000000000000000000 PUSH1 0x44 DUP3 ADD MSTORE PUSH1 0x64 SWAP1 REVERT JUMPDEST PUSH1 0x40 MLOAD PUSH2 0x1586 SWAP1 DUP2 PUSH3 0x821 DUP3 CODECOPY PUSH1 0x80 MLOAD DUP2 DUP2 DUP2 PUSH2 0x432 ADD MSTORE PUSH2 0x1255 ADD MSTORE PUSH1 0xA0 MLOAD DUP2 DUP2 DUP2 PUSH2 0x950 ADD MSTORE PUSH2 0xD16 ADD MSTORE RETURN JUMPDEST PUSH3 0x461BCD PUSH1 0xE5 SHL DUP2 MSTORE PUSH1 0x20 PUSH1 0x4 DUP3 ADD MSTORE PUSH1 0x15 PUSH1 0x24 DUP3 ADD MSTORE PUSH32 0x4172726179206C656E677468206D69736D617463680000000000000000000000 PUSH1 0x44 DUP3 ADD MSTORE PUSH1 0x64 SWAP1 REVERT JUMPDEST SWAP1 POP DUP3 MLOAD EQ CODESIZE PUSH3 0x2B8 JUMP JUMPDEST PUSH1 0x40 MLOAD PUSH4 0x1E4FBDF7 PUSH1 0xE0 SHL DUP2 MSTORE PUSH1 0x0 PUSH1 0x4 DUP3 ADD MSTORE PUSH1 0x24 SWAP1 REVERT JUMPDEST SWAP1 SWAP2 SWAP3 DUP1 PUSH3 0x575 SWAP2 PUSH3 0x74F JUMP JUMPDEST SWAP4 PUSH1 0x1 SLOAD DUP4 DUP2 LT ISZERO PUSH3 0x3EA JUMPI PUSH1 0x1 DUP2 ADD DUP1 PUSH1 0x1 SSTORE DUP2 LT ISZERO PUSH3 0x5E1 JUMPI DUP6 SWAP1 PUSH1 0x1 PUSH1 0x0 MSTORE PUSH1 0x20 PUSH1 0x0 KECCAK256 ADD SSTORE PUSH1 0x0 SLOAD SWAP1 DUP4 DUP3 LT ISZERO PUSH3 0x3EA JUMPI PUSH1 0x1 DUP3 ADD DUP1 PUSH1 0x0 SSTORE DUP3 LT ISZERO PUSH3 0x5E1 JUMPI DUP6 DUP6 SWAP3 PUSH1 0x0 DUP1 MSTORE PUSH1 0x20 PUSH1 0x0 KECCAK256 ADD SSTORE AND DUP4 DUP2 EQ PUSH3 0x3D4 JUMPI PUSH1 0x1 ADD SWAP4 SWAP3 SWAP2 SWAP1 PUSH3 0x239 JUMP JUMPDEST PUSH4 0x4E487B71 PUSH1 0xE0 SHL PUSH1 0x0 MSTORE PUSH1 0x32 PUSH1 0x4 MSTORE PUSH1 0x24 PUSH1 0x0 REVERT JUMPDEST PUSH4 0x4E487B71 PUSH1 0xE0 SHL DUP6 MSTORE PUSH1 0x32 PUSH1 0x4 MSTORE PUSH1 0x24 DUP6 REVERT JUMPDEST PUSH4 0x4E487B71 PUSH1 0xE0 SHL DUP6 MSTORE PUSH1 0x41 PUSH1 0x4 MSTORE PUSH1 0x24 DUP6 REVERT JUMPDEST PUSH1 0x40 MLOAD PUSH3 0x461BCD PUSH1 0xE5 SHL DUP2 MSTORE PUSH1 0x20 PUSH1 0x4 DUP3 ADD MSTORE PUSH1 0x1E PUSH1 0x24 DUP3 ADD MSTORE PUSH32 0x5F6C6576656C732073686F756C64206265206C657373207468616E2033320000 PUSH1 0x44 DUP3 ADD MSTORE PUSH1 0x64 SWAP1 REVERT JUMPDEST PUSH1 0x40 MLOAD PUSH3 0x461BCD PUSH1 0xE5 SHL DUP2 MSTORE PUSH1 0x20 PUSH1 0x4 DUP3 ADD MSTORE PUSH1 0x23 PUSH1 0x24 DUP3 ADD MSTORE PUSH32 0x5F6C6576656C732073686F756C642062652067726561746572207468616E207A PUSH1 0x44 DUP3 ADD MSTORE PUSH3 0x65726F PUSH1 0xE8 SHL PUSH1 0x64 DUP3 ADD MSTORE PUSH1 0x84 SWAP1 REVERT JUMPDEST DUP2 MLOAD DUP2 MSTORE PUSH1 0x20 SWAP2 DUP3 ADD SWAP2 ADD PUSH3 0x188 JUMP JUMPDEST PUSH1 0x0 DUP1 REVERT JUMPDEST DUP2 MLOAD DUP2 MSTORE PUSH1 0x20 SWAP2 DUP3 ADD SWAP2 ADD PUSH3 0x121 JUMP JUMPDEST DUP3 MLOAD PUSH1 0x1 PUSH1 0x1 PUSH1 0xA0 SHL SUB DUP2 AND DUP2 SUB PUSH3 0x6C6 JUMPI DUP2 MSTORE PUSH1 0x20 SWAP3 DUP4 ADD SWAP3 ADD PUSH3 0xB8 JUMP JUMPDEST PUSH1 0x1F SWAP1 SWAP2 ADD PUSH1 0x1F NOT AND DUP2 ADD SWAP1 PUSH1 0x1 PUSH1 0x1 PUSH1 0x40 SHL SUB DUP3 GT SWAP1 DUP3 LT OR PUSH3 0x3EA JUMPI PUSH1 0x40 MSTORE JUMP JUMPDEST PUSH1 0x1 PUSH1 0x1 PUSH1 0x40 SHL SUB DUP2 GT PUSH3 0x3EA JUMPI PUSH1 0x5 SHL PUSH1 0x20 ADD SWAP1 JUMP JUMPDEST DUP1 MLOAD DUP3 LT ISZERO PUSH3 0x5E1 JUMPI PUSH1 0x20 SWAP2 PUSH1 0x5 SHL ADD ADD SWAP1 JUMP JUMPDEST PUSH1 0x40 DUP1 MLOAD SWAP3 SWAP2 SWAP1 DUP4 ADD PUSH1 0x1 PUSH1 0x1 PUSH1 0x40 SHL SUB DUP2 GT DUP5 DUP3 LT OR PUSH3 0x3EA JUMPI PUSH1 0x40 MSTORE DUP3 MSTORE PUSH1 0x20 SWAP1 DUP2 DUP4 ADD MSTORE DUP1 PUSH1 0x1 DUP1 PUSH1 0xA0 SHL SUB PUSH1 0x80 MLOAD AND SWAP3 PUSH1 0x40 MLOAD SWAP4 DUP5 SWAP2 PUSH4 0x14CF2B3 PUSH1 0xE5 SHL DUP4 MSTORE PUSH1 0x4 DUP4 ADD PUSH1 0x0 SWAP1 JUMPDEST PUSH1 0x2 DUP3 LT PUSH3 0x806 JUMPI POP POP POP DUP2 PUSH1 0x44 SWAP2 GAS STATICCALL SWAP1 DUP2 ISZERO PUSH3 0x7FA JUMPI PUSH1 0x0 SWAP2 PUSH3 0x7C5 JUMPI JUMPDEST POP SWAP1 POP SWAP1 JUMP JUMPDEST DUP3 DUP2 RETURNDATASIZE DUP4 GT PUSH3 0x7F2 JUMPI JUMPDEST PUSH3 0x7DC DUP2 DUP4 PUSH3 0x6FE JUMP JUMPDEST DUP2 ADD SUB SLT PUSH3 0x7EF JUMPI POP MLOAD DUP1 CODESIZE PUSH3 0x7BF JUMP JUMPDEST DUP1 REVERT JUMPDEST POP RETURNDATASIZE PUSH3 0x7D0 JUMP JUMPDEST PUSH1 0x40 MLOAD RETURNDATASIZE PUSH1 0x0 DUP3 RETURNDATACOPY RETURNDATASIZE SWAP1 REVERT JUMPDEST DUP3 MLOAD DUP2 MSTORE DUP7 SWAP6 DUP9 SWAP6 POP SWAP3 DUP4 ADD SWAP3 PUSH1 0x1 SWAP1 SWAP3 ADD SWAP2 ADD PUSH3 0x79C JUMP INVALID PUSH1 0x80 PUSH1 0x40 DUP2 DUP2 MSTORE PUSH1 0x4 SWAP2 DUP3 CALLDATASIZE LT ISZERO PUSH2 0x16 JUMPI PUSH1 0x0 DUP1 REVERT JUMPDEST PUSH1 0x0 SWAP3 DUP4 CALLDATALOAD PUSH1 0xE0 SHR SWAP2 DUP3 PUSH4 0x17CC915C EQ PUSH2 0x10A6 JUMPI POP DUP2 PUSH4 0x26FA4285 EQ PUSH2 0xB6C JUMPI DUP2 PUSH4 0x2C000287 EQ PUSH2 0xA2D JUMPI DUP2 PUSH4 0x38BF282E EQ PUSH2 0xA03 JUMPI DUP2 PUSH4 0x39919F35 EQ PUSH2 0x9AF JUMPI DUP2 PUSH4 0x414A37BA EQ PUSH2 0x974 JUMPI DUP2 PUSH4 0x4ECF518B EQ PUSH2 0x933 JUMPI DUP2 PUSH4 0x51858E27 EQ PUSH2 0x8CB JUMPI DUP2 PUSH4 0x5E9AAB70 EQ PUSH2 0x815 JUMPI DUP2 PUSH4 0x633BA3E6 EQ PUSH2 0x7DD JUMPI DUP2 PUSH4 0x6D9833E3 EQ PUSH2 0x7B4 JUMPI DUP2 PUSH4 0x715018A6 EQ PUSH2 0x757 JUMPI DUP2 PUSH4 0x733EA870 EQ PUSH2 0x73A JUMPI DUP2 PUSH4 0x839DF945 EQ PUSH2 0x70D JUMPI DUP2 PUSH4 0x87D659E4 EQ PUSH2 0x6E5 JUMPI DUP2 PUSH4 0x8DA5CB5B EQ PUSH2 0x6BC JUMPI DUP2 PUSH4 0x90EEB02B EQ PUSH2 0x697 JUMPI DUP2 PUSH4 0x92C54DAF EQ PUSH2 0x62F JUMPI DUP4 DUP3 PUSH4 0xB35057E4 EQ PUSH2 0x604 JUMPI POP DUP2 PUSH4 0xB93D28EB EQ PUSH2 0x59E JUMPI DUP2 PUSH4 0xBA70F757 EQ PUSH2 0x557 JUMPI DUP2 PUSH4 0xC2B40AE4 EQ PUSH2 0x52B JUMPI DUP2 PUSH4 0xC54D574E EQ PUSH2 0x50F JUMPI DUP2 PUSH4 0xCD87A3B4 EQ PUSH2 0x4F3 JUMPI DUP2 PUSH4 0xE5285DCC EQ PUSH2 0x4C6 JUMPI DUP2 PUSH4 0xE8295588 EQ PUSH2 0x49B JUMPI DUP2 PUSH4 0xE9B9B520 EQ PUSH2 0x47C JUMPI DUP2 PUSH4 0xEC732959 EQ PUSH2 0x461 JUMPI DUP2 PUSH4 0xED33639F EQ PUSH2 0x41D JUMPI DUP2 PUSH4 0xF178E47C EQ PUSH2 0x3E2 JUMPI DUP2 PUSH4 0xF2FDE38B EQ PUSH2 0x34E JUMPI DUP2 PUSH4 0xFA5D3B3B EQ PUSH2 0x1BA JUMPI POP PUSH4 0xFC7E9C6F EQ PUSH2 0x192 JUMPI PUSH1 0x0 DUP1 REVERT JUMPDEST CALLVALUE PUSH2 0x1B6 JUMPI DUP2 PUSH1 0x3 NOT CALLDATASIZE ADD SLT PUSH2 0x1B6 JUMPI PUSH1 0x2 SLOAD SWAP1 MLOAD PUSH1 0x20 SWAP2 DUP3 SHR PUSH4 0xFFFFFFFF AND DUP2 MSTORE RETURN JUMPDEST POP DUP1 REVERT JUMPDEST DUP4 DUP4 CALLVALUE PUSH2 0x1B6 JUMPI PUSH1 0x60 CALLDATASIZE PUSH1 0x3 NOT ADD SLT PUSH2 0x1B6 JUMPI PUSH2 0x1D5 PUSH2 0x10D0 JUMP JUMPDEST SWAP1 PUSH1 0x24 CALLDATALOAD PUSH1 0x44 CALLDATALOAD SWAP3 PUSH2 0x1E5 PUSH2 0x1182 JUMP JUMPDEST PUSH1 0x1 PUSH1 0x1 PUSH1 0xA0 SHL SUB AND SWAP3 DUP4 ISZERO PUSH2 0x312 JUMPI DUP2 ISZERO PUSH2 0x2CF JUMPI DUP1 ISZERO PUSH2 0x296 JUMPI PUSH32 0xA914F7326CFE0FF4E0D6EF83CE6D7FB21ED9ACECCB93BD69A0E0CF7DB305F6F SWAP4 SWAP5 SWAP6 DUP4 MLOAD SWAP1 PUSH2 0x231 DUP3 PUSH2 0x11AE JUMP JUMPDEST PUSH1 0x1 DUP3 MSTORE PUSH1 0x20 DUP3 ADD DUP5 DUP2 MSTORE DUP6 DUP4 ADD DUP5 DUP2 MSTORE PUSH1 0x60 DUP5 ADD SWAP1 DUP11 DUP3 MSTORE PUSH1 0x80 DUP6 ADD SWAP3 PUSH3 0x15180 TIMESTAMP DIV DUP5 MSTORE DUP11 DUP13 MSTORE PUSH1 0x25 PUSH1 0x20 MSTORE DUP9 DUP13 KECCAK256 SWAP6 MLOAD ISZERO ISZERO PUSH1 0xFF DUP1 NOT DUP9 SLOAD AND SWAP2 AND OR DUP7 SSTORE MLOAD PUSH1 0x1 DUP7 ADD SSTORE MLOAD PUSH1 0x2 DUP6 ADD SSTORE MLOAD PUSH1 0x3 DUP5 ADD SSTORE MLOAD SWAP2 ADD SSTORE DUP3 MLOAD SWAP2 DUP3 MSTORE PUSH1 0x20 DUP3 ADD MSTORE LOG2 DUP1 RETURN JUMPDEST DUP3 MLOAD PUSH3 0x461BCD PUSH1 0xE5 SHL DUP2 MSTORE PUSH1 0x20 DUP2 DUP9 ADD MSTORE PUSH1 0x13 PUSH1 0x24 DUP3 ADD MSTORE PUSH19 0x125B9D985B1A590819185A5B1E481B1A5B5A5D PUSH1 0x6A SHL PUSH1 0x44 DUP3 ADD MSTORE PUSH1 0x64 SWAP1 REVERT JUMPDEST DUP3 MLOAD PUSH3 0x461BCD PUSH1 0xE5 SHL DUP2 MSTORE PUSH1 0x20 DUP2 DUP9 ADD MSTORE PUSH1 0x17 PUSH1 0x24 DUP3 ADD MSTORE PUSH32 0x496E76616C6964207075626C6963206B65792068617368000000000000000000 PUSH1 0x44 DUP3 ADD MSTORE PUSH1 0x64 SWAP1 REVERT JUMPDEST DUP3 MLOAD PUSH3 0x461BCD PUSH1 0xE5 SHL DUP2 MSTORE PUSH1 0x20 DUP2 DUP9 ADD MSTORE PUSH1 0x16 PUSH1 0x24 DUP3 ADD MSTORE PUSH22 0x496E76616C6964206973737565722061646472657373 PUSH1 0x50 SHL PUSH1 0x44 DUP3 ADD MSTORE PUSH1 0x64 SWAP1 REVERT JUMPDEST SWAP1 POP CALLVALUE PUSH2 0x3DE JUMPI PUSH1 0x20 CALLDATASIZE PUSH1 0x3 NOT ADD SLT PUSH2 0x3DE JUMPI PUSH2 0x369 PUSH2 0x10D0 JUMP JUMPDEST SWAP1 PUSH2 0x372 PUSH2 0x1182 JUMP JUMPDEST PUSH1 0x1 PUSH1 0x1 PUSH1 0xA0 SHL SUB SWAP2 DUP3 AND SWAP3 DUP4 ISZERO PUSH2 0x3C8 JUMPI POP POP PUSH1 0x21 SLOAD DUP3 PUSH12 0xFFFFFFFFFFFFFFFFFFFFFFFF PUSH1 0xA0 SHL DUP3 AND OR PUSH1 0x21 SSTORE AND PUSH32 0x8BE0079C531659141344CD1FD0A4F28419497F9722A3DAAFE3B4186F6B6457E0 DUP4 DUP1 LOG3 DUP1 RETURN JUMPDEST MLOAD PUSH4 0x1E4FBDF7 PUSH1 0xE0 SHL DUP2 MSTORE SWAP1 DUP2 ADD DUP5 SWAP1 MSTORE PUSH1 0x24 SWAP1 REVERT JUMPDEST DUP3 DUP1 REVERT JUMPDEST SWAP1 POP CALLVALUE PUSH2 0x3DE JUMPI PUSH1 0x20 CALLDATASIZE PUSH1 0x3 NOT ADD SLT PUSH2 0x3DE JUMPI CALLDATALOAD SWAP2 DUP1 SLOAD DUP4 LT ISZERO PUSH2 0x41A JUMPI POP PUSH2 0x40C PUSH1 0x20 SWAP3 PUSH2 0x10EB JUMP JUMPDEST SWAP2 SWAP1 SLOAD SWAP1 MLOAD SWAP2 PUSH1 0x3 SHL SHR DUP2 MSTORE RETURN JUMPDEST DUP1 REVERT JUMPDEST POP POP CALLVALUE PUSH2 0x1B6 JUMPI DUP2 PUSH1 0x3 NOT CALLDATASIZE ADD SLT PUSH2 0x1B6 JUMPI MLOAD PUSH32 0x0 PUSH1 0x1 PUSH1 0x1 PUSH1 0xA0 SHL SUB AND DUP2 MSTORE PUSH1 0x20 SWAP1 RETURN JUMPDEST POP POP CALLVALUE PUSH2 0x1B6 JUMPI DUP2 PUSH1 0x3 NOT CALLDATASIZE ADD SLT PUSH2 0x1B6 JUMPI MLOAD SWAP1 DUP2 MSTORE PUSH1 0x20 SWAP1 RETURN JUMPDEST POP POP CALLVALUE PUSH2 0x1B6 JUMPI DUP2 PUSH1 0x3 NOT CALLDATASIZE ADD SLT PUSH2 0x1B6 JUMPI MLOAD PUSH1 0x1 PUSH1 0x80 SHL DUP2 MSTORE PUSH1 0x20 SWAP1 RETURN JUMPDEST SWAP1 POP CALLVALUE PUSH2 0x3DE JUMPI PUSH1 0x20 CALLDATASIZE PUSH1 0x3 NOT ADD SLT PUSH2 0x3DE JUMPI CALLDATALOAD SWAP2 PUSH1 0x1 SLOAD DUP4 LT ISZERO PUSH2 0x41A JUMPI POP PUSH2 0x40C PUSH1 0x20 SWAP3 PUSH2 0x1135 JUMP JUMPDEST SWAP1 POP CALLVALUE PUSH2 0x3DE JUMPI PUSH1 0x20 CALLDATASIZE PUSH1 0x3 NOT ADD SLT PUSH2 0x3DE JUMPI DUP2 PUSH1 0x20 SWAP4 PUSH1 0xFF SWAP3 CALLDATALOAD DUP2 MSTORE PUSH1 0x24 DUP6 MSTORE KECCAK256 SLOAD AND SWAP1 MLOAD SWAP1 ISZERO ISZERO DUP2 MSTORE RETURN JUMPDEST POP POP CALLVALUE PUSH2 0x1B6 JUMPI DUP2 PUSH1 0x3 NOT CALLDATASIZE ADD SLT PUSH2 0x1B6 JUMPI PUSH1 0x20 SWAP1 MLOAD PUSH1 0x1E DUP2 MSTORE RETURN JUMPDEST POP POP CALLVALUE PUSH2 0x1B6 JUMPI DUP2 PUSH1 0x3 NOT CALLDATASIZE ADD SLT PUSH2 0x1B6 JUMPI PUSH1 0x20 SWAP1 MLOAD PUSH1 0xA DUP2 MSTORE RETURN JUMPDEST SWAP1 POP CALLVALUE PUSH2 0x3DE JUMPI PUSH1 0x20 CALLDATASIZE PUSH1 0x3 NOT ADD SLT PUSH2 0x3DE JUMPI CALLDATALOAD PUSH1 0x1E DUP2 LT ISZERO PUSH2 0x3DE JUMPI PUSH1 0x20 SWAP3 POP PUSH1 0x3 ADD SLOAD SWAP1 MLOAD SWAP1 DUP2 MSTORE RETURN JUMPDEST DUP3 DUP5 CALLVALUE PUSH2 0x41A JUMPI DUP1 PUSH1 0x3 NOT CALLDATASIZE ADD SLT PUSH2 0x41A JUMPI PUSH4 0xFFFFFFFF PUSH1 0x2 SLOAD AND SWAP1 PUSH1 0x1E DUP3 LT ISZERO PUSH2 0x58B JUMPI PUSH1 0x20 DUP4 DUP4 PUSH1 0x3 ADD SLOAD SWAP1 MLOAD SWAP1 DUP2 MSTORE RETURN JUMPDEST PUSH4 0x4E487B71 PUSH1 0xE0 SHL DUP2 MSTORE PUSH1 0x32 DUP5 MSTORE PUSH1 0x24 SWAP1 REVERT JUMPDEST POP POP CALLVALUE PUSH2 0x1B6 JUMPI PUSH1 0x20 CALLDATASIZE PUSH1 0x3 NOT ADD SLT PUSH2 0x1B6 JUMPI PUSH2 0x5B9 PUSH2 0x10D0 JUMP JUMPDEST PUSH2 0x5C1 PUSH2 0x1182 JUMP JUMPDEST PUSH1 0x1 PUSH1 0x1 PUSH1 0xA0 SHL SUB AND DUP1 DUP4 MSTORE PUSH1 0x25 PUSH1 0x20 MSTORE SWAP1 DUP3 KECCAK256 DUP1 SLOAD PUSH1 0xFF NOT AND SWAP1 SSTORE PUSH32 0x2214DED40113CC3FB63FC206CAFEE88270B0A903DAC7245D54EFDDE30EBB0321 DUP3 DUP1 LOG2 DUP1 RETURN JUMPDEST DUP1 DUP5 CALLVALUE PUSH2 0x62C JUMPI DUP2 PUSH1 0x3 NOT CALLDATASIZE ADD SLT PUSH2 0x62C JUMPI PUSH2 0x61E PUSH2 0x1182 JUMP JUMPDEST NUMBER DUP3 MSTORE PUSH1 0x27 PUSH1 0x20 MSTORE DUP2 KECCAK256 SSTORE DUP1 RETURN JUMPDEST POP REVERT JUMPDEST SWAP2 SWAP1 POP CALLVALUE PUSH2 0x3DE JUMPI PUSH1 0x20 CALLDATASIZE PUSH1 0x3 NOT ADD SLT PUSH2 0x3DE JUMPI PUSH1 0xA0 SWAP3 DUP2 SWAP1 PUSH1 0x1 PUSH1 0x1 PUSH1 0xA0 SHL SUB PUSH2 0x658 PUSH2 0x10D0 JUMP JUMPDEST AND DUP2 MSTORE PUSH1 0x25 PUSH1 0x20 MSTORE KECCAK256 PUSH1 0xFF DUP2 SLOAD AND SWAP3 PUSH1 0x1 DUP3 ADD SLOAD SWAP3 PUSH1 0x2 DUP4 ADD SLOAD SWAP2 PUSH1 0x3 DUP5 ADD SLOAD SWAP4 ADD SLOAD SWAP4 DUP2 MLOAD SWAP6 ISZERO ISZERO DUP7 MSTORE PUSH1 0x20 DUP7 ADD MSTORE DUP5 ADD MSTORE PUSH1 0x60 DUP4 ADD MSTORE PUSH1 0x80 DUP3 ADD MSTORE RETURN JUMPDEST POP POP CALLVALUE PUSH2 0x1B6 JUMPI DUP2 PUSH1 0x3 NOT CALLDATASIZE ADD SLT PUSH2 0x1B6 JUMPI PUSH1 0x20 SWAP1 PUSH4 0xFFFFFFFF PUSH1 0x2 SLOAD AND SWAP1 MLOAD SWAP1 DUP2 MSTORE RETURN JUMPDEST POP POP CALLVALUE PUSH2 0x1B6 JUMPI DUP2 PUSH1 0x3 NOT CALLDATASIZE ADD SLT PUSH2 0x1B6 JUMPI PUSH1 0x21 SLOAD SWAP1 MLOAD PUSH1 0x1 PUSH1 0x1 PUSH1 0xA0 SHL SUB SWAP1 SWAP2 AND DUP2 MSTORE PUSH1 0x20 SWAP1 RETURN JUMPDEST SWAP1 POP CALLVALUE PUSH2 0x3DE JUMPI PUSH1 0x20 CALLDATASIZE PUSH1 0x3 NOT ADD SLT PUSH2 0x3DE JUMPI PUSH1 0x20 SWAP3 DUP3 SWAP2 CALLDATALOAD DUP2 MSTORE PUSH1 0x27 DUP5 MSTORE KECCAK256 SLOAD SWAP1 MLOAD SWAP1 DUP2 MSTORE RETURN JUMPDEST SWAP1 POP CALLVALUE PUSH2 0x3DE JUMPI PUSH1 0x20 CALLDATASIZE PUSH1 0x3 NOT ADD SLT PUSH2 0x3DE JUMPI DUP2 PUSH1 0x20 SWAP4 PUSH1 0xFF SWAP3 CALLDATALOAD DUP2 MSTORE PUSH1 0x23 DUP6 MSTORE KECCAK256 SLOAD AND SWAP1 MLOAD SWAP1 ISZERO ISZERO DUP2 MSTORE RETURN JUMPDEST POP POP CALLVALUE PUSH2 0x1B6 JUMPI DUP2 PUSH1 0x3 NOT CALLDATASIZE ADD SLT PUSH2 0x1B6 JUMPI PUSH1 0x20 SWAP1 MLOAD PUSH2 0xE10 DUP2 MSTORE RETURN JUMPDEST DUP4 CALLVALUE PUSH2 0x41A JUMPI DUP1 PUSH1 0x3 NOT CALLDATASIZE ADD SLT PUSH2 0x41A JUMPI PUSH2 0x770 PUSH2 0x1182 JUMP JUMPDEST PUSH1 0x21 DUP1 SLOAD PUSH1 0x1 PUSH1 0x1 PUSH1 0xA0 SHL SUB NOT DUP2 AND SWAP1 SWAP2 SSTORE DUP2 SWAP1 PUSH1 0x1 PUSH1 0x1 PUSH1 0xA0 SHL SUB AND PUSH32 0x8BE0079C531659141344CD1FD0A4F28419497F9722A3DAAFE3B4186F6B6457E0 DUP3 DUP1 LOG3 DUP1 RETURN JUMPDEST DUP3 DUP5 CALLVALUE PUSH2 0x41A JUMPI PUSH1 0x20 CALLDATASIZE PUSH1 0x3 NOT ADD SLT PUSH2 0x41A JUMPI POP PUSH2 0x7D4 PUSH1 0x20 SWAP3 CALLDATALOAD PUSH2 0x12E0 JUMP JUMPDEST SWAP1 MLOAD SWAP1 ISZERO ISZERO DUP2 MSTORE RETURN JUMPDEST POP POP CALLVALUE PUSH2 0x1B6 JUMPI PUSH1 0x20 CALLDATASIZE PUSH1 0x3 NOT ADD SLT PUSH2 0x1B6 JUMPI PUSH1 0x20 SWAP2 DUP2 SWAP1 PUSH1 0x1 PUSH1 0x1 PUSH1 0xA0 SHL SUB PUSH2 0x805 PUSH2 0x10D0 JUMP JUMPDEST AND DUP2 MSTORE PUSH1 0x26 DUP5 MSTORE KECCAK256 SLOAD SWAP1 MLOAD SWAP1 DUP2 MSTORE RETURN JUMPDEST SWAP2 SWAP1 POP CALLVALUE PUSH2 0x3DE JUMPI PUSH1 0x20 CALLDATASIZE PUSH1 0x3 NOT ADD SLT PUSH2 0x3DE JUMPI DUP1 PUSH1 0xA0 SWAP4 PUSH2 0x835 PUSH2 0x10D0 JUMP JUMPDEST DUP2 PUSH1 0x80 DUP5 MLOAD PUSH2 0x843 DUP2 PUSH2 0x11AE JUMP JUMPDEST DUP3 DUP2 MSTORE DUP3 PUSH1 0x20 DUP3 ADD MSTORE DUP3 DUP7 DUP3 ADD MSTORE DUP3 PUSH1 0x60 DUP3 ADD MSTORE ADD MSTORE PUSH1 0x1 DUP1 DUP8 SHL SUB AND DUP2 MSTORE PUSH1 0x25 PUSH1 0x20 MSTORE KECCAK256 DUP2 MLOAD SWAP2 PUSH2 0x874 DUP4 PUSH2 0x11AE JUMP JUMPDEST PUSH1 0xFF DUP3 SLOAD AND ISZERO ISZERO SWAP4 DUP5 DUP5 MSTORE PUSH1 0x1 DUP4 ADD SLOAD PUSH1 0x20 DUP6 ADD SWAP1 DUP2 MSTORE PUSH1 0x80 PUSH1 0x2 DUP6 ADD SLOAD SWAP3 DUP5 DUP8 ADD SWAP4 DUP5 MSTORE PUSH1 0x3 DUP7 ADD SLOAD SWAP6 PUSH1 0x60 DUP9 ADD SWAP7 DUP8 MSTORE ADD SLOAD SWAP6 ADD SWAP5 DUP6 MSTORE DUP3 MLOAD SWAP6 DUP7 MSTORE MLOAD PUSH1 0x20 DUP7 ADD MSTORE MLOAD SWAP1 DUP5 ADD MSTORE MLOAD PUSH1 0x60 DUP4 ADD MSTORE MLOAD PUSH1 0x80 DUP3 ADD MSTORE RETURN JUMPDEST POP POP CALLVALUE PUSH2 0x1B6 JUMPI DUP2 PUSH1 0x3 NOT CALLDATASIZE ADD SLT PUSH2 0x1B6 JUMPI PUSH2 0x8E5 PUSH2 0x1182 JUMP JUMPDEST PUSH1 0x19 DUP2 MLOAD SWAP2 DUP1 DUP4 MSTORE DUP3 ADD MSTORE PUSH32 0x456D657267656E63792070617573652061637469766174656400000000000000 PUSH1 0x60 DUP3 ADD MSTORE TIMESTAMP PUSH1 0x20 DUP3 ADD MSTORE PUSH1 0x0 DUP1 MLOAD PUSH1 0x20 PUSH2 0x1531 DUP4 CODECOPY DUP2 MLOAD SWAP2 MSTORE PUSH1 0x80 CALLER SWAP3 LOG2 DUP1 RETURN JUMPDEST POP POP CALLVALUE PUSH2 0x1B6 JUMPI DUP2 PUSH1 0x3 NOT CALLDATASIZE ADD SLT PUSH2 0x1B6 JUMPI PUSH1 0x20 SWAP1 MLOAD PUSH4 0xFFFFFFFF PUSH32 0x0 AND DUP2 MSTORE RETURN JUMPDEST POP POP CALLVALUE PUSH2 0x1B6 JUMPI DUP2 PUSH1 0x3 NOT CALLDATASIZE ADD SLT PUSH2 0x1B6 JUMPI PUSH1 0x20 SWAP1 MLOAD PUSH32 0x30644E72E131A029B85045B68181585D2833E84879B9709143E1F593F0000001 DUP2 MSTORE RETURN JUMPDEST SWAP1 POP CALLVALUE PUSH2 0x3DE JUMPI PUSH1 0xA0 CALLDATASIZE PUSH1 0x3 NOT ADD SLT PUSH2 0x3DE JUMPI PUSH1 0x20 SWAP3 POP DUP2 MLOAD SWAP1 DUP4 DUP3 ADD SWAP1 PUSH1 0x24 CALLDATALOAD DUP3 MSTORE PUSH1 0x44 CALLDATALOAD DUP5 DUP5 ADD MSTORE PUSH1 0x64 CALLDATALOAD PUSH1 0x60 DUP5 ADD MSTORE PUSH1 0x84 CALLDATALOAD PUSH1 0x80 DUP5 ADD MSTORE PUSH1 0x80 DUP4 MSTORE PUSH2 0x9F6 DUP4 PUSH2 0x11AE JUMP JUMPDEST CALLDATALOAD SWAP2 MLOAD SWAP1 KECCAK256 EQ SWAP1 MLOAD SWAP1 DUP2 MSTORE RETURN JUMPDEST DUP3 DUP5 CALLVALUE PUSH2 0x41A JUMPI DUP2 PUSH1 0x3 NOT CALLDATASIZE ADD SLT PUSH2 0x41A JUMPI POP PUSH2 0xA26 PUSH1 0x20 SWAP3 PUSH1 0x24 CALLDATALOAD SWAP1 CALLDATALOAD PUSH2 0x1202 JUMP JUMPDEST SWAP1 MLOAD SWAP1 DUP2 MSTORE RETURN JUMPDEST SWAP1 POP CALLVALUE PUSH2 0x3DE JUMPI PUSH1 0x20 SWAP1 DUP2 PUSH1 0x3 NOT CALLDATASIZE ADD SLT PUSH2 0xB68 JUMPI DUP1 CALLDATALOAD SWAP1 PUSH1 0x1 DUP1 PUSH1 0xA0 SHL SUB PUSH1 0x21 SLOAD AND CALLER EQ DUP1 ISZERO PUSH2 0xB54 JUMPI JUMPDEST ISZERO PUSH2 0xB13 JUMPI DUP2 DUP6 MSTORE PUSH1 0x24 DUP4 MSTORE PUSH1 0xFF DUP5 DUP7 KECCAK256 SLOAD AND PUSH2 0xA87 JUMPI POP DUP4 MSTORE PUSH1 0x24 SWAP1 MSTORE DUP2 KECCAK256 DUP1 SLOAD PUSH1 0xFF NOT AND PUSH1 0x1 OR SWAP1 SSTORE DUP1 RETURN JUMPDEST PUSH1 0x64 SWAP1 DUP4 DUP6 DUP1 MLOAD DUP2 DUP2 MSTORE PUSH1 0x19 DUP3 DUP3 ADD MSTORE PUSH32 0x417474656D70746564206E756C6C696669657220726575736500000000000000 PUSH1 0x60 DUP3 ADD MSTORE TIMESTAMP DUP4 DUP3 ADD MSTORE PUSH1 0x0 DUP1 MLOAD PUSH1 0x20 PUSH2 0x1531 DUP4 CODECOPY DUP2 MLOAD SWAP2 MSTORE PUSH1 0x80 CALLER SWAP3 LOG2 MLOAD PUSH3 0x461BCD PUSH1 0xE5 SHL DUP2 MSTORE SWAP2 DUP3 ADD MSTORE PUSH1 0x17 PUSH1 0x24 DUP3 ADD MSTORE PUSH32 0x4E756C6C696669657220616C7265616479207370656E74000000000000000000 PUSH1 0x44 DUP3 ADD MSTORE REVERT JUMPDEST PUSH1 0x64 SWAP1 DUP4 DUP1 DUP7 MLOAD SWAP3 PUSH3 0x461BCD PUSH1 0xE5 SHL DUP5 MSTORE DUP4 ADD MSTORE PUSH1 0x24 DUP3 ADD MSTORE PUSH32 0x4E6F7420617574686F72697A656420746F206D61726B206E756C6C6966696572 PUSH1 0x44 DUP3 ADD MSTORE REVERT JUMPDEST POP CALLER DUP6 MSTORE PUSH1 0x25 DUP4 MSTORE PUSH1 0xFF DUP5 DUP7 KECCAK256 SLOAD AND PUSH2 0xA59 JUMP JUMPDEST DUP4 DUP1 REVERT JUMPDEST DUP4 SWAP2 POP CALLVALUE PUSH2 0x1B6 JUMPI PUSH1 0x80 CALLDATASIZE PUSH1 0x3 NOT ADD SLT PUSH2 0x1B6 JUMPI PUSH1 0x24 SWAP3 PUSH8 0xFFFFFFFFFFFFFFFF DUP5 CALLDATALOAD DUP4 CALLDATALOAD DUP3 DUP3 GT PUSH2 0x10A2 JUMPI CALLDATASIZE PUSH1 0x23 DUP4 ADD SLT ISZERO PUSH2 0x10A2 JUMPI DUP2 DUP6 ADD CALLDATALOAD SWAP5 DUP4 DUP7 GT PUSH2 0x109E JUMPI CALLDATASIZE DUP9 DUP8 DUP6 ADD ADD GT PUSH2 0x109E JUMPI PUSH1 0x44 CALLDATALOAD SWAP3 PUSH1 0x2 SWAP7 DUP8 PUSH1 0x22 SLOAD EQ PUSH2 0x108E JUMPI DUP8 PUSH1 0x22 SSTORE CALLER DUP10 MSTORE PUSH1 0x20 SWAP5 PUSH1 0x26 DUP7 MSTORE PUSH1 0x5 DUP9 DUP12 KECCAK256 SLOAD LT ISZERO PUSH2 0x107E JUMPI NUMBER DUP11 MSTORE PUSH1 0x27 DUP7 MSTORE PUSH1 0xA DUP9 DUP12 KECCAK256 SLOAD LT ISZERO PUSH2 0x106E JUMPI DUP5 DUP11 MSTORE PUSH1 0x23 DUP7 MSTORE PUSH1 0xFF DUP9 DUP12 KECCAK256 SLOAD AND PUSH2 0x105E JUMPI PUSH1 0x1 PUSH1 0x80 SHL DUP6 LT PUSH2 0x104E JUMPI PUSH2 0xE10 DUP2 ADD DUP1 DUP3 GT PUSH2 0x103C JUMPI TIMESTAMP GT PUSH2 0x102C JUMPI SWAP2 DUP11 DUP11 DUP8 PUSH2 0xCB4 SWAP5 DUP12 PUSH2 0xCBD SWAP8 DUP2 MLOAD SWAP1 DUP5 DUP3 ADD SWAP3 DUP13 DUP5 MSTORE PUSH1 0x64 CALLDATALOAD SWAP1 DUP4 ADD MSTORE PUSH1 0x60 DUP3 ADD MSTORE CALLER PUSH1 0x60 SHL PUSH1 0x80 DUP3 ADD MSTORE PUSH1 0x74 DUP2 MSTORE PUSH2 0xC5E DUP2 PUSH2 0x11AE JUMP JUMPDEST MLOAD SWAP1 KECCAK256 PUSH32 0x19457468657265756D205369676E6564204D6573736167653A0A333200000000 DUP5 MSTORE PUSH1 0x1C MSTORE DUP1 PUSH1 0x3C DUP5 KECCAK256 SWAP5 DUP14 MLOAD SWAP7 PUSH2 0xCA3 DUP6 PUSH1 0x1F NOT PUSH1 0x1F DUP7 ADD AND ADD DUP10 PUSH2 0x11E0 JUMP JUMPDEST DUP3 DUP9 MSTORE ADD DUP4 DUP8 ADD CALLDATACOPY DUP5 ADD ADD MSTORE PUSH2 0x13A4 JUMP JUMPDEST SWAP1 SWAP3 SWAP2 SWAP3 PUSH2 0x1470 JUMP JUMPDEST PUSH1 0x1 PUSH1 0x1 PUSH1 0xA0 SHL SUB AND DUP1 DUP9 MSTORE PUSH1 0x25 DUP5 MSTORE DUP6 DUP9 KECCAK256 DUP1 SLOAD SWAP2 SWAP8 SWAP1 SWAP2 PUSH1 0xFF AND ISZERO PUSH2 0xFC7 JUMPI PUSH3 0x15180 TIMESTAMP DIV DUP4 DUP4 ADD DUP2 DUP2 SLOAD LT PUSH2 0xFB9 JUMPI JUMPDEST POP POP PUSH1 0x3 SWAP8 DUP9 DUP4 ADD SWAP3 DUP3 DUP5 SLOAD SWAP2 ADD SLOAD GT ISZERO PUSH2 0xF5F JUMPI POP PUSH4 0xFFFFFFFF SWAP8 DUP9 DUP3 SLOAD DUP8 SHR AND SWAP9 DUP1 PUSH32 0x0 AND SWAP2 DUP2 PUSH2 0xD41 DUP5 PUSH2 0x14F5 JUMP JUMPDEST AND DUP12 EQ PUSH2 0xF04 JUMPI DUP7 SWAP3 DUP13 DUP4 DUP14 JUMPDEST DUP4 DUP3 DUP5 AND LT PUSH2 0xE7C JUMPI POP POP POP POP DUP4 SLOAD PUSH1 0x1E DUP4 PUSH2 0xD6B DUP2 DUP5 AND PUSH2 0x151B JUMP JUMPDEST AND MOD SWAP3 DUP4 AND SWAP1 PUSH4 0xFFFFFFFF NOT AND OR DUP5 SSTORE PUSH1 0x1E DUP3 LT ISZERO PUSH2 0xE6A JUMPI ADD SSTORE PUSH2 0xD8F DUP9 PUSH2 0x151B JUMP JUMPDEST DUP2 SLOAD PUSH8 0xFFFFFFFF00000000 NOT AND SWAP1 DUP7 SHL PUSH8 0xFFFFFFFF00000000 AND OR SWAP1 SSTORE DUP3 DUP9 MSTORE PUSH1 0x23 DUP5 MSTORE DUP6 DUP9 KECCAK256 DUP1 SLOAD PUSH1 0xFF NOT AND PUSH1 0x1 OR SWAP1 SSTORE CALLER DUP9 MSTORE PUSH1 0x26 DUP5 MSTORE DUP6 DUP9 KECCAK256 DUP1 SLOAD PUSH2 0xDD6 SWAP1 PUSH2 0x137F JUMP JUMPDEST SWAP1 SSTORE NUMBER DUP9 MSTORE PUSH1 0x27 DUP5 MSTORE DUP6 DUP9 KECCAK256 PUSH2 0xDEC DUP2 SLOAD PUSH2 0x137F JUMP JUMPDEST SWAP1 SSTORE PUSH2 0xDF8 DUP2 SLOAD PUSH2 0x137F JUMP JUMPDEST SWAP1 SSTORE DUP5 MLOAD SWAP3 DUP4 ADD SWAP2 DUP3 MSTORE TIMESTAMP DUP4 DUP7 ADD MSTORE DUP5 DUP4 MSTORE PUSH1 0x60 DUP4 ADD SWAP4 DUP5 GT DUP4 DUP6 LT OR PUSH2 0xE58 JUMPI POP PUSH32 0x219F25DC7736FD37046345758F22C997457B480A471FF2A4D87A4C40D5BE5F53 SWAP5 SWAP6 SWAP7 POP DUP3 DUP5 MSTORE DUP2 MLOAD SWAP1 KECCAK256 SWAP5 DUP3 MSTORE PUSH1 0x80 TIMESTAMP SWAP2 ADD MSTORE LOG2 PUSH1 0x1 PUSH1 0x22 SSTORE DUP1 RETURN JUMPDEST PUSH4 0x4E487B71 PUSH1 0xE0 SHL DUP8 MSTORE PUSH1 0x41 SWAP1 MSTORE DUP7 DUP7 REVERT JUMPDEST PUSH4 0x4E487B71 PUSH1 0xE0 SHL DUP13 MSTORE PUSH1 0x32 DUP7 MSTORE DUP13 DUP13 REVERT JUMPDEST PUSH4 0x7FFFFFFF SWAP1 PUSH2 0xEC7 PUSH1 0x1 SWAP9 DUP10 DUP4 AND ISZERO PUSH1 0x0 EQ PUSH2 0xEF0 JUMPI DUP1 PUSH2 0xE9D DUP8 PUSH2 0x1135 JUMP JUMPDEST SWAP1 SLOAD SWAP1 DUP11 SHL SHR SWAP2 PUSH2 0xEAD DUP9 PUSH2 0x10EB JUMP JUMPDEST DUP2 SWAP3 SWAP2 SLOAD SWAP1 DUP13 SHL SWAP2 DUP3 SHL SWAP2 PUSH1 0x0 NOT SWAP1 SHL NOT AND OR SWAP1 SSTORE PUSH2 0x1202 JUMP JUMPDEST SWAP8 SHR AND SWAP2 AND DUP5 DUP2 EQ PUSH2 0xEDE JUMPI PUSH1 0x1 ADD SWAP1 DUP5 SWAP1 PUSH2 0xD4E JUMP JUMPDEST PUSH4 0x4E487B71 PUSH1 0xE0 SHL DUP16 MSTORE PUSH1 0x11 DUP10 MSTORE DUP16 DUP16 REVERT JUMPDEST PUSH2 0xEF9 DUP7 PUSH2 0x10EB JUMP JUMPDEST SWAP1 SLOAD SWAP1 DUP10 SHL SHR PUSH2 0x1202 JUMP JUMPDEST DUP10 MLOAD PUSH3 0x461BCD PUSH1 0xE5 SHL DUP2 MSTORE DUP1 DUP8 ADD DUP10 SWAP1 MSTORE PUSH1 0x30 DUP2 DUP16 ADD MSTORE PUSH32 0x4D65726B6C6520747265652069732066756C6C2E204E6F206D6F7265206C6561 PUSH1 0x44 DUP3 ADD MSTORE PUSH16 0x1D995CC818D85B881899481859191959 PUSH1 0x82 SHL PUSH1 0x64 DUP3 ADD MSTORE PUSH1 0x84 SWAP1 REVERT JUMPDEST DUP8 DUP5 SWAP2 PUSH1 0x0 DUP1 MLOAD PUSH1 0x20 PUSH2 0x1531 DUP4 CODECOPY DUP2 MLOAD SWAP2 MSTORE PUSH1 0x80 DUP10 DUP5 MLOAD SWAP1 DUP6 DUP3 MSTORE PUSH1 0x1D DUP7 DUP4 ADD MSTORE PUSH32 0x4461696C792069737375616E6365206C696D6974206578636565646564000000 PUSH1 0x60 DUP4 ADD MSTORE TIMESTAMP SWAP1 DUP3 ADD MSTORE LOG2 MLOAD PUSH4 0xA74C1C5F PUSH1 0xE0 SHL DUP2 MSTORE REVERT JUMPDEST DUP11 PUSH1 0x3 DUP6 ADD SSTORE SSTORE DUP11 DUP1 PUSH2 0xCF0 JUMP JUMPDEST DUP3 DUP8 DUP10 PUSH1 0x0 DUP1 MLOAD PUSH1 0x20 PUSH2 0x1531 DUP4 CODECOPY DUP2 MLOAD SWAP2 MSTORE PUSH1 0xA0 DUP10 DUP5 MLOAD SWAP1 DUP6 DUP3 MSTORE PUSH1 0x22 DUP7 DUP4 ADD MSTORE PUSH32 0x556E747275737465642069737375657220617474656D70746564206465706F73 PUSH1 0x60 DUP4 ADD MSTORE PUSH2 0x1A5D PUSH1 0xF2 SHL PUSH1 0x80 DUP4 ADD MSTORE TIMESTAMP SWAP1 DUP3 ADD MSTORE LOG2 MLOAD PUSH4 0x3EB89D5F PUSH1 0xE1 SHL DUP2 MSTORE REVERT JUMPDEST DUP8 MLOAD PUSH4 0x819BDCD PUSH1 0xE0 SHL DUP2 MSTORE DUP5 SWAP1 REVERT JUMPDEST PUSH4 0x4E487B71 PUSH1 0xE0 SHL DUP12 MSTORE PUSH1 0x11 DUP6 MSTORE DUP12 DUP12 REVERT JUMPDEST DUP8 MLOAD PUSH4 0x16062E27 PUSH1 0xE3 SHL DUP2 MSTORE DUP5 SWAP1 REVERT JUMPDEST DUP8 MLOAD PUSH4 0x145718A7 PUSH1 0xE0 SHL DUP2 MSTORE DUP5 SWAP1 REVERT JUMPDEST DUP8 MLOAD PUSH4 0xEA4ABCED PUSH1 0xE0 SHL DUP2 MSTORE DUP5 SWAP1 REVERT JUMPDEST DUP8 MLOAD PUSH4 0xA74C1C5F PUSH1 0xE0 SHL DUP2 MSTORE DUP5 SWAP1 REVERT JUMPDEST DUP7 MLOAD PUSH4 0x3EE5AEB5 PUSH1 0xE0 SHL DUP2 MSTORE DUP4 SWAP1 REVERT JUMPDEST DUP7 DUP1 REVERT JUMPDEST DUP6 DUP1 REVERT JUMPDEST SWAP3 SWAP2 POP CALLVALUE PUSH2 0xB68 JUMPI PUSH1 0x20 CALLDATASIZE PUSH1 0x3 NOT ADD SLT PUSH2 0xB68 JUMPI CALLDATALOAD DUP4 MSTORE PUSH1 0x24 PUSH1 0x20 SWAP1 DUP2 MSTORE SWAP3 KECCAK256 SLOAD PUSH1 0xFF AND ISZERO ISZERO DUP2 MSTORE RETURN JUMPDEST PUSH1 0x4 CALLDATALOAD SWAP1 PUSH1 0x1 PUSH1 0x1 PUSH1 0xA0 SHL SUB DUP3 AND DUP3 SUB PUSH2 0x10E6 JUMPI JUMP JUMPDEST PUSH1 0x0 DUP1 REVERT JUMPDEST SWAP1 PUSH1 0x0 SWAP2 DUP3 SLOAD DUP2 LT ISZERO PUSH2 0x1121 JUMPI DUP3 DUP1 MSTORE PUSH32 0x290DECD9548B62A8D60345A988386FC84BA6BC95484008F6362F93160EF3E563 ADD SWAP2 SWAP1 JUMP JUMPDEST PUSH4 0x4E487B71 PUSH1 0xE0 SHL DUP4 MSTORE PUSH1 0x32 PUSH1 0x4 MSTORE PUSH1 0x24 DUP4 REVERT JUMPDEST PUSH1 0x1 SLOAD DUP2 LT ISZERO PUSH2 0x116C JUMPI PUSH1 0x1 PUSH1 0x0 MSTORE PUSH32 0xB10E2D527612073B26EECDFD717E6A320CF44B4AFAC2B0732D9FCBE2B7FA0CF6 ADD SWAP1 PUSH1 0x0 SWAP1 JUMP JUMPDEST PUSH4 0x4E487B71 PUSH1 0xE0 SHL PUSH1 0x0 MSTORE PUSH1 0x32 PUSH1 0x4 MSTORE PUSH1 0x24 PUSH1 0x0 REVERT JUMPDEST PUSH1 0x21 SLOAD PUSH1 0x1 PUSH1 0x1 PUSH1 0xA0 SHL SUB AND CALLER SUB PUSH2 0x1196 JUMPI JUMP JUMPDEST PUSH1 0x40 MLOAD PUSH4 0x118CDAA7 PUSH1 0xE0 SHL DUP2 MSTORE CALLER PUSH1 0x4 DUP3 ADD MSTORE PUSH1 0x24 SWAP1 REVERT JUMPDEST PUSH1 0xA0 DUP2 ADD SWAP1 DUP2 LT PUSH8 0xFFFFFFFFFFFFFFFF DUP3 GT OR PUSH2 0x11CA JUMPI PUSH1 0x40 MSTORE JUMP JUMPDEST PUSH4 0x4E487B71 PUSH1 0xE0 SHL PUSH1 0x0 MSTORE PUSH1 0x41 PUSH1 0x4 MSTORE PUSH1 0x24 PUSH1 0x0 REVERT JUMPDEST SWAP1 PUSH1 0x1F DUP1 NOT SWAP2 ADD AND DUP2 ADD SWAP1 DUP2 LT PUSH8 0xFFFFFFFFFFFFFFFF DUP3 GT OR PUSH2 0x11CA JUMPI PUSH1 0x40 MSTORE JUMP JUMPDEST SWAP1 PUSH1 0x40 MLOAD SWAP2 PUSH1 0x40 DUP4 ADD DUP4 DUP2 LT PUSH8 0xFFFFFFFFFFFFFFFF DUP3 GT OR PUSH2 0x11CA JUMPI PUSH1 0x40 MSTORE DUP3 MSTORE PUSH1 0x20 SWAP1 DUP2 DUP4 ADD MSTORE PUSH1 0x40 MLOAD SWAP2 PUSH4 0x14CF2B3 PUSH1 0xE5 SHL DUP4 MSTORE PUSH1 0x4 DUP4 ADD PUSH1 0x0 SWAP1 JUMPDEST DUP4 PUSH1 0x2 DUP4 LT PUSH2 0x12CC JUMPI SWAP3 POP DUP5 SWAP2 POP PUSH1 0x44 SWAP1 POP DUP2 PUSH32 0x0 PUSH1 0x1 PUSH1 0x1 PUSH1 0xA0 SHL SUB AND GAS STATICCALL SWAP1 DUP2 ISZERO PUSH2 0x12C0 JUMPI PUSH1 0x0 SWAP2 PUSH2 0x1294 JUMPI JUMPDEST POP SWAP1 POP SWAP1 JUMP JUMPDEST DUP3 DUP2 RETURNDATASIZE DUP4 GT PUSH2 0x12B9 JUMPI JUMPDEST PUSH2 0x12A8 DUP2 DUP4 PUSH2 0x11E0 JUMP JUMPDEST DUP2 ADD SUB SLT PUSH2 0x41A JUMPI POP MLOAD DUP1 CODESIZE PUSH2 0x128E JUMP JUMPDEST POP RETURNDATASIZE PUSH2 0x129E JUMP JUMPDEST PUSH1 0x40 MLOAD RETURNDATASIZE PUSH1 0x0 DUP3 RETURNDATACOPY RETURNDATASIZE SWAP1 REVERT JUMPDEST DUP1 PUSH1 0x1 SWAP3 DUP6 MLOAD DUP2 MSTORE ADD SWAP4 ADD SWAP2 ADD SWAP1 SWAP2 PUSH2 0x1240 JUMP JUMPDEST DUP1 ISZERO PUSH2 0x1379 JUMPI PUSH4 0xFFFFFFFF DUP1 PUSH1 0x2 SLOAD AND SWAP2 DUP3 PUSH1 0x1 SWAP4 DUP5 DUP1 JUMPDEST PUSH2 0x1308 JUMPI JUMPDEST POP POP POP POP POP POP PUSH1 0x0 SWAP1 JUMP JUMPDEST ISZERO PUSH2 0x136A JUMPI JUMPDEST PUSH1 0x0 SWAP1 PUSH1 0x1E SWAP1 DUP2 DUP2 LT ISZERO PUSH2 0x1121 JUMPI DUP1 PUSH1 0x3 ADD SLOAD DUP6 EQ PUSH2 0x1361 JUMPI DUP6 SWAP2 DUP3 DUP3 AND ISZERO PUSH2 0x1359 JUMPI JUMPDEST POP AND DUP1 ISZERO PUSH2 0x1345 JUMPI PUSH1 0x0 NOT ADD SWAP1 DUP6 PUSH2 0x12F8 JUMP JUMPDEST PUSH4 0x4E487B71 PUSH1 0xE0 SHL DUP3 MSTORE PUSH1 0x11 PUSH1 0x4 MSTORE PUSH1 0x24 DUP3 REVERT JUMPDEST SWAP1 POP CODESIZE PUSH2 0x1332 JUMP JUMPDEST POP POP POP POP POP POP SWAP1 JUMP JUMPDEST DUP2 DUP5 DUP3 AND SUB PUSH2 0x130E JUMPI DUP1 PUSH2 0x12FD JUMP JUMPDEST POP PUSH1 0x0 SWAP1 JUMP JUMPDEST PUSH1 0x0 NOT DUP2 EQ PUSH2 0x138E JUMPI PUSH1 0x1 ADD SWAP1 JUMP JUMPDEST PUSH4 0x4E487B71 PUSH1 0xE0 SHL PUSH1 0x0 MSTORE PUSH1 0x11 PUSH1 0x4 MSTORE PUSH1 0x24 PUSH1 0x0 REVERT JUMPDEST DUP2 MLOAD SWAP2 SWAP1 PUSH1 0x41 DUP4 SUB PUSH2 0x13D5 JUMPI PUSH2 0x13CE SWAP3 POP PUSH1 0x20 DUP3 ADD MLOAD SWAP1 PUSH1 0x60 PUSH1 0x40 DUP5 ADD MLOAD SWAP4 ADD MLOAD PUSH1 0x0 BYTE SWAP1 PUSH2 0x13E0 JUMP JUMPDEST SWAP2 SWAP3 SWAP1 SWAP2 SWAP1 JUMP JUMPDEST POP POP PUSH1 0x0 SWAP2 PUSH1 0x2 SWAP2 SWAP1 JUMP JUMPDEST SWAP2 SWAP1 PUSH32 0x7FFFFFFFFFFFFFFFFFFFFFFFFFFFFFFF5D576E7357A4501DDFE92F46681B20A0 DUP5 GT PUSH2 0x1464 JUMPI SWAP3 PUSH1 0x20 SWAP3 SWAP2 PUSH1 0xFF PUSH1 0x80 SWAP6 PUSH1 0x40 MLOAD SWAP5 DUP6 MSTORE AND DUP5 DUP5 ADD MSTORE PUSH1 0x40 DUP4 ADD MSTORE PUSH1 0x60 DUP3 ADD MSTORE PUSH1 0x0 SWAP3 DUP4 SWAP2 DUP3 DUP1 MSTORE PUSH1 0x1 GAS STATICCALL ISZERO PUSH2 0x1458 JUMPI DUP1 MLOAD PUSH1 0x1 PUSH1 0x1 PUSH1 0xA0 SHL SUB DUP2 AND ISZERO PUSH2 0x144F JUMPI SWAP2 DUP2 SWAP1 JUMP JUMPDEST POP DUP1 SWAP2 PUSH1 0x1 SWAP2 SWAP1 JUMP JUMPDEST PUSH1 0x40 MLOAD SWAP1 RETURNDATASIZE SWAP1 DUP3 RETURNDATACOPY RETURNDATASIZE SWAP1 REVERT JUMPDEST POP POP POP PUSH1 0x0 SWAP2 PUSH1 0x3 SWAP2 SWAP1 JUMP JUMPDEST PUSH1 0x4 DUP2 LT ISZERO PUSH2 0x14DF JUMPI DUP1 PUSH2 0x1482 JUMPI POP POP JUMP JUMPDEST PUSH1 0x1 DUP2 SUB PUSH2 0x149C JUMPI PUSH1 0x40 MLOAD PUSH4 0xF645EEDF PUSH1 0xE0 SHL DUP2 MSTORE PUSH1 0x4 SWAP1 REVERT JUMPDEST PUSH1 0x2 DUP2 SUB PUSH2 0x14BD JUMPI PUSH1 0x40 MLOAD PUSH4 0xFCE698F7 PUSH1 0xE0 SHL DUP2 MSTORE PUSH1 0x4 DUP2 ADD DUP4 SWAP1 MSTORE PUSH1 0x24 SWAP1 REVERT JUMPDEST PUSH1 0x3 EQ PUSH2 0x14C7 JUMPI POP JUMP JUMPDEST PUSH1 0x24 SWAP1 PUSH1 0x40 MLOAD SWAP1 PUSH4 0x35E2F383 PUSH1 0xE2 SHL DUP3 MSTORE PUSH1 0x4 DUP3 ADD MSTORE REVERT JUMPDEST PUSH4 0x4E487B71 PUSH1 0xE0 SHL PUSH1 0x0 MSTORE PUSH1 0x21 PUSH1 0x4 MSTORE PUSH1 0x24 PUSH1 0x0 REVERT JUMPDEST DUP1 ISZERO PUSH2 0x1515 JUMPI PUSH1 0xFF DUP2 GT PUSH2 0x138E JUMPI PUSH1 0x1 SWAP1 SHL SWAP1 PUSH4 0xFFFFFFFF DUP3 GT PUSH2 0x138E JUMPI JUMP JUMPDEST POP PUSH1 0x1 SWAP1 JUMP JUMPDEST SWAP1 PUSH1 0x1 PUSH4 0xFFFFFFFF DUP1 SWAP4 AND ADD SWAP2 DUP3 GT PUSH2 0x138E JUMPI JUMP INVALID PUSH16 0x351E36C7BABE44A5305E86F0248D29B3 SHR 0x4E 0xCD SWAP9 PUSH2 0xB0AE PUSH7 0x21B74C3C6615D2 LOG2 PUSH5 0x6970667358 0x22 SLT KECCAK256 0x2E 0xAE INVALID MLOAD SHR PUSH2 0xEFBD 0xB4 0xDD 0xE6 DELEGATECALL 0x4B 0xD1 DUP7 0x2B PUSH14 0x1EAAAF01D37B3918F64171B0DADD 0xBF PUSH5 0x736F6C6343 STOP ADDMOD EQ STOP CALLER "},"methodIdentifiers":{"FIELD_SIZE()":"414a37ba","ISSUER_SIGNATURE_TIMEOUT()":"733ea870","MAX_COMMITMENTS_PER_BLOCK()":"c54d574e","MIN_COMMITMENT_ENTROPY()":"e9b9b520","ROOT_HISTORY_SIZE()":"cd87a3b4","ZERO_VALUE()":"ec732959","addTrustedIssuer(address,bytes32,uint256)":"fa5d3b3b","blockCommitmentCount(uint256)":"87d659e4","commitments(bytes32)":"839df945","currentRootIndex()":"90eeb02b","emergencyPause()":"51858e27","filledSubtrees(uint256)":"f178e47c","getIssuerInfo(address)":"5e9aab70","getLastRoot()":"ba70f757","hashLeftRight(bytes32,bytes32)":"38bf282e","hasher()":"ed33639f","isKnownRoot(bytes32)":"6d9833e3","isSpent(bytes32)":"e5285dcc","levels()":"4ecf518b","markNullifierSpent(bytes32)":"2c000287","nextIndex()":"fc7e9c6f","nullifierHashes(bytes32)":"17cc915c","owner()":"8da5cb5b","removeTrustedIssuer(address)":"b93d28eb","renounceOwnership()":"715018a6","resetRateLimiting()":"b35057e4","roots(uint256)":"c2b40ae4","secureDepositCommitment(bytes32,bytes,uint256,bytes32)":"26fa4285","transferOwnership(address)":"f2fde38b","trustedIssuers(address)":"92c54daf","userCommitmentCount(address)":"633ba3e6","verifyCommitmentStructure(bytes32,bytes32,bytes32,bytes32,bytes32)":"39919f35","zeros(uint256)":"e8295588"}}}}}