{"contracts/SimpleHasher.sol":{"SimpleHasher":{"abi":[{"inputs":[{"internalType":"bytes32[2]","name":"leftRight","type":"bytes32[2]"}],"name":"poseidon","outputs":[{"internalType":"bytes32","name":"","type":"bytes32"}],"stateMutability":"pure","type":"function"}],"evm":{"bytecode":{"linkReferences":{},"object":"608080604052346100155760c3908161001b8239f35b600080fdfe60806004361015600e57600080fd5b600090813560e01c63299e566014602457600080fd5b34608957604036600319011260895736604411608957602081016004358152602435604083015260408252606082019180831067ffffffffffffffff84111760755760209350826040525190208152f35b634e487b7160e01b84526041600452602484fd5b5080fdfea26469706673582212201d5da85fa0be38e1dc92e447d9fc7bab88366af984858e68f8296b2fd858236b64736f6c63430008140033","opcodes":"PUSH1 0x80 DUP1 PUSH1 0x40 MSTORE CALLVALUE PUSH2 0x15 JUMPI PUSH1 0xC3 SWAP1 DUP2 PUSH2 0x1B DUP3 CODECOPY RETURN JUMPDEST PUSH1 0x0 DUP1 REVERT INVALID PUSH1 0x80 PUSH1 0x4 CALLDATASIZE LT ISZERO PUSH1 0xE JUMPI PUSH1 0x0 DUP1 REVERT JUMPDEST PUSH1 0x0 SWAP1 DUP2 CALLDATALOAD PUSH1 0xE0 SHR PUSH4 0x299E5660 EQ PUSH1 0x24 JUMPI PUSH1 0x0 DUP1 REVERT JUMPDEST CALLVALUE PUSH1 0x89 JUMPI PUSH1 0x40 CALLDATASIZE PUSH1 0x3 NOT ADD SLT PUSH1 0x89 JUMPI CALLDATASIZE PUSH1 0x44 GT PUSH1 0x89 JUMPI PUSH1 0x20 DUP2 ADD PUSH1 0x4 CALLDATALOAD DUP2 MSTORE PUSH1 0x24 CALLDATALOAD PUSH1 0x40 DUP4 ADD MSTORE PUSH1 0x40 DUP3 MSTORE PUSH1 0x60 DUP3 ADD SWAP2 DUP1 DUP4 LT PUSH8 0xFFFFFFFFFFFFFFFF DUP5 GT OR PUSH1 0x75 JUMPI PUSH1 0x20 SWAP4 POP DUP3 PUSH1 0x40 MSTORE MLOAD SWAP1 KECCAK256 DUP2 MSTORE RETURN JUMPDEST PUSH4 0x4E487B71 PUSH1 0xE0 SHL DUP5 MSTORE PUSH1 0x41 PUSH1 0x4 MSTORE PUSH1 0x24 DUP5 REVERT JUMPDEST POP DUP1 REVERT INVALID LOG2 PUSH5 0x6970667358 0x22 SLT KECCAK256 SAR 0x5D 0xA8 PUSH0 LOG0 0xBE CODESIZE 0xE1 0xDC SWAP3 0xE4 SELFBALANCE 0xD9 0xFC PUSH28 0xAB88366AF984858E68F8296B2FD858236B64736F6C63430008140033 "},"methodIdentifiers":{"poseidon(bytes32[2])":"299e5660"}}}}}