{"contracts/SecureZKAccessController.sol":{"SecureZKAccessController":{"abi":[{"inputs":[{"internalType":"address","name":"_kycRegistry","type":"address"},{"internalType":"address","name":"_verifier","type":"address"},{"internalType":"address","name":"_feeCollector","type":"address"}],"stateMutability":"nonpayable","type":"constructor"},{"inputs":[],"name":"InsufficientFee","type":"error"},{"inputs":[],"name":"InvalidMerkleRoot","type":"error"},{"inputs":[],"name":"InvalidProof","type":"error"},{"inputs":[],"name":"InvalidProofStructure","type":"error"},{"inputs":[],"name":"NullifierAlreadyUsed","type":"error"},{"inputs":[],"name":"ProofSpamPrevention","type":"error"},{"inputs":[],"name":"ProofTooEarly","type":"error"},{"inputs":[],"name":"RateLimitExceeded","type":"error"},{"inputs":[],"name":"ReentrancyGuardReentrantCall","type":"error"},{"inputs":[],"name":"UntrustedIssuer","type":"error"},{"anonymous":false,"inputs":[{"indexed":true,"internalType":"bytes32","name":"proofHash","type":"bytes32"},{"indexed":false,"internalType":"string","name":"reason","type":"string"},{"indexed":false,"internalType":"uint256","name":"timestamp","type":"uint256"}],"name":"AccessDenied","type":"event"},{"anonymous":false,"inputs":[{"indexed":true,"internalType":"bytes32","name":"anonymousId","type":"bytes32"},{"indexed":false,"internalType":"uint256","name":"timestamp","type":"uint256"},{"indexed":false,"internalType":"uint256","name":"blockNumber","type":"uint256"}],"name":"AccessGranted","type":"event"},{"anonymous":false,"inputs":[{"indexed":false,"internalType":"string","name":"alertType","type":"string"},{"indexed":false,"internalType":"uint256","name":"timestamp","type":"uint256"},{"indexed":false,"internalType":"uint256","name":"blockNumber","type":"uint256"}],"name":"SecurityAlert","type":"event"},{"inputs":[],"name":"MAX_PROOFS_PER_BLOCK","outputs":[{"internalType":"uint256","name":"","type":"uint256"}],"stateMutability":"view","type":"function"},{"inputs":[],"name":"MERKLE_ROOT_VALIDITY_WINDOW","outputs":[{"internalType":"uint256","name":"","type":"uint256"}],"stateMutability":"view","type":"function"},{"inputs":[],"name":"MIN_BLOCK_CONFIRMATIONS","outputs":[{"internalType":"uint256","name":"","type":"uint256"}],"stateMutability":"view","type":"function"},{"inputs":[],"name":"PROOF_VERIFICATION_FEE","outputs":[{"internalType":"uint256","name":"","type":"uint256"}],"stateMutability":"view","type":"function"},{"inputs":[{"internalType":"uint256[2][]","name":"_pAs","type":"uint256[2][]"},{"internalType":"uint256[2][2][]","name":"_pBs","type":"uint256[2][2][]"},{"internalType":"uint256[2][]","name":"_pCs","type":"uint256[2][]"},{"internalType":"bytes32[]","name":"_merkleRoots","type":"bytes32[]"},{"internalType":"bytes32[]","name":"_nullifierHashes","type":"bytes32[]"},{"internalType":"uint256[]","name":"_issuerPubKeysX","type":"uint256[]"},{"internalType":"uint256[]","name":"_issuerPubKeysY","type":"uint256[]"},{"internalType":"uint256[]","name":"_timestamps","type":"uint256[]"}],"name":"batchVerifyProofs","outputs":[{"internalType":"bytes32[]","name":"accessTokens","type":"bytes32[]"}],"stateMutability":"payable","type":"function"},{"inputs":[{"internalType":"uint256","name":"","type":"uint256"}],"name":"blockProofCount","outputs":[{"internalType":"uint256","name":"","type":"uint256"}],"stateMutability":"view","type":"function"},{"inputs":[],"name":"emergencyStop","outputs":[],"stateMutability":"nonpayable","type":"function"},{"inputs":[],"name":"feeCollector","outputs":[{"internalType":"address","name":"","type":"address"}],"stateMutability":"view","type":"function"},{"inputs":[],"name":"getSecurityStats","outputs":[{"internalType":"uint256","name":"totalProofsProcessed","type":"uint256"},{"internalType":"uint256","name":"proofsThisBlock","type":"uint256"},{"internalType":"uint256","name":"feesCollected","type":"uint256"},{"internalType":"uint256","name":"currentBlock","type":"uint256"}],"stateMutability":"view","type":"function"},{"inputs":[{"internalType":"bytes32","name":"_nullifierHash","type":"bytes32"}],"name":"isNullifierSpent","outputs":[{"internalType":"bool","name":"","type":"bool"}],"stateMutability":"view","type":"function"},{"inputs":[{"internalType":"bytes32","name":"_merkleRoot","type":"bytes32"}],"name":"isValidMerkleRoot","outputs":[{"internalType":"bool","name":"","type":"bool"}],"stateMutability":"view","type":"function"},{"inputs":[],"name":"kycRegistry","outputs":[{"internalType":"contract SecureKYCRegistry","name":"","type":"address"}],"stateMutability":"view","type":"function"},{"inputs":[],"name":"totalFeesCollected","outputs":[{"internalType":"uint256","name":"","type":"uint256"}],"stateMutability":"view","type":"function"},{"inputs":[{"internalType":"address","name":"","type":"address"}],"name":"userProofCount","outputs":[{"internalType":"uint256","name":"","type":"uint256"}],"stateMutability":"view","type":"function"},{"inputs":[],"name":"verifier","outputs":[{"internalType":"contract Groth16Verifier","name":"","type":"address"}],"stateMutability":"view","type":"function"},{"inputs":[{"internalType":"bytes32","name":"_accessToken","type":"bytes32"},{"internalType":"uint256","name":"_maxAge","type":"uint256"}],"name":"verifyAccessToken","outputs":[{"internalType":"bool","name":"isValid","type":"bool"}],"stateMutability":"view","type":"function"},{"inputs":[{"internalType":"uint256[2]","name":"_pA","type":"uint256[2]"},{"internalType":"uint256[2][2]","name":"_pB","type":"uint256[2][2]"},{"internalType":"uint256[2]","name":"_pC","type":"uint256[2]"},{"internalType":"bytes32","name":"_merkleRoot","type":"bytes32"},{"internalType":"bytes32","name":"_nullifierHash","type":"bytes32"},{"internalType":"uint256","name":"_issuerPubKeyX","type":"uint256"},{"internalType":"uint256","name":"_issuerPubKeyY","type":"uint256"},{"internalType":"uint256","name":"_timestamp","type":"uint256"}],"name":"verifyAndGrantAnonymousAccess","outputs":[{"internalType":"bytes32","name":"accessToken","type":"bytes32"}],"stateMutability":"payable","type":"function"},{"inputs":[],"name":"withdrawFees","outputs":[],"stateMutability":"nonpayable","type":"function"}],"evm":{"bytecode":{"linkReferences":{},"object":"60e0346100ec57601f6200181138819003918201601f19168301916001600160401b038311848410176100f1578084926060946040528339810103126100ec5761004881610107565b610060604061005960208501610107565b9301610107565b60016000556001600160a01b03918216608052911660a05260c0526040516116f590816200011c8239608051818181610119015281816101d9015281816104190152818161047e0152818161051001528181610614015281816106660152610d12015260a0518181816105d10152610f04015260c05181818161029201528181610c0e0152610d570152f35b600080fd5b634e487b7160e01b600052604160045260246000fd5b51906001600160a01b03821682036100ec5756fe6102e0604052600436101561001357600080fd5b60008061028052803560e01c908163023d0f8814610f5257508063182baeb214610f335780632b7ac3f314610eeb5780632c7e47f414610ecf57806332c7bc1c14610eaa5780633c1401d014610e68578063476343ee14610d415780634b155b9714610cf95780634eb620a714610cb657806360c6d8ae14610c9557806363a599a414610bf45780636c9f032814610bc45780637960ce39146103025780639408555e146102e3578063a672b67f146102c4578063c415b95c14610279578063d5a4e325146101a95763e9cd3b37146100eb57600080fd5b3461018d5760208060031936011261018d57604051636d9833e360e01b8152600480359082015281816024817f00000000000000000000000000000000000000000000000000000000000000006001600160a01b03165afa90811561019b57610280519161015f575b506040519015158152f35b90508181813d8311610194575b6101768183611528565b8101031261018d576101879061156c565b38610154565b6102805180fd5b503d61016c565b6040513d61028051823e3d90fd5b3461018d5760208060031936011261018d5760405163394a177360e21b81526004803590820181905282826024817f00000000000000000000000000000000000000000000000000000000000000006001600160a01b03165afa91821561019b576102805192610242575b50811561022657506040519015158152f35b905061028051526002815260ff60406102805120541682610154565b9091508281813d8311610272575b61025a8183611528565b8101031261018d5761026b9061156c565b9083610214565b503d610250565b3461018d5761028051806003193601126102c1576040517f00000000000000000000000000000000000000000000000000000000000000006001600160a01b03168152602090f35b80fd5b3461018d5761028051806003193601126102c157602060405160038152f35b3461018d5761028051806003193601126102c157602060405160648152f35b6101a08060031936011261018d573660441161018d573660c41161018d57366101041161018d57610331611588565b66038d7ea4c680003410610bb3574361028051526001602052601460406102805120541015610ba1573361028051526003602052600360406102805120541015610b8f57604051602081019160406004843761028051604490606084015b60028210610b7957505050604060c460e08401376101043561012083015261012435610140830152610160428184015282526101808201928284106001600160401b038511176107b65783604052825190209260246101843501806101843511610b5f574210610aee5760405163394a177360e21b815261012435600482015284906020816024817f00000000000000000000000000000000000000000000000000000000000000006001600160a01b03165afa90811561019b576102805191610ab4575b508015610a95575b610a3e57604051636d9833e360e01b81526101043560048201526020816024817f00000000000000000000000000000000000000000000000000000000000000006001600160a01b03165afa90811561019b576102805191610a04575b50156109a65760405160208101610144358152610164356040830152604082526104e28261150d565b905190206040516305e9aab760e41b81526001600160a01b0391821660048201529060a090829060249082907f0000000000000000000000000000000000000000000000000000000000000000165afa90811561019b576102805191610937575b5051156108e657604051610556816114f2565b610104358152610124356020820152610144356040820152610184356060820152436080820152604051906334baeab960e01b82526040600480840137610280516044908382015b600282106108d057505050604060c4808401376102805161010483015b600582106108ba5750602091508290506101a4817f00000000000000000000000000000000000000000000000000000000000000006001600160a01b03165afa90811561019b576102805191610880575b50156107d0577f00000000000000000000000000000000000000000000000000000000000000006001600160a01b03163b1561018d57604051632c00028760e01b81526101243560048201526102805190919082602481837f00000000000000000000000000000000000000000000000000000000000000006001600160a01b03165af1801561019b5761079d575b6020906101243561028051526002825260406102805120600160ff19825416179055604051828101916101243583524260408301524460608301526080820152608081526106e8816114f2565b51902043610280515260018252604061028051206107068154611579565b905533610280515260038252604061028051206107238154611579565b905561073134600454611549565b6004556040518281019082825268616e6f6e796d6f757360b81b60408201526029815261075d8161150d565b5190207f85954cd8ed3fb3d657e8a27577a05fec17ace59c9180c95ed3db4d5bc9f45e13604080514281524386820152a260016102805155604051908152f35b6001600160401b0382116107b65760209160405261069b565b634e487b7160e01b61028051526041600452602461028051fd5b6000805160206116a0833981519152608060405160408152601c60408201527f496e76616c6964207a65726f2d6b6e6f776c656467652070726f6f66000000006060820152426020820152a260008051602061168083398151915260a060405160608152601760608201527f496e76616c69642070726f6f6620617474656d707465640000000000000000006080820152426020820152436040820152a16040516309bde33960e01b8152600490fd5b90506020813d6020116108b2575b8161089b60209383611528565b8101031261018d576108ac9061156c565b8261060c565b3d915061088e565b60208060019285518152019301910190916105bb565b604080828186600195370193019101909161059e565b6000805160206116a0833981519152608060405160408152601060408201526f2ab73a393ab9ba32b21034b9b9bab2b960811b6060820152426020820152a2604051633eb89d5f60e11b8152600490fd5b905060a0813d821161099e575b8161095160a09383611528565b8101031261018d57608060405191610968836114f2565b6109718161156c565b83526020810151602084015260408101516040840152606081015160608401520151608082015282610543565b3d9150610944565b6000805160206116a0833981519152608060405160408152601c60408201527f496e76616c6964206f72207374616c65206d65726b6c6520726f6f74000000006060820152426020820152a2604051639dd854d360e01b8152600490fd5b90506020813d602011610a36575b81610a1f60209383611528565b8101031261018d57610a309061156c565b826104b9565b3d9150610a12565b6000805160206116a08339815191526080604051604081526016604082015275139d5b1b1a599a595c88185b1c9958591e481d5cd95960521b6060820152426020820152a2604051636569570160e11b8152600490fd5b50610124356102805152600260205260ff60406102805120541661045c565b90506020813d602011610ae6575b81610acf60209383611528565b8101031261018d57610ae09061156c565b82610454565b3d9150610ac2565b6000805160206116a08339815191529260a09260408352602a6101c08301527f50726f6f6620746f6f206561726c79202d2066726f6e742d72756e6e696e67206101e083015269383937ba32b1ba34b7b760b11b61020083015242910152a260405163c7e46a1f60e01b8152600490fd5b634e487b7160e01b61028051526011600452602461028051fd5b604080828186600195370193019101909161038f565b60405163a74c1c5f60e01b8152600490fd5b60405163025e5d2160e61b8152600490fd5b60405162976f7560e21b8152600490fd5b3461018d57602036600319011261018d576004356102805152600160205260206040610280512054604051908152f35b3461018d5761028051806003193601126102c157610c3c337f00000000000000000000000000000000000000000000000000000000000000006001600160a01b031614611642565b60008051602061168083398151915260a060405160608152601860608201527f456d657267656e63792073746f702061637469766174656400000000000000006080820152426020820152436040820152a16102805180f35b3461018d5761028051806003193601126102c1576020600454604051908152f35b3461018d5761028051806003193601126102c157439052600160205260806102805160408120546004549060405192835260208301526040820152436060820152f35b3461018d5761028051806003193601126102c1576040517f00000000000000000000000000000000000000000000000000000000000000006001600160a01b03168152602090f35b3461018d5761028051806003193601126102c1577f0000000000000000000000000000000000000000000000000000000000000000610d8a336001600160a01b03831614611642565b60045490610280518080938193826004555af13d15610e63573d6001600160401b0381116107b65760405190610dca601f8201601f191660200183611528565b8152610280513d916020013e5b15610e265760008051602061168083398151915260a060405160608152600e60608201526d2332b2b9903bb4ba34323930bbb760911b6080820152426020820152436040820152a16102805180f35b60405162461bcd60e51b8152602060048201526015602482015274119959481dda5d1a191c985dd85b0819985a5b1959605a1b6044820152606490fd5b610dd7565b3461018d57602036600319011261018d576004356001600160a01b0381169081900361018d576102805152600360205260206040610280512054604051908152f35b3461018d5761028051806003193601126102c157602060405166038d7ea4c680008152f35b3461018d57604036600319011261018d57602060405160018152f35b3461018d5761028051806003193601126102c1576040517f00000000000000000000000000000000000000000000000000000000000000006001600160a01b03168152602090f35b3461018d5761028051806003193601126102c157602060405160148152f35b6101003660031901126102c1576004356001600160401b03811161145457610f7e90369060040161145c565b610200526101805260243580610260526001600160401b0381116114545736602382011215611454578060040135906001600160401b03821161145857602490369260071b0101116102c1576044356001600160401b03811161145457610fe990369060040161145c565b6101c05260c0526064356001600160401b0381116114545761100f903690600401611491565b6101a0526101e0526084356001600160401b03811161145457611036903690600401611491565b60a0526101605260a4356001600160401b0381116114545761105c903690600401611491565b610100526101405260c4356001600160401b03811161145457611083903690600401611491565b6102405260e0526001600160401b0360e435116102c1576110a93660e435600401611491565b61022052610120526110b9611588565b6102605160040135610200519081149081611448575b501561140e576102005166038d7ea4c680009080820291820403610b5f5734106113d057611113611102610200516115ab565b80608052604051806102a052611528565b610200516102a05152601f1961112b610200516115ab565b013660206102a0510137610280516102c0525b610200516102c051101561131f57604051611158816114c1565b611175366111706102c05161020051610180516115c2565b6115e8565b8152602060405191611186836114c1565b816111a06102c05161026051602481600401359101611622565b013583526111bd6102c05161026051602481600401359101611622565b358284015201526111d76102c0516101c05160c0516115c2565b6111eb6102c0516101a0516101e051611632565b356112496112026102c05160a05161016051611632565b35926112186102c0516101005161014051611632565b5061122c6102c0516102405160e051611632565b506112416102c0516102205161012051611632565b5036906115e8565b50816102805152600260205260ff60406102805120541661130d57816102805152600260205260406102805120600160ff198254161790556040519160208301524260408301526060908183015281528060808101106001600160401b036080830111176107b65760808101604052602081519101206102a051516102c05110156112f35760206102c05160051b6102a0510101526112ea6102c051611579565b6102c05261113e565b634e487b7160e01b61028051526032600452602461028051fd5b604051636569570160e11b8152600490fd5b61132b34600454611549565b60045560008051602061168083398151915260a060405160608152601c60608201527f426174636820766572696669636174696f6e20636f6d706c65746564000000006080820152426020820152436040820152a160018061028051556040516020810191602082526102a05151809352604082019260206102a0510190610280515b8181106113bb5784860385f35b825186526020958601959092019183016113ae565b60405162461bcd60e51b8152602060048201526016602482015275496e73756666696369656e742062617463682066656560501b6044820152606490fd5b60405162461bcd60e51b8152602060048201526012602482015271496e76616c69642062617463682073697a6560701b6044820152606490fd5b600a91501115816110cf565b5080fd5b8280fd5b9181601f8401121561148c578235916001600160401b03831161148c576020808501948460061b01011161148c57565b600080fd5b9181601f8401121561148c578235916001600160401b03831161148c576020808501948460051b01011161148c57565b604081019081106001600160401b038211176114dc57604052565b634e487b7160e01b600052604160045260246000fd5b60a081019081106001600160401b038211176114dc57604052565b606081019081106001600160401b038211176114dc57604052565b90601f801991011681019081106001600160401b038211176114dc57604052565b9190820180921161155657565b634e487b7160e01b600052601160045260246000fd5b5190811515820361148c57565b60001981146115565760010190565b600260005414611599576002600055565b604051633ee5aeb560e01b8152600490fd5b6001600160401b0381116114dc5760051b60200190565b91908110156115d25760061b0190565b634e487b7160e01b600052603260045260246000fd5b9190604051926115f7846114c1565b83906040810192831161148c57905b82821061161257505050565b8135815260209182019101611606565b91908110156115d25760071b0190565b91908110156115d25760051b0190565b1561164957565b60405162461bcd60e51b815260206004820152600e60248201526d139bdd08185d5d1a1bdc9a5e995960921b6044820152606490fdfe3d06f124cb35c753111d2fc46dcec6e5c60c12acd1ae102b24ff25962d1bb20ab8c402d4d7a22da2fdbae71d8a5ba27a82685428f2367c4fdb859106f9f3c987a2646970667358221220ea882130a146d845984725d8a088c5f2072d271ace744fc5e695dc9e48eefcc464736f6c63430008140033","opcodes":"PUSH1 0xE0 CALLVALUE PUSH2 0xEC JUMPI PUSH1 0x1F PUSH3 0x1811 CODESIZE DUP2 SWAP1 SUB SWAP2 DUP3 ADD PUSH1 0x1F NOT AND DUP4 ADD SWAP2 PUSH1 0x1 PUSH1 0x1 PUSH1 0x40 SHL SUB DUP4 GT DUP5 DUP5 LT OR PUSH2 0xF1 JUMPI DUP1 DUP5 SWAP3 PUSH1 0x60 SWAP5 PUSH1 0x40 MSTORE DUP4 CODECOPY DUP2 ADD SUB SLT PUSH2 0xEC JUMPI PUSH2 0x48 DUP2 PUSH2 0x107 JUMP JUMPDEST PUSH2 0x60 PUSH1 0x40 PUSH2 0x59 PUSH1 0x20 DUP6 ADD PUSH2 0x107 JUMP JUMPDEST SWAP4 ADD PUSH2 0x107 JUMP JUMPDEST PUSH1 0x1 PUSH1 0x0 SSTORE PUSH1 0x1 PUSH1 0x1 PUSH1 0xA0 SHL SUB SWAP2 DUP3 AND PUSH1 0x80 MSTORE SWAP2 AND PUSH1 0xA0 MSTORE PUSH1 0xC0 MSTORE PUSH1 0x40 MLOAD PUSH2 0x16F5 SWAP1 DUP2 PUSH3 0x11C DUP3 CODECOPY PUSH1 0x80 MLOAD DUP2 DUP2 DUP2 PUSH2 0x119 ADD MSTORE DUP2 DUP2 PUSH2 0x1D9 ADD MSTORE DUP2 DUP2 PUSH2 0x419 ADD MSTORE DUP2 DUP2 PUSH2 0x47E ADD MSTORE DUP2 DUP2 PUSH2 0x510 ADD MSTORE DUP2 DUP2 PUSH2 0x614 ADD MSTORE DUP2 DUP2 PUSH2 0x666 ADD MSTORE PUSH2 0xD12 ADD MSTORE PUSH1 0xA0 MLOAD DUP2 DUP2 DUP2 PUSH2 0x5D1 ADD MSTORE PUSH2 0xF04 ADD MSTORE PUSH1 0xC0 MLOAD DUP2 DUP2 DUP2 PUSH2 0x292 ADD MSTORE DUP2 DUP2 PUSH2 0xC0E ADD MSTORE PUSH2 0xD57 ADD MSTORE RETURN JUMPDEST PUSH1 0x0 DUP1 REVERT JUMPDEST PUSH4 0x4E487B71 PUSH1 0xE0 SHL PUSH1 0x0 MSTORE PUSH1 0x41 PUSH1 0x4 MSTORE PUSH1 0x24 PUSH1 0x0 REVERT JUMPDEST MLOAD SWAP1 PUSH1 0x1 PUSH1 0x1 PUSH1 0xA0 SHL SUB DUP3 AND DUP3 SUB PUSH2 0xEC JUMPI JUMP INVALID PUSH2 0x2E0 PUSH1 0x40 MSTORE PUSH1 0x4 CALLDATASIZE LT ISZERO PUSH2 0x13 JUMPI PUSH1 0x0 DUP1 REVERT JUMPDEST PUSH1 0x0 DUP1 PUSH2 0x280 MSTORE DUP1 CALLDATALOAD PUSH1 0xE0 SHR SWAP1 DUP2 PUSH4 0x23D0F88 EQ PUSH2 0xF52 JUMPI POP DUP1 PUSH4 0x182BAEB2 EQ PUSH2 0xF33 JUMPI DUP1 PUSH4 0x2B7AC3F3 EQ PUSH2 0xEEB JUMPI DUP1 PUSH4 0x2C7E47F4 EQ PUSH2 0xECF JUMPI DUP1 PUSH4 0x32C7BC1C EQ PUSH2 0xEAA JUMPI DUP1 PUSH4 0x3C1401D0 EQ PUSH2 0xE68 JUMPI DUP1 PUSH4 0x476343EE EQ PUSH2 0xD41 JUMPI DUP1 PUSH4 0x4B155B97 EQ PUSH2 0xCF9 JUMPI DUP1 PUSH4 0x4EB620A7 EQ PUSH2 0xCB6 JUMPI DUP1 PUSH4 0x60C6D8AE EQ PUSH2 0xC95 JUMPI DUP1 PUSH4 0x63A599A4 EQ PUSH2 0xBF4 JUMPI DUP1 PUSH4 0x6C9F0328 EQ PUSH2 0xBC4 JUMPI DUP1 PUSH4 0x7960CE39 EQ PUSH2 0x302 JUMPI DUP1 PUSH4 0x9408555E EQ PUSH2 0x2E3 JUMPI DUP1 PUSH4 0xA672B67F EQ PUSH2 0x2C4 JUMPI DUP1 PUSH4 0xC415B95C EQ PUSH2 0x279 JUMPI DUP1 PUSH4 0xD5A4E325 EQ PUSH2 0x1A9 JUMPI PUSH4 0xE9CD3B37 EQ PUSH2 0xEB JUMPI PUSH1 0x0 DUP1 REVERT JUMPDEST CALLVALUE PUSH2 0x18D JUMPI PUSH1 0x20 DUP1 PUSH1 0x3 NOT CALLDATASIZE ADD SLT PUSH2 0x18D JUMPI PUSH1 0x40 MLOAD PUSH4 0x6D9833E3 PUSH1 0xE0 SHL DUP2 MSTORE PUSH1 0x4 DUP1 CALLDATALOAD SWAP1 DUP3 ADD MSTORE DUP2 DUP2 PUSH1 0x24 DUP2 PUSH32 0x0 PUSH1 0x1 PUSH1 0x1 PUSH1 0xA0 SHL SUB AND GAS STATICCALL SWAP1 DUP2 ISZERO PUSH2 0x19B JUMPI PUSH2 0x280 MLOAD SWAP2 PUSH2 0x15F JUMPI JUMPDEST POP PUSH1 0x40 MLOAD SWAP1 ISZERO ISZERO DUP2 MSTORE RETURN JUMPDEST SWAP1 POP DUP2 DUP2 DUP2 RETURNDATASIZE DUP4 GT PUSH2 0x194 JUMPI JUMPDEST PUSH2 0x176 DUP2 DUP4 PUSH2 0x1528 JUMP JUMPDEST DUP2 ADD SUB SLT PUSH2 0x18D JUMPI PUSH2 0x187 SWAP1 PUSH2 0x156C JUMP JUMPDEST CODESIZE PUSH2 0x154 JUMP JUMPDEST PUSH2 0x280 MLOAD DUP1 REVERT JUMPDEST POP RETURNDATASIZE PUSH2 0x16C JUMP JUMPDEST PUSH1 0x40 MLOAD RETURNDATASIZE PUSH2 0x280 MLOAD DUP3 RETURNDATACOPY RETURNDATASIZE SWAP1 REVERT JUMPDEST CALLVALUE PUSH2 0x18D JUMPI PUSH1 0x20 DUP1 PUSH1 0x3 NOT CALLDATASIZE ADD SLT PUSH2 0x18D JUMPI PUSH1 0x40 MLOAD PUSH4 0x394A1773 PUSH1 0xE2 SHL DUP2 MSTORE PUSH1 0x4 DUP1 CALLDATALOAD SWAP1 DUP3 ADD DUP2 SWAP1 MSTORE DUP3 DUP3 PUSH1 0x24 DUP2 PUSH32 0x0 PUSH1 0x1 PUSH1 0x1 PUSH1 0xA0 SHL SUB AND GAS STATICCALL SWAP2 DUP3 ISZERO PUSH2 0x19B JUMPI PUSH2 0x280 MLOAD SWAP3 PUSH2 0x242 JUMPI JUMPDEST POP DUP2 ISZERO PUSH2 0x226 JUMPI POP PUSH1 0x40 MLOAD SWAP1 ISZERO ISZERO DUP2 MSTORE RETURN JUMPDEST SWAP1 POP PUSH2 0x280 MLOAD MSTORE PUSH1 0x2 DUP2 MSTORE PUSH1 0xFF PUSH1 0x40 PUSH2 0x280 MLOAD KECCAK256 SLOAD AND DUP3 PUSH2 0x154 JUMP JUMPDEST SWAP1 SWAP2 POP DUP3 DUP2 DUP2 RETURNDATASIZE DUP4 GT PUSH2 0x272 JUMPI JUMPDEST PUSH2 0x25A DUP2 DUP4 PUSH2 0x1528 JUMP JUMPDEST DUP2 ADD SUB SLT PUSH2 0x18D JUMPI PUSH2 0x26B SWAP1 PUSH2 0x156C JUMP JUMPDEST SWAP1 DUP4 PUSH2 0x214 JUMP JUMPDEST POP RETURNDATASIZE PUSH2 0x250 JUMP JUMPDEST CALLVALUE PUSH2 0x18D JUMPI PUSH2 0x280 MLOAD DUP1 PUSH1 0x3 NOT CALLDATASIZE ADD SLT PUSH2 0x2C1 JUMPI PUSH1 0x40 MLOAD PUSH32 0x0 PUSH1 0x1 PUSH1 0x1 PUSH1 0xA0 SHL SUB AND DUP2 MSTORE PUSH1 0x20 SWAP1 RETURN JUMPDEST DUP1 REVERT JUMPDEST CALLVALUE PUSH2 0x18D JUMPI PUSH2 0x280 MLOAD DUP1 PUSH1 0x3 NOT CALLDATASIZE ADD SLT PUSH2 0x2C1 JUMPI PUSH1 0x20 PUSH1 0x40 MLOAD PUSH1 0x3 DUP2 MSTORE RETURN JUMPDEST CALLVALUE PUSH2 0x18D JUMPI PUSH2 0x280 MLOAD DUP1 PUSH1 0x3 NOT CALLDATASIZE ADD SLT PUSH2 0x2C1 JUMPI PUSH1 0x20 PUSH1 0x40 MLOAD PUSH1 0x64 DUP2 MSTORE RETURN JUMPDEST PUSH2 0x1A0 DUP1 PUSH1 0x3 NOT CALLDATASIZE ADD SLT PUSH2 0x18D JUMPI CALLDATASIZE PUSH1 0x44 GT PUSH2 0x18D JUMPI CALLDATASIZE PUSH1 0xC4 GT PUSH2 0x18D JUMPI CALLDATASIZE PUSH2 0x104 GT PUSH2 0x18D JUMPI PUSH2 0x331 PUSH2 0x1588 JUMP JUMPDEST PUSH7 0x38D7EA4C68000 CALLVALUE LT PUSH2 0xBB3 JUMPI NUMBER PUSH2 0x280 MLOAD MSTORE PUSH1 0x1 PUSH1 0x20 MSTORE PUSH1 0x14 PUSH1 0x40 PUSH2 0x280 MLOAD KECCAK256 SLOAD LT ISZERO PUSH2 0xBA1 JUMPI CALLER PUSH2 0x280 MLOAD MSTORE PUSH1 0x3 PUSH1 0x20 MSTORE PUSH1 0x3 PUSH1 0x40 PUSH2 0x280 MLOAD KECCAK256 SLOAD LT ISZERO PUSH2 0xB8F JUMPI PUSH1 0x40 MLOAD PUSH1 0x20 DUP2 ADD SWAP2 PUSH1 0x40 PUSH1 0x4 DUP5 CALLDATACOPY PUSH2 0x280 MLOAD PUSH1 0x44 SWAP1 PUSH1 0x60 DUP5 ADD JUMPDEST PUSH1 0x2 DUP3 LT PUSH2 0xB79 JUMPI POP POP POP PUSH1 0x40 PUSH1 0xC4 PUSH1 0xE0 DUP5 ADD CALLDATACOPY PUSH2 0x104 CALLDATALOAD PUSH2 0x120 DUP4 ADD MSTORE PUSH2 0x124 CALLDATALOAD PUSH2 0x140 DUP4 ADD MSTORE PUSH2 0x160 TIMESTAMP DUP2 DUP5 ADD MSTORE DUP3 MSTORE PUSH2 0x180 DUP3 ADD SWAP3 DUP3 DUP5 LT PUSH1 0x1 PUSH1 0x1 PUSH1 0x40 SHL SUB DUP6 GT OR PUSH2 0x7B6 JUMPI DUP4 PUSH1 0x40 MSTORE DUP3 MLOAD SWAP1 KECCAK256 SWAP3 PUSH1 0x24 PUSH2 0x184 CALLDATALOAD ADD DUP1 PUSH2 0x184 CALLDATALOAD GT PUSH2 0xB5F JUMPI TIMESTAMP LT PUSH2 0xAEE JUMPI PUSH1 0x40 MLOAD PUSH4 0x394A1773 PUSH1 0xE2 SHL DUP2 MSTORE PUSH2 0x124 CALLDATALOAD PUSH1 0x4 DUP3 ADD MSTORE DUP5 SWAP1 PUSH1 0x20 DUP2 PUSH1 0x24 DUP2 PUSH32 0x0 PUSH1 0x1 PUSH1 0x1 PUSH1 0xA0 SHL SUB AND GAS STATICCALL SWAP1 DUP2 ISZERO PUSH2 0x19B JUMPI PUSH2 0x280 MLOAD SWAP2 PUSH2 0xAB4 JUMPI JUMPDEST POP DUP1 ISZERO PUSH2 0xA95 JUMPI JUMPDEST PUSH2 0xA3E JUMPI PUSH1 0x40 MLOAD PUSH4 0x6D9833E3 PUSH1 0xE0 SHL DUP2 MSTORE PUSH2 0x104 CALLDATALOAD PUSH1 0x4 DUP3 ADD MSTORE PUSH1 0x20 DUP2 PUSH1 0x24 DUP2 PUSH32 0x0 PUSH1 0x1 PUSH1 0x1 PUSH1 0xA0 SHL SUB AND GAS STATICCALL SWAP1 DUP2 ISZERO PUSH2 0x19B JUMPI PUSH2 0x280 MLOAD SWAP2 PUSH2 0xA04 JUMPI JUMPDEST POP ISZERO PUSH2 0x9A6 JUMPI PUSH1 0x40 MLOAD PUSH1 0x20 DUP2 ADD PUSH2 0x144 CALLDATALOAD DUP2 MSTORE PUSH2 0x164 CALLDATALOAD PUSH1 0x40 DUP4 ADD MSTORE PUSH1 0x40 DUP3 MSTORE PUSH2 0x4E2 DUP3 PUSH2 0x150D JUMP JUMPDEST SWAP1 MLOAD SWAP1 KECCAK256 PUSH1 0x40 MLOAD PUSH4 0x5E9AAB7 PUSH1 0xE4 SHL DUP2 MSTORE PUSH1 0x1 PUSH1 0x1 PUSH1 0xA0 SHL SUB SWAP2 DUP3 AND PUSH1 0x4 DUP3 ADD MSTORE SWAP1 PUSH1 0xA0 SWAP1 DUP3 SWAP1 PUSH1 0x24 SWAP1 DUP3 SWAP1 PUSH32 0x0 AND GAS STATICCALL SWAP1 DUP2 ISZERO PUSH2 0x19B JUMPI PUSH2 0x280 MLOAD SWAP2 PUSH2 0x937 JUMPI JUMPDEST POP MLOAD ISZERO PUSH2 0x8E6 JUMPI PUSH1 0x40 MLOAD PUSH2 0x556 DUP2 PUSH2 0x14F2 JUMP JUMPDEST PUSH2 0x104 CALLDATALOAD DUP2 MSTORE PUSH2 0x124 CALLDATALOAD PUSH1 0x20 DUP3 ADD MSTORE PUSH2 0x144 CALLDATALOAD PUSH1 0x40 DUP3 ADD MSTORE PUSH2 0x184 CALLDATALOAD PUSH1 0x60 DUP3 ADD MSTORE NUMBER PUSH1 0x80 DUP3 ADD MSTORE PUSH1 0x40 MLOAD SWAP1 PUSH4 0x34BAEAB9 PUSH1 0xE0 SHL DUP3 MSTORE PUSH1 0x40 PUSH1 0x4 DUP1 DUP5 ADD CALLDATACOPY PUSH2 0x280 MLOAD PUSH1 0x44 SWAP1 DUP4 DUP3 ADD JUMPDEST PUSH1 0x2 DUP3 LT PUSH2 0x8D0 JUMPI POP POP POP PUSH1 0x40 PUSH1 0xC4 DUP1 DUP5 ADD CALLDATACOPY PUSH2 0x280 MLOAD PUSH2 0x104 DUP4 ADD JUMPDEST PUSH1 0x5 DUP3 LT PUSH2 0x8BA JUMPI POP PUSH1 0x20 SWAP2 POP DUP3 SWAP1 POP PUSH2 0x1A4 DUP2 PUSH32 0x0 PUSH1 0x1 PUSH1 0x1 PUSH1 0xA0 SHL SUB AND GAS STATICCALL SWAP1 DUP2 ISZERO PUSH2 0x19B JUMPI PUSH2 0x280 MLOAD SWAP2 PUSH2 0x880 JUMPI JUMPDEST POP ISZERO PUSH2 0x7D0 JUMPI PUSH32 0x0 PUSH1 0x1 PUSH1 0x1 PUSH1 0xA0 SHL SUB AND EXTCODESIZE ISZERO PUSH2 0x18D JUMPI PUSH1 0x40 MLOAD PUSH4 0x2C000287 PUSH1 0xE0 SHL DUP2 MSTORE PUSH2 0x124 CALLDATALOAD PUSH1 0x4 DUP3 ADD MSTORE PUSH2 0x280 MLOAD SWAP1 SWAP2 SWAP1 DUP3 PUSH1 0x24 DUP2 DUP4 PUSH32 0x0 PUSH1 0x1 PUSH1 0x1 PUSH1 0xA0 SHL SUB AND GAS CALL DUP1 ISZERO PUSH2 0x19B JUMPI PUSH2 0x79D JUMPI JUMPDEST PUSH1 0x20 SWAP1 PUSH2 0x124 CALLDATALOAD PUSH2 0x280 MLOAD MSTORE PUSH1 0x2 DUP3 MSTORE PUSH1 0x40 PUSH2 0x280 MLOAD KECCAK256 PUSH1 0x1 PUSH1 0xFF NOT DUP3 SLOAD AND OR SWAP1 SSTORE PUSH1 0x40 MLOAD DUP3 DUP2 ADD SWAP2 PUSH2 0x124 CALLDATALOAD DUP4 MSTORE TIMESTAMP PUSH1 0x40 DUP4 ADD MSTORE PREVRANDAO PUSH1 0x60 DUP4 ADD MSTORE PUSH1 0x80 DUP3 ADD MSTORE PUSH1 0x80 DUP2 MSTORE PUSH2 0x6E8 DUP2 PUSH2 0x14F2 JUMP JUMPDEST MLOAD SWAP1 KECCAK256 NUMBER PUSH2 0x280 MLOAD MSTORE PUSH1 0x1 DUP3 MSTORE PUSH1 0x40 PUSH2 0x280 MLOAD KECCAK256 PUSH2 0x706 DUP2 SLOAD PUSH2 0x1579 JUMP JUMPDEST SWAP1 SSTORE CALLER PUSH2 0x280 MLOAD MSTORE PUSH1 0x3 DUP3 MSTORE PUSH1 0x40 PUSH2 0x280 MLOAD KECCAK256 PUSH2 0x723 DUP2 SLOAD PUSH2 0x1579 JUMP JUMPDEST SWAP1 SSTORE PUSH2 0x731 CALLVALUE PUSH1 0x4 SLOAD PUSH2 0x1549 JUMP JUMPDEST PUSH1 0x4 SSTORE PUSH1 0x40 MLOAD DUP3 DUP2 ADD SWAP1 DUP3 DUP3 MSTORE PUSH9 0x616E6F6E796D6F7573 PUSH1 0xB8 SHL PUSH1 0x40 DUP3 ADD MSTORE PUSH1 0x29 DUP2 MSTORE PUSH2 0x75D DUP2 PUSH2 0x150D JUMP JUMPDEST MLOAD SWAP1 KECCAK256 PUSH32 0x85954CD8ED3FB3D657E8A27577A05FEC17ACE59C9180C95ED3DB4D5BC9F45E13 PUSH1 0x40 DUP1 MLOAD TIMESTAMP DUP2 MSTORE NUMBER DUP7 DUP3 ADD MSTORE LOG2 PUSH1 0x1 PUSH2 0x280 MLOAD SSTORE PUSH1 0x40 MLOAD SWAP1 DUP2 MSTORE RETURN JUMPDEST PUSH1 0x1 PUSH1 0x1 PUSH1 0x40 SHL SUB DUP3 GT PUSH2 0x7B6 JUMPI PUSH1 0x20 SWAP2 PUSH1 0x40 MSTORE PUSH2 0x69B JUMP JUMPDEST PUSH4 0x4E487B71 PUSH1 0xE0 SHL PUSH2 0x280 MLOAD MSTORE PUSH1 0x41 PUSH1 0x4 MSTORE PUSH1 0x24 PUSH2 0x280 MLOAD REVERT JUMPDEST PUSH1 0x0 DUP1 MLOAD PUSH1 0x20 PUSH2 0x16A0 DUP4 CODECOPY DUP2 MLOAD SWAP2 MSTORE PUSH1 0x80 PUSH1 0x40 MLOAD PUSH1 0x40 DUP2 MSTORE PUSH1 0x1C PUSH1 0x40 DUP3 ADD MSTORE PUSH32 0x496E76616C6964207A65726F2D6B6E6F776C656467652070726F6F6600000000 PUSH1 0x60 DUP3 ADD MSTORE TIMESTAMP PUSH1 0x20 DUP3 ADD MSTORE LOG2 PUSH1 0x0 DUP1 MLOAD PUSH1 0x20 PUSH2 0x1680 DUP4 CODECOPY DUP2 MLOAD SWAP2 MSTORE PUSH1 0xA0 PUSH1 0x40 MLOAD PUSH1 0x60 DUP2 MSTORE PUSH1 0x17 PUSH1 0x60 DUP3 ADD MSTORE PUSH32 0x496E76616C69642070726F6F6620617474656D70746564000000000000000000 PUSH1 0x80 DUP3 ADD MSTORE TIMESTAMP PUSH1 0x20 DUP3 ADD MSTORE NUMBER PUSH1 0x40 DUP3 ADD MSTORE LOG1 PUSH1 0x40 MLOAD PUSH4 0x9BDE339 PUSH1 0xE0 SHL DUP2 MSTORE PUSH1 0x4 SWAP1 REVERT JUMPDEST SWAP1 POP PUSH1 0x20 DUP2 RETURNDATASIZE PUSH1 0x20 GT PUSH2 0x8B2 JUMPI JUMPDEST DUP2 PUSH2 0x89B PUSH1 0x20 SWAP4 DUP4 PUSH2 0x1528 JUMP JUMPDEST DUP2 ADD SUB SLT PUSH2 0x18D JUMPI PUSH2 0x8AC SWAP1 PUSH2 0x156C JUMP JUMPDEST DUP3 PUSH2 0x60C JUMP JUMPDEST RETURNDATASIZE SWAP2 POP PUSH2 0x88E JUMP JUMPDEST PUSH1 0x20 DUP1 PUSH1 0x1 SWAP3 DUP6 MLOAD DUP2 MSTORE ADD SWAP4 ADD SWAP2 ADD SWAP1 SWAP2 PUSH2 0x5BB JUMP JUMPDEST PUSH1 0x40 DUP1 DUP3 DUP2 DUP7 PUSH1 0x1 SWAP6 CALLDATACOPY ADD SWAP4 ADD SWAP2 ADD SWAP1 SWAP2 PUSH2 0x59E JUMP JUMPDEST PUSH1 0x0 DUP1 MLOAD PUSH1 0x20 PUSH2 0x16A0 DUP4 CODECOPY DUP2 MLOAD SWAP2 MSTORE PUSH1 0x80 PUSH1 0x40 MLOAD PUSH1 0x40 DUP2 MSTORE PUSH1 0x10 PUSH1 0x40 DUP3 ADD MSTORE PUSH16 0x2AB73A393AB9BA32B21034B9B9BAB2B9 PUSH1 0x81 SHL PUSH1 0x60 DUP3 ADD MSTORE TIMESTAMP PUSH1 0x20 DUP3 ADD MSTORE LOG2 PUSH1 0x40 MLOAD PUSH4 0x3EB89D5F PUSH1 0xE1 SHL DUP2 MSTORE PUSH1 0x4 SWAP1 REVERT JUMPDEST SWAP1 POP PUSH1 0xA0 DUP2 RETURNDATASIZE DUP3 GT PUSH2 0x99E JUMPI JUMPDEST DUP2 PUSH2 0x951 PUSH1 0xA0 SWAP4 DUP4 PUSH2 0x1528 JUMP JUMPDEST DUP2 ADD SUB SLT PUSH2 0x18D JUMPI PUSH1 0x80 PUSH1 0x40 MLOAD SWAP2 PUSH2 0x968 DUP4 PUSH2 0x14F2 JUMP JUMPDEST PUSH2 0x971 DUP2 PUSH2 0x156C JUMP JUMPDEST DUP4 MSTORE PUSH1 0x20 DUP2 ADD MLOAD PUSH1 0x20 DUP5 ADD MSTORE PUSH1 0x40 DUP2 ADD MLOAD PUSH1 0x40 DUP5 ADD MSTORE PUSH1 0x60 DUP2 ADD MLOAD PUSH1 0x60 DUP5 ADD MSTORE ADD MLOAD PUSH1 0x80 DUP3 ADD MSTORE DUP3 PUSH2 0x543 JUMP JUMPDEST RETURNDATASIZE SWAP2 POP PUSH2 0x944 JUMP JUMPDEST PUSH1 0x0 DUP1 MLOAD PUSH1 0x20 PUSH2 0x16A0 DUP4 CODECOPY DUP2 MLOAD SWAP2 MSTORE PUSH1 0x80 PUSH1 0x40 MLOAD PUSH1 0x40 DUP2 MSTORE PUSH1 0x1C PUSH1 0x40 DUP3 ADD MSTORE PUSH32 0x496E76616C6964206F72207374616C65206D65726B6C6520726F6F7400000000 PUSH1 0x60 DUP3 ADD MSTORE TIMESTAMP PUSH1 0x20 DUP3 ADD MSTORE LOG2 PUSH1 0x40 MLOAD PUSH4 0x9DD854D3 PUSH1 0xE0 SHL DUP2 MSTORE PUSH1 0x4 SWAP1 REVERT JUMPDEST SWAP1 POP PUSH1 0x20 DUP2 RETURNDATASIZE PUSH1 0x20 GT PUSH2 0xA36 JUMPI JUMPDEST DUP2 PUSH2 0xA1F PUSH1 0x20 SWAP4 DUP4 PUSH2 0x1528 JUMP JUMPDEST DUP2 ADD SUB SLT PUSH2 0x18D JUMPI PUSH2 0xA30 SWAP1 PUSH2 0x156C JUMP JUMPDEST DUP3 PUSH2 0x4B9 JUMP JUMPDEST RETURNDATASIZE SWAP2 POP PUSH2 0xA12 JUMP JUMPDEST PUSH1 0x0 DUP1 MLOAD PUSH1 0x20 PUSH2 0x16A0 DUP4 CODECOPY DUP2 MLOAD SWAP2 MSTORE PUSH1 0x80 PUSH1 0x40 MLOAD PUSH1 0x40 DUP2 MSTORE PUSH1 0x16 PUSH1 0x40 DUP3 ADD MSTORE PUSH22 0x139D5B1B1A599A595C88185B1C9958591E481D5CD959 PUSH1 0x52 SHL PUSH1 0x60 DUP3 ADD MSTORE TIMESTAMP PUSH1 0x20 DUP3 ADD MSTORE LOG2 PUSH1 0x40 MLOAD PUSH4 0x65695701 PUSH1 0xE1 SHL DUP2 MSTORE PUSH1 0x4 SWAP1 REVERT JUMPDEST POP PUSH2 0x124 CALLDATALOAD PUSH2 0x280 MLOAD MSTORE PUSH1 0x2 PUSH1 0x20 MSTORE PUSH1 0xFF PUSH1 0x40 PUSH2 0x280 MLOAD KECCAK256 SLOAD AND PUSH2 0x45C JUMP JUMPDEST SWAP1 POP PUSH1 0x20 DUP2 RETURNDATASIZE PUSH1 0x20 GT PUSH2 0xAE6 JUMPI JUMPDEST DUP2 PUSH2 0xACF PUSH1 0x20 SWAP4 DUP4 PUSH2 0x1528 JUMP JUMPDEST DUP2 ADD SUB SLT PUSH2 0x18D JUMPI PUSH2 0xAE0 SWAP1 PUSH2 0x156C JUMP JUMPDEST DUP3 PUSH2 0x454 JUMP JUMPDEST RETURNDATASIZE SWAP2 POP PUSH2 0xAC2 JUMP JUMPDEST PUSH1 0x0 DUP1 MLOAD PUSH1 0x20 PUSH2 0x16A0 DUP4 CODECOPY DUP2 MLOAD SWAP2 MSTORE SWAP3 PUSH1 0xA0 SWAP3 PUSH1 0x40 DUP4 MSTORE PUSH1 0x2A PUSH2 0x1C0 DUP4 ADD MSTORE PUSH32 0x50726F6F6620746F6F206561726C79202D2066726F6E742D72756E6E696E6720 PUSH2 0x1E0 DUP4 ADD MSTORE PUSH10 0x383937BA32B1BA34B7B7 PUSH1 0xB1 SHL PUSH2 0x200 DUP4 ADD MSTORE TIMESTAMP SWAP2 ADD MSTORE LOG2 PUSH1 0x40 MLOAD PUSH4 0xC7E46A1F PUSH1 0xE0 SHL DUP2 MSTORE PUSH1 0x4 SWAP1 REVERT JUMPDEST PUSH4 0x4E487B71 PUSH1 0xE0 SHL PUSH2 0x280 MLOAD MSTORE PUSH1 0x11 PUSH1 0x4 MSTORE PUSH1 0x24 PUSH2 0x280 MLOAD REVERT JUMPDEST PUSH1 0x40 DUP1 DUP3 DUP2 DUP7 PUSH1 0x1 SWAP6 CALLDATACOPY ADD SWAP4 ADD SWAP2 ADD SWAP1 SWAP2 PUSH2 0x38F JUMP JUMPDEST PUSH1 0x40 MLOAD PUSH4 0xA74C1C5F PUSH1 0xE0 SHL DUP2 MSTORE PUSH1 0x4 SWAP1 REVERT JUMPDEST PUSH1 0x40 MLOAD PUSH4 0x25E5D21 PUSH1 0xE6 SHL DUP2 MSTORE PUSH1 0x4 SWAP1 REVERT JUMPDEST PUSH1 0x40 MLOAD PUSH3 0x976F75 PUSH1 0xE2 SHL DUP2 MSTORE PUSH1 0x4 SWAP1 REVERT JUMPDEST CALLVALUE PUSH2 0x18D JUMPI PUSH1 0x20 CALLDATASIZE PUSH1 0x3 NOT ADD SLT PUSH2 0x18D JUMPI PUSH1 0x4 CALLDATALOAD PUSH2 0x280 MLOAD MSTORE PUSH1 0x1 PUSH1 0x20 MSTORE PUSH1 0x20 PUSH1 0x40 PUSH2 0x280 MLOAD KECCAK256 SLOAD PUSH1 0x40 MLOAD SWAP1 DUP2 MSTORE RETURN JUMPDEST CALLVALUE PUSH2 0x18D JUMPI PUSH2 0x280 MLOAD DUP1 PUSH1 0x3 NOT CALLDATASIZE ADD SLT PUSH2 0x2C1 JUMPI PUSH2 0xC3C CALLER PUSH32 0x0 PUSH1 0x1 PUSH1 0x1 PUSH1 0xA0 SHL SUB AND EQ PUSH2 0x1642 JUMP JUMPDEST PUSH1 0x0 DUP1 MLOAD PUSH1 0x20 PUSH2 0x1680 DUP4 CODECOPY DUP2 MLOAD SWAP2 MSTORE PUSH1 0xA0 PUSH1 0x40 MLOAD PUSH1 0x60 DUP2 MSTORE PUSH1 0x18 PUSH1 0x60 DUP3 ADD MSTORE PUSH32 0x456D657267656E63792073746F70206163746976617465640000000000000000 PUSH1 0x80 DUP3 ADD MSTORE TIMESTAMP PUSH1 0x20 DUP3 ADD MSTORE NUMBER PUSH1 0x40 DUP3 ADD MSTORE LOG1 PUSH2 0x280 MLOAD DUP1 RETURN JUMPDEST CALLVALUE PUSH2 0x18D JUMPI PUSH2 0x280 MLOAD DUP1 PUSH1 0x3 NOT CALLDATASIZE ADD SLT PUSH2 0x2C1 JUMPI PUSH1 0x20 PUSH1 0x4 SLOAD PUSH1 0x40 MLOAD SWAP1 DUP2 MSTORE RETURN JUMPDEST CALLVALUE PUSH2 0x18D JUMPI PUSH2 0x280 MLOAD DUP1 PUSH1 0x3 NOT CALLDATASIZE ADD SLT PUSH2 0x2C1 JUMPI NUMBER SWAP1 MSTORE PUSH1 0x1 PUSH1 0x20 MSTORE PUSH1 0x80 PUSH2 0x280 MLOAD PUSH1 0x40 DUP2 KECCAK256 SLOAD PUSH1 0x4 SLOAD SWAP1 PUSH1 0x40 MLOAD SWAP3 DUP4 MSTORE PUSH1 0x20 DUP4 ADD MSTORE PUSH1 0x40 DUP3 ADD MSTORE NUMBER PUSH1 0x60 DUP3 ADD MSTORE RETURN JUMPDEST CALLVALUE PUSH2 0x18D JUMPI PUSH2 0x280 MLOAD DUP1 PUSH1 0x3 NOT CALLDATASIZE ADD SLT PUSH2 0x2C1 JUMPI PUSH1 0x40 MLOAD PUSH32 0x0 PUSH1 0x1 PUSH1 0x1 PUSH1 0xA0 SHL SUB AND DUP2 MSTORE PUSH1 0x20 SWAP1 RETURN JUMPDEST CALLVALUE PUSH2 0x18D JUMPI PUSH2 0x280 MLOAD DUP1 PUSH1 0x3 NOT CALLDATASIZE ADD SLT PUSH2 0x2C1 JUMPI PUSH32 0x0 PUSH2 0xD8A CALLER PUSH1 0x1 PUSH1 0x1 PUSH1 0xA0 SHL SUB DUP4 AND EQ PUSH2 0x1642 JUMP JUMPDEST PUSH1 0x4 SLOAD SWAP1 PUSH2 0x280 MLOAD DUP1 DUP1 SWAP4 DUP2 SWAP4 DUP3 PUSH1 0x4 SSTORE GAS CALL RETURNDATASIZE ISZERO PUSH2 0xE63 JUMPI RETURNDATASIZE PUSH1 0x1 PUSH1 0x1 PUSH1 0x40 SHL SUB DUP2 GT PUSH2 0x7B6 JUMPI PUSH1 0x40 MLOAD SWAP1 PUSH2 0xDCA PUSH1 0x1F DUP3 ADD PUSH1 0x1F NOT AND PUSH1 0x20 ADD DUP4 PUSH2 0x1528 JUMP JUMPDEST DUP2 MSTORE PUSH2 0x280 MLOAD RETURNDATASIZE SWAP2 PUSH1 0x20 ADD RETURNDATACOPY JUMPDEST ISZERO PUSH2 0xE26 JUMPI PUSH1 0x0 DUP1 MLOAD PUSH1 0x20 PUSH2 0x1680 DUP4 CODECOPY DUP2 MLOAD SWAP2 MSTORE PUSH1 0xA0 PUSH1 0x40 MLOAD PUSH1 0x60 DUP2 MSTORE PUSH1 0xE PUSH1 0x60 DUP3 ADD MSTORE PUSH14 0x2332B2B9903BB4BA34323930BBB7 PUSH1 0x91 SHL PUSH1 0x80 DUP3 ADD MSTORE TIMESTAMP PUSH1 0x20 DUP3 ADD MSTORE NUMBER PUSH1 0x40 DUP3 ADD MSTORE LOG1 PUSH2 0x280 MLOAD DUP1 RETURN JUMPDEST PUSH1 0x40 MLOAD PUSH3 0x461BCD PUSH1 0xE5 SHL DUP2 MSTORE PUSH1 0x20 PUSH1 0x4 DUP3 ADD MSTORE PUSH1 0x15 PUSH1 0x24 DUP3 ADD MSTORE PUSH21 0x119959481DDA5D1A191C985DD85B0819985A5B1959 PUSH1 0x5A SHL PUSH1 0x44 DUP3 ADD MSTORE PUSH1 0x64 SWAP1 REVERT JUMPDEST PUSH2 0xDD7 JUMP JUMPDEST CALLVALUE PUSH2 0x18D JUMPI PUSH1 0x20 CALLDATASIZE PUSH1 0x3 NOT ADD SLT PUSH2 0x18D JUMPI PUSH1 0x4 CALLDATALOAD PUSH1 0x1 PUSH1 0x1 PUSH1 0xA0 SHL SUB DUP2 AND SWAP1 DUP2 SWAP1 SUB PUSH2 0x18D JUMPI PUSH2 0x280 MLOAD MSTORE PUSH1 0x3 PUSH1 0x20 MSTORE PUSH1 0x20 PUSH1 0x40 PUSH2 0x280 MLOAD KECCAK256 SLOAD PUSH1 0x40 MLOAD SWAP1 DUP2 MSTORE RETURN JUMPDEST CALLVALUE PUSH2 0x18D JUMPI PUSH2 0x280 MLOAD DUP1 PUSH1 0x3 NOT CALLDATASIZE ADD SLT PUSH2 0x2C1 JUMPI PUSH1 0x20 PUSH1 0x40 MLOAD PUSH7 0x38D7EA4C68000 DUP2 MSTORE RETURN JUMPDEST CALLVALUE PUSH2 0x18D JUMPI PUSH1 0x40 CALLDATASIZE PUSH1 0x3 NOT ADD SLT PUSH2 0x18D JUMPI PUSH1 0x20 PUSH1 0x40 MLOAD PUSH1 0x1 DUP2 MSTORE RETURN JUMPDEST CALLVALUE PUSH2 0x18D JUMPI PUSH2 0x280 MLOAD DUP1 PUSH1 0x3 NOT CALLDATASIZE ADD SLT PUSH2 0x2C1 JUMPI PUSH1 0x40 MLOAD PUSH32 0x0 PUSH1 0x1 PUSH1 0x1 PUSH1 0xA0 SHL SUB AND DUP2 MSTORE PUSH1 0x20 SWAP1 RETURN JUMPDEST CALLVALUE PUSH2 0x18D JUMPI PUSH2 0x280 MLOAD DUP1 PUSH1 0x3 NOT CALLDATASIZE ADD SLT PUSH2 0x2C1 JUMPI PUSH1 0x20 PUSH1 0x40 MLOAD PUSH1 0x14 DUP2 MSTORE RETURN JUMPDEST PUSH2 0x100 CALLDATASIZE PUSH1 0x3 NOT ADD SLT PUSH2 0x2C1 JUMPI PUSH1 0x4 CALLDATALOAD PUSH1 0x1 PUSH1 0x1 PUSH1 0x40 SHL SUB DUP2 GT PUSH2 0x1454 JUMPI PUSH2 0xF7E SWAP1 CALLDATASIZE SWAP1 PUSH1 0x4 ADD PUSH2 0x145C JUMP JUMPDEST PUSH2 0x200 MSTORE PUSH2 0x180 MSTORE PUSH1 0x24 CALLDATALOAD DUP1 PUSH2 0x260 MSTORE PUSH1 0x1 PUSH1 0x1 PUSH1 0x40 SHL SUB DUP2 GT PUSH2 0x1454 JUMPI CALLDATASIZE PUSH1 0x23 DUP3 ADD SLT ISZERO PUSH2 0x1454 JUMPI DUP1 PUSH1 0x4 ADD CALLDATALOAD SWAP1 PUSH1 0x1 PUSH1 0x1 PUSH1 0x40 SHL SUB DUP3 GT PUSH2 0x1458 JUMPI PUSH1 0x24 SWAP1 CALLDATASIZE SWAP3 PUSH1 0x7 SHL ADD ADD GT PUSH2 0x2C1 JUMPI PUSH1 0x44 CALLDATALOAD PUSH1 0x1 PUSH1 0x1 PUSH1 0x40 SHL SUB DUP2 GT PUSH2 0x1454 JUMPI PUSH2 0xFE9 SWAP1 CALLDATASIZE SWAP1 PUSH1 0x4 ADD PUSH2 0x145C JUMP JUMPDEST PUSH2 0x1C0 MSTORE PUSH1 0xC0 MSTORE PUSH1 0x64 CALLDATALOAD PUSH1 0x1 PUSH1 0x1 PUSH1 0x40 SHL SUB DUP2 GT PUSH2 0x1454 JUMPI PUSH2 0x100F SWAP1 CALLDATASIZE SWAP1 PUSH1 0x4 ADD PUSH2 0x1491 JUMP JUMPDEST PUSH2 0x1A0 MSTORE PUSH2 0x1E0 MSTORE PUSH1 0x84 CALLDATALOAD PUSH1 0x1 PUSH1 0x1 PUSH1 0x40 SHL SUB DUP2 GT PUSH2 0x1454 JUMPI PUSH2 0x1036 SWAP1 CALLDATASIZE SWAP1 PUSH1 0x4 ADD PUSH2 0x1491 JUMP JUMPDEST PUSH1 0xA0 MSTORE PUSH2 0x160 MSTORE PUSH1 0xA4 CALLDATALOAD PUSH1 0x1 PUSH1 0x1 PUSH1 0x40 SHL SUB DUP2 GT PUSH2 0x1454 JUMPI PUSH2 0x105C SWAP1 CALLDATASIZE SWAP1 PUSH1 0x4 ADD PUSH2 0x1491 JUMP JUMPDEST PUSH2 0x100 MSTORE PUSH2 0x140 MSTORE PUSH1 0xC4 CALLDATALOAD PUSH1 0x1 PUSH1 0x1 PUSH1 0x40 SHL SUB DUP2 GT PUSH2 0x1454 JUMPI PUSH2 0x1083 SWAP1 CALLDATASIZE SWAP1 PUSH1 0x4 ADD PUSH2 0x1491 JUMP JUMPDEST PUSH2 0x240 MSTORE PUSH1 0xE0 MSTORE PUSH1 0x1 PUSH1 0x1 PUSH1 0x40 SHL SUB PUSH1 0xE4 CALLDATALOAD GT PUSH2 0x2C1 JUMPI PUSH2 0x10A9 CALLDATASIZE PUSH1 0xE4 CALLDATALOAD PUSH1 0x4 ADD PUSH2 0x1491 JUMP JUMPDEST PUSH2 0x220 MSTORE PUSH2 0x120 MSTORE PUSH2 0x10B9 PUSH2 0x1588 JUMP JUMPDEST PUSH2 0x260 MLOAD PUSH1 0x4 ADD CALLDATALOAD PUSH2 0x200 MLOAD SWAP1 DUP2 EQ SWAP1 DUP2 PUSH2 0x1448 JUMPI JUMPDEST POP ISZERO PUSH2 0x140E JUMPI PUSH2 0x200 MLOAD PUSH7 0x38D7EA4C68000 SWAP1 DUP1 DUP3 MUL SWAP2 DUP3 DIV SUB PUSH2 0xB5F JUMPI CALLVALUE LT PUSH2 0x13D0 JUMPI PUSH2 0x1113 PUSH2 0x1102 PUSH2 0x200 MLOAD PUSH2 0x15AB JUMP JUMPDEST DUP1 PUSH1 0x80 MSTORE PUSH1 0x40 MLOAD DUP1 PUSH2 0x2A0 MSTORE PUSH2 0x1528 JUMP JUMPDEST PUSH2 0x200 MLOAD PUSH2 0x2A0 MLOAD MSTORE PUSH1 0x1F NOT PUSH2 0x112B PUSH2 0x200 MLOAD PUSH2 0x15AB JUMP JUMPDEST ADD CALLDATASIZE PUSH1 0x20 PUSH2 0x2A0 MLOAD ADD CALLDATACOPY PUSH2 0x280 MLOAD PUSH2 0x2C0 MSTORE JUMPDEST PUSH2 0x200 MLOAD PUSH2 0x2C0 MLOAD LT ISZERO PUSH2 0x131F JUMPI PUSH1 0x40 MLOAD PUSH2 0x1158 DUP2 PUSH2 0x14C1 JUMP JUMPDEST PUSH2 0x1175 CALLDATASIZE PUSH2 0x1170 PUSH2 0x2C0 MLOAD PUSH2 0x200 MLOAD PUSH2 0x180 MLOAD PUSH2 0x15C2 JUMP JUMPDEST PUSH2 0x15E8 JUMP JUMPDEST DUP2 MSTORE PUSH1 0x20 PUSH1 0x40 MLOAD SWAP2 PUSH2 0x1186 DUP4 PUSH2 0x14C1 JUMP JUMPDEST DUP2 PUSH2 0x11A0 PUSH2 0x2C0 MLOAD PUSH2 0x260 MLOAD PUSH1 0x24 DUP2 PUSH1 0x4 ADD CALLDATALOAD SWAP2 ADD PUSH2 0x1622 JUMP JUMPDEST ADD CALLDATALOAD DUP4 MSTORE PUSH2 0x11BD PUSH2 0x2C0 MLOAD PUSH2 0x260 MLOAD PUSH1 0x24 DUP2 PUSH1 0x4 ADD CALLDATALOAD SWAP2 ADD PUSH2 0x1622 JUMP JUMPDEST CALLDATALOAD DUP3 DUP5 ADD MSTORE ADD MSTORE PUSH2 0x11D7 PUSH2 0x2C0 MLOAD PUSH2 0x1C0 MLOAD PUSH1 0xC0 MLOAD PUSH2 0x15C2 JUMP JUMPDEST PUSH2 0x11EB PUSH2 0x2C0 MLOAD PUSH2 0x1A0 MLOAD PUSH2 0x1E0 MLOAD PUSH2 0x1632 JUMP JUMPDEST CALLDATALOAD PUSH2 0x1249 PUSH2 0x1202 PUSH2 0x2C0 MLOAD PUSH1 0xA0 MLOAD PUSH2 0x160 MLOAD PUSH2 0x1632 JUMP JUMPDEST CALLDATALOAD SWAP3 PUSH2 0x1218 PUSH2 0x2C0 MLOAD PUSH2 0x100 MLOAD PUSH2 0x140 MLOAD PUSH2 0x1632 JUMP JUMPDEST POP PUSH2 0x122C PUSH2 0x2C0 MLOAD PUSH2 0x240 MLOAD PUSH1 0xE0 MLOAD PUSH2 0x1632 JUMP JUMPDEST POP PUSH2 0x1241 PUSH2 0x2C0 MLOAD PUSH2 0x220 MLOAD PUSH2 0x120 MLOAD PUSH2 0x1632 JUMP JUMPDEST POP CALLDATASIZE SWAP1 PUSH2 0x15E8 JUMP JUMPDEST POP DUP2 PUSH2 0x280 MLOAD MSTORE PUSH1 0x2 PUSH1 0x20 MSTORE PUSH1 0xFF PUSH1 0x40 PUSH2 0x280 MLOAD KECCAK256 SLOAD AND PUSH2 0x130D JUMPI DUP2 PUSH2 0x280 MLOAD MSTORE PUSH1 0x2 PUSH1 0x20 MSTORE PUSH1 0x40 PUSH2 0x280 MLOAD KECCAK256 PUSH1 0x1 PUSH1 0xFF NOT DUP3 SLOAD AND OR SWAP1 SSTORE PUSH1 0x40 MLOAD SWAP2 PUSH1 0x20 DUP4 ADD MSTORE TIMESTAMP PUSH1 0x40 DUP4 ADD MSTORE PUSH1 0x60 SWAP1 DUP2 DUP4 ADD MSTORE DUP2 MSTORE DUP1 PUSH1 0x80 DUP2 ADD LT PUSH1 0x1 PUSH1 0x1 PUSH1 0x40 SHL SUB PUSH1 0x80 DUP4 ADD GT OR PUSH2 0x7B6 JUMPI PUSH1 0x80 DUP2 ADD PUSH1 0x40 MSTORE PUSH1 0x20 DUP2 MLOAD SWAP2 ADD KECCAK256 PUSH2 0x2A0 MLOAD MLOAD PUSH2 0x2C0 MLOAD LT ISZERO PUSH2 0x12F3 JUMPI PUSH1 0x20 PUSH2 0x2C0 MLOAD PUSH1 0x5 SHL PUSH2 0x2A0 MLOAD ADD ADD MSTORE PUSH2 0x12EA PUSH2 0x2C0 MLOAD PUSH2 0x1579 JUMP JUMPDEST PUSH2 0x2C0 MSTORE PUSH2 0x113E JUMP JUMPDEST PUSH4 0x4E487B71 PUSH1 0xE0 SHL PUSH2 0x280 MLOAD MSTORE PUSH1 0x32 PUSH1 0x4 MSTORE PUSH1 0x24 PUSH2 0x280 MLOAD REVERT JUMPDEST PUSH1 0x40 MLOAD PUSH4 0x65695701 PUSH1 0xE1 SHL DUP2 MSTORE PUSH1 0x4 SWAP1 REVERT JUMPDEST PUSH2 0x132B CALLVALUE PUSH1 0x4 SLOAD PUSH2 0x1549 JUMP JUMPDEST PUSH1 0x4 SSTORE PUSH1 0x0 DUP1 MLOAD PUSH1 0x20 PUSH2 0x1680 DUP4 CODECOPY DUP2 MLOAD SWAP2 MSTORE PUSH1 0xA0 PUSH1 0x40 MLOAD PUSH1 0x60 DUP2 MSTORE PUSH1 0x1C PUSH1 0x60 DUP3 ADD MSTORE PUSH32 0x426174636820766572696669636174696F6E20636F6D706C6574656400000000 PUSH1 0x80 DUP3 ADD MSTORE TIMESTAMP PUSH1 0x20 DUP3 ADD MSTORE NUMBER PUSH1 0x40 DUP3 ADD MSTORE LOG1 PUSH1 0x1 DUP1 PUSH2 0x280 MLOAD SSTORE PUSH1 0x40 MLOAD PUSH1 0x20 DUP2 ADD SWAP2 PUSH1 0x20 DUP3 MSTORE PUSH2 0x2A0 MLOAD MLOAD DUP1 SWAP4 MSTORE PUSH1 0x40 DUP3 ADD SWAP3 PUSH1 0x20 PUSH2 0x2A0 MLOAD ADD SWAP1 PUSH2 0x280 MLOAD JUMPDEST DUP2 DUP2 LT PUSH2 0x13BB JUMPI DUP5 DUP7 SUB DUP6 RETURN JUMPDEST DUP3 MLOAD DUP7 MSTORE PUSH1 0x20 SWAP6 DUP7 ADD SWAP6 SWAP1 SWAP3 ADD SWAP2 DUP4 ADD PUSH2 0x13AE JUMP JUMPDEST PUSH1 0x40 MLOAD PUSH3 0x461BCD PUSH1 0xE5 SHL DUP2 MSTORE PUSH1 0x20 PUSH1 0x4 DUP3 ADD MSTORE PUSH1 0x16 PUSH1 0x24 DUP3 ADD MSTORE PUSH22 0x496E73756666696369656E7420626174636820666565 PUSH1 0x50 SHL PUSH1 0x44 DUP3 ADD MSTORE PUSH1 0x64 SWAP1 REVERT JUMPDEST PUSH1 0x40 MLOAD PUSH3 0x461BCD PUSH1 0xE5 SHL DUP2 MSTORE PUSH1 0x20 PUSH1 0x4 DUP3 ADD MSTORE PUSH1 0x12 PUSH1 0x24 DUP3 ADD MSTORE PUSH18 0x496E76616C69642062617463682073697A65 PUSH1 0x70 SHL PUSH1 0x44 DUP3 ADD MSTORE PUSH1 0x64 SWAP1 REVERT JUMPDEST PUSH1 0xA SWAP2 POP GT ISZERO DUP2 PUSH2 0x10CF JUMP JUMPDEST POP DUP1 REVERT JUMPDEST DUP3 DUP1 REVERT JUMPDEST SWAP2 DUP2 PUSH1 0x1F DUP5 ADD SLT ISZERO PUSH2 0x148C JUMPI DUP3 CALLDATALOAD SWAP2 PUSH1 0x1 PUSH1 0x1 PUSH1 0x40 SHL SUB DUP4 GT PUSH2 0x148C JUMPI PUSH1 0x20 DUP1 DUP6 ADD SWAP5 DUP5 PUSH1 0x6 SHL ADD ADD GT PUSH2 0x148C JUMPI JUMP JUMPDEST PUSH1 0x0 DUP1 REVERT JUMPDEST SWAP2 DUP2 PUSH1 0x1F DUP5 ADD SLT ISZERO PUSH2 0x148C JUMPI DUP3 CALLDATALOAD SWAP2 PUSH1 0x1 PUSH1 0x1 PUSH1 0x40 SHL SUB DUP4 GT PUSH2 0x148C JUMPI PUSH1 0x20 DUP1 DUP6 ADD SWAP5 DUP5 PUSH1 0x5 SHL ADD ADD GT PUSH2 0x148C JUMPI JUMP JUMPDEST PUSH1 0x40 DUP2 ADD SWAP1 DUP2 LT PUSH1 0x1 PUSH1 0x1 PUSH1 0x40 SHL SUB DUP3 GT OR PUSH2 0x14DC JUMPI PUSH1 0x40 MSTORE JUMP JUMPDEST PUSH4 0x4E487B71 PUSH1 0xE0 SHL PUSH1 0x0 MSTORE PUSH1 0x41 PUSH1 0x4 MSTORE PUSH1 0x24 PUSH1 0x0 REVERT JUMPDEST PUSH1 0xA0 DUP2 ADD SWAP1 DUP2 LT PUSH1 0x1 PUSH1 0x1 PUSH1 0x40 SHL SUB DUP3 GT OR PUSH2 0x14DC JUMPI PUSH1 0x40 MSTORE JUMP JUMPDEST PUSH1 0x60 DUP2 ADD SWAP1 DUP2 LT PUSH1 0x1 PUSH1 0x1 PUSH1 0x40 SHL SUB DUP3 GT OR PUSH2 0x14DC JUMPI PUSH1 0x40 MSTORE JUMP JUMPDEST SWAP1 PUSH1 0x1F DUP1 NOT SWAP2 ADD AND DUP2 ADD SWAP1 DUP2 LT PUSH1 0x1 PUSH1 0x1 PUSH1 0x40 SHL SUB DUP3 GT OR PUSH2 0x14DC JUMPI PUSH1 0x40 MSTORE JUMP JUMPDEST SWAP2 SWAP1 DUP3 ADD DUP1 SWAP3 GT PUSH2 0x1556 JUMPI JUMP JUMPDEST PUSH4 0x4E487B71 PUSH1 0xE0 SHL PUSH1 0x0 MSTORE PUSH1 0x11 PUSH1 0x4 MSTORE PUSH1 0x24 PUSH1 0x0 REVERT JUMPDEST MLOAD SWAP1 DUP2 ISZERO ISZERO DUP3 SUB PUSH2 0x148C JUMPI JUMP JUMPDEST PUSH1 0x0 NOT DUP2 EQ PUSH2 0x1556 JUMPI PUSH1 0x1 ADD SWAP1 JUMP JUMPDEST PUSH1 0x2 PUSH1 0x0 SLOAD EQ PUSH2 0x1599 JUMPI PUSH1 0x2 PUSH1 0x0 SSTORE JUMP JUMPDEST PUSH1 0x40 MLOAD PUSH4 0x3EE5AEB5 PUSH1 0xE0 SHL DUP2 MSTORE PUSH1 0x4 SWAP1 REVERT JUMPDEST PUSH1 0x1 PUSH1 0x1 PUSH1 0x40 SHL SUB DUP2 GT PUSH2 0x14DC JUMPI PUSH1 0x5 SHL PUSH1 0x20 ADD SWAP1 JUMP JUMPDEST SWAP2 SWAP1 DUP2 LT ISZERO PUSH2 0x15D2 JUMPI PUSH1 0x6 SHL ADD SWAP1 JUMP JUMPDEST PUSH4 0x4E487B71 PUSH1 0xE0 SHL PUSH1 0x0 MSTORE PUSH1 0x32 PUSH1 0x4 MSTORE PUSH1 0x24 PUSH1 0x0 REVERT JUMPDEST SWAP2 SWAP1 PUSH1 0x40 MLOAD SWAP3 PUSH2 0x15F7 DUP5 PUSH2 0x14C1 JUMP JUMPDEST DUP4 SWAP1 PUSH1 0x40 DUP2 ADD SWAP3 DUP4 GT PUSH2 0x148C JUMPI SWAP1 JUMPDEST DUP3 DUP3 LT PUSH2 0x1612 JUMPI POP POP POP JUMP JUMPDEST DUP2 CALLDATALOAD DUP2 MSTORE PUSH1 0x20 SWAP2 DUP3 ADD SWAP2 ADD PUSH2 0x1606 JUMP JUMPDEST SWAP2 SWAP1 DUP2 LT ISZERO PUSH2 0x15D2 JUMPI PUSH1 0x7 SHL ADD SWAP1 JUMP JUMPDEST SWAP2 SWAP1 DUP2 LT ISZERO PUSH2 0x15D2 JUMPI PUSH1 0x5 SHL ADD SWAP1 JUMP JUMPDEST ISZERO PUSH2 0x1649 JUMPI JUMP JUMPDEST PUSH1 0x40 MLOAD PUSH3 0x461BCD PUSH1 0xE5 SHL DUP2 MSTORE PUSH1 0x20 PUSH1 0x4 DUP3 ADD MSTORE PUSH1 0xE PUSH1 0x24 DUP3 ADD MSTORE PUSH14 0x139BDD08185D5D1A1BDC9A5E9959 PUSH1 0x92 SHL PUSH1 0x44 DUP3 ADD MSTORE PUSH1 0x64 SWAP1 REVERT INVALID RETURNDATASIZE MOD CALL 0x24 0xCB CALLDATALOAD 0xC7 MSTORE8 GT SAR 0x2F 0xC4 PUSH14 0xCEC6E5C60C12ACD1AE102B24FF25 SWAP7 0x2D SHL 0xB2 EXP 0xB8 0xC4 MUL 0xD4 0xD7 LOG2 0x2D LOG2 REVERT 0xBA 0xE7 SAR DUP11 JUMPDEST LOG2 PUSH27 0x82685428F2367C4FDB859106F9F3C987A2646970667358221220EA DUP9 0x21 ADDRESS LOG1 CHAINID 0xD8 GASLIMIT SWAP9 SELFBALANCE 0x25 0xD8 LOG0 DUP9 0xC5 CALLCODE SMOD 0x2D 0x27 BYTE 0xCE PUSH21 0x4FC5E695DC9E48EEFCC464736F6C63430008140033 "},"methodIdentifiers":{"MAX_PROOFS_PER_BLOCK()":"182baeb2","MERKLE_ROOT_VALIDITY_WINDOW()":"9408555e","MIN_BLOCK_CONFIRMATIONS()":"a672b67f","PROOF_VERIFICATION_FEE()":"32c7bc1c","batchVerifyProofs(uint256[2][],uint256[2][2][],uint256[2][],bytes32[],bytes32[],uint256[],uint256[],uint256[])":"023d0f88","blockProofCount(uint256)":"6c9f0328","emergencyStop()":"63a599a4","feeCollector()":"c415b95c","getSecurityStats()":"4eb620a7","isNullifierSpent(bytes32)":"d5a4e325","isValidMerkleRoot(bytes32)":"e9cd3b37","kycRegistry()":"4b155b97","totalFeesCollected()":"60c6d8ae","userProofCount(address)":"3c1401d0","verifier()":"2b7ac3f3","verifyAccessToken(bytes32,uint256)":"2c7e47f4","verifyAndGrantAnonymousAccess(uint256[2],uint256[2][2],uint256[2],bytes32,bytes32,uint256,uint256,uint256)":"7960ce39","withdrawFees()":"476343ee"}}}}}