{
  "_format": "hh-sol-artifact-1",
  "contractName": "ZKAccessController",
  "sourceName": "contracts/ZKAccessController.sol",
  "abi": [
    {
      "inputs": [
        {
          "internalType": "address",
          "name": "_kycRegistry",
          "type": "address"
        },
        {
          "internalType": "address",
          "name": "_verifier",
          "type": "address"
        }
      ],
      "stateMutability": "nonpayable",
      "type": "constructor"
    },
    {
      "inputs": [
        {
          "internalType": "address",
          "name": "owner",
          "type": "address"
        }
      ],
      "name": "OwnableInvalidOwner",
      "type": "error"
    },
    {
      "inputs": [
        {
          "internalType": "address",
          "name": "account",
          "type": "address"
        }
      ],
      "name": "OwnableUnauthorizedAccount",
      "type": "error"
    },
    {
      "inputs": [],
      "name": "ReentrancyGuardReentrantCall",
      "type": "error"
    },
    {
      "anonymous": false,
      "inputs": [
        {
          "indexed": true,
          "internalType": "address",
          "name": "user",
          "type": "address"
        },
        {
          "indexed": true,
          "internalType": "string",
          "name": "service",
          "type": "string"
        },
        {
          "indexed": false,
          "internalType": "bytes32",
          "name": "nullifierHash",
          "type": "bytes32"
        }
      ],
      "name": "AccessGranted",
      "type": "event"
    },
    {
      "anonymous": false,
      "inputs": [
        {
          "indexed": true,
          "internalType": "address",
          "name": "user",
          "type": "address"
        },
        {
          "indexed": true,
          "internalType": "string",
          "name": "service",
          "type": "string"
        }
      ],
      "name": "AccessRevoked",
      "type": "event"
    },
    {
      "anonymous": false,
      "inputs": [
        {
          "indexed": true,
          "internalType": "address",
          "name": "user",
          "type": "address"
        },
        {
          "indexed": false,
          "internalType": "bytes32",
          "name": "nullifierHash",
          "type": "bytes32"
        },
        {
          "indexed": false,
          "internalType": "uint256",
          "name": "age",
          "type": "uint256"
        }
      ],
      "name": "KYCVerified",
      "type": "event"
    },
    {
      "anonymous": false,
      "inputs": [
        {
          "indexed": true,
          "internalType": "address",
          "name": "previousOwner",
          "type": "address"
        },
        {
          "indexed": true,
          "internalType": "address",
          "name": "newOwner",
          "type": "address"
        }
      ],
      "name": "OwnershipTransferred",
      "type": "event"
    },
    {
      "anonymous": false,
      "inputs": [
        {
          "indexed": true,
          "internalType": "string",
          "name": "service",
          "type": "string"
        },
        {
          "indexed": false,
          "internalType": "bool",
          "name": "enabled",
          "type": "bool"
        },
        {
          "indexed": false,
          "internalType": "uint256",
          "name": "minimumAge",
          "type": "uint256"
        },
        {
          "indexed": false,
          "internalType": "uint256",
          "name": "validityPeriod",
          "type": "uint256"
        }
      ],
      "name": "ServiceConfigured",
      "type": "event"
    },
    {
      "inputs": [
        {
          "internalType": "string",
          "name": "serviceName",
          "type": "string"
        }
      ],
      "name": "accessRestrictedService",
      "outputs": [],
      "stateMutability": "nonpayable",
      "type": "function"
    },
    {
      "inputs": [
        {
          "components": [
            {
              "internalType": "uint256[2]",
              "name": "pA",
              "type": "uint256[2]"
            },
            {
              "internalType": "uint256[2][2]",
              "name": "pB",
              "type": "uint256[2][2]"
            },
            {
              "internalType": "uint256[2]",
              "name": "pC",
              "type": "uint256[2]"
            },
            {
              "internalType": "uint256[4]",
              "name": "publicSignals",
              "type": "uint256[4]"
            }
          ],
          "internalType": "struct ZKAccessController.ProofData[]",
          "name": "proofs",
          "type": "tuple[]"
        },
        {
          "internalType": "string[]",
          "name": "serviceNames",
          "type": "string[]"
        }
      ],
      "name": "batchVerifyAndGrantAccess",
      "outputs": [],
      "stateMutability": "nonpayable",
      "type": "function"
    },
    {
      "inputs": [
        {
          "internalType": "string",
          "name": "serviceName",
          "type": "string"
        },
        {
          "internalType": "bool",
          "name": "enabled",
          "type": "bool"
        },
        {
          "internalType": "uint256",
          "name": "minimumAge",
          "type": "uint256"
        },
        {
          "internalType": "uint256",
          "name": "validityPeriod",
          "type": "uint256"
        }
      ],
      "name": "configureService",
      "outputs": [],
      "stateMutability": "nonpayable",
      "type": "function"
    },
    {
      "inputs": [
        {
          "internalType": "string",
          "name": "serviceName",
          "type": "string"
        }
      ],
      "name": "getServiceConfig",
      "outputs": [
        {
          "internalType": "bool",
          "name": "enabled",
          "type": "bool"
        },
        {
          "internalType": "uint256",
          "name": "minimumAge",
          "type": "uint256"
        },
        {
          "internalType": "uint256",
          "name": "validityPeriod",
          "type": "uint256"
        }
      ],
      "stateMutability": "view",
      "type": "function"
    },
    {
      "inputs": [
        {
          "internalType": "address",
          "name": "user",
          "type": "address"
        },
        {
          "internalType": "string",
          "name": "serviceName",
          "type": "string"
        }
      ],
      "name": "hasAccess",
      "outputs": [
        {
          "internalType": "bool",
          "name": "",
          "type": "bool"
        }
      ],
      "stateMutability": "view",
      "type": "function"
    },
    {
      "inputs": [],
      "name": "kycRegistry",
      "outputs": [
        {
          "internalType": "contract KYCRegistry",
          "name": "",
          "type": "address"
        }
      ],
      "stateMutability": "view",
      "type": "function"
    },
    {
      "inputs": [],
      "name": "owner",
      "outputs": [
        {
          "internalType": "address",
          "name": "",
          "type": "address"
        }
      ],
      "stateMutability": "view",
      "type": "function"
    },
    {
      "inputs": [],
      "name": "renounceOwnership",
      "outputs": [],
      "stateMutability": "nonpayable",
      "type": "function"
    },
    {
      "inputs": [
        {
          "internalType": "address",
          "name": "user",
          "type": "address"
        },
        {
          "internalType": "string",
          "name": "serviceName",
          "type": "string"
        }
      ],
      "name": "revokeAccess",
      "outputs": [],
      "stateMutability": "nonpayable",
      "type": "function"
    },
    {
      "inputs": [
        {
          "internalType": "string",
          "name": "",
          "type": "string"
        }
      ],
      "name": "services",
      "outputs": [
        {
          "internalType": "bool",
          "name": "enabled",
          "type": "bool"
        },
        {
          "internalType": "uint256",
          "name": "minimumAge",
          "type": "uint256"
        },
        {
          "internalType": "uint256",
          "name": "validityPeriod",
          "type": "uint256"
        }
      ],
      "stateMutability": "view",
      "type": "function"
    },
    {
      "inputs": [
        {
          "internalType": "address",
          "name": "newOwner",
          "type": "address"
        }
      ],
      "name": "transferOwnership",
      "outputs": [],
      "stateMutability": "nonpayable",
      "type": "function"
    },
    {
      "inputs": [
        {
          "internalType": "bytes32",
          "name": "",
          "type": "bytes32"
        }
      ],
      "name": "usedNullifiers",
      "outputs": [
        {
          "internalType": "bool",
          "name": "",
          "type": "bool"
        }
      ],
      "stateMutability": "view",
      "type": "function"
    },
    {
      "inputs": [
        {
          "internalType": "address",
          "name": "",
          "type": "address"
        },
        {
          "internalType": "string",
          "name": "",
          "type": "string"
        }
      ],
      "name": "userAccess",
      "outputs": [
        {
          "internalType": "bool",
          "name": "",
          "type": "bool"
        }
      ],
      "stateMutability": "view",
      "type": "function"
    },
    {
      "inputs": [],
      "name": "verifier",
      "outputs": [
        {
          "internalType": "contract Verifier",
          "name": "",
          "type": "address"
        }
      ],
      "stateMutability": "view",
      "type": "function"
    },
    {
      "inputs": [
        {
          "components": [
            {
              "internalType": "uint256[2]",
              "name": "pA",
              "type": "uint256[2]"
            },
            {
              "internalType": "uint256[2][2]",
              "name": "pB",
              "type": "uint256[2][2]"
            },
            {
              "internalType": "uint256[2]",
              "name": "pC",
              "type": "uint256[2]"
            },
            {
              "internalType": "uint256[4]",
              "name": "publicSignals",
              "type": "uint256[4]"
            }
          ],
          "internalType": "struct ZKAccessController.ProofData",
          "name": "proofData",
          "type": "tuple"
        },
        {
          "internalType": "string",
          "name": "serviceName",
          "type": "string"
        }
      ],
      "name": "verifyKYCAndGrantAccess",
      "outputs": [],
      "stateMutability": "nonpayable",
      "type": "function"
    }
  ],
  "bytecode": "0x60c06040523480156200001157600080fd5b506040516200165d3803806200165d8339810160408190526200003491620000f0565b33806200005b57604051631e4fbdf760e01b81526000600482015260240160405180910390fd5b620000668162000083565b50600180556001600160a01b039182166080521660a05262000128565b600080546001600160a01b038381166001600160a01b0319831681178455604051919092169283917f8be0079c531659141344cd1fd0a4f28419497f9722a3daafe3b4186f6b6457e09190a35050565b80516001600160a01b0381168114620000eb57600080fd5b919050565b600080604083850312156200010457600080fd5b6200010f83620000d3565b91506200011f60208401620000d3565b90509250929050565b60805160a0516114fa62000163600039600081816101370152818161046a0152610acc0152600081816101ea0152610bfe01526114fa6000f3fe608060405234801561001057600080fd5b50600436106100f55760003560e01c80638da5cb5b11610097578063cf046db011610066578063cf046db01461029d578063dc670c25146102b0578063f2fde38b146102c3578063f5573f52146102d657600080fd5b80638da5cb5b14610227578063a8ccb29114610238578063af0f427c1461024b578063c6240ff91461025e57600080fd5b80634b11354c116100d35780634b11354c146101d05780634b155b97146101e55780636a44cac91461020c578063715018a61461021f57600080fd5b8063206137aa146100fa5780632b7ac3f3146101325780633017ba0914610171575b600080fd5b61011d610108366004610f9f565b60046020526000908152604090205460ff1681565b60405190151581526020015b60405180910390f35b6101597f000000000000000000000000000000000000000000000000000000000000000081565b6040516001600160a01b039091168152602001610129565b6101b361017f36600461105b565b80516020818301810180516002808352938301929094019190912092905281546001830154929091015460ff909116919083565b604080519315158452602084019290925290820152606001610129565b6101e36101de366004611098565b6102e9565b005b6101597f000000000000000000000000000000000000000000000000000000000000000081565b6101e361021a3660046111c6565b6106d6565b6101e3610774565b6000546001600160a01b0316610159565b61011d6102463660046111c6565b610788565b6101b3610259366004611219565b6107cc565b61011d61026c36600461125b565b6003602090815260009283526040909220815180830184018051928152908401929093019190912091525460ff1681565b6101e36102ab3660046112b7565b610814565b6101e36102be366004611219565b6108fe565b6101e36102d136600461131e565b6109e7565b6101e36102e4366004611340565b610a25565b6102f1610ef8565b82811461033d5760405162461bcd60e51b8152602060048201526015602482015274082e4e4c2f240d8cadccee8d040dad2e6dac2e8c6d605b1b60448201526064015b60405180910390fd5b60005b838110156106c657600283838381811061035c5761035c611384565b905060200281019061036e919061139a565b60405161037c9291906113e1565b9081526040519081900360200190205460ff166103d15760405162461bcd60e51b815260206004820152601360248201527214d95c9d9a58d9481b9bdd08195b98589b1959606a1b6044820152606401610334565b60008585838181106103e5576103e5611384565b905061018002016101000160016004811061040257610402611384565b602090810291909101356000818152600490925260409091205490915060ff16156104685760405162461bcd60e51b8152602060048201526016602482015275139d5b1b1a599a595c88185b1c9958591e481d5cd95960521b6044820152606401610334565b7f00000000000000000000000000000000000000000000000000000000000000006001600160a01b03166343753b4d8787858181106104a9576104a9611384565b905061018002016000018888868181106104c5576104c5611384565b905061018002016040018989878181106104e1576104e1611384565b9050610180020160c00160405180602001604052808c8c8a81811061050857610508611384565b905061018002016101000160006004811061052557610525611384565b60200201358152506040518563ffffffff1660e01b815260040161054c94939291906113f1565b602060405180830381865afa158015610569573d6000803e3d6000fd5b505050506040513d601f19601f8201168201806040525081019061058d919061145f565b6105c95760405162461bcd60e51b815260206004820152600d60248201526c24b73b30b634b210383937b7b360991b6044820152606401610334565b6000818152600460209081526040808320805460ff19166001908117909155338452600390925290912085858581811061060557610605611384565b9050602002810190610617919061139a565b6040516106259291906113e1565b908152604051908190036020019020805491151560ff1990921691909117905583838381811061065757610657611384565b9050602002810190610669919061139a565b6040516106779291906113e1565b6040519081900381208282529033907f2f1eb371e9d8e535e5cd99f2b3f25871e4b824c23bcc16c35d801dfd5941cba59060200160405180910390a350806106be81611492565b915050610340565b506106d060018055565b50505050565b6106de610f22565b6001600160a01b038316600090815260036020526040808220905161070690859085906113e1565b908152604051908190036020018120805492151560ff199093169290921790915561073490839083906113e1565b604051908190038120906001600160a01b038516907f51cbcaaca6ae26944c6280c966a07b04ca5c6766d82ca497ded152579431468d90600090a3505050565b61077c610f22565b6107866000610f4f565b565b6001600160a01b03831660009081526003602052604080822090516107b090859085906113e1565b9081526040519081900360200190205460ff1690509392505050565b600080600080600286866040516107e49291906113e1565b9081526040519081900360200190208054600182015460029092015460ff90911695509093509150509250925092565b61081c610f22565b826002868660405161082f9291906113e1565b908152604051908190036020018120805492151560ff1990931692909217909155829060029061086290889088906113e1565b908152602001604051809103902060010181905550806002868660405161088a9291906113e1565b908152604051908190036020018120600201919091556108ad90869086906113e1565b60408051918290038220851515835260208301859052908201839052907f05a36ceeedd8f1ac24e5dd483515bbb8ef718db3e5e86358c7371ef14f30f7659060600160405180910390a25050505050565b336000908152600360205260409081902090518391839161092290849084906113e1565b9081526040519081900360200190205460ff166109945760405162461bcd60e51b815260206004820152602a60248201527f4b594320766572696669636174696f6e20726571756972656420666f722074686044820152696973207365727669636560b01b6064820152608401610334565b83836040516109a49291906113e1565b604051908190038120600082529033907f2f1eb371e9d8e535e5cd99f2b3f25871e4b824c23bcc16c35d801dfd5941cba59060200160405180910390a350505050565b6109ef610f22565b6001600160a01b038116610a1957604051631e4fbdf760e01b815260006004820152602401610334565b610a2281610f4f565b50565b610a2d610ef8565b60028282604051610a3f9291906113e1565b9081526040519081900360200190205460ff16610a945760405162461bcd60e51b815260206004820152601360248201527214d95c9d9a58d9481b9bdd08195b98589b1959606a1b6044820152606401610334565b6040805160208101825261010085013580825282516343753b4d60e01b815290926101208701359261014088013592610160890135927f00000000000000000000000000000000000000000000000000000000000000006001600160a01b0316926343753b4d92610b13928c929083019160c0840191906004016113f1565b602060405180830381865afa158015610b30573d6000803e3d6000fd5b505050506040513d601f19601f82011682018060405250810190610b54919061145f565b610b905760405162461bcd60e51b815260206004820152600d60248201526c24b73b30b634b210383937b7b360991b6044820152606401610334565b60008381526004602052604090205460ff1615610be85760405162461bcd60e51b8152602060048201526016602482015275139d5b1b1a599a595c88185b1c9958591e481d5cd95960521b6044820152606401610334565b604051636d9833e360e01b8152600481018590527f00000000000000000000000000000000000000000000000000000000000000006001600160a01b031690636d9833e390602401602060405180830381865afa158015610c4d573d6000803e3d6000fd5b505050506040513d601f19601f82011682018060405250810190610c71919061145f565b610cb35760405162461bcd60e51b8152602060048201526013602482015272125b9d985b1a590813595c9adb19481c9bdbdd606a1b6044820152606401610334565b60028686604051610cc59291906113e1565b908152602001604051809103902060010154811015610d265760405162461bcd60e51b815260206004820152601760248201527f41676520726571756972656d656e74206e6f74206d65740000000000000000006044820152606401610334565b60028686604051610d389291906113e1565b90815260200160405180910390206002015460028787604051610d5c9291906113e1565b9081526020016040518091039020600301600085815260200190815260200160002054610d8991906114ab565b421015610dd85760405162461bcd60e51b815260206004820152601960248201527f53657276696365207573656420746f6f20726563656e746c79000000000000006044820152606401610334565b60008381526004602052604090819020805460ff19166001179055514290600290610e0690899089906113e1565b908152604080519182900360209081018320600088815260039182018352838120959095553385529052909120600191610e4390899089906113e1565b9081526040805160209281900383018120805460ff19169415159490941790935585835290820183905233917ff79bdf1b7d434a5250254c74d2900f9edaf4d76396642ddaddcb2d0e65255868910160405180910390a28585604051610eaa9291906113e1565b6040519081900381208482529033907f2f1eb371e9d8e535e5cd99f2b3f25871e4b824c23bcc16c35d801dfd5941cba59060200160405180910390a350505050610ef360018055565b505050565b600260015403610f1b57604051633ee5aeb560e01b815260040160405180910390fd5b6002600155565b6000546001600160a01b031633146107865760405163118cdaa760e01b8152336004820152602401610334565b600080546001600160a01b038381166001600160a01b0319831681178455604051919092169283917f8be0079c531659141344cd1fd0a4f28419497f9722a3daafe3b4186f6b6457e09190a35050565b600060208284031215610fb157600080fd5b5035919050565b634e487b7160e01b600052604160045260246000fd5b600082601f830112610fdf57600080fd5b813567ffffffffffffffff80821115610ffa57610ffa610fb8565b604051601f8301601f19908116603f0116810190828211818310171561102257611022610fb8565b8160405283815286602085880101111561103b57600080fd5b836020870160208301376000602085830101528094505050505092915050565b60006020828403121561106d57600080fd5b813567ffffffffffffffff81111561108457600080fd5b61109084828501610fce565b949350505050565b600080600080604085870312156110ae57600080fd5b843567ffffffffffffffff808211156110c657600080fd5b818701915087601f8301126110da57600080fd5b8135818111156110e957600080fd5b886020610180830285010111156110ff57600080fd5b60209283019650945090860135908082111561111a57600080fd5b818701915087601f83011261112e57600080fd5b81358181111561113d57600080fd5b8860208260051b850101111561115257600080fd5b95989497505060200194505050565b80356001600160a01b038116811461117857600080fd5b919050565b60008083601f84011261118f57600080fd5b50813567ffffffffffffffff8111156111a757600080fd5b6020830191508360208285010111156111bf57600080fd5b9250929050565b6000806000604084860312156111db57600080fd5b6111e484611161565b9250602084013567ffffffffffffffff81111561120057600080fd5b61120c8682870161117d565b9497909650939450505050565b6000806020838503121561122c57600080fd5b823567ffffffffffffffff81111561124357600080fd5b61124f8582860161117d565b90969095509350505050565b6000806040838503121561126e57600080fd5b61127783611161565b9150602083013567ffffffffffffffff81111561129357600080fd5b61129f85828601610fce565b9150509250929050565b8015158114610a2257600080fd5b6000806000806000608086880312156112cf57600080fd5b853567ffffffffffffffff8111156112e657600080fd5b6112f28882890161117d565b9096509450506020860135611306816112a9565b94979396509394604081013594506060013592915050565b60006020828403121561133057600080fd5b61133982611161565b9392505050565b60008060008385036101a081121561135757600080fd5b6101808082121561136757600080fd5b859450840135905067ffffffffffffffff81111561120057600080fd5b634e487b7160e01b600052603260045260246000fd5b6000808335601e198436030181126113b157600080fd5b83018035915067ffffffffffffffff8211156113cc57600080fd5b6020019150368190038213156111bf57600080fd5b8183823760009101908152919050565b61012081016040808784378083018660005b600281101561142057838284379183019190830190600101611403565b505050808560c08501375061010082018360005b6001811015611453578151835260209283019290910190600101611434565b50505095945050505050565b60006020828403121561147157600080fd5b8151611339816112a9565b634e487b7160e01b600052601160045260246000fd5b6000600182016114a4576114a461147c565b5060010190565b808201808211156114be576114be61147c565b9291505056fea2646970667358221220879897dd389e19551bcbbcd385eb64778d4e7fa735bf84aa8e208bfe747e872a64736f6c63430008140033",
  "linkReferences": {},
  "deployedLinkReferences": {}
}