{
  "_format": "hh-sol-artifact-1",
  "contractName": "ZKAccessController",
  "sourceName": "contracts/ZKAccessController.sol",
  "abi": [
    {
      "inputs": [
        {
          "internalType": "address",
          "name": "_kycRegistry",
          "type": "address"
        },
        {
          "internalType": "address",
          "name": "_verifier",
          "type": "address"
        },
        {
          "internalType": "address",
          "name": "_feeCollector",
          "type": "address"
        }
      ],
      "stateMutability": "nonpayable",
      "type": "constructor"
    },
    {
      "inputs": [],
      "name": "InsufficientFee",
      "type": "error"
    },
    {
      "inputs": [],
      "name": "InvalidMerkleRoot",
      "type": "error"
    },
    {
      "inputs": [],
      "name": "InvalidProof",
      "type": "error"
    },
    {
      "inputs": [],
      "name": "InvalidProofStructure",
      "type": "error"
    },
    {
      "inputs": [],
      "name": "NullifierAlreadyUsed",
      "type": "error"
    },
    {
      "inputs": [],
      "name": "ProofSpamPrevention",
      "type": "error"
    },
    {
      "inputs": [],
      "name": "ProofTooEarly",
      "type": "error"
    },
    {
      "inputs": [],
      "name": "RateLimitExceeded",
      "type": "error"
    },
    {
      "inputs": [],
      "name": "ReentrancyGuardReentrantCall",
      "type": "error"
    },
    {
      "inputs": [],
      "name": "UntrustedIssuer",
      "type": "error"
    },
    {
      "anonymous": false,
      "inputs": [
        {
          "indexed": true,
          "internalType": "bytes32",
          "name": "proofHash",
          "type": "bytes32"
        },
        {
          "indexed": false,
          "internalType": "string",
          "name": "reason",
          "type": "string"
        },
        {
          "indexed": false,
          "internalType": "uint256",
          "name": "timestamp",
          "type": "uint256"
        }
      ],
      "name": "AccessDenied",
      "type": "event"
    },
    {
      "anonymous": false,
      "inputs": [
        {
          "indexed": true,
          "internalType": "bytes32",
          "name": "anonymousId",
          "type": "bytes32"
        },
        {
          "indexed": false,
          "internalType": "uint256",
          "name": "timestamp",
          "type": "uint256"
        },
        {
          "indexed": false,
          "internalType": "uint256",
          "name": "blockNumber",
          "type": "uint256"
        }
      ],
      "name": "AccessGranted",
      "type": "event"
    },
    {
      "anonymous": false,
      "inputs": [
        {
          "indexed": false,
          "internalType": "string",
          "name": "alertType",
          "type": "string"
        },
        {
          "indexed": false,
          "internalType": "uint256",
          "name": "timestamp",
          "type": "uint256"
        },
        {
          "indexed": false,
          "internalType": "uint256",
          "name": "blockNumber",
          "type": "uint256"
        }
      ],
      "name": "SecurityAlert",
      "type": "event"
    },
    {
      "inputs": [],
      "name": "MAX_PROOFS_PER_BLOCK",
      "outputs": [
        {
          "internalType": "uint256",
          "name": "",
          "type": "uint256"
        }
      ],
      "stateMutability": "view",
      "type": "function"
    },
    {
      "inputs": [],
      "name": "MERKLE_ROOT_VALIDITY_WINDOW",
      "outputs": [
        {
          "internalType": "uint256",
          "name": "",
          "type": "uint256"
        }
      ],
      "stateMutability": "view",
      "type": "function"
    },
    {
      "inputs": [],
      "name": "MIN_BLOCK_CONFIRMATIONS",
      "outputs": [
        {
          "internalType": "uint256",
          "name": "",
          "type": "uint256"
        }
      ],
      "stateMutability": "view",
      "type": "function"
    },
    {
      "inputs": [],
      "name": "PROOF_VERIFICATION_FEE",
      "outputs": [
        {
          "internalType": "uint256",
          "name": "",
          "type": "uint256"
        }
      ],
      "stateMutability": "view",
      "type": "function"
    },
    {
      "inputs": [
        {
          "internalType": "uint256[2][]",
          "name": "_pAs",
          "type": "uint256[2][]"
        },
        {
          "internalType": "uint256[2][2][]",
          "name": "_pBs",
          "type": "uint256[2][2][]"
        },
        {
          "internalType": "uint256[2][]",
          "name": "_pCs",
          "type": "uint256[2][]"
        },
        {
          "internalType": "bytes32[]",
          "name": "_merkleRoots",
          "type": "bytes32[]"
        },
        {
          "internalType": "bytes32[]",
          "name": "_nullifierHashes",
          "type": "bytes32[]"
        },
        {
          "internalType": "uint256[]",
          "name": "_issuerPubKeysX",
          "type": "uint256[]"
        },
        {
          "internalType": "uint256[]",
          "name": "_issuerPubKeysY",
          "type": "uint256[]"
        },
        {
          "internalType": "uint256[]",
          "name": "_timestamps",
          "type": "uint256[]"
        }
      ],
      "name": "batchVerifyProofs",
      "outputs": [
        {
          "internalType": "bytes32[]",
          "name": "accessTokens",
          "type": "bytes32[]"
        }
      ],
      "stateMutability": "payable",
      "type": "function"
    },
    {
      "inputs": [
        {
          "internalType": "uint256",
          "name": "",
          "type": "uint256"
        }
      ],
      "name": "blockProofCount",
      "outputs": [
        {
          "internalType": "uint256",
          "name": "",
          "type": "uint256"
        }
      ],
      "stateMutability": "view",
      "type": "function"
    },
    {
      "inputs": [],
      "name": "emergencyStop",
      "outputs": [],
      "stateMutability": "nonpayable",
      "type": "function"
    },
    {
      "inputs": [],
      "name": "feeCollector",
      "outputs": [
        {
          "internalType": "address",
          "name": "",
          "type": "address"
        }
      ],
      "stateMutability": "view",
      "type": "function"
    },
    {
      "inputs": [],
      "name": "getSecurityStats",
      "outputs": [
        {
          "internalType": "uint256",
          "name": "totalProofsProcessed",
          "type": "uint256"
        },
        {
          "internalType": "uint256",
          "name": "proofsThisBlock",
          "type": "uint256"
        },
        {
          "internalType": "uint256",
          "name": "feesCollected",
          "type": "uint256"
        },
        {
          "internalType": "uint256",
          "name": "currentBlock",
          "type": "uint256"
        }
      ],
      "stateMutability": "view",
      "type": "function"
    },
    {
      "inputs": [
        {
          "internalType": "bytes32",
          "name": "_nullifierHash",
          "type": "bytes32"
        }
      ],
      "name": "isNullifierSpent",
      "outputs": [
        {
          "internalType": "bool",
          "name": "",
          "type": "bool"
        }
      ],
      "stateMutability": "view",
      "type": "function"
    },
    {
      "inputs": [
        {
          "internalType": "bytes32",
          "name": "_merkleRoot",
          "type": "bytes32"
        }
      ],
      "name": "isValidMerkleRoot",
      "outputs": [
        {
          "internalType": "bool",
          "name": "",
          "type": "bool"
        }
      ],
      "stateMutability": "view",
      "type": "function"
    },
    {
      "inputs": [],
      "name": "kycRegistry",
      "outputs": [
        {
          "internalType": "contract KYCRegistry",
          "name": "",
          "type": "address"
        }
      ],
      "stateMutability": "view",
      "type": "function"
    },
    {
      "inputs": [],
      "name": "totalFeesCollected",
      "outputs": [
        {
          "internalType": "uint256",
          "name": "",
          "type": "uint256"
        }
      ],
      "stateMutability": "view",
      "type": "function"
    },
    {
      "inputs": [
        {
          "internalType": "address",
          "name": "",
          "type": "address"
        }
      ],
      "name": "userProofCount",
      "outputs": [
        {
          "internalType": "uint256",
          "name": "",
          "type": "uint256"
        }
      ],
      "stateMutability": "view",
      "type": "function"
    },
    {
      "inputs": [],
      "name": "verifier",
      "outputs": [
        {
          "internalType": "contract Groth16Verifier",
          "name": "",
          "type": "address"
        }
      ],
      "stateMutability": "view",
      "type": "function"
    },
    {
      "inputs": [
        {
          "internalType": "bytes32",
          "name": "_accessToken",
          "type": "bytes32"
        },
        {
          "internalType": "uint256",
          "name": "_maxAge",
          "type": "uint256"
        }
      ],
      "name": "verifyAccessToken",
      "outputs": [
        {
          "internalType": "bool",
          "name": "isValid",
          "type": "bool"
        }
      ],
      "stateMutability": "view",
      "type": "function"
    },
    {
      "inputs": [
        {
          "internalType": "uint256[2]",
          "name": "_pA",
          "type": "uint256[2]"
        },
        {
          "internalType": "uint256[2][2]",
          "name": "_pB",
          "type": "uint256[2][2]"
        },
        {
          "internalType": "uint256[2]",
          "name": "_pC",
          "type": "uint256[2]"
        },
        {
          "internalType": "bytes32",
          "name": "_merkleRoot",
          "type": "bytes32"
        },
        {
          "internalType": "bytes32",
          "name": "_nullifierHash",
          "type": "bytes32"
        },
        {
          "internalType": "uint256",
          "name": "_issuerPubKeyX",
          "type": "uint256"
        },
        {
          "internalType": "uint256",
          "name": "_issuerPubKeyY",
          "type": "uint256"
        },
        {
          "internalType": "uint256",
          "name": "_timestamp",
          "type": "uint256"
        }
      ],
      "name": "verifyAndGrantAnonymousAccess",
      "outputs": [
        {
          "internalType": "bytes32",
          "name": "accessToken",
          "type": "bytes32"
        }
      ],
      "stateMutability": "payable",
      "type": "function"
    },
    {
      "inputs": [],
      "name": "withdrawFees",
      "outputs": [],
      "stateMutability": "nonpayable",
      "type": "function"
    }
  ],
  "bytecode": "0x60e0346100ec57601f6200181138819003918201601f19168301916001600160401b038311848410176100f1578084926060946040528339810103126100ec5761004881610107565b610060604061005960208501610107565b9301610107565b60016000556001600160a01b03918216608052911660a05260c0526040516116f590816200011c8239608051818181610119015281816101d9015281816104190152818161047e0152818161051001528181610614015281816106660152610d12015260a0518181816105d10152610f04015260c05181818161029201528181610c0e0152610d570152f35b600080fd5b634e487b7160e01b600052604160045260246000fd5b51906001600160a01b03821682036100ec5756fe6102e0604052600436101561001357600080fd5b60008061028052803560e01c908163023d0f8814610f5257508063182baeb214610f335780632b7ac3f314610eeb5780632c7e47f414610ecf57806332c7bc1c14610eaa5780633c1401d014610e68578063476343ee14610d415780634b155b9714610cf95780634eb620a714610cb657806360c6d8ae14610c9557806363a599a414610bf45780636c9f032814610bc45780637960ce39146103025780639408555e146102e3578063a672b67f146102c4578063c415b95c14610279578063d5a4e325146101a95763e9cd3b37146100eb57600080fd5b3461018d5760208060031936011261018d57604051636d9833e360e01b8152600480359082015281816024817f00000000000000000000000000000000000000000000000000000000000000006001600160a01b03165afa90811561019b57610280519161015f575b506040519015158152f35b90508181813d8311610194575b6101768183611528565b8101031261018d576101879061156c565b38610154565b6102805180fd5b503d61016c565b6040513d61028051823e3d90fd5b3461018d5760208060031936011261018d5760405163394a177360e21b81526004803590820181905282826024817f00000000000000000000000000000000000000000000000000000000000000006001600160a01b03165afa91821561019b576102805192610242575b50811561022657506040519015158152f35b905061028051526002815260ff60406102805120541682610154565b9091508281813d8311610272575b61025a8183611528565b8101031261018d5761026b9061156c565b9083610214565b503d610250565b3461018d5761028051806003193601126102c1576040517f00000000000000000000000000000000000000000000000000000000000000006001600160a01b03168152602090f35b80fd5b3461018d5761028051806003193601126102c157602060405160038152f35b3461018d5761028051806003193601126102c157602060405160648152f35b6101a08060031936011261018d573660441161018d573660c41161018d57366101041161018d57610331611588565b66038d7ea4c680003410610bb3574361028051526001602052601460406102805120541015610ba1573361028051526003602052600360406102805120541015610b8f57604051602081019160406004843761028051604490606084015b60028210610b7957505050604060c460e08401376101043561012083015261012435610140830152610160428184015282526101808201928284106001600160401b038511176107b65783604052825190209260246101843501806101843511610b5f574210610aee5760405163394a177360e21b815261012435600482015284906020816024817f00000000000000000000000000000000000000000000000000000000000000006001600160a01b03165afa90811561019b576102805191610ab4575b508015610a95575b610a3e57604051636d9833e360e01b81526101043560048201526020816024817f00000000000000000000000000000000000000000000000000000000000000006001600160a01b03165afa90811561019b576102805191610a04575b50156109a65760405160208101610144358152610164356040830152604082526104e28261150d565b905190206040516305e9aab760e41b81526001600160a01b0391821660048201529060a090829060249082907f0000000000000000000000000000000000000000000000000000000000000000165afa90811561019b576102805191610937575b5051156108e657604051610556816114f2565b610104358152610124356020820152610144356040820152610184356060820152436080820152604051906334baeab960e01b82526040600480840137610280516044908382015b600282106108d057505050604060c4808401376102805161010483015b600582106108ba5750602091508290506101a4817f00000000000000000000000000000000000000000000000000000000000000006001600160a01b03165afa90811561019b576102805191610880575b50156107d0577f00000000000000000000000000000000000000000000000000000000000000006001600160a01b03163b1561018d57604051632c00028760e01b81526101243560048201526102805190919082602481837f00000000000000000000000000000000000000000000000000000000000000006001600160a01b03165af1801561019b5761079d575b6020906101243561028051526002825260406102805120600160ff19825416179055604051828101916101243583524260408301524460608301526080820152608081526106e8816114f2565b51902043610280515260018252604061028051206107068154611579565b905533610280515260038252604061028051206107238154611579565b905561073134600454611549565b6004556040518281019082825268616e6f6e796d6f757360b81b60408201526029815261075d8161150d565b5190207f85954cd8ed3fb3d657e8a27577a05fec17ace59c9180c95ed3db4d5bc9f45e13604080514281524386820152a260016102805155604051908152f35b6001600160401b0382116107b65760209160405261069b565b634e487b7160e01b61028051526041600452602461028051fd5b6000805160206116a0833981519152608060405160408152601c60408201527f496e76616c6964207a65726f2d6b6e6f776c656467652070726f6f66000000006060820152426020820152a260008051602061168083398151915260a060405160608152601760608201527f496e76616c69642070726f6f6620617474656d707465640000000000000000006080820152426020820152436040820152a16040516309bde33960e01b8152600490fd5b90506020813d6020116108b2575b8161089b60209383611528565b8101031261018d576108ac9061156c565b8261060c565b3d915061088e565b60208060019285518152019301910190916105bb565b604080828186600195370193019101909161059e565b6000805160206116a0833981519152608060405160408152601060408201526f2ab73a393ab9ba32b21034b9b9bab2b960811b6060820152426020820152a2604051633eb89d5f60e11b8152600490fd5b905060a0813d821161099e575b8161095160a09383611528565b8101031261018d57608060405191610968836114f2565b6109718161156c565b83526020810151602084015260408101516040840152606081015160608401520151608082015282610543565b3d9150610944565b6000805160206116a0833981519152608060405160408152601c60408201527f496e76616c6964206f72207374616c65206d65726b6c6520726f6f74000000006060820152426020820152a2604051639dd854d360e01b8152600490fd5b90506020813d602011610a36575b81610a1f60209383611528565b8101031261018d57610a309061156c565b826104b9565b3d9150610a12565b6000805160206116a08339815191526080604051604081526016604082015275139d5b1b1a599a595c88185b1c9958591e481d5cd95960521b6060820152426020820152a2604051636569570160e11b8152600490fd5b50610124356102805152600260205260ff60406102805120541661045c565b90506020813d602011610ae6575b81610acf60209383611528565b8101031261018d57610ae09061156c565b82610454565b3d9150610ac2565b6000805160206116a08339815191529260a09260408352602a6101c08301527f50726f6f6620746f6f206561726c79202d2066726f6e742d72756e6e696e67206101e083015269383937ba32b1ba34b7b760b11b61020083015242910152a260405163c7e46a1f60e01b8152600490fd5b634e487b7160e01b61028051526011600452602461028051fd5b604080828186600195370193019101909161038f565b60405163a74c1c5f60e01b8152600490fd5b60405163025e5d2160e61b8152600490fd5b60405162976f7560e21b8152600490fd5b3461018d57602036600319011261018d576004356102805152600160205260206040610280512054604051908152f35b3461018d5761028051806003193601126102c157610c3c337f00000000000000000000000000000000000000000000000000000000000000006001600160a01b031614611642565b60008051602061168083398151915260a060405160608152601860608201527f456d657267656e63792073746f702061637469766174656400000000000000006080820152426020820152436040820152a16102805180f35b3461018d5761028051806003193601126102c1576020600454604051908152f35b3461018d5761028051806003193601126102c157439052600160205260806102805160408120546004549060405192835260208301526040820152436060820152f35b3461018d5761028051806003193601126102c1576040517f00000000000000000000000000000000000000000000000000000000000000006001600160a01b03168152602090f35b3461018d5761028051806003193601126102c1577f0000000000000000000000000000000000000000000000000000000000000000610d8a336001600160a01b03831614611642565b60045490610280518080938193826004555af13d15610e63573d6001600160401b0381116107b65760405190610dca601f8201601f191660200183611528565b8152610280513d916020013e5b15610e265760008051602061168083398151915260a060405160608152600e60608201526d2332b2b9903bb4ba34323930bbb760911b6080820152426020820152436040820152a16102805180f35b60405162461bcd60e51b8152602060048201526015602482015274119959481dda5d1a191c985dd85b0819985a5b1959605a1b6044820152606490fd5b610dd7565b3461018d57602036600319011261018d576004356001600160a01b0381169081900361018d576102805152600360205260206040610280512054604051908152f35b3461018d5761028051806003193601126102c157602060405166038d7ea4c680008152f35b3461018d57604036600319011261018d57602060405160018152f35b3461018d5761028051806003193601126102c1576040517f00000000000000000000000000000000000000000000000000000000000000006001600160a01b03168152602090f35b3461018d5761028051806003193601126102c157602060405160148152f35b6101003660031901126102c1576004356001600160401b03811161145457610f7e90369060040161145c565b610200526101805260243580610260526001600160401b0381116114545736602382011215611454578060040135906001600160401b03821161145857602490369260071b0101116102c1576044356001600160401b03811161145457610fe990369060040161145c565b6101c05260c0526064356001600160401b0381116114545761100f903690600401611491565b6101a0526101e0526084356001600160401b03811161145457611036903690600401611491565b60a0526101605260a4356001600160401b0381116114545761105c903690600401611491565b610100526101405260c4356001600160401b03811161145457611083903690600401611491565b6102405260e0526001600160401b0360e435116102c1576110a93660e435600401611491565b61022052610120526110b9611588565b6102605160040135610200519081149081611448575b501561140e576102005166038d7ea4c680009080820291820403610b5f5734106113d057611113611102610200516115ab565b80608052604051806102a052611528565b610200516102a05152601f1961112b610200516115ab565b013660206102a0510137610280516102c0525b610200516102c051101561131f57604051611158816114c1565b611175366111706102c05161020051610180516115c2565b6115e8565b8152602060405191611186836114c1565b816111a06102c05161026051602481600401359101611622565b013583526111bd6102c05161026051602481600401359101611622565b358284015201526111d76102c0516101c05160c0516115c2565b6111eb6102c0516101a0516101e051611632565b356112496112026102c05160a05161016051611632565b35926112186102c0516101005161014051611632565b5061122c6102c0516102405160e051611632565b506112416102c0516102205161012051611632565b5036906115e8565b50816102805152600260205260ff60406102805120541661130d57816102805152600260205260406102805120600160ff198254161790556040519160208301524260408301526060908183015281528060808101106001600160401b036080830111176107b65760808101604052602081519101206102a051516102c05110156112f35760206102c05160051b6102a0510101526112ea6102c051611579565b6102c05261113e565b634e487b7160e01b61028051526032600452602461028051fd5b604051636569570160e11b8152600490fd5b61132b34600454611549565b60045560008051602061168083398151915260a060405160608152601c60608201527f426174636820766572696669636174696f6e20636f6d706c65746564000000006080820152426020820152436040820152a160018061028051556040516020810191602082526102a05151809352604082019260206102a0510190610280515b8181106113bb5784860385f35b825186526020958601959092019183016113ae565b60405162461bcd60e51b8152602060048201526016602482015275496e73756666696369656e742062617463682066656560501b6044820152606490fd5b60405162461bcd60e51b8152602060048201526012602482015271496e76616c69642062617463682073697a6560701b6044820152606490fd5b600a91501115816110cf565b5080fd5b8280fd5b9181601f8401121561148c578235916001600160401b03831161148c576020808501948460061b01011161148c57565b600080fd5b9181601f8401121561148c578235916001600160401b03831161148c576020808501948460051b01011161148c57565b604081019081106001600160401b038211176114dc57604052565b634e487b7160e01b600052604160045260246000fd5b60a081019081106001600160401b038211176114dc57604052565b606081019081106001600160401b038211176114dc57604052565b90601f801991011681019081106001600160401b038211176114dc57604052565b9190820180921161155657565b634e487b7160e01b600052601160045260246000fd5b5190811515820361148c57565b60001981146115565760010190565b600260005414611599576002600055565b604051633ee5aeb560e01b8152600490fd5b6001600160401b0381116114dc5760051b60200190565b91908110156115d25760061b0190565b634e487b7160e01b600052603260045260246000fd5b9190604051926115f7846114c1565b83906040810192831161148c57905b82821061161257505050565b8135815260209182019101611606565b91908110156115d25760071b0190565b91908110156115d25760051b0190565b1561164957565b60405162461bcd60e51b815260206004820152600e60248201526d139bdd08185d5d1a1bdc9a5e995960921b6044820152606490fdfe3d06f124cb35c753111d2fc46dcec6e5c60c12acd1ae102b24ff25962d1bb20ab8c402d4d7a22da2fdbae71d8a5ba27a82685428f2367c4fdb859106f9f3c987a2646970667358221220ef6948ae6a1d988c3b76d5dfaa276cae411e8ad94b157ced9419b1d28c89446764736f6c63430008140033",
  "linkReferences": {},
  "deployedLinkReferences": {}
}