{
  "_format": "hh-sol-artifact-1",
  "contractName": "MockVerifier",
  "sourceName": "contracts/MockVerifier.sol",
  "abi": [
    {
      "inputs": [
        {
          "internalType": "bool",
          "name": "result",
          "type": "bool"
        }
      ],
      "name": "setVerificationResult",
      "outputs": [],
      "stateMutability": "nonpayable",
      "type": "function"
    },
    {
      "inputs": [],
      "name": "verificationResult",
      "outputs": [
        {
          "internalType": "bool",
          "name": "",
          "type": "bool"
        }
      ],
      "stateMutability": "view",
      "type": "function"
    },
    {
      "inputs": [
        {
          "internalType": "uint256[2]",
          "name": "",
          "type": "uint256[2]"
        },
        {
          "internalType": "uint256[2][2]",
          "name": "",
          "type": "uint256[2][2]"
        },
        {
          "internalType": "uint256[2]",
          "name": "",
          "type": "uint256[2]"
        },
        {
          "internalType": "uint256[1]",
          "name": "",
          "type": "uint256[1]"
        }
      ],
      "name": "verifyProof",
      "outputs": [
        {
          "internalType": "bool",
          "name": "",
          "type": "bool"
        }
      ],
      "stateMutability": "view",
      "type": "function"
    }
  ],
  "bytecode": "0x60806040526000805460ff1916600117905534801561001d57600080fd5b506101828061002d6000396000f3fe608060405234801561001057600080fd5b50600436106100415760003560e01c806343753b4d14610046578063bb17350314610076578063e064c12f14610083575b600080fd5b6100626100543660046100bd565b60005460ff16949350505050565b604051901515815260200160405180910390f35b6000546100629060ff1681565b6100a4610091366004610123565b6000805460ff1916911515919091179055565b005b80604081018310156100b757600080fd5b92915050565b6000806000806101208086880312156100d557600080fd5b6100df87876100a6565b945060c08601878111156100f257600080fd5b60408701945061010288826100a6565b93505086818701111561011457600080fd5b50929591945092610100019150565b60006020828403121561013557600080fd5b8135801515811461014557600080fd5b939250505056fea264697066735822122048d2e07e0b0b4bec1a74fa4306fdd2792439d59f37198ed48034b710f2e69d4464736f6c63430008140033",
  "linkReferences": {},
  "deployedLinkReferences": {}
}