{
  "_format": "hh-sol-artifact-1",
  "contractName": "KYCRegistry",
  "sourceName": "contracts/KYCRegistry.sol",
  "abi": [
    {
      "inputs": [
        {
          "internalType": "contract IHasher",
          "name": "_hasher",
          "type": "address"
        },
        {
          "internalType": "uint32",
          "name": "_merkleTreeHeight",
          "type": "uint32"
        },
        {
          "internalType": "address[]",
          "name": "_trustedIssuers",
          "type": "address[]"
        },
        {
          "internalType": "bytes32[]",
          "name": "_publicKeyHashes",
          "type": "bytes32[]"
        },
        {
          "internalType": "uint256[]",
          "name": "_maxDailyIssuances",
          "type": "uint256[]"
        }
      ],
      "stateMutability": "nonpayable",
      "type": "constructor"
    },
    {
      "inputs": [],
      "name": "CommitmentAlreadyExists",
      "type": "error"
    },
    {
      "inputs": [],
      "name": "CommitmentSpamPrevention",
      "type": "error"
    },
    {
      "inputs": [],
      "name": "ECDSAInvalidSignature",
      "type": "error"
    },
    {
      "inputs": [
        {
          "internalType": "uint256",
          "name": "length",
          "type": "uint256"
        }
      ],
      "name": "ECDSAInvalidSignatureLength",
      "type": "error"
    },
    {
      "inputs": [
        {
          "internalType": "bytes32",
          "name": "s",
          "type": "bytes32"
        }
      ],
      "name": "ECDSAInvalidSignatureS",
      "type": "error"
    },
    {
      "inputs": [],
      "name": "InsufficientEntropy",
      "type": "error"
    },
    {
      "inputs": [],
      "name": "InvalidCommitment",
      "type": "error"
    },
    {
      "inputs": [],
      "name": "InvalidPublicKey",
      "type": "error"
    },
    {
      "inputs": [],
      "name": "InvalidSignature",
      "type": "error"
    },
    {
      "inputs": [
        {
          "internalType": "address",
          "name": "owner",
          "type": "address"
        }
      ],
      "name": "OwnableInvalidOwner",
      "type": "error"
    },
    {
      "inputs": [
        {
          "internalType": "address",
          "name": "account",
          "type": "address"
        }
      ],
      "name": "OwnableUnauthorizedAccount",
      "type": "error"
    },
    {
      "inputs": [],
      "name": "RateLimitExceeded",
      "type": "error"
    },
    {
      "inputs": [],
      "name": "ReentrancyGuardReentrantCall",
      "type": "error"
    },
    {
      "inputs": [],
      "name": "SignatureExpired",
      "type": "error"
    },
    {
      "inputs": [],
      "name": "UntrustedIssuer",
      "type": "error"
    },
    {
      "anonymous": false,
      "inputs": [
        {
          "indexed": true,
          "internalType": "bytes32",
          "name": "commitmentHash",
          "type": "bytes32"
        },
        {
          "indexed": false,
          "internalType": "uint32",
          "name": "leafIndex",
          "type": "uint32"
        },
        {
          "indexed": false,
          "internalType": "uint256",
          "name": "timestamp",
          "type": "uint256"
        }
      ],
      "name": "CommitmentDeposited",
      "type": "event"
    },
    {
      "anonymous": false,
      "inputs": [
        {
          "indexed": true,
          "internalType": "address",
          "name": "previousOwner",
          "type": "address"
        },
        {
          "indexed": true,
          "internalType": "address",
          "name": "newOwner",
          "type": "address"
        }
      ],
      "name": "OwnershipTransferred",
      "type": "event"
    },
    {
      "anonymous": false,
      "inputs": [
        {
          "indexed": true,
          "internalType": "address",
          "name": "violator",
          "type": "address"
        },
        {
          "indexed": false,
          "internalType": "string",
          "name": "violationType",
          "type": "string"
        },
        {
          "indexed": false,
          "internalType": "uint256",
          "name": "timestamp",
          "type": "uint256"
        }
      ],
      "name": "SecurityViolation",
      "type": "event"
    },
    {
      "anonymous": false,
      "inputs": [
        {
          "indexed": true,
          "internalType": "address",
          "name": "issuer",
          "type": "address"
        },
        {
          "indexed": false,
          "internalType": "bytes32",
          "name": "publicKeyHash",
          "type": "bytes32"
        },
        {
          "indexed": false,
          "internalType": "uint256",
          "name": "maxDailyIssuances",
          "type": "uint256"
        }
      ],
      "name": "TrustedIssuerAdded",
      "type": "event"
    },
    {
      "anonymous": false,
      "inputs": [
        {
          "indexed": true,
          "internalType": "address",
          "name": "issuer",
          "type": "address"
        }
      ],
      "name": "TrustedIssuerRemoved",
      "type": "event"
    },
    {
      "inputs": [],
      "name": "FIELD_SIZE",
      "outputs": [
        {
          "internalType": "uint256",
          "name": "",
          "type": "uint256"
        }
      ],
      "stateMutability": "view",
      "type": "function"
    },
    {
      "inputs": [],
      "name": "ISSUER_SIGNATURE_TIMEOUT",
      "outputs": [
        {
          "internalType": "uint256",
          "name": "",
          "type": "uint256"
        }
      ],
      "stateMutability": "view",
      "type": "function"
    },
    {
      "inputs": [],
      "name": "MAX_COMMITMENTS_PER_BLOCK",
      "outputs": [
        {
          "internalType": "uint256",
          "name": "",
          "type": "uint256"
        }
      ],
      "stateMutability": "view",
      "type": "function"
    },
    {
      "inputs": [],
      "name": "MIN_COMMITMENT_ENTROPY",
      "outputs": [
        {
          "internalType": "uint256",
          "name": "",
          "type": "uint256"
        }
      ],
      "stateMutability": "view",
      "type": "function"
    },
    {
      "inputs": [],
      "name": "ROOT_HISTORY_SIZE",
      "outputs": [
        {
          "internalType": "uint32",
          "name": "",
          "type": "uint32"
        }
      ],
      "stateMutability": "view",
      "type": "function"
    },
    {
      "inputs": [],
      "name": "ZERO_VALUE",
      "outputs": [
        {
          "internalType": "uint256",
          "name": "",
          "type": "uint256"
        }
      ],
      "stateMutability": "view",
      "type": "function"
    },
    {
      "inputs": [
        {
          "internalType": "address",
          "name": "_issuer",
          "type": "address"
        },
        {
          "internalType": "bytes32",
          "name": "_publicKeyHash",
          "type": "bytes32"
        },
        {
          "internalType": "uint256",
          "name": "_maxDailyIssuances",
          "type": "uint256"
        }
      ],
      "name": "addTrustedIssuer",
      "outputs": [],
      "stateMutability": "nonpayable",
      "type": "function"
    },
    {
      "inputs": [
        {
          "internalType": "uint256",
          "name": "",
          "type": "uint256"
        }
      ],
      "name": "blockCommitmentCount",
      "outputs": [
        {
          "internalType": "uint256",
          "name": "",
          "type": "uint256"
        }
      ],
      "stateMutability": "view",
      "type": "function"
    },
    {
      "inputs": [
        {
          "internalType": "bytes32",
          "name": "",
          "type": "bytes32"
        }
      ],
      "name": "commitments",
      "outputs": [
        {
          "internalType": "bool",
          "name": "",
          "type": "bool"
        }
      ],
      "stateMutability": "view",
      "type": "function"
    },
    {
      "inputs": [],
      "name": "currentRootIndex",
      "outputs": [
        {
          "internalType": "uint32",
          "name": "",
          "type": "uint32"
        }
      ],
      "stateMutability": "view",
      "type": "function"
    },
    {
      "inputs": [],
      "name": "emergencyPause",
      "outputs": [],
      "stateMutability": "nonpayable",
      "type": "function"
    },
    {
      "inputs": [
        {
          "internalType": "uint256",
          "name": "",
          "type": "uint256"
        }
      ],
      "name": "filledSubtrees",
      "outputs": [
        {
          "internalType": "bytes32",
          "name": "",
          "type": "bytes32"
        }
      ],
      "stateMutability": "view",
      "type": "function"
    },
    {
      "inputs": [
        {
          "internalType": "address",
          "name": "_issuer",
          "type": "address"
        }
      ],
      "name": "getIssuerInfo",
      "outputs": [
        {
          "components": [
            {
              "internalType": "bool",
              "name": "isActive",
              "type": "bool"
            },
            {
              "internalType": "bytes32",
              "name": "publicKeyHash",
              "type": "bytes32"
            },
            {
              "internalType": "uint256",
              "name": "maxDailyIssuances",
              "type": "uint256"
            },
            {
              "internalType": "uint256",
              "name": "issuancesToday",
              "type": "uint256"
            },
            {
              "internalType": "uint256",
              "name": "lastResetDay",
              "type": "uint256"
            }
          ],
          "internalType": "struct KYCRegistry.IssuerInfo",
          "name": "",
          "type": "tuple"
        }
      ],
      "stateMutability": "view",
      "type": "function"
    },
    {
      "inputs": [],
      "name": "getLastRoot",
      "outputs": [
        {
          "internalType": "bytes32",
          "name": "",
          "type": "bytes32"
        }
      ],
      "stateMutability": "view",
      "type": "function"
    },
    {
      "inputs": [
        {
          "internalType": "bytes32",
          "name": "_left",
          "type": "bytes32"
        },
        {
          "internalType": "bytes32",
          "name": "_right",
          "type": "bytes32"
        }
      ],
      "name": "hashLeftRight",
      "outputs": [
        {
          "internalType": "bytes32",
          "name": "",
          "type": "bytes32"
        }
      ],
      "stateMutability": "view",
      "type": "function"
    },
    {
      "inputs": [],
      "name": "hasher",
      "outputs": [
        {
          "internalType": "contract IHasher",
          "name": "",
          "type": "address"
        }
      ],
      "stateMutability": "view",
      "type": "function"
    },
    {
      "inputs": [
        {
          "internalType": "bytes32",
          "name": "_root",
          "type": "bytes32"
        }
      ],
      "name": "isKnownRoot",
      "outputs": [
        {
          "internalType": "bool",
          "name": "",
          "type": "bool"
        }
      ],
      "stateMutability": "view",
      "type": "function"
    },
    {
      "inputs": [
        {
          "internalType": "bytes32",
          "name": "_nullifierHash",
          "type": "bytes32"
        }
      ],
      "name": "isSpent",
      "outputs": [
        {
          "internalType": "bool",
          "name": "",
          "type": "bool"
        }
      ],
      "stateMutability": "view",
      "type": "function"
    },
    {
      "inputs": [],
      "name": "levels",
      "outputs": [
        {
          "internalType": "uint32",
          "name": "",
          "type": "uint32"
        }
      ],
      "stateMutability": "view",
      "type": "function"
    },
    {
      "inputs": [
        {
          "internalType": "bytes32",
          "name": "_nullifierHash",
          "type": "bytes32"
        }
      ],
      "name": "markNullifierSpent",
      "outputs": [],
      "stateMutability": "nonpayable",
      "type": "function"
    },
    {
      "inputs": [],
      "name": "nextIndex",
      "outputs": [
        {
          "internalType": "uint32",
          "name": "",
          "type": "uint32"
        }
      ],
      "stateMutability": "view",
      "type": "function"
    },
    {
      "inputs": [
        {
          "internalType": "bytes32",
          "name": "",
          "type": "bytes32"
        }
      ],
      "name": "nullifierHashes",
      "outputs": [
        {
          "internalType": "bool",
          "name": "",
          "type": "bool"
        }
      ],
      "stateMutability": "view",
      "type": "function"
    },
    {
      "inputs": [],
      "name": "owner",
      "outputs": [
        {
          "internalType": "address",
          "name": "",
          "type": "address"
        }
      ],
      "stateMutability": "view",
      "type": "function"
    },
    {
      "inputs": [
        {
          "internalType": "address",
          "name": "_issuer",
          "type": "address"
        }
      ],
      "name": "removeTrustedIssuer",
      "outputs": [],
      "stateMutability": "nonpayable",
      "type": "function"
    },
    {
      "inputs": [],
      "name": "renounceOwnership",
      "outputs": [],
      "stateMutability": "nonpayable",
      "type": "function"
    },
    {
      "inputs": [],
      "name": "resetRateLimiting",
      "outputs": [],
      "stateMutability": "nonpayable",
      "type": "function"
    },
    {
      "inputs": [
        {
          "internalType": "uint256",
          "name": "",
          "type": "uint256"
        }
      ],
      "name": "roots",
      "outputs": [
        {
          "internalType": "bytes32",
          "name": "",
          "type": "bytes32"
        }
      ],
      "stateMutability": "view",
      "type": "function"
    },
    {
      "inputs": [
        {
          "internalType": "bytes32",
          "name": "_commitment",
          "type": "bytes32"
        },
        {
          "internalType": "bytes",
          "name": "_issuerSignature",
          "type": "bytes"
        },
        {
          "internalType": "uint256",
          "name": "_timestamp",
          "type": "uint256"
        },
        {
          "internalType": "bytes32",
          "name": "_did",
          "type": "bytes32"
        }
      ],
      "name": "secureDepositCommitment",
      "outputs": [],
      "stateMutability": "nonpayable",
      "type": "function"
    },
    {
      "inputs": [
        {
          "internalType": "address",
          "name": "newOwner",
          "type": "address"
        }
      ],
      "name": "transferOwnership",
      "outputs": [],
      "stateMutability": "nonpayable",
      "type": "function"
    },
    {
      "inputs": [
        {
          "internalType": "address",
          "name": "",
          "type": "address"
        }
      ],
      "name": "trustedIssuers",
      "outputs": [
        {
          "internalType": "bool",
          "name": "isActive",
          "type": "bool"
        },
        {
          "internalType": "bytes32",
          "name": "publicKeyHash",
          "type": "bytes32"
        },
        {
          "internalType": "uint256",
          "name": "maxDailyIssuances",
          "type": "uint256"
        },
        {
          "internalType": "uint256",
          "name": "issuancesToday",
          "type": "uint256"
        },
        {
          "internalType": "uint256",
          "name": "lastResetDay",
          "type": "uint256"
        }
      ],
      "stateMutability": "view",
      "type": "function"
    },
    {
      "inputs": [
        {
          "internalType": "address",
          "name": "",
          "type": "address"
        }
      ],
      "name": "userCommitmentCount",
      "outputs": [
        {
          "internalType": "uint256",
          "name": "",
          "type": "uint256"
        }
      ],
      "stateMutability": "view",
      "type": "function"
    },
    {
      "inputs": [
        {
          "internalType": "bytes32",
          "name": "_commitment",
          "type": "bytes32"
        },
        {
          "internalType": "bytes32",
          "name": "_nullifier",
          "type": "bytes32"
        },
        {
          "internalType": "bytes32",
          "name": "_secret",
          "type": "bytes32"
        },
        {
          "internalType": "bytes32",
          "name": "_did",
          "type": "bytes32"
        },
        {
          "internalType": "bytes32",
          "name": "_issuerPubKeyX",
          "type": "bytes32"
        }
      ],
      "name": "verifyCommitmentStructure",
      "outputs": [
        {
          "internalType": "bool",
          "name": "",
          "type": "bool"
        }
      ],
      "stateMutability": "pure",
      "type": "function"
    },
    {
      "inputs": [
        {
          "internalType": "uint256",
          "name": "",
          "type": "uint256"
        }
      ],
      "name": "zeros",
      "outputs": [
        {
          "internalType": "bytes32",
          "name": "",
          "type": "bytes32"
        }
      ],
      "stateMutability": "view",
      "type": "function"
    }
  ],
  "bytecode": "0x60c08060405234620006c65762001da78038038091620000208285620006fe565b833981019060a081830312620006c6578051916001600160a01b0383168303620006c65760208201519263ffffffff80851691828603620006c65760408501516001600160401b038111620006c65785019584601f88011215620006c65786516200008b8162000722565b976200009b604051998a620006fe565b8189526020808a019260051b82010190878211620006c657602001915b818310620006dc5750505060608601516001600160401b038111620006c65786019585601f88011215620006c657865196620000f48862000722565b9762000104604051998a620006fe565b8089526020808a019160051b83010191888311620006c657602001905b828210620006cb575050506080810151906001600160401b038211620006c657019480601f87011215620006c65785516200015c8162000722565b966200016c6040519889620006fe565b81885260208089019260051b820101928311620006c657602001905b828210620006b5575050600280546001600160401b0319169055508315620006645760208410156200061f5760a0526080526001546000926801000000000000000091828110156200060b576001810180600155811015620005f757600185527fb10e2d527612073b26eecdfd717e6a320cf44b4afac2b0732d9fcbe2b7fa0cf6018490558354828110156200060b5760018101808655811015620005f75784805260208520018490556001939291905b80838616106200056657505050620002539150806200074f565b60035533156200054d5760218054336001600160a01b03198216811790925560405191906001600160a01b03167f8be0079c531659141344cd1fd0a4f28419497f9722a3daafe3b4186f6b6457e0600080a36001602255835183518114908162000541575b5015620004ff575060005b8351811015620004cf576001600160a01b03620002e182866200073a565b5116620002ef82856200073a565b51620002fc83856200073a565b519082156200048a578015620004455781156200040057604051906001600160401b0360a0830190811190831117620003ea577f0a914f7326cfe0ff4e0d6ef83ce6d7fb21ed9aceccb93bd69a0e0cf7db305f6f928260a060409401845260018152600460208201848152858301848152606084019060008252608085019262015180420484528a6000526025602052886000209551151560ff801988541691161786555160018601555160028501555160038401555191015582519182526020820152a26000198114620003d457600101620002c3565b634e487b7160e01b600052601160045260246000fd5b634e487b7160e01b600052604160045260246000fd5b60405162461bcd60e51b815260206004820152601360248201527f496e76616c6964206461696c79206c696d6974000000000000000000000000006044820152606490fd5b60405162461bcd60e51b815260206004820152601760248201527f496e76616c6964207075626c6963206b657920686173680000000000000000006044820152606490fd5b60405162461bcd60e51b815260206004820152601660248201527f496e76616c6964206973737565722061646472657373000000000000000000006044820152606490fd5b604051611586908162000821823960805181818161043201526113cb015260a0518181816109500152610d160152f35b62461bcd60e51b815260206004820152601560248201527f4172726179206c656e677468206d69736d6174636800000000000000000000006044820152606490fd5b905082511438620002b8565b604051631e4fbdf760e01b815260006004820152602490fd5b9091928062000575916200074f565b809460015484811015620003ea576001810180600155811015620005e15782906001600052602060002001556000549184831015620003ea576001830180600055831015620005e1578592600080526020600020015516838114620003d4576001019392919062000239565b634e487b7160e01b600052603260045260246000fd5b634e487b7160e01b85526032600452602485fd5b634e487b7160e01b85526041600452602485fd5b60405162461bcd60e51b815260206004820152601e60248201527f5f6c6576656c732073686f756c64206265206c657373207468616e20333200006044820152606490fd5b60405162461bcd60e51b815260206004820152602360248201527f5f6c6576656c732073686f756c642062652067726561746572207468616e207a60448201526265726f60e81b6064820152608490fd5b815181526020918201910162000188565b600080fd5b815181526020918201910162000121565b82516001600160a01b0381168103620006c657815260209283019201620000b8565b601f909101601f19168101906001600160401b03821190821017620003ea57604052565b6001600160401b038111620003ea5760051b60200190565b8051821015620005e15760209160051b010190565b6040805192919083016001600160401b03811184821017620003ea576040528252602090818301528060018060a01b03608051169260405193849163014cf2b360e51b8352600483016000905b600282106200080657505050816044915afa908115620007fa57600091620007c5575b50905090565b82813d8311620007f2575b620007dc8183620006fe565b81010312620007ef5750518038620007bf565b80fd5b503d620007d0565b6040513d6000823e3d90fd5b82518152869588955092830192600190920191016200079c56fe608060408181526004918236101561001657600080fd5b600092833560e01c91826317cc915c146110a65750816326fa428514610b6c5781632c00028714610a2d57816338bf282e14610a0357816339919f35146109af578163414a37ba146109745781634ecf518b1461093357816351858e27146108cb5781635e9aab7014610815578163633ba3e6146107dd5781636d9833e3146107b4578163715018a614610757578163733ea8701461073a578163839df9451461070d57816387d659e4146106e55781638da5cb5b146106bc57816390eeb02b1461069757816392c54daf1461062f57838263b35057e41461060457508163b93d28eb1461059e578163ba70f75714610557578163c2b40ae41461052b578163c54d574e1461050f578163cd87a3b4146104f3578163e5285dcc146104c6578163e82955881461049b578163e9b9b5201461047c578163ec73295914610461578163ed33639f1461041d578163f178e47c146103e2578163f2fde38b1461034e578163fa5d3b3b146101ba575063fc7e9c6f1461019257600080fd5b346101b657816003193601126101b6576002549051602091821c63ffffffff168152f35b5080fd5b8383346101b65760603660031901126101b6576101d56110d0565b90602435604435926101e5611182565b6001600160a01b03169283156103125781156102cf578015610296577f0a914f7326cfe0ff4e0d6ef83ce6d7fb21ed9aceccb93bd69a0e0cf7db305f6f939495835190610231826111ae565b600182526020820184815285830184815260608401908a8252608085019262015180420484528a8c526025602052888c209551151560ff801988541691161786555160018601555160028501555160038401555191015582519182526020820152a280f35b825162461bcd60e51b81526020818801526013602482015272125b9d985b1a590819185a5b1e481b1a5b5a5d606a1b6044820152606490fd5b825162461bcd60e51b8152602081880152601760248201527f496e76616c6964207075626c6963206b657920686173680000000000000000006044820152606490fd5b825162461bcd60e51b81526020818801526016602482015275496e76616c696420697373756572206164647265737360501b6044820152606490fd5b9050346103de5760203660031901126103de576103696110d0565b90610372611182565b6001600160a01b039182169283156103c8575050602154826bffffffffffffffffffffffff60a01b821617602155167f8be0079c531659141344cd1fd0a4f28419497f9722a3daafe3b4186f6b6457e08380a380f35b51631e4fbdf760e01b8152908101849052602490fd5b8280fd5b9050346103de5760203660031901126103de573591805483101561041a575061040c6020926110eb565b91905490519160031b1c8152f35b80fd5b5050346101b657816003193601126101b657517f00000000000000000000000000000000000000000000000000000000000000006001600160a01b03168152602090f35b5050346101b657816003193601126101b65751908152602090f35b5050346101b657816003193601126101b65751600160801b8152602090f35b9050346103de5760203660031901126103de57359160015483101561041a575061040c602092611135565b9050346103de5760203660031901126103de578160209360ff923581526024855220541690519015158152f35b5050346101b657816003193601126101b65760209051601e8152f35b5050346101b657816003193601126101b65760209051600a8152f35b9050346103de5760203660031901126103de5735601e8110156103de5760209250600301549051908152f35b82843461041a578060031936011261041a5763ffffffff6002541690601e82101561058b5760208383600301549051908152f35b634e487b7160e01b815260328452602490fd5b5050346101b65760203660031901126101b6576105b96110d0565b6105c1611182565b6001600160a01b03168083526025602052908220805460ff191690557f2214ded40113cc3fb63fc206cafee88270b0a903dac7245d54efdde30ebb03218280a280f35b80843461062c578160031936011261062c5761061e611182565b438252602760205281205580f35b50fd5b919050346103de5760203660031901126103de5760a09281906001600160a01b036106586110d0565b16815260256020522060ff8154169260018201549260028301549160038401549301549381519515158652602086015284015260608301526080820152f35b5050346101b657816003193601126101b65760209063ffffffff600254169051908152f35b5050346101b657816003193601126101b65760215490516001600160a01b039091168152602090f35b9050346103de5760203660031901126103de5760209282913581526027845220549051908152f35b9050346103de5760203660031901126103de578160209360ff923581526023855220541690519015158152f35b5050346101b657816003193601126101b65760209051610e108152f35b833461041a578060031936011261041a57610770611182565b602180546001600160a01b0319811690915581906001600160a01b03167f8be0079c531659141344cd1fd0a4f28419497f9722a3daafe3b4186f6b6457e08280a380f35b82843461041a57602036600319011261041a57506107d460209235611491565b90519015158152f35b5050346101b65760203660031901126101b65760209181906001600160a01b036108056110d0565b1681526026845220549051908152f35b919050346103de5760203660031901126103de578060a0936108356110d0565b8160808451610843816111ae565b82815282602082015282868201528260608201520152600180871b03168152602560205220815191610874836111ae565b60ff8254161515938484526001830154602085019081526080600285015492848701938452600386015495606088019687520154950194855282519586525160208601525190840152516060830152516080820152f35b5050346101b657816003193601126101b6576108e5611182565b60198151918083528201527f456d657267656e63792070617573652061637469766174656400000000000000606082015242602082015260008051602061153183398151915260803392a280f35b5050346101b657816003193601126101b6576020905163ffffffff7f0000000000000000000000000000000000000000000000000000000000000000168152f35b5050346101b657816003193601126101b657602090517f30644e72e131a029b85045b68181585d2833e84879b9709143e1f593f00000018152f35b9050346103de5760a03660031901126103de57602092508151908382019060243582526044358484015260643560608401526084356080840152608083526109f6836111ae565b3591519020149051908152f35b82843461041a578160031936011261041a5750610a266020926024359035611378565b9051908152f35b9050346103de5760209081600319360112610b685780359060018060a01b036021541633148015610b54575b15610b13578185526024835260ff8486205416610a8757508352602490528120805460ff1916600117905580f35b606490838580518181526019828201527f417474656d70746564206e756c6c6966696572207265757365000000000000006060820152428382015260008051602061153183398151915260803392a25162461bcd60e51b815291820152601760248201527f4e756c6c696669657220616c7265616479207370656e740000000000000000006044820152fd5b606490838086519262461bcd60e51b845283015260248201527f4e6f7420617574686f72697a656420746f206d61726b206e756c6c69666965726044820152fd5b503385526025835260ff8486205416610a59565b8380fd5b839150346101b65760803660031901126101b65760249267ffffffffffffffff843583358282116110a257366023830112156110a257818501359483861161109e573688878501011161109e5760443592600296876022541461108e5787602255338952602094602686526005888b2054101561107e57438a5260278652600a888b2054101561106e57848a526023865260ff888b20541661105e57600160801b851061104e57610e10810180821161103c57421161102c57918a8a87610cb4948b610cbd97815190848201928c84526064359083015260608201523360601b608082015260748152610c5e816111ae565b5190207f19457468657265756d205369676e6564204d6573736167653a0a3332000000008452601c5280603c8420948d5196610ca385601f19601f86011601896111e0565b828852018387013784010152611227565b909291926112f3565b6001600160a01b03168088526025845285882080549197909160ff1615610fc75762015180420483830181815410610fb9575b5050600397888301928284549101541115610f5f575063ffffffff97888254871c1698807f0000000000000000000000000000000000000000000000000000000000000000169181610d4184611456565b168b14610f045786928c838d5b8382841610610e7c57505050508354601e83610d6b81841661147c565b16069283169063ffffffff1916178455601e821015610e6a570155610d8f8861147c565b815467ffffffff00000000191690861b67ffffffff000000001617905582885260238452858820805460ff19166001179055338852602684528588208054610dd690611202565b905543885260278452858820610dec8154611202565b9055610df88154611202565b9055845192830191825242838601528483526060830193841183851017610e5857507f219f25dc7736fd37046345758f22c997457b480a471ff2a4d87a4c40d5be5f539495965082845281519020948252608042910152a2600160225580f35b634e487b7160e01b8752604190528686fd5b634e487b7160e01b8c52603286528c8cfd5b637fffffff90610ec760019889831615600014610ef05780610e9d87611135565b9054908a1b1c91610ead886110eb565b81929154908c1b91821b91600019901b1916179055611378565b971c169116848114610ede57600101908490610d4e565b634e487b7160e01b8f52601189528f8ffd5b610ef9866110eb565b905490891b1c611378565b895162461bcd60e51b81528087018990526030818f01527f4d65726b6c6520747265652069732066756c6c2e204e6f206d6f7265206c656160448201526f1d995cc818d85b88189948185919195960821b6064820152608490fd5b878491600080516020611531833981519152608089845190858252601d868301527f4461696c792069737375616e6365206c696d697420657863656564656400000060608301524290820152a25163a74c1c5f60e01b8152fd5b8a6003850155558a80610cf0565b82878960008051602061153183398151915260a0898451908582526022868301527f556e747275737465642069737375657220617474656d70746564206465706f736060830152611a5d60f21b60808301524290820152a251633eb89d5f60e11b8152fd5b8751630819bdcd60e01b81528490fd5b634e487b7160e01b8b52601185528b8bfd5b87516316062e2760e31b81528490fd5b875163145718a760e01b81528490fd5b875163ea4abced60e01b81528490fd5b875163a74c1c5f60e01b81528490fd5b8651633ee5aeb560e01b81528390fd5b8680fd5b8580fd5b92915034610b68576020366003190112610b68573583526024602090815292205460ff1615158152f35b600435906001600160a01b03821682036110e657565b600080fd5b906000918254811015611121578280527f290decd9548b62a8d60345a988386fc84ba6bc95484008f6362f93160ef3e563019190565b634e487b7160e01b83526032600452602483fd5b60015481101561116c5760016000527fb10e2d527612073b26eecdfd717e6a320cf44b4afac2b0732d9fcbe2b7fa0cf60190600090565b634e487b7160e01b600052603260045260246000fd5b6021546001600160a01b0316330361119657565b60405163118cdaa760e01b8152336004820152602490fd5b60a0810190811067ffffffffffffffff8211176111ca57604052565b634e487b7160e01b600052604160045260246000fd5b90601f8019910116810190811067ffffffffffffffff8211176111ca57604052565b60001981146112115760010190565b634e487b7160e01b600052601160045260246000fd5b81519190604183036112585761125192506020820151906060604084015193015160001a90611263565b9192909190565b505060009160029190565b91907f7fffffffffffffffffffffffffffffff5d576e7357a4501ddfe92f46681b20a084116112e757926020929160ff608095604051948552168484015260408301526060820152600092839182805260015afa156112db5780516001600160a01b038116156112d257918190565b50809160019190565b604051903d90823e3d90fd5b50505060009160039190565b60048110156113625780611305575050565b6001810361131f5760405163f645eedf60e01b8152600490fd5b600281036113405760405163fce698f760e01b815260048101839052602490fd5b60031461134a5750565b602490604051906335e2f38360e21b82526004820152fd5b634e487b7160e01b600052602160045260246000fd5b90604051916040830183811067ffffffffffffffff8211176111ca576040528252602090818301526040519163014cf2b360e51b8352600483016000905b836002831061144257925084915060449050817f00000000000000000000000000000000000000000000000000000000000000006001600160a01b03165afa9081156114365760009161140a575b50905090565b82813d831161142f575b61141e81836111e0565b8101031261041a5750518038611404565b503d611414565b6040513d6000823e3d90fd5b8060019285518152019301910190916113b6565b80156114765760ff8111611211576001901b9063ffffffff821161121157565b50600190565b90600163ffffffff8093160191821161121157565b801561152a5763ffffffff8060025416918260019384805b6114b9575b505050505050600090565b1561151b575b600090601e908181101561112157806003015485146115125785918282161561150a575b501680156114f6576000190190856114a9565b634e487b7160e01b82526011600452602482fd5b9050386114e3565b50505050505090565b81848216036114bf57806114ae565b5060009056fe6f351e36c7babe44a5305e86f0248d29b31c4ecd9861b0ae6621b74c3c6615d2a26469706673582212208c5d1d96c89446213b906af02f7f2c4837857bb39bf5aec1333229fae6b6737764736f6c63430008140033",
  "linkReferences": {},
  "deployedLinkReferences": {}
}