{
  "_format": "hh-sol-artifact-1",
  "contractName": "KYCRegistry",
  "sourceName": "contracts/KYCRegistry.sol",
  "abi": [
    {
      "inputs": [
        {
          "internalType": "contract IHasher",
          "name": "_hasher",
          "type": "address"
        },
        {
          "internalType": "uint32",
          "name": "_merkleTreeHeight",
          "type": "uint32"
        },
        {
          "internalType": "address[]",
          "name": "_trustedIssuers",
          "type": "address[]"
        }
      ],
      "stateMutability": "nonpayable",
      "type": "constructor"
    },
    {
      "inputs": [
        {
          "internalType": "address",
          "name": "owner",
          "type": "address"
        }
      ],
      "name": "OwnableInvalidOwner",
      "type": "error"
    },
    {
      "inputs": [
        {
          "internalType": "address",
          "name": "account",
          "type": "address"
        }
      ],
      "name": "OwnableUnauthorizedAccount",
      "type": "error"
    },
    {
      "anonymous": false,
      "inputs": [
        {
          "indexed": true,
          "internalType": "bytes32",
          "name": "commitment",
          "type": "bytes32"
        },
        {
          "indexed": false,
          "internalType": "uint32",
          "name": "leafIndex",
          "type": "uint32"
        },
        {
          "indexed": false,
          "internalType": "bytes32",
          "name": "root",
          "type": "bytes32"
        }
      ],
      "name": "CommitmentAdded",
      "type": "event"
    },
    {
      "anonymous": false,
      "inputs": [
        {
          "indexed": true,
          "internalType": "address",
          "name": "previousOwner",
          "type": "address"
        },
        {
          "indexed": true,
          "internalType": "address",
          "name": "newOwner",
          "type": "address"
        }
      ],
      "name": "OwnershipTransferred",
      "type": "event"
    },
    {
      "anonymous": false,
      "inputs": [
        {
          "indexed": true,
          "internalType": "address",
          "name": "issuer",
          "type": "address"
        }
      ],
      "name": "TrustedIssuerAdded",
      "type": "event"
    },
    {
      "anonymous": false,
      "inputs": [
        {
          "indexed": true,
          "internalType": "address",
          "name": "issuer",
          "type": "address"
        }
      ],
      "name": "TrustedIssuerRemoved",
      "type": "event"
    },
    {
      "inputs": [],
      "name": "FIELD_SIZE",
      "outputs": [
        {
          "internalType": "uint256",
          "name": "",
          "type": "uint256"
        }
      ],
      "stateMutability": "view",
      "type": "function"
    },
    {
      "inputs": [],
      "name": "ROOT_HISTORY_SIZE",
      "outputs": [
        {
          "internalType": "uint32",
          "name": "",
          "type": "uint32"
        }
      ],
      "stateMutability": "view",
      "type": "function"
    },
    {
      "inputs": [],
      "name": "ZERO_VALUE",
      "outputs": [
        {
          "internalType": "uint256",
          "name": "",
          "type": "uint256"
        }
      ],
      "stateMutability": "view",
      "type": "function"
    },
    {
      "inputs": [
        {
          "internalType": "address",
          "name": "_issuer",
          "type": "address"
        }
      ],
      "name": "addTrustedIssuer",
      "outputs": [],
      "stateMutability": "nonpayable",
      "type": "function"
    },
    {
      "inputs": [
        {
          "internalType": "bytes32",
          "name": "",
          "type": "bytes32"
        }
      ],
      "name": "commitments",
      "outputs": [
        {
          "internalType": "bool",
          "name": "",
          "type": "bool"
        }
      ],
      "stateMutability": "view",
      "type": "function"
    },
    {
      "inputs": [],
      "name": "currentRootIndex",
      "outputs": [
        {
          "internalType": "uint32",
          "name": "",
          "type": "uint32"
        }
      ],
      "stateMutability": "view",
      "type": "function"
    },
    {
      "inputs": [
        {
          "internalType": "bytes32",
          "name": "_commitment",
          "type": "bytes32"
        }
      ],
      "name": "depositCommitment",
      "outputs": [],
      "stateMutability": "nonpayable",
      "type": "function"
    },
    {
      "inputs": [
        {
          "internalType": "uint256",
          "name": "",
          "type": "uint256"
        }
      ],
      "name": "filledSubtrees",
      "outputs": [
        {
          "internalType": "bytes32",
          "name": "",
          "type": "bytes32"
        }
      ],
      "stateMutability": "view",
      "type": "function"
    },
    {
      "inputs": [],
      "name": "getLastRoot",
      "outputs": [
        {
          "internalType": "bytes32",
          "name": "",
          "type": "bytes32"
        }
      ],
      "stateMutability": "view",
      "type": "function"
    },
    {
      "inputs": [
        {
          "internalType": "bytes32",
          "name": "_left",
          "type": "bytes32"
        },
        {
          "internalType": "bytes32",
          "name": "_right",
          "type": "bytes32"
        }
      ],
      "name": "hashLeftRight",
      "outputs": [
        {
          "internalType": "bytes32",
          "name": "",
          "type": "bytes32"
        }
      ],
      "stateMutability": "view",
      "type": "function"
    },
    {
      "inputs": [],
      "name": "hasher",
      "outputs": [
        {
          "internalType": "contract IHasher",
          "name": "",
          "type": "address"
        }
      ],
      "stateMutability": "view",
      "type": "function"
    },
    {
      "inputs": [
        {
          "internalType": "bytes32",
          "name": "_root",
          "type": "bytes32"
        }
      ],
      "name": "isKnownRoot",
      "outputs": [
        {
          "internalType": "bool",
          "name": "",
          "type": "bool"
        }
      ],
      "stateMutability": "view",
      "type": "function"
    },
    {
      "inputs": [
        {
          "internalType": "bytes32",
          "name": "_nullifierHash",
          "type": "bytes32"
        }
      ],
      "name": "isSpent",
      "outputs": [
        {
          "internalType": "bool",
          "name": "",
          "type": "bool"
        }
      ],
      "stateMutability": "view",
      "type": "function"
    },
    {
      "inputs": [],
      "name": "levels",
      "outputs": [
        {
          "internalType": "uint32",
          "name": "",
          "type": "uint32"
        }
      ],
      "stateMutability": "view",
      "type": "function"
    },
    {
      "inputs": [
        {
          "internalType": "bytes32",
          "name": "_nullifierHash",
          "type": "bytes32"
        }
      ],
      "name": "markNullifierSpent",
      "outputs": [],
      "stateMutability": "nonpayable",
      "type": "function"
    },
    {
      "inputs": [],
      "name": "nextIndex",
      "outputs": [
        {
          "internalType": "uint32",
          "name": "",
          "type": "uint32"
        }
      ],
      "stateMutability": "view",
      "type": "function"
    },
    {
      "inputs": [
        {
          "internalType": "bytes32",
          "name": "",
          "type": "bytes32"
        }
      ],
      "name": "nullifierHashes",
      "outputs": [
        {
          "internalType": "bool",
          "name": "",
          "type": "bool"
        }
      ],
      "stateMutability": "view",
      "type": "function"
    },
    {
      "inputs": [],
      "name": "owner",
      "outputs": [
        {
          "internalType": "address",
          "name": "",
          "type": "address"
        }
      ],
      "stateMutability": "view",
      "type": "function"
    },
    {
      "inputs": [
        {
          "internalType": "address",
          "name": "_issuer",
          "type": "address"
        }
      ],
      "name": "removeTrustedIssuer",
      "outputs": [],
      "stateMutability": "nonpayable",
      "type": "function"
    },
    {
      "inputs": [],
      "name": "renounceOwnership",
      "outputs": [],
      "stateMutability": "nonpayable",
      "type": "function"
    },
    {
      "inputs": [
        {
          "internalType": "uint256",
          "name": "",
          "type": "uint256"
        }
      ],
      "name": "roots",
      "outputs": [
        {
          "internalType": "bytes32",
          "name": "",
          "type": "bytes32"
        }
      ],
      "stateMutability": "view",
      "type": "function"
    },
    {
      "inputs": [
        {
          "internalType": "address",
          "name": "newOwner",
          "type": "address"
        }
      ],
      "name": "transferOwnership",
      "outputs": [],
      "stateMutability": "nonpayable",
      "type": "function"
    },
    {
      "inputs": [
        {
          "internalType": "address",
          "name": "",
          "type": "address"
        }
      ],
      "name": "trustedIssuers",
      "outputs": [
        {
          "internalType": "bool",
          "name": "",
          "type": "bool"
        }
      ],
      "stateMutability": "view",
      "type": "function"
    },
    {
      "inputs": [
        {
          "internalType": "uint256",
          "name": "",
          "type": "uint256"
        }
      ],
      "name": "zeros",
      "outputs": [
        {
          "internalType": "bytes32",
          "name": "",
          "type": "bytes32"
        }
      ],
      "stateMutability": "view",
      "type": "function"
    }
  ],
  "bytecode": "0x60c0604052600280546001600160401b03191690553480156200002157600080fd5b50604051620013d1380380620013d183398101604081905262000044916200041a565b33828460008263ffffffff1611620000af5760405162461bcd60e51b815260206004820152602360248201527f5f6c6576656c732073686f756c642062652067726561746572207468616e207a60448201526265726f60e81b60648201526084015b60405180910390fd5b60208263ffffffff1610620001075760405162461bcd60e51b815260206004820152601e60248201527f5f6c6576656c732073686f756c64206265206c657373207468616e20333200006044820152606401620000a6565b63ffffffff821660a0526001600160a01b0381166080526001805480820182556000600080516020620013b1833981519152909101819055805480830182558180526000805160206200139183398151915201819055905b8363ffffffff168163ffffffff161015620001d357620001808280620002f6565b600180548082018255600080516020620013b18339815191520182905560008054918201815580526000805160206200139183398151915201819055915080620001ca8162000538565b9150506200015f565b50620001e08180620002f6565b6003555050506001600160a01b0381166200021257604051631e4fbdf760e01b815260006004820152602401620000a6565b6200021d8162000387565b5060005b8151811015620002ec576001602460008484815181106200024657620002466200055e565b60200260200101516001600160a01b03166001600160a01b0316815260200190815260200160002060006101000a81548160ff0219169083151502179055508181815181106200029a576200029a6200055e565b60200260200101516001600160a01b03167f311d2b687f3241372ca29b49f84ab625de8e695cb75dc6f3126a2aad34bce0c560405160405180910390a280620002e38162000574565b91505062000221565b50505050620005dd565b60408051808201825283815260208101839052608051915163014cf2b360e51b81526000926001600160a01b03169063299e5660906200033b90849060040162000590565b602060405180830381865afa15801562000359573d6000803e3d6000fd5b505050506040513d601f19601f820116820180604052508101906200037f9190620005c3565b949350505050565b602180546001600160a01b038381166001600160a01b0319831681179093556040519116919082907f8be0079c531659141344cd1fd0a4f28419497f9722a3daafe3b4186f6b6457e090600090a35050565b6001600160a01b0381168114620003ef57600080fd5b50565b634e487b7160e01b600052604160045260246000fd5b80516200041581620003d9565b919050565b6000806000606084860312156200043057600080fd5b83516200043d81620003d9565b8093505060208085015163ffffffff811681146200045a57600080fd5b60408601519093506001600160401b03808211156200047857600080fd5b818701915087601f8301126200048d57600080fd5b815181811115620004a257620004a2620003f2565b8060051b604051601f19603f83011681018181108582111715620004ca57620004ca620003f2565b60405291825284820192508381018501918a831115620004e957600080fd5b938501935b828510156200051257620005028562000408565b84529385019392850192620004ee565b8096505050505050509250925092565b634e487b7160e01b600052601160045260246000fd5b600063ffffffff80831681810362000554576200055462000522565b6001019392505050565b634e487b7160e01b600052603260045260246000fd5b60006001820162000589576200058962000522565b5060010190565b60408101818360005b6002811015620005ba57815183526020928301929091019060010162000599565b50505092915050565b600060208284031215620005d657600080fd5b5051919050565b60805160a051610d7962000618600039600081816101f70152818161085001526108f1015260008181610363015261047c0152610d796000f3fe608060405234801561001057600080fd5b50600436106101585760003560e01c8063b93d28eb116100c3578063e82955881161007c578063e829558814610343578063ec73295914610356578063ed33639f1461035e578063f178e47c14610385578063f2fde38b14610398578063fc7e9c6f146103ab57600080fd5b8063b93d28eb146102d7578063ba70f757146102ea578063c2b40ae4146102f2578063c4566bdd14610305578063cd87a3b414610318578063e5285dcc1461032057600080fd5b8063715018a611610115578063715018a6146102415780637305651d14610249578063839df9451461025c5780638da5cb5b1461027f57806390eeb02b146102a457806392c54daf146102b457600080fd5b806317cc915c1461015d5780632c0002871461019557806338bf282e146101aa578063414a37ba146101cb5780634ecf518b146101f25780636d9833e31461022e575b600080fd5b61018061016b366004610a79565b60236020526000908152604090205460ff1681565b60405190151581526020015b60405180910390f35b6101a86101a3366004610a79565b6103c3565b005b6101bd6101b8366004610a92565b61044f565b60405190815260200161018c565b6101bd7f30644e72e131a029b85045b68181585d2833e84879b9709143e1f593f000000181565b6102197f000000000000000000000000000000000000000000000000000000000000000081565b60405163ffffffff909116815260200161018c565b61018061023c366004610a79565b6104fc565b6101a861057f565b6101a8610257366004610a79565b610593565b61018061026a366004610a79565b60226020526000908152604090205460ff1681565b6021546001600160a01b03165b6040516001600160a01b03909116815260200161018c565b6002546102199063ffffffff1681565b6101806102c2366004610ab4565b60246020526000908152604090205460ff1681565b6101a86102e5366004610ab4565b610666565b6101bd6106b7565b6101bd610300366004610a79565b6106dd565b6101a8610313366004610ab4565b6106f4565b610219601e81565b61018061032e366004610a79565b60009081526023602052604090205460ff1690565b6101bd610351366004610a79565b610748565b6101bd600081565b61028c7f000000000000000000000000000000000000000000000000000000000000000081565b6101bd610393366004610a79565b610769565b6101a86103a6366004610ab4565b610779565b60025461021990640100000000900463ffffffff1681565b6021546001600160a01b03163314806103eb57503360009081526024602052604090205460ff165b61042d5760405162461bcd60e51b815260206004820152600e60248201526d139bdd08185d5d1a1bdc9a5e995960921b60448201526064015b60405180910390fd5b61044c816000908152602360205260409020805460ff19166001179055565b50565b60408051808201825283815260208101839052905163014cf2b360e51b8152600091906001600160a01b037f0000000000000000000000000000000000000000000000000000000000000000169063299e5660906104b1908490600401610ae4565b602060405180830381865afa1580156104ce573d6000803e3d6000fd5b505050506040513d601f19601f820116820180604052508101906104f29190610b15565b9150505b92915050565b600081810361050d57506000919050565b60025463ffffffff16805b60038163ffffffff16601e811061053157610531610b2e565b01548403610543575060019392505050565b8063ffffffff166000036105555750601e5b8061055f81610b5a565b9150508163ffffffff168163ffffffff1603610518575060009392505050565b6105876107b4565b61059160006107e1565b565b60008181526022602052604090205460ff16156105f25760405162461bcd60e51b815260206004820152601960248201527f436f6d6d69746d656e7420616c726561647920657869737473000000000000006044820152606401610424565b60006105fd82610833565b6000838152602260205260409020805460ff191660011790559050817fa09501fad2192a164a95320e318ba13b8bd45a0e5007b8c933d6cf5d33dde6a8826106436106b7565b6040805163ffffffff909316835260208301919091520160405180910390a25050565b61066e6107b4565b6001600160a01b038116600081815260246020526040808220805460ff19169055517f2214ded40113cc3fb63fc206cafee88270b0a903dac7245d54efdde30ebb03219190a250565b60025460009060039063ffffffff16601e81106106d6576106d6610b2e565b0154905090565b600381601e81106106ed57600080fd5b0154905081565b6106fc6107b4565b6001600160a01b038116600081815260246020526040808220805460ff19166001179055517f311d2b687f3241372ca29b49f84ab625de8e695cb75dc6f3126a2aad34bce0c59190a250565b6001818154811061075857600080fd5b600091825260209091200154905081565b6000818154811061075857600080fd5b6107816107b4565b6001600160a01b0381166107ab57604051631e4fbdf760e01b815260006004820152602401610424565b61044c816107e1565b6021546001600160a01b031633146105915760405163118cdaa760e01b8152336004820152602401610424565b602180546001600160a01b038381166001600160a01b0319831681179093556040519116919082907f8be0079c531659141344cd1fd0a4f28419497f9722a3daafe3b4186f6b6457e090600090a35050565b6002805460009164010000000090910463ffffffff1690610875907f000000000000000000000000000000000000000000000000000000000000000090610c8b565b63ffffffff168163ffffffff16036108e85760405162461bcd60e51b815260206004820152603060248201527f4d65726b6c6520747265652069732066756c6c2e204e6f206d6f7265206c656160448201526f1d995cc818d85b88189948185919195960821b6064820152608401610424565b8083600080805b7f000000000000000000000000000000000000000000000000000000000000000063ffffffff168163ffffffff1610156109e45761092e600286610cb6565b63ffffffff1660000361098f5783925060018163ffffffff168154811061095757610957610b2e565b906000526020600020015491508360008263ffffffff168154811061097e5761097e610b2e565b6000918252602090912001556109b9565b60008163ffffffff16815481106109a8576109a8610b2e565b906000526020600020015492508391505b6109c3838361044f565b93506109d0600286610cd9565b9450806109dc81610cfc565b9150506108ef565b50600254600090601e906109ff9063ffffffff166001610d1f565b610a099190610cb6565b6002805463ffffffff191663ffffffff83169081179091559091508490600390601e8110610a3957610a39610b2e565b0155610a46866001610d1f565b6002805463ffffffff929092166401000000000267ffffffff000000001990921691909117905550939695505050505050565b600060208284031215610a8b57600080fd5b5035919050565b60008060408385031215610aa557600080fd5b50508035926020909101359150565b600060208284031215610ac657600080fd5b81356001600160a01b0381168114610add57600080fd5b9392505050565b60408101818360005b6002811015610b0c578151835260209283019290910190600101610aed565b50505092915050565b600060208284031215610b2757600080fd5b5051919050565b634e487b7160e01b600052603260045260246000fd5b634e487b7160e01b600052601160045260246000fd5b600063ffffffff821680610b7057610b70610b44565b6000190192915050565b600181815b80851115610bb7578163ffffffff04821115610b9d57610b9d610b44565b80851615610baa57918102915b93841c9390800290610b7f565b509250929050565b600082610bce575060016104f6565b81610bdb575060006104f6565b8160018114610bf15760028114610bfb57610c2c565b60019150506104f6565b60ff841115610c0c57610c0c610b44565b6001841b915063ffffffff821115610c2657610c26610b44565b506104f6565b5060208310610133831016604e8410600b8410161715610c63575081810a63ffffffff811115610c5e57610c5e610b44565b6104f6565b610c6d8383610b7a565b8063ffffffff04821115610c8357610c83610b44565b029392505050565b600063ffffffff6104f2818516828516610bbf565b634e487b7160e01b600052601260045260246000fd5b600063ffffffff80841680610ccd57610ccd610ca0565b92169190910692915050565b600063ffffffff80841680610cf057610cf0610ca0565b92169190910492915050565b600063ffffffff808316818103610d1557610d15610b44565b6001019392505050565b63ffffffff818116838216019080821115610d3c57610d3c610b44565b509291505056fea26469706673582212209a5b2d01226091693041ae63c809fd5cede6a7615de269a5a5f4e03fdd0fca4664736f6c63430008140033290decd9548b62a8d60345a988386fc84ba6bc95484008f6362f93160ef3e563b10e2d527612073b26eecdfd717e6a320cf44b4afac2b0732d9fcbe2b7fa0cf6",
  "linkReferences": {},
  "deployedLinkReferences": {}
}