{
  "_format": "hh-sol-artifact-1",
  "contractName": "MockHasher",
  "sourceName": "contracts/MockHasher.sol",
  "abi": [
    {
      "inputs": [
        {
          "internalType": "bytes32[2]",
          "name": "leftRight",
          "type": "bytes32[2]"
        }
      ],
      "name": "poseidon",
      "outputs": [
        {
          "internalType": "bytes32",
          "name": "",
          "type": "bytes32"
        }
      ],
      "stateMutability": "pure",
      "type": "function"
    }
  ],
  "bytecode": "0x608060405234801561001057600080fd5b5060d68061001f6000396000f3fe6080604052348015600f57600080fd5b506004361060285760003560e01c8063299e566014602d575b600080fd5b60686038366004607a565b60408051823560208083019190915292830135818301528151808203830181526060909101909152805191012090565b60405190815260200160405180910390f35b600060408284031215608b57600080fd5b82604083011115609a57600080fd5b5091905056fea26469706673582212202be38cba871125d7ad5e6befdb66923f37251c9ff41e6f2b4b519050ddd0633664736f6c63430008140033",
  "linkReferences": {},
  "deployedLinkReferences": {}
}