{
  "_format": "hh-sol-artifact-1",
  "contractName": "IdentityIssuer",
  "sourceName": "contracts/IdentityIssuer.sol",
  "abi": [
    {
      "inputs": [],
      "stateMutability": "nonpayable",
      "type": "constructor"
    },
    {
      "inputs": [],
      "name": "ECDSAInvalidSignature",
      "type": "error"
    },
    {
      "inputs": [
        {
          "internalType": "uint256",
          "name": "length",
          "type": "uint256"
        }
      ],
      "name": "ECDSAInvalidSignatureLength",
      "type": "error"
    },
    {
      "inputs": [
        {
          "internalType": "bytes32",
          "name": "s",
          "type": "bytes32"
        }
      ],
      "name": "ECDSAInvalidSignatureS",
      "type": "error"
    },
    {
      "inputs": [
        {
          "internalType": "address",
          "name": "owner",
          "type": "address"
        }
      ],
      "name": "OwnableInvalidOwner",
      "type": "error"
    },
    {
      "inputs": [
        {
          "internalType": "address",
          "name": "account",
          "type": "address"
        }
      ],
      "name": "OwnableUnauthorizedAccount",
      "type": "error"
    },
    {
      "inputs": [],
      "name": "ReentrancyGuardReentrantCall",
      "type": "error"
    },
    {
      "anonymous": false,
      "inputs": [
        {
          "indexed": true,
          "internalType": "bytes32",
          "name": "credentialId",
          "type": "bytes32"
        },
        {
          "indexed": true,
          "internalType": "address",
          "name": "holder",
          "type": "address"
        },
        {
          "indexed": true,
          "internalType": "bytes32",
          "name": "schemaId",
          "type": "bytes32"
        }
      ],
      "name": "CredentialIssued",
      "type": "event"
    },
    {
      "anonymous": false,
      "inputs": [
        {
          "indexed": true,
          "internalType": "bytes32",
          "name": "credentialId",
          "type": "bytes32"
        },
        {
          "indexed": true,
          "internalType": "address",
          "name": "holder",
          "type": "address"
        }
      ],
      "name": "CredentialRevoked",
      "type": "event"
    },
    {
      "anonymous": false,
      "inputs": [
        {
          "indexed": true,
          "internalType": "bytes32",
          "name": "schemaId",
          "type": "bytes32"
        },
        {
          "indexed": false,
          "internalType": "string",
          "name": "name",
          "type": "string"
        }
      ],
      "name": "CredentialSchemaCreated",
      "type": "event"
    },
    {
      "anonymous": false,
      "inputs": [
        {
          "indexed": true,
          "internalType": "address",
          "name": "holder",
          "type": "address"
        },
        {
          "indexed": false,
          "internalType": "uint256",
          "name": "verificationLevel",
          "type": "uint256"
        }
      ],
      "name": "IdentityAttributesUpdated",
      "type": "event"
    },
    {
      "anonymous": false,
      "inputs": [
        {
          "indexed": true,
          "internalType": "address",
          "name": "issuer",
          "type": "address"
        }
      ],
      "name": "IssuerAuthorized",
      "type": "event"
    },
    {
      "anonymous": false,
      "inputs": [
        {
          "indexed": true,
          "internalType": "address",
          "name": "issuer",
          "type": "address"
        }
      ],
      "name": "IssuerRevoked",
      "type": "event"
    },
    {
      "anonymous": false,
      "inputs": [
        {
          "indexed": true,
          "internalType": "address",
          "name": "previousOwner",
          "type": "address"
        },
        {
          "indexed": true,
          "internalType": "address",
          "name": "newOwner",
          "type": "address"
        }
      ],
      "name": "OwnershipTransferred",
      "type": "event"
    },
    {
      "inputs": [
        {
          "internalType": "address",
          "name": "issuer",
          "type": "address"
        }
      ],
      "name": "authorizeIssuer",
      "outputs": [],
      "stateMutability": "nonpayable",
      "type": "function"
    },
    {
      "inputs": [
        {
          "internalType": "address",
          "name": "",
          "type": "address"
        }
      ],
      "name": "authorizedIssuers",
      "outputs": [
        {
          "internalType": "bool",
          "name": "",
          "type": "bool"
        }
      ],
      "stateMutability": "view",
      "type": "function"
    },
    {
      "inputs": [
        {
          "internalType": "bytes32",
          "name": "schemaId",
          "type": "bytes32"
        },
        {
          "internalType": "string",
          "name": "name",
          "type": "string"
        },
        {
          "internalType": "string",
          "name": "description",
          "type": "string"
        },
        {
          "internalType": "string[]",
          "name": "requiredFields",
          "type": "string[]"
        },
        {
          "internalType": "uint256",
          "name": "validityPeriod",
          "type": "uint256"
        }
      ],
      "name": "createCredentialSchema",
      "outputs": [],
      "stateMutability": "nonpayable",
      "type": "function"
    },
    {
      "inputs": [
        {
          "internalType": "bytes32",
          "name": "",
          "type": "bytes32"
        }
      ],
      "name": "credentialSchemas",
      "outputs": [
        {
          "internalType": "string",
          "name": "name",
          "type": "string"
        },
        {
          "internalType": "string",
          "name": "description",
          "type": "string"
        },
        {
          "internalType": "uint256",
          "name": "validityPeriod",
          "type": "uint256"
        },
        {
          "internalType": "bool",
          "name": "active",
          "type": "bool"
        }
      ],
      "stateMutability": "view",
      "type": "function"
    },
    {
      "inputs": [
        {
          "internalType": "bytes32",
          "name": "schemaId",
          "type": "bytes32"
        }
      ],
      "name": "getCredentialSchema",
      "outputs": [
        {
          "internalType": "string",
          "name": "name",
          "type": "string"
        },
        {
          "internalType": "string",
          "name": "description",
          "type": "string"
        },
        {
          "internalType": "string[]",
          "name": "requiredFields",
          "type": "string[]"
        },
        {
          "internalType": "uint256",
          "name": "validityPeriod",
          "type": "uint256"
        },
        {
          "internalType": "bool",
          "name": "active",
          "type": "bool"
        }
      ],
      "stateMutability": "view",
      "type": "function"
    },
    {
      "inputs": [
        {
          "internalType": "address",
          "name": "holder",
          "type": "address"
        }
      ],
      "name": "getHolderCredentials",
      "outputs": [
        {
          "internalType": "bytes32[]",
          "name": "",
          "type": "bytes32[]"
        }
      ],
      "stateMutability": "view",
      "type": "function"
    },
    {
      "inputs": [
        {
          "internalType": "address",
          "name": "holder",
          "type": "address"
        }
      ],
      "name": "getIdentityAttributes",
      "outputs": [
        {
          "internalType": "string",
          "name": "name",
          "type": "string"
        },
        {
          "internalType": "string",
          "name": "dateOfBirth",
          "type": "string"
        },
        {
          "internalType": "string",
          "name": "nationality",
          "type": "string"
        },
        {
          "internalType": "string",
          "name": "governmentId",
          "type": "string"
        },
        {
          "internalType": "string",
          "name": "email",
          "type": "string"
        },
        {
          "internalType": "bool",
          "name": "verified",
          "type": "bool"
        },
        {
          "internalType": "uint256",
          "name": "verificationLevel",
          "type": "uint256"
        }
      ],
      "stateMutability": "view",
      "type": "function"
    },
    {
      "inputs": [
        {
          "internalType": "address",
          "name": "holder",
          "type": "address"
        }
      ],
      "name": "getVerificationLevel",
      "outputs": [
        {
          "internalType": "uint256",
          "name": "",
          "type": "uint256"
        }
      ],
      "stateMutability": "view",
      "type": "function"
    },
    {
      "inputs": [
        {
          "internalType": "address",
          "name": "",
          "type": "address"
        },
        {
          "internalType": "uint256",
          "name": "",
          "type": "uint256"
        }
      ],
      "name": "holderCredentials",
      "outputs": [
        {
          "internalType": "bytes32",
          "name": "",
          "type": "bytes32"
        }
      ],
      "stateMutability": "view",
      "type": "function"
    },
    {
      "inputs": [
        {
          "internalType": "address",
          "name": "",
          "type": "address"
        }
      ],
      "name": "identityAttributes",
      "outputs": [
        {
          "internalType": "string",
          "name": "name",
          "type": "string"
        },
        {
          "internalType": "string",
          "name": "dateOfBirth",
          "type": "string"
        },
        {
          "internalType": "string",
          "name": "nationality",
          "type": "string"
        },
        {
          "internalType": "string",
          "name": "governmentId",
          "type": "string"
        },
        {
          "internalType": "string",
          "name": "email",
          "type": "string"
        },
        {
          "internalType": "bool",
          "name": "verified",
          "type": "bool"
        },
        {
          "internalType": "uint256",
          "name": "verificationLevel",
          "type": "uint256"
        }
      ],
      "stateMutability": "view",
      "type": "function"
    },
    {
      "inputs": [
        {
          "internalType": "bytes32",
          "name": "credentialId",
          "type": "bytes32"
        },
        {
          "internalType": "bytes32",
          "name": "schemaId",
          "type": "bytes32"
        },
        {
          "internalType": "address",
          "name": "holder",
          "type": "address"
        },
        {
          "internalType": "bytes32",
          "name": "credentialHash",
          "type": "bytes32"
        },
        {
          "internalType": "string",
          "name": "metadataURI",
          "type": "string"
        }
      ],
      "name": "issueCredential",
      "outputs": [],
      "stateMutability": "nonpayable",
      "type": "function"
    },
    {
      "inputs": [
        {
          "internalType": "bytes32",
          "name": "",
          "type": "bytes32"
        }
      ],
      "name": "issuedCredentials",
      "outputs": [
        {
          "internalType": "bytes32",
          "name": "schemaId",
          "type": "bytes32"
        },
        {
          "internalType": "address",
          "name": "holder",
          "type": "address"
        },
        {
          "internalType": "bytes32",
          "name": "credentialHash",
          "type": "bytes32"
        },
        {
          "internalType": "uint256",
          "name": "issuedAt",
          "type": "uint256"
        },
        {
          "internalType": "uint256",
          "name": "expiresAt",
          "type": "uint256"
        },
        {
          "internalType": "bool",
          "name": "revoked",
          "type": "bool"
        },
        {
          "internalType": "string",
          "name": "metadataURI",
          "type": "string"
        }
      ],
      "stateMutability": "view",
      "type": "function"
    },
    {
      "inputs": [],
      "name": "owner",
      "outputs": [
        {
          "internalType": "address",
          "name": "",
          "type": "address"
        }
      ],
      "stateMutability": "view",
      "type": "function"
    },
    {
      "inputs": [],
      "name": "renounceOwnership",
      "outputs": [],
      "stateMutability": "nonpayable",
      "type": "function"
    },
    {
      "inputs": [
        {
          "internalType": "bytes32",
          "name": "credentialId",
          "type": "bytes32"
        }
      ],
      "name": "revokeCredential",
      "outputs": [],
      "stateMutability": "nonpayable",
      "type": "function"
    },
    {
      "inputs": [
        {
          "internalType": "address",
          "name": "issuer",
          "type": "address"
        }
      ],
      "name": "revokeIssuerAuthorization",
      "outputs": [],
      "stateMutability": "nonpayable",
      "type": "function"
    },
    {
      "inputs": [
        {
          "internalType": "bytes32",
          "name": "",
          "type": "bytes32"
        }
      ],
      "name": "revokedCredentials",
      "outputs": [
        {
          "internalType": "bool",
          "name": "",
          "type": "bool"
        }
      ],
      "stateMutability": "view",
      "type": "function"
    },
    {
      "inputs": [
        {
          "internalType": "address",
          "name": "newOwner",
          "type": "address"
        }
      ],
      "name": "transferOwnership",
      "outputs": [],
      "stateMutability": "nonpayable",
      "type": "function"
    },
    {
      "inputs": [
        {
          "internalType": "address",
          "name": "holder",
          "type": "address"
        },
        {
          "internalType": "string",
          "name": "name",
          "type": "string"
        },
        {
          "internalType": "string",
          "name": "dateOfBirth",
          "type": "string"
        },
        {
          "internalType": "string",
          "name": "nationality",
          "type": "string"
        },
        {
          "internalType": "string",
          "name": "governmentId",
          "type": "string"
        },
        {
          "internalType": "string",
          "name": "email",
          "type": "string"
        },
        {
          "internalType": "uint256",
          "name": "verificationLevel",
          "type": "uint256"
        }
      ],
      "name": "updateIdentityAttributes",
      "outputs": [],
      "stateMutability": "nonpayable",
      "type": "function"
    },
    {
      "inputs": [
        {
          "internalType": "bytes32",
          "name": "schemaId",
          "type": "bytes32"
        },
        {
          "internalType": "bool",
          "name": "active",
          "type": "bool"
        }
      ],
      "name": "updateSchemaStatus",
      "outputs": [],
      "stateMutability": "nonpayable",
      "type": "function"
    },
    {
      "inputs": [
        {
          "internalType": "bytes32",
          "name": "credentialId",
          "type": "bytes32"
        }
      ],
      "name": "verifyCredential",
      "outputs": [
        {
          "internalType": "bool",
          "name": "",
          "type": "bool"
        }
      ],
      "stateMutability": "view",
      "type": "function"
    },
    {
      "inputs": [
        {
          "internalType": "bytes32",
          "name": "credentialId",
          "type": "bytes32"
        },
        {
          "internalType": "bytes32",
          "name": "message",
          "type": "bytes32"
        },
        {
          "internalType": "bytes",
          "name": "signature",
          "type": "bytes"
        }
      ],
      "name": "verifyCredentialOwnership",
      "outputs": [
        {
          "internalType": "bool",
          "name": "",
          "type": "bool"
        }
      ],
      "stateMutability": "view",
      "type": "function"
    }
  ],
  "bytecode": "0x608060405234801561001057600080fd5b50338061003757604051631e4fbdf760e01b81526000600482015260240160405180910390fd5b61004081610065565b506001808055336000908152600660205260409020805460ff191690911790556100b5565b600080546001600160a01b038381166001600160a01b0319831681178455604051919092169283917f8be0079c531659141344cd1fd0a4f28419497f9722a3daafe3b4186f6b6457e09190a35050565b61262280620000c56000396000f3fe608060405234801561001057600080fd5b50600436106101425760003560e01c80637d464a60116100b8578063ca6eec781161007c578063ca6eec7814610316578063f2fde38b14610329578063f42495761461033c578063f4f7a8151461034f578063f731fa0f14610362578063fa9677181461038557600080fd5b80637d464a60146102925780638d184432146102a55780638da5cb5b146102c5578063a2bee835146102e0578063ba0761fd146102f357600080fd5b8063436693d51161010a578063436693d5146102075780634dbf87cc1461021a57806350333c6d1461022d5780635cb7556c14610253578063715018a61461026657806371aa32a11461026e57600080fd5b806313f511d8146101475780631e48169d1461015c57806320e21535146101825780632309cbbb146101ae578063249b92a0146101d4575b600080fd5b61015a610155366004611e76565b610398565b005b61016f61016a366004611fb0565b6104e1565b6040519081526020015b60405180910390f35b61016f610190366004611fda565b6001600160a01b031660009081526005602052604090206006015490565b6101c16101bc366004611fda565b610512565b604051610179979695949392919061203b565b6101f76101e23660046120b3565b60076020526000908152604090205460ff1681565b6040519015158152602001610179565b61015a610215366004611fda565b61087d565b6101f76102283660046120b3565b6108d1565b61024061023b3660046120b3565b610a1a565b60405161017997969594939291906120cc565b61015a61026136600461211a565b610af2565b61015a610b78565b61028161027c3660046120b3565b610b8c565b60405161017995949392919061214f565b6101c16102a0366004611fda565b610df6565b6102b86102b3366004611fda565b6110dc565b60405161017991906121ed565b6000546040516001600160a01b039091168152602001610179565b6101f76102ee366004612231565b611148565b6103066103013660046120b3565b6112ec565b6040516101799493929190612295565b61015a6103243660046120b3565b611428565b61015a610337366004611fda565b611590565b61015a61034a3660046122d3565b6115ce565b61015a61035d366004611fda565b61183e565b6101f7610370366004611fda565b60066020526000908152604090205460ff1681565b61015a61039336600461233e565b61188f565b6103a0611a4e565b600085815260026020526040902080546103b99061242a565b1590506104055760405162461bcd60e51b8152602060048201526015602482015274536368656d6120616c72656164792065786973747360581b60448201526064015b60405180910390fd5b6040805160a0810182528581526020808201869052818301859052606082018490526001608083015260008881526002909152919091208151819061044a90826124b3565b506020820151600182019061045f90826124b3565b506040820151805161047b916002840191602090910190611cfa565b50606082015160038201556080909101516004909101805460ff191691151591909117905560405185907f2064557a7b77e68343335fccebda930f62fdfab87759cd8c264388ce376eae45906104d2908790612573565b60405180910390a25050505050565b600460205281600052604060002081815481106104fd57600080fd5b90600052602060002001600091509150505481565b60608060608060606000806000600560008a6001600160a01b03166001600160a01b031681526020019081526020016000206040518060e001604052908160008201805461055f9061242a565b80601f016020809104026020016040519081016040528092919081815260200182805461058b9061242a565b80156105d85780601f106105ad576101008083540402835291602001916105d8565b820191906000526020600020905b8154815290600101906020018083116105bb57829003601f168201915b505050505081526020016001820180546105f19061242a565b80601f016020809104026020016040519081016040528092919081815260200182805461061d9061242a565b801561066a5780601f1061063f5761010080835404028352916020019161066a565b820191906000526020600020905b81548152906001019060200180831161064d57829003601f168201915b505050505081526020016002820180546106839061242a565b80601f01602080910402602001604051908101604052809291908181526020018280546106af9061242a565b80156106fc5780601f106106d1576101008083540402835291602001916106fc565b820191906000526020600020905b8154815290600101906020018083116106df57829003601f168201915b505050505081526020016003820180546107159061242a565b80601f01602080910402602001604051908101604052809291908181526020018280546107419061242a565b801561078e5780601f106107635761010080835404028352916020019161078e565b820191906000526020600020905b81548152906001019060200180831161077157829003601f168201915b505050505081526020016004820180546107a79061242a565b80601f01602080910402602001604051908101604052809291908181526020018280546107d39061242a565b80156108205780601f106107f557610100808354040283529160200191610820565b820191906000526020600020905b81548152906001019060200180831161080357829003601f168201915b5050509183525050600582015460ff161515602080830191909152600690920154604091820152825191830151908301516060840151608085015160a086015160c090960151949f939e50919c509a509850919650945092505050565b610885611a4e565b6001600160a01b038116600081815260066020526040808220805460ff19166001179055517f8b4006ca14f23d4e7aa8d120d1ab7c3761d650eefac1a5d6732dbea94b54ea249190a250565b6000818152600360208181526040808420815160e0810183528154815260018201546001600160a01b03169381019390935260028101549183019190915291820154606082015260048201546080820152600582015460ff16151560a082015260068201805484939160c08401916109489061242a565b80601f01602080910402602001604051908101604052809291908181526020018280546109749061242a565b80156109c15780601f10610996576101008083540402835291602001916109c1565b820191906000526020600020905b8154815290600101906020018083116109a457829003601f168201915b5050509190925250505060208101519091506001600160a01b03166109e95750600092915050565b8060a00151156109fc5750600092915050565b8060800151421115610a115750600092915050565b50600192915050565b6003602081905260009182526040909120805460018201546002830154938301546004840154600585015460068601805495976001600160a01b039095169694959394929360ff9092169291610a6f9061242a565b80601f0160208091040260200160405190810160405280929190818152602001828054610a9b9061242a565b8015610ae85780601f10610abd57610100808354040283529160200191610ae8565b820191906000526020600020905b815481529060010190602001808311610acb57829003601f168201915b5050505050905087565b610afa611a4e565b60008281526002602052604081208054610b139061242a565b905011610b555760405162461bcd60e51b815260206004820152601060248201526f14d8da195b58481b9bdd08199bdd5b9960821b60448201526064016103fc565b600091825260026020526040909120600401805460ff1916911515919091179055565b610b80611a4e565b610b8a6000611a7b565b565b60608060606000806000600260008881526020019081526020016000206040518060a0016040529081600082018054610bc49061242a565b80601f0160208091040260200160405190810160405280929190818152602001828054610bf09061242a565b8015610c3d5780601f10610c1257610100808354040283529160200191610c3d565b820191906000526020600020905b815481529060010190602001808311610c2057829003601f168201915b50505050508152602001600182018054610c569061242a565b80601f0160208091040260200160405190810160405280929190818152602001828054610c829061242a565b8015610ccf5780601f10610ca457610100808354040283529160200191610ccf565b820191906000526020600020905b815481529060010190602001808311610cb257829003601f168201915b5050505050815260200160028201805480602002602001604051908101604052809291908181526020016000905b82821015610da9578382906000526020600020018054610d1c9061242a565b80601f0160208091040260200160405190810160405280929190818152602001828054610d489061242a565b8015610d955780601f10610d6a57610100808354040283529160200191610d95565b820191906000526020600020905b815481529060010190602001808311610d7857829003601f168201915b505050505081526020019060010190610cfd565b50505090825250600382015460208083019190915260049092015460ff161515604091820152825191830151908301516060840151608090940151929b919a509850919650945092505050565b600560205260009081526040902080548190610e119061242a565b80601f0160208091040260200160405190810160405280929190818152602001828054610e3d9061242a565b8015610e8a5780601f10610e5f57610100808354040283529160200191610e8a565b820191906000526020600020905b815481529060010190602001808311610e6d57829003601f168201915b505050505090806001018054610e9f9061242a565b80601f0160208091040260200160405190810160405280929190818152602001828054610ecb9061242a565b8015610f185780601f10610eed57610100808354040283529160200191610f18565b820191906000526020600020905b815481529060010190602001808311610efb57829003601f168201915b505050505090806002018054610f2d9061242a565b80601f0160208091040260200160405190810160405280929190818152602001828054610f599061242a565b8015610fa65780601f10610f7b57610100808354040283529160200191610fa6565b820191906000526020600020905b815481529060010190602001808311610f8957829003601f168201915b505050505090806003018054610fbb9061242a565b80601f0160208091040260200160405190810160405280929190818152602001828054610fe79061242a565b80156110345780601f1061100957610100808354040283529160200191611034565b820191906000526020600020905b81548152906001019060200180831161101757829003601f168201915b5050505050908060040180546110499061242a565b80601f01602080910402602001604051908101604052809291908181526020018280546110759061242a565b80156110c25780601f10611097576101008083540402835291602001916110c2565b820191906000526020600020905b8154815290600101906020018083116110a557829003601f168201915b505050506005830154600690930154919260ff1691905087565b6001600160a01b03811660009081526004602090815260409182902080548351818402810184019094528084526060939283018282801561113c57602002820191906000526020600020905b815481526020019060010190808311611128575b50505050509050919050565b6000838152600360208181526040808420815160e0810183528154815260018201546001600160a01b03169381019390935260028101549183019190915291820154606082015260048201546080820152600582015460ff16151560a082015260068201805484939160c08401916111bf9061242a565b80601f01602080910402602001604051908101604052809291908181526020018280546111eb9061242a565b80156112385780601f1061120d57610100808354040283529160200191611238565b820191906000526020600020905b81548152906001019060200180831161121b57829003601f168201915b5050509190925250505060208101519091506001600160a01b03166112615760009150506112e5565b604080516020808201879052818301889052825180830384018152606090920190925280519101207f19457468657265756d205369676e6564204d6573736167653a0a3332000000006000908152601c829052603c8120906112c38287611acb565b905083602001516001600160a01b0316816001600160a01b0316149450505050505b9392505050565b6002602052600090815260409020805481906113079061242a565b80601f01602080910402602001604051908101604052809291908181526020018280546113339061242a565b80156113805780601f1061135557610100808354040283529160200191611380565b820191906000526020600020905b81548152906001019060200180831161136357829003601f168201915b5050505050908060010180546113959061242a565b80601f01602080910402602001604051908101604052809291908181526020018280546113c19061242a565b801561140e5780601f106113e35761010080835404028352916020019161140e565b820191906000526020600020905b8154815290600101906020018083116113f157829003601f168201915b50505050600383015460049093015491929160ff16905084565b3360009081526006602052604090205460ff168061145057506000546001600160a01b031633145b61146c5760405162461bcd60e51b81526004016103fc90612586565b6000818152600360205260409020600101546001600160a01b03166114ca5760405162461bcd60e51b815260206004820152601460248201527310dc9959195b9d1a585b081b9bdd08199bdd5b9960621b60448201526064016103fc565b60008181526003602052604090206005015460ff161561151e5760405162461bcd60e51b815260206004820152600f60248201526e105b1c9958591e481c995d9bdad959608a1b60448201526064016103fc565b6000818152600360208181526040808420600581018054600160ff199182168117909255600785528387208054909116821790559390925291015490516001600160a01b039091169183917fd3196f598a360c115a1de20d5a58021203793f1bf1a08efe55ee14545779606d9190a350565b611598611a4e565b6001600160a01b0381166115c257604051631e4fbdf760e01b8152600060048201526024016103fc565b6115cb81611a7b565b50565b3360009081526006602052604090205460ff16806115f657506000546001600160a01b031633145b6116125760405162461bcd60e51b81526004016103fc90612586565b61161a611af7565b60008481526002602052604090206004015460ff1661166f5760405162461bcd60e51b8152602060048201526011602482015270536368656d61206e6f742061637469766560781b60448201526064016103fc565b6000858152600360205260409020600101546001600160a01b0316156116d75760405162461bcd60e51b815260206004820152601960248201527f43726564656e7469616c20616c7265616479206973737565640000000000000060448201526064016103fc565b6000848152600260205260408120600301546116f390426125b5565b90506040518060e00160405280868152602001856001600160a01b0316815260200184815260200142815260200182815260200160001515815260200183815250600360008881526020019081526020016000206000820151816000015560208201518160010160006101000a8154816001600160a01b0302191690836001600160a01b0316021790555060408201518160020155606082015181600301556080820151816004015560a08201518160050160006101000a81548160ff02191690831515021790555060c08201518160060190816117d191906124b3565b5050506001600160a01b038416600081815260046020908152604080832080546001810182559084529183209091018990555187929189917f748fb83469eb0f0968a0ef08082f31fc39a25980077574b99c4cf28b596106839190a45061183760018055565b5050505050565b611846611a4e565b6001600160a01b038116600081815260066020526040808220805460ff19169055517f95a4c2ae425bb769549aa1a911911ff57c17ae811ae8c8962d0b9746fcb153979190a250565b3360009081526006602052604090205460ff16806118b757506000546001600160a01b031633145b6118d35760405162461bcd60e51b81526004016103fc90612586565b600181101580156118e5575060058111155b6119315760405162461bcd60e51b815260206004820152601a60248201527f496e76616c696420766572696669636174696f6e206c6576656c00000000000060448201526064016103fc565b6040805160e08101825287815260208082018890528183018790526060820186905260808201859052600160a083015260c082018490526001600160a01b038a1660009081526005909152919091208151819061198e90826124b3565b50602082015160018201906119a390826124b3565b50604082015160028201906119b890826124b3565b50606082015160038201906119cd90826124b3565b50608082015160048201906119e290826124b3565b5060a082015160058201805460ff191691151591909117905560c0909101516006909101556040518181526001600160a01b038816907ff2f9d18a7595fb73bef7f3aa296e0709811cf17bd302073c833e170474622ae69060200160405180910390a250505050505050565b6000546001600160a01b03163314610b8a5760405163118cdaa760e01b81523360048201526024016103fc565b600080546001600160a01b038381166001600160a01b0319831681178455604051919092169283917f8be0079c531659141344cd1fd0a4f28419497f9722a3daafe3b4186f6b6457e09190a35050565b600080600080611adb8686611b21565b925092509250611aeb8282611b6e565b50909150505b92915050565b600260015403611b1a57604051633ee5aeb560e01b815260040160405180910390fd5b6002600155565b60008060008351604103611b5b5760208401516040850151606086015160001a611b4d88828585611c2b565b955095509550505050611b67565b50508151600091506002905b9250925092565b6000826003811115611b8257611b826125d6565b03611b8b575050565b6001826003811115611b9f57611b9f6125d6565b03611bbd5760405163f645eedf60e01b815260040160405180910390fd5b6002826003811115611bd157611bd16125d6565b03611bf25760405163fce698f760e01b8152600481018290526024016103fc565b6003826003811115611c0657611c066125d6565b03611c27576040516335e2f38360e21b8152600481018290526024016103fc565b5050565b600080807f7fffffffffffffffffffffffffffffff5d576e7357a4501ddfe92f46681b20a0841115611c665750600091506003905082611cf0565b604080516000808252602082018084528a905260ff891692820192909252606081018790526080810186905260019060a0016020604051602081039080840390855afa158015611cba573d6000803e3d6000fd5b5050604051601f1901519150506001600160a01b038116611ce657506000925060019150829050611cf0565b9250600091508190505b9450945094915050565b828054828255906000526020600020908101928215611d40579160200282015b82811115611d405782518290611d3090826124b3565b5091602001919060010190611d1a565b50611d4c929150611d50565b5090565b80821115611d4c576000611d648282611d6d565b50600101611d50565b508054611d799061242a565b6000825580601f10611d89575050565b601f0160209004906000526020600020908101906115cb91905b80821115611d4c5760008155600101611da3565b634e487b7160e01b600052604160045260246000fd5b604051601f8201601f1916810167ffffffffffffffff81118282101715611df657611df6611db7565b604052919050565b600067ffffffffffffffff831115611e1857611e18611db7565b611e2b601f8401601f1916602001611dcd565b9050828152838383011115611e3f57600080fd5b828260208301376000602084830101529392505050565b600082601f830112611e6757600080fd5b6112e583833560208501611dfe565b600080600080600060a08688031215611e8e57600080fd5b8535945060208087013567ffffffffffffffff80821115611eae57600080fd5b611eba8a838b01611e56565b96506040890135915080821115611ed057600080fd5b611edc8a838b01611e56565b95506060890135915080821115611ef257600080fd5b818901915089601f830112611f0657600080fd5b813581811115611f1857611f18611db7565b8060051b611f27858201611dcd565b918252838101850191858101908d841115611f4157600080fd5b86860192505b83831015611f7d57823585811115611f5f5760008081fd5b611f6d8f89838a0101611e56565b8352509186019190860190611f47565b9a9d999c50979a6080013598975050505050505050565b80356001600160a01b0381168114611fab57600080fd5b919050565b60008060408385031215611fc357600080fd5b611fcc83611f94565b946020939093013593505050565b600060208284031215611fec57600080fd5b6112e582611f94565b6000815180845260005b8181101561201b57602081850181015186830182015201611fff565b506000602082860101526020601f19601f83011685010191505092915050565b60e08152600061204e60e083018a611ff5565b8281036020840152612060818a611ff5565b905082810360408401526120748189611ff5565b905082810360608401526120888188611ff5565b9050828103608084015261209c8187611ff5565b94151560a0840152505060c0015295945050505050565b6000602082840312156120c557600080fd5b5035919050565b87815260018060a01b038716602082015285604082015284606082015283608082015282151560a082015260e060c0820152600061210d60e0830184611ff5565b9998505050505050505050565b6000806040838503121561212d57600080fd5b823591506020830135801515811461214457600080fd5b809150509250929050565b60a08152600061216260a0830188611ff5565b6020838203818501526121758289611ff5565b915083820360408501528187518084528284019150828160051b850101838a0160005b838110156121c657601f198784030185526121b4838351611ff5565b94860194925090850190600101612198565b505060608701899052871515608088015294506121e39350505050565b9695505050505050565b6020808252825182820181905260009190848201906040850190845b8181101561222557835183529284019291840191600101612209565b50909695505050505050565b60008060006060848603121561224657600080fd5b8335925060208401359150604084013567ffffffffffffffff81111561226b57600080fd5b8401601f8101861361227c57600080fd5b61228b86823560208401611dfe565b9150509250925092565b6080815260006122a86080830187611ff5565b82810360208401526122ba8187611ff5565b6040840195909552505090151560609091015292915050565b600080600080600060a086880312156122eb57600080fd5b853594506020860135935061230260408701611f94565b925060608601359150608086013567ffffffffffffffff81111561232557600080fd5b61233188828901611e56565b9150509295509295909350565b600080600080600080600060e0888a03121561235957600080fd5b61236288611f94565b9650602088013567ffffffffffffffff8082111561237f57600080fd5b61238b8b838c01611e56565b975060408a01359150808211156123a157600080fd5b6123ad8b838c01611e56565b965060608a01359150808211156123c357600080fd5b6123cf8b838c01611e56565b955060808a01359150808211156123e557600080fd5b6123f18b838c01611e56565b945060a08a013591508082111561240757600080fd5b506124148a828b01611e56565b92505060c0880135905092959891949750929550565b600181811c9082168061243e57607f821691505b60208210810361245e57634e487b7160e01b600052602260045260246000fd5b50919050565b601f8211156124ae57600081815260208120601f850160051c8101602086101561248b5750805b601f850160051c820191505b818110156124aa57828155600101612497565b5050505b505050565b815167ffffffffffffffff8111156124cd576124cd611db7565b6124e1816124db845461242a565b84612464565b602080601f83116001811461251657600084156124fe5750858301515b600019600386901b1c1916600185901b1785556124aa565b600085815260208120601f198616915b8281101561254557888601518255948401946001909101908401612526565b50858210156125635787850151600019600388901b60f8161c191681555b5050505050600190811b01905550565b6020815260006112e56020830184611ff5565b6020808252601590820152742737ba1030baba3437b934bd32b21034b9b9bab2b960591b604082015260600190565b80820180821115611af157634e487b7160e01b600052601160045260246000fd5b634e487b7160e01b600052602160045260246000fdfea26469706673582212202dddda6be637e110f423ee75d0392474ebd47a148fa16837262296d93c9761d464736f6c63430008140033",
  "linkReferences": {},
  "deployedLinkReferences": {}
}