{
  "_format": "hh-sol-artifact-1",
  "contractName": "Verifier",
  "sourceName": "contracts/Verifier.sol",
  "abi": [
    {
      "inputs": [
        {
          "internalType": "uint256[2]",
          "name": "_pA",
          "type": "uint256[2]"
        },
        {
          "internalType": "uint256[2][2]",
          "name": "_pB",
          "type": "uint256[2][2]"
        },
        {
          "internalType": "uint256[2]",
          "name": "_pC",
          "type": "uint256[2]"
        },
        {
          "internalType": "uint256[1]",
          "name": "_pubSignals",
          "type": "uint256[1]"
        }
      ],
      "name": "verifyProof",
      "outputs": [
        {
          "internalType": "bool",
          "name": "",
          "type": "bool"
        }
      ],
      "stateMutability": "view",
      "type": "function"
    }
  ],
  "bytecode": "0x608060405234801561001057600080fd5b5061055e806100206000396000f3fe608060405234801561001057600080fd5b506004361061002b5760003560e01c806343753b4d14610030575b600080fd5b61004361003e3660046104c2565b610057565b604051901515815260200160405180910390f35b600061047a565b7f30644e72e131a029b85045b68181585d2833e84879b9709143e1f593f0000001811061008f576000805260206000f35b50565b600060405183815284602082015285604082015260408160608360076107d05a03fa9150816100c5576000805260206000f35b825160408201526020830151606082015260408360808360066107d05a03fa915050806100f6576000805260206000f35b5050505050565b7f2349fb789e2b1e5def7cd5e4af681078a32b9e937a96402bff38c8bb78e8a7a085527f0c8f57553110251bc9ce6c3ca5e5e75cd43bb9f7a2d38108d7eb41170a65f9ea60208601526000608086018661019a87357f15b02f7c0f678a71d44d0863ebdef563e2a8417571121d2e3046a80285e52a337f0b0b551bc79613e45335397509a99855d2a5c8c00e76d974cb4f2f2ad17c5d8f84610092565b50823581527f30644e72e131a029b85045b68181585d97816a916871ca8d3c208c16d87cfd4760208401357f30644e72e131a029b85045b68181585d97816a916871ca8d3c208c16d87cfd4703066020820152833560408201526020840135606082015260408401356080820152606084013560a08201527f0418c7d7bd15b640310e3ac2aa15f26af8de2726ad48527213d41d38e60e390d60c08201527f0fea06f81f0db6975e73b97346aa6e10a0be511b378c493ff2a4c88f6ea6fcd460e08201527f1dea6e8ebf8d484f0cb8f5f5229e78e541b031f7130d34a6c7663d2e2e32655d6101008201527f0173131437bb56806787606b2a8ff753bee70fd01c77fa69d1c87393eca810446101208201527f01a5e4295b06084623f413a4eefe909314ba7106faec3fedec9dd13d8f4e47066101408201527f2855d0a1f90d3f22844fc26f927497ee612c5b16f9b9026ed4d0835cae5926ec610160820152600087015161018082015260206000018701516101a08201527f198e9393920d483a7260bfb731fb5d25f1aa493335a9e71297e485b7aef312c26101c08201527f1800deef121f1e76426a00665e5c4479674322d4f75edadd46debd5cd992f6ed6101e08201527f090689d0585ff075ec9e99ad690c3395bc4b313370b38ef355acdadcd122975b6102008201527f12c85ea5db8c6deb4aab71808dcb408fe3d1e7690c43d37b4ce6cc0166fa7daa610220820152843561024082015260208501356102608201527f27e3cd559dd5a5101fba68351b6ef39413e68a1222b93dac25d5b9f2b76b4ba16102808201527f08aa0f778de15ce1ef4908eb4e1d44a584227fb7a098d5b16ae0570cbbe2f72c6102a08201527f219f2f5db638a89a7a99b2dcf925c4fdcc0ac39932c25adf3f83159531a07bf86102c08201527f05620f97d361c3fe8070d49d396cc2832fd097521ef08be583cbc7c1a607b2976102e08201526020816103008360086107d05a03fa9051169695505050505050565b6040516103808101604052610492600084013561005e565b61049f818486888a6100fd565b90508060005260206000f35b80604081018310156104bc57600080fd5b92915050565b6000806000806101208086880312156104da57600080fd5b6104e487876104ab565b945060c08601878111156104f757600080fd5b60408701945061050788826104ab565b93505086818701111561051957600080fd5b5092959194509261010001915056fea26469706673582212200f0831867ba3def9a505939caa09b1041831783c02b278b6f7d18cb89111bfd764736f6c63430008140033",
  "linkReferences": {},
  "deployedLinkReferences": {}
}