{
  "_format": "hh-sol-artifact-1",
  "contractName": "SimpleHasher",
  "sourceName": "contracts/SimpleHasher.sol",
  "abi": [
    {
      "inputs": [
        {
          "internalType": "bytes32[2]",
          "name": "leftRight",
          "type": "bytes32[2]"
        }
      ],
      "name": "poseidon",
      "outputs": [
        {
          "internalType": "bytes32",
          "name": "",
          "type": "bytes32"
        }
      ],
      "stateMutability": "pure",
      "type": "function"
    }
  ],
  "bytecode": "0x608080604052346100155760c3908161001b8239f35b600080fdfe60806004361015600e57600080fd5b600090813560e01c63299e566014602457600080fd5b34608957604036600319011260895736604411608957602081016004358152602435604083015260408252606082019180831067ffffffffffffffff84111760755760209350826040525190208152f35b634e487b7160e01b84526041600452602484fd5b5080fdfea26469706673582212201d5da85fa0be38e1dc92e447d9fc7bab88366af984858e68f8296b2fd858236b64736f6c63430008140033",
  "linkReferences": {},
  "deployedLinkReferences": {}
}